{
  "abi": [
    {
      "inputs": [
        {
          "internalType": "string",
          "name": "name_",
          "type": "string"
        },
        {
          "internalType": "string",
          "name": "symbol_",
          "type": "string"
        },
        {
          "internalType": "contract IERC20",
          "name": "bt_",
          "type": "address"
        },
        {
          "internalType": "contract IERC20",
          "name": "st_",
          "type": "address"
        }
      ],
      "stateMutability": "nonpayable",
      "type": "constructor"
    },
    {
      "inputs": [
        {
          "internalType": "address",
          "name": "acc",
          "type": "address"
        }
      ],
      "name": "WlMember",
      "outputs": [
        {
          "internalType": "bool",
          "name": "",
          "type": "bool"
        }
      ],
      "stateMutability": "view",
      "type": "function"
    },
    {
      "inputs": [],
      "name": "_bt",
      "outputs": [
        {
          "internalType": "contract IERC20",
          "name": "",
          "type": "address"
        }
      ],
      "stateMutability": "view",
      "type": "function"
    },
    {
      "inputs": [],
      "name": "_st",
      "outputs": [
        {
          "internalType": "contract IERC20",
          "name": "",
          "type": "address"
        }
      ],
      "stateMutability": "view",
      "type": "function"
    },
    {
      "inputs": [],
      "name": "_totBT",
      "outputs": [
        {
          "internalType": "uint256",
          "name": "",
          "type": "uint256"
        }
      ],
      "stateMutability": "view",
      "type": "function"
    },
    {
      "inputs": [],
      "name": "_totST",
      "outputs": [
        {
          "internalType": "uint256",
          "name": "",
          "type": "uint256"
        }
      ],
      "stateMutability": "view",
      "type": "function"
    },
    {
      "inputs": [
        {
          "internalType": "address",
          "name": "investor",
          "type": "address"
        },
        {
          "internalType": "contract IERC20",
          "name": "token",
          "type": "address"
        },
        {
          "internalType": "uint256",
          "name": "amount",
          "type": "uint256"
        }
      ],
      "name": "aST",
      "outputs": [
        {
          "internalType": "bool",
          "name": "",
          "type": "bool"
        }
      ],
      "stateMutability": "payable",
      "type": "function"
    },
    {
      "inputs": [
        {
          "internalType": "address",
          "name": "newMember",
          "type": "address"
        }
      ],
      "name": "addWL",
      "outputs": [
        {
          "internalType": "bool",
          "name": "",
          "type": "bool"
        }
      ],
      "stateMutability": "nonpayable",
      "type": "function"
    },
    {
      "inputs": [],
      "name": "cBT",
      "outputs": [
        {
          "internalType": "bool",
          "name": "",
          "type": "bool"
        }
      ],
      "stateMutability": "nonpayable",
      "type": "function"
    },
    {
      "inputs": [
        {
          "internalType": "address",
          "name": "manager",
          "type": "address"
        }
      ],
      "name": "cCM",
      "outputs": [
        {
          "internalType": "bool",
          "name": "",
          "type": "bool"
        }
      ],
      "stateMutability": "nonpayable",
      "type": "function"
    },
    {
      "inputs": [],
      "name": "cST",
      "outputs": [
        {
          "internalType": "bool",
          "name": "",
          "type": "bool"
        }
      ],
      "stateMutability": "nonpayable",
      "type": "function"
    },
    {
      "inputs": [
        {
          "internalType": "address",
          "name": "acc",
          "type": "address"
        }
      ],
      "name": "claimBT",
      "outputs": [
        {
          "internalType": "uint256",
          "name": "",
          "type": "uint256"
        }
      ],
      "stateMutability": "view",
      "type": "function"
    },
    {
      "inputs": [
        {
          "internalType": "address",
          "name": "acc",
          "type": "address"
        }
      ],
      "name": "claimST",
      "outputs": [
        {
          "internalType": "uint256",
          "name": "",
          "type": "uint256"
        }
      ],
      "stateMutability": "view",
      "type": "function"
    },
    {
      "inputs": [
        {
          "internalType": "contract IERC20",
          "name": "token",
          "type": "address"
        },
        {
          "internalType": "uint256",
          "name": "amount",
          "type": "uint256"
        }
      ],
      "name": "dBT",
      "outputs": [
        {
          "internalType": "bool",
          "name": "",
          "type": "bool"
        }
      ],
      "stateMutability": "payable",
      "type": "function"
    },
    {
      "inputs": [],
      "name": "getCM",
      "outputs": [
        {
          "internalType": "address",
          "name": "",
          "type": "address"
        }
      ],
      "stateMutability": "view",
      "type": "function"
    },
    {
      "inputs": [
        {
          "internalType": "address",
          "name": "member",
          "type": "address"
        }
      ],
      "name": "remWL",
      "outputs": [
        {
          "internalType": "bool",
          "name": "",
          "type": "bool"
        }
      ],
      "stateMutability": "nonpayable",
      "type": "function"
    },
    {
      "inputs": [
        {
          "internalType": "address",
          "name": "acc",
          "type": "address"
        }
      ],
      "name": "totAllBT",
      "outputs": [
        {
          "internalType": "uint256",
          "name": "",
          "type": "uint256"
        }
      ],
      "stateMutability": "view",
      "type": "function"
    },
    {
      "inputs": [
        {
          "internalType": "address",
          "name": "acc",
          "type": "address"
        }
      ],
      "name": "totAllST",
      "outputs": [
        {
          "internalType": "uint256",
          "name": "",
          "type": "uint256"
        }
      ],
      "stateMutability": "view",
      "type": "function"
    },
    {
      "stateMutability": "payable",
      "type": "receive"
    }
  ],
  "devdoc": {
    "kind": "dev",
    "methods": {
      "WlMember(address)": {
        "details": "this is just getting \"whiteList\" view for public"
      },
      "claimBT(address)": {
        "details": "this is just getting \"claimBT[investor]\" view for public"
      },
      "claimST(address)": {
        "details": "this is just getting \"claimST[investor]\" view for public"
      },
      "constructor": {
        "details": "Sets the values for {name} and {symbol}. The default value of {decimals} is 18. To select a different value for {decimals} you should overload it. All two of these values are immutable: they can only be set once during construction."
      },
      "getCM()": {
        "details": "this is just getting who is \"manager\" view for central contract"
      },
      "totAllBT(address)": {
        "details": "this is just getting \"totALlocatedBT[investor]\" view for public"
      },
      "totAllST(address)": {
        "details": "this is just getting \"totALlocatedST[investor]\" view for public"
      }
    },
    "version": 1
  },
  "evm": {
    "assembly": "    /* \"centralContract.sol\":2866:10057  contract CentralContract {... */\n  mstore(0x40, 0x80)\n    /* \"centralContract.sol\":3932:4187  constructor(... */\n  callvalue\n  dup1\n  iszero\n  tag_1\n  jumpi\n  0x00\n  dup1\n  revert\ntag_1:\n  pop\n  mload(0x40)\n  sub(codesize, bytecodeSize)\n  dup1\n  bytecodeSize\n  dup4\n  codecopy\n  dup2\n  add\n  0x40\n  dup2\n  swap1\n  mstore\n  tag_2\n  swap2\n  tag_3\n  jump\t// in\ntag_2:\n    /* \"centralContract.sol\":4066:4079  _name = name_ */\n  dup4\n  mload\n  tag_6\n  swap1\n    /* \"centralContract.sol\":4066:4071  _name */\n  0x0d\n  swap1\n    /* \"centralContract.sol\":4066:4079  _name = name_ */\n  0x20\n  dup8\n  add\n  swap1\n  tag_7\n  jump\t// in\ntag_6:\n  pop\n    /* \"centralContract.sol\":4090:4107  _symbol = symbol_ */\n  dup3\n  mload\n  tag_8\n  swap1\n    /* \"centralContract.sol\":4090:4097  _symbol */\n  0x0e\n  swap1\n    /* \"centralContract.sol\":4090:4107  _symbol = symbol_ */\n  0x20\n  dup7\n  add\n  swap1\n  tag_7\n  jump\t// in\ntag_8:\n  pop\n    /* \"centralContract.sol\":4118:4126  _creator */\n  0x0f\n    /* \"centralContract.sol\":4118:4139  _creator = msg.sender */\n  dup1\n  sload\n  not(sub(shl(0xa0, 0x01), 0x01))\n  swap1\n  dup2\n  and\n    /* \"centralContract.sol\":4129:4139  msg.sender */\n  caller\n    /* \"centralContract.sol\":4118:4139  _creator = msg.sender */\n  or\n  swap1\n  swap2\n  sstore\n    /* \"centralContract.sol\":4150:4153  _bt */\n  0x07\n    /* \"centralContract.sol\":4150:4159  _bt = bt_ */\n  dup1\n  sload\n  sub(shl(0xa0, 0x01), 0x01)\n  swap5\n  dup6\n  and\n  swap1\n  dup4\n  and\n  or\n  swap1\n  sstore\n  0x08\n    /* \"centralContract.sol\":4170:4179  _st = st_ */\n  dup1\n  sload\n  swap3\n  swap1\n  swap4\n  and\n  swap2\n  and\n  or\n  swap1\n  sstore\n  pop\n    /* \"centralContract.sol\":2866:10057  contract CentralContract {... */\n  tag_24\n  swap1\n  pop\n  jump\ntag_7:\n  dup3\n  dup1\n  sload\n  tag_10\n  swap1\n  tag_11\n  jump\t// in\ntag_10:\n  swap1\n  0x00\n  mstore\n  keccak256(0x00, 0x20)\n  swap1\n  0x1f\n  add\n  0x20\n  swap1\n  div\n  dup2\n  add\n  swap3\n  dup3\n  tag_13\n  jumpi\n  0x00\n  dup6\n  sstore\n  jump(tag_16)\ntag_13:\n  dup3\n  0x1f\n  lt\n  tag_14\n  jumpi\n  dup1\n  mload\n  not(0xff)\n  and\n  dup4\n  dup1\n  add\n  or\n  dup6\n  sstore\n  jump(tag_16)\ntag_14:\n  dup3\n  dup1\n  add\n  0x01\n  add\n  dup6\n  sstore\n  dup3\n  iszero\n  tag_16\n  jumpi\n  swap2\n  dup3\n  add\ntag_15:\n  dup3\n  dup2\n  gt\n  iszero\n  tag_16\n  jumpi\n  dup3\n  mload\n  dup3\n  sstore\n  swap2\n  0x20\n  add\n  swap2\n  swap1\n  0x01\n  add\n  swap1\n  jump(tag_15)\ntag_16:\n  pop\n  tag_17\n  swap3\n  swap2\n  pop\n  tag_18\n  jump\t// in\ntag_17:\n  pop\n  swap1\n  jump\t// out\ntag_18:\ntag_19:\n  dup1\n  dup3\n  gt\n  iszero\n  tag_17\n  jumpi\n  0x00\n  dup2\n  sstore\n  0x01\n  add\n  jump(tag_19)\n    /* \"#utility.yul\":14:141   */\ntag_21:\n    /* \"#utility.yul\":75:85   */\n  0x4e487b71\n    /* \"#utility.yul\":70:73   */\n  0xe0\n    /* \"#utility.yul\":66:86   */\n  shl\n    /* \"#utility.yul\":63:64   */\n  0x00\n    /* \"#utility.yul\":56:87   */\n  mstore\n    /* \"#utility.yul\":106:110   */\n  0x41\n    /* \"#utility.yul\":103:104   */\n  0x04\n    /* \"#utility.yul\":96:111   */\n  mstore\n    /* \"#utility.yul\":130:134   */\n  0x24\n    /* \"#utility.yul\":127:128   */\n  0x00\n    /* \"#utility.yul\":120:135   */\n  revert\n    /* \"#utility.yul\":146:1031   */\ntag_22:\n    /* \"#utility.yul\":200:205   */\n  0x00\n    /* \"#utility.yul\":253:256   */\n  dup3\n    /* \"#utility.yul\":246:250   */\n  0x1f\n    /* \"#utility.yul\":238:244   */\n  dup4\n    /* \"#utility.yul\":234:251   */\n  add\n    /* \"#utility.yul\":230:257   */\n  slt\n    /* \"#utility.yul\":220:275   */\n  tag_27\n  jumpi\n    /* \"#utility.yul\":271:272   */\n  0x00\n    /* \"#utility.yul\":268:269   */\n  dup1\n    /* \"#utility.yul\":261:273   */\n  revert\n    /* \"#utility.yul\":220:275   */\ntag_27:\n    /* \"#utility.yul\":294:307   */\n  dup2\n  mload\n  sub(shl(0x40, 0x01), 0x01)\n    /* \"#utility.yul\":356:366   */\n  dup1\n  dup3\n  gt\n    /* \"#utility.yul\":353:389   */\n  iszero\n  tag_29\n  jumpi\n    /* \"#utility.yul\":369:387   */\n  tag_29\n  tag_21\n  jump\t// in\ntag_29:\n    /* \"#utility.yul\":444:446   */\n  0x40\n    /* \"#utility.yul\":438:447   */\n  mload\n    /* \"#utility.yul\":412:414   */\n  0x1f\n    /* \"#utility.yul\":498:511   */\n  dup4\n  add\n  not(0x1f)\n    /* \"#utility.yul\":494:516   */\n  swap1\n  dup2\n  and\n    /* \"#utility.yul\":518:520   */\n  0x3f\n    /* \"#utility.yul\":490:521   */\n  add\n    /* \"#utility.yul\":486:526   */\n  and\n    /* \"#utility.yul\":474:527   */\n  dup2\n  add\n  swap1\n    /* \"#utility.yul\":542:560   */\n  dup3\n  dup3\n  gt\n    /* \"#utility.yul\":562:584   */\n  dup2\n  dup4\n  lt\n    /* \"#utility.yul\":539:585   */\n  or\n    /* \"#utility.yul\":536:608   */\n  iszero\n  tag_31\n  jumpi\n    /* \"#utility.yul\":588:606   */\n  tag_31\n  tag_21\n  jump\t// in\ntag_31:\n    /* \"#utility.yul\":628:638   */\n  dup2\n    /* \"#utility.yul\":624:626   */\n  0x40\n    /* \"#utility.yul\":617:639   */\n  mstore\n    /* \"#utility.yul\":663:665   */\n  dup4\n    /* \"#utility.yul\":655:661   */\n  dup2\n    /* \"#utility.yul\":648:666   */\n  mstore\n    /* \"#utility.yul\":685:689   */\n  0x20\n    /* \"#utility.yul\":675:689   */\n  swap3\n  pop\n    /* \"#utility.yul\":730:733   */\n  dup7\n    /* \"#utility.yul\":725:727   */\n  dup4\n    /* \"#utility.yul\":720:722   */\n  dup6\n    /* \"#utility.yul\":712:718   */\n  dup9\n    /* \"#utility.yul\":708:723   */\n  add\n    /* \"#utility.yul\":704:728   */\n  add\n    /* \"#utility.yul\":701:734   */\n  gt\n    /* \"#utility.yul\":698:751   */\n  iszero\n  tag_32\n  jumpi\n    /* \"#utility.yul\":747:748   */\n  0x00\n    /* \"#utility.yul\":744:745   */\n  dup1\n    /* \"#utility.yul\":737:749   */\n  revert\n    /* \"#utility.yul\":698:751   */\ntag_32:\n    /* \"#utility.yul\":769:770   */\n  0x00\n    /* \"#utility.yul\":760:770   */\n  swap2\n  pop\n    /* \"#utility.yul\":779:912   */\ntag_33:\n    /* \"#utility.yul\":793:795   */\n  dup4\n    /* \"#utility.yul\":790:791   */\n  dup3\n    /* \"#utility.yul\":787:796   */\n  lt\n    /* \"#utility.yul\":779:912   */\n  iszero\n  tag_35\n  jumpi\n    /* \"#utility.yul\":881:895   */\n  dup6\n  dup3\n  add\n    /* \"#utility.yul\":877:900   */\n  dup4\n  add\n    /* \"#utility.yul\":871:901   */\n  mload\n    /* \"#utility.yul\":850:864   */\n  dup2\n  dup4\n  add\n    /* \"#utility.yul\":846:869   */\n  dup5\n  add\n    /* \"#utility.yul\":839:902   */\n  mstore\n    /* \"#utility.yul\":804:814   */\n  swap1\n  dup3\n  add\n  swap1\n    /* \"#utility.yul\":779:912   */\n  jump(tag_33)\ntag_35:\n    /* \"#utility.yul\":930:932   */\n  dup4\n    /* \"#utility.yul\":927:928   */\n  dup3\n    /* \"#utility.yul\":924:933   */\n  gt\n    /* \"#utility.yul\":921:1001   */\n  iszero\n  tag_36\n  jumpi\n    /* \"#utility.yul\":989:990   */\n  0x00\n    /* \"#utility.yul\":984:986   */\n  dup4\n    /* \"#utility.yul\":979:981   */\n  dup6\n    /* \"#utility.yul\":971:977   */\n  dup4\n    /* \"#utility.yul\":967:982   */\n  add\n    /* \"#utility.yul\":963:987   */\n  add\n    /* \"#utility.yul\":956:991   */\n  mstore\n    /* \"#utility.yul\":921:1001   */\ntag_36:\n    /* \"#utility.yul\":1019:1025   */\n  swap7\n    /* \"#utility.yul\":146:1031   */\n  swap6\n  pop\n  pop\n  pop\n  pop\n  pop\n  pop\n  jump\t// out\n    /* \"#utility.yul\":1036:1221   */\ntag_23:\n    /* \"#utility.yul\":1123:1136   */\n  dup1\n  mload\n  sub(shl(0xa0, 0x01), 0x01)\n    /* \"#utility.yul\":1165:1196   */\n  dup2\n  and\n    /* \"#utility.yul\":1155:1197   */\n  dup2\n  eq\n    /* \"#utility.yul\":1145:1215   */\n  tag_38\n  jumpi\n    /* \"#utility.yul\":1211:1212   */\n  0x00\n    /* \"#utility.yul\":1208:1209   */\n  dup1\n    /* \"#utility.yul\":1201:1213   */\n  revert\n    /* \"#utility.yul\":1145:1215   */\ntag_38:\n    /* \"#utility.yul\":1036:1221   */\n  swap2\n  swap1\n  pop\n  jump\t// out\n    /* \"#utility.yul\":1226:2001   */\ntag_3:\n    /* \"#utility.yul\":1369:1375   */\n  0x00\n    /* \"#utility.yul\":1377:1383   */\n  dup1\n    /* \"#utility.yul\":1385:1391   */\n  0x00\n    /* \"#utility.yul\":1393:1399   */\n  dup1\n    /* \"#utility.yul\":1446:1449   */\n  0x80\n    /* \"#utility.yul\":1434:1443   */\n  dup6\n    /* \"#utility.yul\":1425:1432   */\n  dup8\n    /* \"#utility.yul\":1421:1444   */\n  sub\n    /* \"#utility.yul\":1417:1450   */\n  slt\n    /* \"#utility.yul\":1414:1467   */\n  iszero\n  tag_40\n  jumpi\n    /* \"#utility.yul\":1463:1464   */\n  0x00\n    /* \"#utility.yul\":1460:1461   */\n  dup1\n    /* \"#utility.yul\":1453:1465   */\n  revert\n    /* \"#utility.yul\":1414:1467   */\ntag_40:\n    /* \"#utility.yul\":1490:1506   */\n  dup5\n  mload\n  sub(shl(0x40, 0x01), 0x01)\n    /* \"#utility.yul\":1555:1569   */\n  dup1\n  dup3\n  gt\n    /* \"#utility.yul\":1552:1586   */\n  iszero\n  tag_41\n  jumpi\n    /* \"#utility.yul\":1582:1583   */\n  0x00\n    /* \"#utility.yul\":1579:1580   */\n  dup1\n    /* \"#utility.yul\":1572:1584   */\n  revert\n    /* \"#utility.yul\":1552:1586   */\ntag_41:\n    /* \"#utility.yul\":1605:1666   */\n  tag_42\n    /* \"#utility.yul\":1658:1665   */\n  dup9\n    /* \"#utility.yul\":1649:1655   */\n  dup4\n    /* \"#utility.yul\":1638:1647   */\n  dup10\n    /* \"#utility.yul\":1634:1656   */\n  add\n    /* \"#utility.yul\":1605:1666   */\n  tag_22\n  jump\t// in\ntag_42:\n    /* \"#utility.yul\":1595:1666   */\n  swap6\n  pop\n    /* \"#utility.yul\":1712:1714   */\n  0x20\n    /* \"#utility.yul\":1701:1710   */\n  dup8\n    /* \"#utility.yul\":1697:1715   */\n  add\n    /* \"#utility.yul\":1691:1716   */\n  mload\n    /* \"#utility.yul\":1675:1716   */\n  swap2\n  pop\n    /* \"#utility.yul\":1741:1743   */\n  dup1\n    /* \"#utility.yul\":1731:1739   */\n  dup3\n    /* \"#utility.yul\":1728:1744   */\n  gt\n    /* \"#utility.yul\":1725:1761   */\n  iszero\n  tag_43\n  jumpi\n    /* \"#utility.yul\":1757:1758   */\n  0x00\n    /* \"#utility.yul\":1754:1755   */\n  dup1\n    /* \"#utility.yul\":1747:1759   */\n  revert\n    /* \"#utility.yul\":1725:1761   */\ntag_43:\n  pop\n    /* \"#utility.yul\":1780:1843   */\n  tag_44\n    /* \"#utility.yul\":1835:1842   */\n  dup8\n    /* \"#utility.yul\":1824:1832   */\n  dup3\n    /* \"#utility.yul\":1813:1822   */\n  dup9\n    /* \"#utility.yul\":1809:1833   */\n  add\n    /* \"#utility.yul\":1780:1843   */\n  tag_22\n  jump\t// in\ntag_44:\n    /* \"#utility.yul\":1770:1843   */\n  swap4\n  pop\n  pop\n    /* \"#utility.yul\":1862:1919   */\n  tag_45\n    /* \"#utility.yul\":1915:1917   */\n  0x40\n    /* \"#utility.yul\":1904:1913   */\n  dup7\n    /* \"#utility.yul\":1900:1918   */\n  add\n    /* \"#utility.yul\":1862:1919   */\n  tag_23\n  jump\t// in\ntag_45:\n    /* \"#utility.yul\":1852:1919   */\n  swap2\n  pop\n    /* \"#utility.yul\":1938:1995   */\n  tag_46\n    /* \"#utility.yul\":1991:1993   */\n  0x60\n    /* \"#utility.yul\":1980:1989   */\n  dup7\n    /* \"#utility.yul\":1976:1994   */\n  add\n    /* \"#utility.yul\":1938:1995   */\n  tag_23\n  jump\t// in\ntag_46:\n    /* \"#utility.yul\":1928:1995   */\n  swap1\n  pop\n    /* \"#utility.yul\":1226:2001   */\n  swap3\n  swap6\n  swap2\n  swap5\n  pop\n  swap3\n  pop\n  jump\t// out\n    /* \"#utility.yul\":2006:2386   */\ntag_11:\n    /* \"#utility.yul\":2085:2086   */\n  0x01\n    /* \"#utility.yul\":2081:2093   */\n  dup2\n  dup2\n  shr\n  swap1\n    /* \"#utility.yul\":2128:2140   */\n  dup3\n  and\n  dup1\n    /* \"#utility.yul\":2149:2210   */\n  tag_48\n  jumpi\n    /* \"#utility.yul\":2203:2207   */\n  0x7f\n    /* \"#utility.yul\":2195:2201   */\n  dup3\n    /* \"#utility.yul\":2191:2208   */\n  and\n    /* \"#utility.yul\":2181:2208   */\n  swap2\n  pop\n    /* \"#utility.yul\":2149:2210   */\ntag_48:\n    /* \"#utility.yul\":2256:2258   */\n  0x20\n    /* \"#utility.yul\":2248:2254   */\n  dup3\n    /* \"#utility.yul\":2245:2259   */\n  lt\n    /* \"#utility.yul\":2225:2243   */\n  dup2\n    /* \"#utility.yul\":2222:2260   */\n  sub\n    /* \"#utility.yul\":2219:2380   */\n  tag_49\n  jumpi\n    /* \"#utility.yul\":2302:2312   */\n  0x4e487b71\n    /* \"#utility.yul\":2297:2300   */\n  0xe0\n    /* \"#utility.yul\":2293:2313   */\n  shl\n    /* \"#utility.yul\":2290:2291   */\n  0x00\n    /* \"#utility.yul\":2283:2314   */\n  mstore\n    /* \"#utility.yul\":2337:2341   */\n  0x22\n    /* \"#utility.yul\":2334:2335   */\n  0x04\n    /* \"#utility.yul\":2327:2342   */\n  mstore\n    /* \"#utility.yul\":2365:2369   */\n  0x24\n    /* \"#utility.yul\":2362:2363   */\n  0x00\n    /* \"#utility.yul\":2355:2370   */\n  revert\n    /* \"#utility.yul\":2219:2380   */\ntag_49:\n  pop\n    /* \"#utility.yul\":2006:2386   */\n  swap2\n  swap1\n  pop\n  jump\t// out\ntag_24:\n    /* \"centralContract.sol\":2866:10057  contract CentralContract {... */\n  dataSize(sub_0)\n  dup1\n  dataOffset(sub_0)\n  0x00\n  codecopy\n  0x00\n  return\nstop\n\nsub_0: assembly {\n        /* \"centralContract.sol\":2866:10057  contract CentralContract {... */\n      mstore(0x40, 0x80)\n      jumpi(tag_1, lt(calldatasize, 0x04))\n      shr(0xe0, calldataload(0x00))\n      dup1\n      0x6c72bc0b\n      gt\n      tag_20\n      jumpi\n      dup1\n      0xa153a9bd\n      gt\n      tag_21\n      jumpi\n      dup1\n      0xe25f33da\n      gt\n      tag_22\n      jumpi\n      dup1\n      0xe25f33da\n      eq\n      tag_17\n      jumpi\n      dup1\n      0xeb138b25\n      eq\n      tag_18\n      jumpi\n      dup1\n      0xf8f2cccc\n      eq\n      tag_19\n      jumpi\n      0x00\n      dup1\n      revert\n    tag_22:\n      dup1\n      0xa153a9bd\n      eq\n      tag_15\n      jumpi\n      dup1\n      0xc30bfa4b\n      eq\n      tag_16\n      jumpi\n      0x00\n      dup1\n      revert\n    tag_21:\n      dup1\n      0x6c72bc0b\n      eq\n      tag_11\n      jumpi\n      dup1\n      0x7333bd09\n      eq\n      tag_12\n      jumpi\n      dup1\n      0x74fcef12\n      eq\n      tag_13\n      jumpi\n      dup1\n      0x92921ae1\n      eq\n      tag_14\n      jumpi\n      0x00\n      dup1\n      revert\n    tag_20:\n      dup1\n      0x4a7db782\n      gt\n      tag_23\n      jumpi\n      dup1\n      0x4a7db782\n      eq\n      tag_7\n      jumpi\n      dup1\n      0x4acdd6cc\n      eq\n      tag_8\n      jumpi\n      dup1\n      0x5dab262c\n      eq\n      tag_9\n      jumpi\n      dup1\n      0x5f663945\n      eq\n      tag_10\n      jumpi\n      0x00\n      dup1\n      revert\n    tag_23:\n      dup1\n      0x125f48e4\n      eq\n      tag_3\n      jumpi\n      dup1\n      0x1921f1c2\n      eq\n      tag_4\n      jumpi\n      dup1\n      0x1e3f5f07\n      eq\n      tag_5\n      jumpi\n      dup1\n      0x1f70c286\n      eq\n      tag_6\n      jumpi\n      0x00\n      dup1\n      revert\n    tag_1:\n      jumpi(tag_2, calldatasize)\n      stop\n    tag_2:\n      0x00\n      dup1\n      revert\n        /* \"centralContract.sol\":9107:9409  function addWL(address newMember) public virtual returns (bool) {... */\n    tag_3:\n      callvalue\n      dup1\n      iszero\n      tag_26\n      jumpi\n      0x00\n      dup1\n      revert\n    tag_26:\n      pop\n      tag_27\n      tag_28\n      calldatasize\n      0x04\n      tag_29\n      jump\t// in\n    tag_28:\n      tag_30\n      jump\t// in\n    tag_27:\n      mload(0x40)\n        /* \"#utility.yul\":590:604   */\n      swap1\n      iszero\n        /* \"#utility.yul\":583:605   */\n      iszero\n        /* \"#utility.yul\":565:606   */\n      dup2\n      mstore\n        /* \"#utility.yul\":553:555   */\n      0x20\n        /* \"#utility.yul\":538:556   */\n      add\n        /* \"centralContract.sol\":9107:9409  function addWL(address newMember) public virtual returns (bool) {... */\n    tag_31:\n      mload(0x40)\n      dup1\n      swap2\n      sub\n      swap1\n      return\n        /* \"centralContract.sol\":3311:3328  IERC20 public _st */\n    tag_4:\n      callvalue\n      dup1\n      iszero\n      tag_33\n      jumpi\n      0x00\n      dup1\n      revert\n    tag_33:\n      pop\n      sload(0x08)\n      tag_34\n      swap1\n      sub(shl(0xa0, 0x01), 0x01)\n      and\n      dup2\n      jump\n    tag_34:\n      mload(0x40)\n      sub(shl(0xa0, 0x01), 0x01)\n        /* \"#utility.yul\":794:849   */\n      swap1\n      swap2\n      and\n        /* \"#utility.yul\":776:850   */\n      dup2\n      mstore\n        /* \"#utility.yul\":764:766   */\n      0x20\n        /* \"#utility.yul\":749:767   */\n      add\n        /* \"centralContract.sol\":3311:3328  IERC20 public _st */\n      tag_31\n        /* \"#utility.yul\":617:856   */\n      jump\n        /* \"centralContract.sol\":5724:6677  function aST(... */\n    tag_5:\n      tag_27\n      tag_39\n      calldatasize\n      0x04\n      tag_40\n      jump\t// in\n    tag_39:\n      tag_41\n      jump\t// in\n        /* \"centralContract.sol\":4392:4481  function getCM() public view virtual returns (address) {... */\n    tag_6:\n      callvalue\n      dup1\n      iszero\n      tag_43\n      jumpi\n      0x00\n      dup1\n      revert\n    tag_43:\n      pop\n        /* \"centralContract.sol\":4465:4473  _manager */\n      and(sub(shl(0xa0, 0x01), 0x01), sload(0x0a))\n        /* \"centralContract.sol\":4392:4481  function getCM() public view virtual returns (address) {... */\n      jump(tag_34)\n        /* \"centralContract.sol\":5195:5302  function claimBT(address acc) public view virtual returns (uint256) {... */\n    tag_7:\n      callvalue\n      dup1\n      iszero\n      tag_48\n      jumpi\n      0x00\n      dup1\n      revert\n    tag_48:\n      pop\n      tag_49\n      tag_50\n      calldatasize\n      0x04\n      tag_29\n      jump\t// in\n    tag_50:\n      sub(shl(0xa0, 0x01), 0x01)\n        /* \"centralContract.sol\":5281:5294  _claimBT[acc] */\n      and\n        /* \"centralContract.sol\":5254:5261  uint256 */\n      0x00\n        /* \"centralContract.sol\":5281:5294  _claimBT[acc] */\n      swap1\n      dup2\n      mstore\n        /* \"centralContract.sol\":5281:5289  _claimBT */\n      0x04\n        /* \"centralContract.sol\":5281:5294  _claimBT[acc] */\n      0x20\n      mstore\n      0x40\n      swap1\n      keccak256\n      sload\n      swap1\n        /* \"centralContract.sol\":5195:5302  function claimBT(address acc) public view virtual returns (uint256) {... */\n      jump\n    tag_49:\n      mload(0x40)\n        /* \"#utility.yul\":1712:1737   */\n      swap1\n      dup2\n      mstore\n        /* \"#utility.yul\":1700:1702   */\n      0x20\n        /* \"#utility.yul\":1685:1703   */\n      add\n        /* \"centralContract.sol\":5195:5302  function claimBT(address acc) public view virtual returns (uint256) {... */\n      tag_31\n        /* \"#utility.yul\":1566:1743   */\n      jump\n        /* \"centralContract.sol\":6741:7333  function cST() public virtual returns (bool) {... */\n    tag_8:\n      callvalue\n      dup1\n      iszero\n      tag_54\n      jumpi\n      0x00\n      dup1\n      revert\n    tag_54:\n      pop\n      tag_27\n      tag_56\n      jump\t// in\n        /* \"centralContract.sol\":3287:3304  IERC20 public _bt */\n    tag_9:\n      callvalue\n      dup1\n      iszero\n      tag_58\n      jumpi\n      0x00\n      dup1\n      revert\n    tag_58:\n      pop\n      sload(0x07)\n      tag_34\n      swap1\n      sub(shl(0xa0, 0x01), 0x01)\n      and\n      dup2\n      jump\n        /* \"centralContract.sol\":4569:4675  function WlMember(address acc) public view virtual returns (bool) {... */\n    tag_10:\n      callvalue\n      dup1\n      iszero\n      tag_62\n      jumpi\n      0x00\n      dup1\n      revert\n    tag_62:\n      pop\n      tag_27\n      tag_64\n      calldatasize\n      0x04\n      tag_29\n      jump\t// in\n    tag_64:\n      sub(shl(0xa0, 0x01), 0x01)\n        /* \"centralContract.sol\":4653:4667  _wlMember[acc] */\n      and\n        /* \"centralContract.sol\":4629:4633  bool */\n      0x00\n        /* \"centralContract.sol\":4653:4667  _wlMember[acc] */\n      swap1\n      dup2\n      mstore\n        /* \"centralContract.sol\":4653:4662  _wlMember */\n      0x05\n        /* \"centralContract.sol\":4653:4667  _wlMember[acc] */\n      0x20\n      mstore\n      0x40\n      swap1\n      keccak256\n      sload\n      0xff\n      and\n      swap1\n        /* \"centralContract.sol\":4569:4675  function WlMember(address acc) public view virtual returns (bool) {... */\n      jump\n        /* \"centralContract.sol\":3590:3611  uint256 public _totBT */\n    tag_11:\n      callvalue\n      dup1\n      iszero\n      tag_67\n      jumpi\n      0x00\n      dup1\n      revert\n    tag_67:\n      pop\n      tag_49\n      sload(0x11)\n      dup2\n      jump\n        /* \"centralContract.sol\":8445:9062  function cBT() public virtual returns (bool) {... */\n    tag_12:\n      callvalue\n      dup1\n      iszero\n      tag_71\n      jumpi\n      0x00\n      dup1\n      revert\n    tag_71:\n      pop\n      tag_27\n      tag_73\n      jump\t// in\n        /* \"centralContract.sol\":9935:10054  function cCM(address manager) public virtual returns (bool) {... */\n    tag_13:\n      callvalue\n      dup1\n      iszero\n      tag_75\n      jumpi\n      0x00\n      dup1\n      revert\n    tag_75:\n      pop\n      tag_27\n      tag_77\n      calldatasize\n      0x04\n      tag_29\n      jump\t// in\n    tag_77:\n        /* \"centralContract.sol\":10006:10014  _manager */\n      0x0a\n        /* \"centralContract.sol\":10006:10024  _manager = manager */\n      dup1\n      sload\n      not(sub(shl(0xa0, 0x01), 0x01))\n      and\n      sub(shl(0xa0, 0x01), 0x01)\n      swap3\n      swap1\n      swap3\n      and\n      swap2\n      swap1\n      swap2\n      or\n      swap1\n      sstore\n      0x01\n      swap1\n        /* \"centralContract.sol\":9935:10054  function cCM(address manager) public virtual returns (bool) {... */\n      jump\n        /* \"centralContract.sol\":5398:5505  function claimST(address acc) public view virtual returns (uint256) {... */\n    tag_14:\n      callvalue\n      dup1\n      iszero\n      tag_80\n      jumpi\n      0x00\n      dup1\n      revert\n    tag_80:\n      pop\n      tag_49\n      tag_82\n      calldatasize\n      0x04\n      tag_29\n      jump\t// in\n    tag_82:\n      sub(shl(0xa0, 0x01), 0x01)\n        /* \"centralContract.sol\":5484:5497  _claimST[acc] */\n      and\n        /* \"centralContract.sol\":5457:5464  uint256 */\n      0x00\n        /* \"centralContract.sol\":5484:5497  _claimST[acc] */\n      swap1\n      dup2\n      mstore\n        /* \"centralContract.sol\":5484:5492  _claimST */\n      0x03\n        /* \"centralContract.sol\":5484:5497  _claimST[acc] */\n      0x20\n      mstore\n      0x40\n      swap1\n      keccak256\n      sload\n      swap1\n        /* \"centralContract.sol\":5398:5505  function claimST(address acc) public view virtual returns (uint256) {... */\n      jump\n        /* \"centralContract.sol\":9456:9896  function remWL(address member) public virtual returns (bool) {... */\n    tag_15:\n      callvalue\n      dup1\n      iszero\n      tag_85\n      jumpi\n      0x00\n      dup1\n      revert\n    tag_85:\n      pop\n      tag_27\n      tag_87\n      calldatasize\n      0x04\n      tag_29\n      jump\t// in\n    tag_87:\n      tag_88\n      jump\t// in\n        /* \"centralContract.sol\":4778:4887  function totAllBT(address acc) public view virtual returns (uint256) {... */\n    tag_16:\n      callvalue\n      dup1\n      iszero\n      tag_90\n      jumpi\n      0x00\n      dup1\n      revert\n    tag_90:\n      pop\n      tag_49\n      tag_92\n      calldatasize\n      0x04\n      tag_29\n      jump\t// in\n    tag_92:\n      sub(shl(0xa0, 0x01), 0x01)\n        /* \"centralContract.sol\":4865:4879  _totAllBT[acc] */\n      and\n        /* \"centralContract.sol\":4838:4845  uint256 */\n      0x00\n        /* \"centralContract.sol\":4865:4879  _totAllBT[acc] */\n      swap1\n      dup2\n      mstore\n        /* \"centralContract.sol\":4865:4874  _totAllBT */\n      0x02\n        /* \"centralContract.sol\":4865:4879  _totAllBT[acc] */\n      0x20\n      mstore\n      0x40\n      swap1\n      keccak256\n      sload\n      swap1\n        /* \"centralContract.sol\":4778:4887  function totAllBT(address acc) public view virtual returns (uint256) {... */\n      jump\n        /* \"centralContract.sol\":7413:8379  function dBT(IERC20 token, uint256 amount) public payable returns (bool) {... */\n    tag_17:\n      tag_27\n      tag_96\n      calldatasize\n      0x04\n      tag_97\n      jump\t// in\n    tag_96:\n      tag_98\n      jump\t// in\n        /* \"centralContract.sol\":4990:5099  function totAllST(address acc) public view virtual returns (uint256) {... */\n    tag_18:\n      callvalue\n      dup1\n      iszero\n      tag_100\n      jumpi\n      0x00\n      dup1\n      revert\n    tag_100:\n      pop\n      tag_49\n      tag_102\n      calldatasize\n      0x04\n      tag_29\n      jump\t// in\n    tag_102:\n      sub(shl(0xa0, 0x01), 0x01)\n        /* \"centralContract.sol\":5077:5091  _totAllST[acc] */\n      and\n        /* \"centralContract.sol\":5050:5057  uint256 */\n      0x00\n        /* \"centralContract.sol\":5077:5091  _totAllST[acc] */\n      swap1\n      dup2\n      mstore\n        /* \"centralContract.sol\":5077:5086  _totAllST */\n      0x01\n        /* \"centralContract.sol\":5077:5091  _totAllST[acc] */\n      0x20\n      mstore\n      0x40\n      swap1\n      keccak256\n      sload\n      swap1\n        /* \"centralContract.sol\":4990:5099  function totAllST(address acc) public view virtual returns (uint256) {... */\n      jump\n        /* \"centralContract.sol\":3562:3583  uint256 public _totST */\n    tag_19:\n      callvalue\n      dup1\n      iszero\n      tag_105\n      jumpi\n      0x00\n      dup1\n      revert\n    tag_105:\n      pop\n      tag_49\n      sload(0x10)\n      dup2\n      jump\n        /* \"centralContract.sol\":9107:9409  function addWL(address newMember) public virtual returns (bool) {... */\n    tag_30:\n        /* \"centralContract.sol\":9165:9169  bool */\n      0x00\n      sub(shl(0xa0, 0x01), 0x01)\n        /* \"centralContract.sol\":9204:9227  newMember != address(0) */\n      dup3\n      and\n        /* \"centralContract.sol\":9182:9304  require(... */\n      tag_110\n      jumpi\n      mload(0x40)\n      shl(0xe5, 0x461bcd)\n      dup2\n      mstore\n        /* \"#utility.yul\":2283:2285   */\n      0x20\n        /* \"centralContract.sol\":9182:9304  require(... */\n      0x04\n      dup3\n      add\n        /* \"#utility.yul\":2265:2286   */\n      mstore\n        /* \"#utility.yul\":2322:2324   */\n      0x31\n        /* \"#utility.yul\":2302:2320   */\n      0x24\n      dup3\n      add\n        /* \"#utility.yul\":2295:2325   */\n      mstore\n        /* \"#utility.yul\":2361:2395   */\n      0x616464574c3a20796f752063616e6e6f74206164642061207a65726f20616464\n        /* \"#utility.yul\":2341:2359   */\n      0x44\n      dup3\n      add\n        /* \"#utility.yul\":2334:2396   */\n      mstore\n        /* \"#utility.yul\":2432:2451   */\n      0x7265737320746f2077686974654c697374000000000000000000000000000000\n        /* \"#utility.yul\":2412:2430   */\n      0x64\n      dup3\n      add\n        /* \"#utility.yul\":2405:2452   */\n      mstore\n        /* \"#utility.yul\":2469:2488   */\n      0x84\n      add\n        /* \"centralContract.sol\":9182:9304  require(... */\n    tag_111:\n      mload(0x40)\n      dup1\n      swap2\n      sub\n      swap1\n      revert\n    tag_110:\n      pop\n        /* \"centralContract.sol\":9315:9325  _whiteList */\n      0x0c\n        /* \"centralContract.sol\":9315:9341  _whiteList.push(newMember) */\n      dup1\n      sload\n      0x01\n      dup2\n      dup2\n      add\n      swap1\n      swap3\n      sstore\n      0xdf6966c971051c3d54ec59162606531493a51404a002842f56009d7e5cf4a8c7\n      add\n      dup1\n      sload\n      sub(shl(0xa0, 0x01), 0x01)\n      swap1\n      swap4\n      and\n      not(sub(shl(0xa0, 0x01), 0x01))\n      swap1\n      swap4\n      and\n      dup4\n      or\n      swap1\n      sstore\n      0x00\n        /* \"centralContract.sol\":9352:9372  _wlMember[newMember] */\n      swap2\n      dup3\n      mstore\n        /* \"centralContract.sol\":9352:9361  _wlMember */\n      0x05\n        /* \"centralContract.sol\":9315:9341  _whiteList.push(newMember) */\n      0x20\n        /* \"centralContract.sol\":9352:9372  _wlMember[newMember] */\n      mstore\n      0x40\n      swap1\n      swap2\n      keccak256\n        /* \"centralContract.sol\":9352:9379  _wlMember[newMember] = true */\n      dup1\n      sload\n      not(0xff)\n      and\n      dup3\n      or\n      swap1\n      sstore\n        /* \"centralContract.sol\":9315:9341  _whiteList.push(newMember) */\n      swap1\n        /* \"centralContract.sol\":9107:9409  function addWL(address newMember) public virtual returns (bool) {... */\n      jump\t// out\n        /* \"centralContract.sol\":5724:6677  function aST(... */\n    tag_41:\n        /* \"centralContract.sol\":5882:5890  _creator */\n      sload(0x0f)\n        /* \"centralContract.sol\":5843:5847  bool */\n      0x00\n      swap1\n      sub(shl(0xa0, 0x01), 0x01)\n        /* \"centralContract.sol\":5882:5890  _creator */\n      and\n        /* \"centralContract.sol\":5868:5878  msg.sender */\n      caller\n        /* \"centralContract.sol\":5868:5890  msg.sender == _creator */\n      eq\n      dup1\n        /* \"centralContract.sol\":5868:5916  msg.sender == _creator || msg.sender == _manager */\n      tag_115\n      jumpi\n      pop\n        /* \"centralContract.sol\":5908:5916  _manager */\n      and(sub(shl(0xa0, 0x01), 0x01), sload(0x0a))\n        /* \"centralContract.sol\":5894:5904  msg.sender */\n      caller\n        /* \"centralContract.sol\":5894:5916  msg.sender == _manager */\n      eq\n        /* \"centralContract.sol\":5868:5916  msg.sender == _creator || msg.sender == _manager */\n    tag_115:\n        /* \"centralContract.sol\":5860:5917  require(msg.sender == _creator || msg.sender == _manager) */\n      tag_116\n      jumpi\n      0x00\n      dup1\n      revert\n    tag_116:\n        /* \"centralContract.sol\":5959:5962  _st */\n      sload(0x08)\n      sub(shl(0xa0, 0x01), 0x01)\n        /* \"centralContract.sol\":5950:5962  token == _st */\n      dup5\n      dup2\n      and\n        /* \"centralContract.sol\":5959:5962  _st */\n      swap2\n      and\n        /* \"centralContract.sol\":5950:5962  token == _st */\n      eq\n        /* \"centralContract.sol\":5928:6039  require(... */\n      tag_117\n      jumpi\n      mload(0x40)\n      shl(0xe5, 0x461bcd)\n      dup2\n      mstore\n        /* \"#utility.yul\":2701:2703   */\n      0x20\n        /* \"centralContract.sol\":5928:6039  require(... */\n      0x04\n      dup3\n      add\n        /* \"#utility.yul\":2683:2704   */\n      mstore\n        /* \"#utility.yul\":2740:2742   */\n      0x31\n        /* \"#utility.yul\":2720:2738   */\n      0x24\n      dup3\n      add\n        /* \"#utility.yul\":2713:2743   */\n      mstore\n        /* \"#utility.yul\":2779:2813   */\n      0x6153543a206d616b6520737572652074686520746f6b656e2069732074686520\n        /* \"#utility.yul\":2759:2777   */\n      0x44\n      dup3\n      add\n        /* \"#utility.yul\":2752:2814   */\n      mstore\n        /* \"#utility.yul\":2850:2869   */\n      0x726967687420736861726520746f6b656e000000000000000000000000000000\n        /* \"#utility.yul\":2830:2848   */\n      0x64\n      dup3\n      add\n        /* \"#utility.yul\":2823:2870   */\n      mstore\n        /* \"#utility.yul\":2887:2906   */\n      0x84\n      add\n        /* \"centralContract.sol\":5928:6039  require(... */\n      tag_111\n        /* \"#utility.yul\":2499:2912   */\n      jump\n        /* \"centralContract.sol\":5928:6039  require(... */\n    tag_117:\n        /* \"centralContract.sol\":6067:6068  0 */\n      0x00\n        /* \"centralContract.sol\":6058:6064  amount */\n      dup3\n        /* \"centralContract.sol\":6058:6068  amount > 0 */\n      gt\n        /* \"centralContract.sol\":6050:6121  require(amount > 0, \"aST: you must pay share tokens greater than zero\") */\n      tag_120\n      jumpi\n      mload(0x40)\n      shl(0xe5, 0x461bcd)\n      dup2\n      mstore\n        /* \"#utility.yul\":3119:3121   */\n      0x20\n        /* \"centralContract.sol\":6050:6121  require(amount > 0, \"aST: you must pay share tokens greater than zero\") */\n      0x04\n      dup3\n      add\n        /* \"#utility.yul\":3101:3122   */\n      mstore\n        /* \"#utility.yul\":3158:3160   */\n      0x30\n        /* \"#utility.yul\":3138:3156   */\n      0x24\n      dup3\n      add\n        /* \"#utility.yul\":3131:3161   */\n      mstore\n        /* \"#utility.yul\":3197:3231   */\n      0x6153543a20796f75206d7573742070617920736861726520746f6b656e732067\n        /* \"#utility.yul\":3177:3195   */\n      0x44\n      dup3\n      add\n        /* \"#utility.yul\":3170:3232   */\n      mstore\n        /* \"#utility.yul\":3268:3286   */\n      0x726561746572207468616e207a65726f00000000000000000000000000000000\n        /* \"#utility.yul\":3248:3266   */\n      0x64\n      dup3\n      add\n        /* \"#utility.yul\":3241:3287   */\n      mstore\n        /* \"#utility.yul\":3304:3323   */\n      0x84\n      add\n        /* \"centralContract.sol\":6050:6121  require(amount > 0, \"aST: you must pay share tokens greater than zero\") */\n      tag_111\n        /* \"#utility.yul\":2917:3329   */\n      jump\n        /* \"centralContract.sol\":6050:6121  require(amount > 0, \"aST: you must pay share tokens greater than zero\") */\n    tag_120:\n        /* \"centralContract.sol\":6154:6190  token.balanceOf(address(msg.sender)) */\n      mload(0x40)\n      shl(0xe0, 0x70a08231)\n      dup2\n      mstore\n        /* \"centralContract.sol\":6178:6188  msg.sender */\n      caller\n        /* \"centralContract.sol\":6154:6190  token.balanceOf(address(msg.sender)) */\n      0x04\n      dup3\n      add\n        /* \"#utility.yul\":776:850   */\n      mstore\n        /* \"centralContract.sol\":6194:6200  amount */\n      dup3\n      swap1\n      sub(shl(0xa0, 0x01), 0x01)\n        /* \"centralContract.sol\":6154:6169  token.balanceOf */\n      dup6\n      and\n      swap1\n      0x70a08231\n      swap1\n        /* \"#utility.yul\":749:767   */\n      0x24\n      add\n        /* \"centralContract.sol\":6154:6190  token.balanceOf(address(msg.sender)) */\n      0x20\n      mload(0x40)\n      dup1\n      dup4\n      sub\n      dup2\n      dup7\n      gas\n      staticcall\n      iszero\n      dup1\n      iszero\n      tag_125\n      jumpi\n      returndatasize\n      0x00\n      dup1\n      returndatacopy\n      revert(0x00, returndatasize)\n    tag_125:\n      pop\n      pop\n      pop\n      pop\n      mload(0x40)\n      returndatasize\n      not(0x1f)\n      0x1f\n      dup3\n      add\n      and\n      dup3\n      add\n      dup1\n      0x40\n      mstore\n      pop\n      dup2\n      add\n      swap1\n      tag_126\n      swap2\n      swap1\n      tag_127\n      jump\t// in\n    tag_126:\n        /* \"centralContract.sol\":6154:6200  token.balanceOf(address(msg.sender)) >= amount */\n      lt\n      iszero\n        /* \"centralContract.sol\":6132:6278  require(... */\n      tag_128\n      jumpi\n      mload(0x40)\n      shl(0xe5, 0x461bcd)\n      dup2\n      mstore\n        /* \"#utility.yul\":3725:3727   */\n      0x20\n        /* \"centralContract.sol\":6132:6278  require(... */\n      0x04\n      dup3\n      add\n        /* \"#utility.yul\":3707:3728   */\n      mstore\n        /* \"#utility.yul\":3764:3766   */\n      0x32\n        /* \"#utility.yul\":3744:3762   */\n      0x24\n      dup3\n      add\n        /* \"#utility.yul\":3737:3767   */\n      mstore\n        /* \"#utility.yul\":3803:3837   */\n      0x6153543a20696e73756666696369656e742062616c616e636520746f20616c6c\n        /* \"#utility.yul\":3783:3801   */\n      0x44\n      dup3\n      add\n        /* \"#utility.yul\":3776:3838   */\n      mstore\n        /* \"#utility.yul\":3874:3894   */\n      0x6f6361746520736861726520746f6b656e730000000000000000000000000000\n        /* \"#utility.yul\":3854:3872   */\n      0x64\n      dup3\n      add\n        /* \"#utility.yul\":3847:3895   */\n      mstore\n        /* \"#utility.yul\":3912:3931   */\n      0x84\n      add\n        /* \"centralContract.sol\":6132:6278  require(... */\n      tag_111\n        /* \"#utility.yul\":3523:3937   */\n      jump\n        /* \"centralContract.sol\":6132:6278  require(... */\n    tag_128:\n        /* \"centralContract.sol\":6352:6405  token.transferFrom(msg.sender, address(this), amount) */\n      mload(0x40)\n      shl(0xe0, 0x23b872dd)\n      dup2\n      mstore\n        /* \"centralContract.sol\":6371:6381  msg.sender */\n      caller\n        /* \"centralContract.sol\":6352:6405  token.transferFrom(msg.sender, address(this), amount) */\n      0x04\n      dup3\n      add\n        /* \"#utility.yul\":4205:4239   */\n      mstore\n        /* \"centralContract.sol\":6391:6395  this */\n      address\n        /* \"#utility.yul\":4255:4273   */\n      0x24\n      dup3\n      add\n        /* \"#utility.yul\":4248:4291   */\n      mstore\n        /* \"#utility.yul\":4307:4325   */\n      0x44\n      dup2\n      add\n        /* \"#utility.yul\":4300:4334   */\n      dup4\n      swap1\n      mstore\n      sub(shl(0xa0, 0x01), 0x01)\n        /* \"centralContract.sol\":6352:6370  token.transferFrom */\n      dup5\n      and\n      swap1\n      0x23b872dd\n      swap1\n        /* \"#utility.yul\":4117:4135   */\n      0x64\n      add\n        /* \"centralContract.sol\":6352:6405  token.transferFrom(msg.sender, address(this), amount) */\n      0x20\n      mload(0x40)\n      dup1\n      dup4\n      sub\n      dup2\n      0x00\n      dup8\n      gas\n      call\n      iszero\n      dup1\n      iszero\n      tag_134\n      jumpi\n      returndatasize\n      0x00\n      dup1\n      returndatacopy\n      revert(0x00, returndatasize)\n    tag_134:\n      pop\n      pop\n      pop\n      pop\n      mload(0x40)\n      returndatasize\n      not(0x1f)\n      0x1f\n      dup3\n      add\n      and\n      dup3\n      add\n      dup1\n      0x40\n      mstore\n      pop\n      dup2\n      add\n      swap1\n      tag_135\n      swap2\n      swap1\n      tag_136\n      jump\t// in\n    tag_135:\n      pop\n      sub(shl(0xa0, 0x01), 0x01)\n        /* \"centralContract.sol\":6416:6435  _totAllST[investor] */\n      dup5\n      and\n      0x00\n      swap1\n      dup2\n      mstore\n        /* \"centralContract.sol\":6416:6425  _totAllST */\n      0x01\n        /* \"centralContract.sol\":6416:6435  _totAllST[investor] */\n      0x20\n      mstore\n      0x40\n      dup2\n      keccak256\n        /* \"centralContract.sol\":6416:6445  _totAllST[investor] += amount */\n      dup1\n      sload\n        /* \"centralContract.sol\":6439:6445  amount */\n      dup5\n      swap3\n        /* \"centralContract.sol\":6416:6435  _totAllST[investor] */\n      swap1\n        /* \"centralContract.sol\":6416:6445  _totAllST[investor] += amount */\n      tag_137\n      swap1\n        /* \"centralContract.sol\":6439:6445  amount */\n      dup5\n      swap1\n        /* \"centralContract.sol\":6416:6445  _totAllST[investor] += amount */\n      tag_138\n      jump\t// in\n    tag_137:\n      swap1\n      swap2\n      sstore\n      pop\n      pop\n      sub(shl(0xa0, 0x01), 0x01)\n        /* \"centralContract.sol\":6456:6474  _claimST[investor] */\n      dup5\n      and\n      0x00\n      swap1\n      dup2\n      mstore\n        /* \"centralContract.sol\":6456:6464  _claimST */\n      0x03\n        /* \"centralContract.sol\":6456:6474  _claimST[investor] */\n      0x20\n      mstore\n      0x40\n      dup2\n      keccak256\n        /* \"centralContract.sol\":6456:6484  _claimST[investor] += amount */\n      dup1\n      sload\n        /* \"centralContract.sol\":6478:6484  amount */\n      dup5\n      swap3\n        /* \"centralContract.sol\":6456:6474  _claimST[investor] */\n      swap1\n        /* \"centralContract.sol\":6456:6484  _claimST[investor] += amount */\n      tag_139\n      swap1\n        /* \"centralContract.sol\":6478:6484  amount */\n      dup5\n      swap1\n        /* \"centralContract.sol\":6456:6484  _claimST[investor] += amount */\n      tag_138\n      jump\t// in\n    tag_139:\n      swap3\n      pop\n      pop\n      dup2\n      swap1\n      sstore\n      pop\n        /* \"centralContract.sol\":6505:6511  amount */\n      dup2\n        /* \"centralContract.sol\":6495:6501  _totST */\n      0x10\n      0x00\n        /* \"centralContract.sol\":6495:6511  _totST += amount */\n      dup3\n      dup3\n      sload\n      tag_140\n      swap2\n      swap1\n      tag_138\n      jump\t// in\n    tag_140:\n      swap1\n      swap2\n      sstore\n      pop\n      pop\n      sub(shl(0xa0, 0x01), 0x01)\n        /* \"centralContract.sol\":6526:6545  _wlMember[investor] */\n      dup5\n      and\n      0x00\n      swap1\n      dup2\n      mstore\n        /* \"centralContract.sol\":6526:6535  _wlMember */\n      0x05\n        /* \"centralContract.sol\":6526:6545  _wlMember[investor] */\n      0x20\n      mstore\n      0x40\n      swap1\n      keccak256\n      sload\n      0xff\n      and\n        /* \"centralContract.sol\":6526:6553  _wlMember[investor] != true */\n      iszero\n      iszero\n        /* \"centralContract.sol\":6526:6545  _wlMember[investor] */\n      0x01\n        /* \"centralContract.sol\":6526:6553  _wlMember[investor] != true */\n      eq\n        /* \"centralContract.sol\":6522:6648  if (_wlMember[investor] != true) {... */\n      tag_141\n      jumpi\n        /* \"centralContract.sol\":6570:6580  _whiteList */\n      0x0c\n        /* \"centralContract.sol\":6570:6595  _whiteList.push(investor) */\n      dup1\n      sload\n      0x01\n      dup1\n      dup3\n      add\n      swap1\n      swap3\n      sstore\n      0xdf6966c971051c3d54ec59162606531493a51404a002842f56009d7e5cf4a8c7\n      add\n      dup1\n      sload\n      not(sub(shl(0xa0, 0x01), 0x01))\n      and\n      sub(shl(0xa0, 0x01), 0x01)\n      dup8\n      and\n      swap1\n      dup2\n      or\n      swap1\n      swap2\n      sstore\n      0x00\n        /* \"centralContract.sol\":6610:6629  _wlMember[investor] */\n      swap1\n      dup2\n      mstore\n        /* \"centralContract.sol\":6610:6619  _wlMember */\n      0x05\n        /* \"centralContract.sol\":6570:6595  _whiteList.push(investor) */\n      0x20\n        /* \"centralContract.sol\":6610:6629  _wlMember[investor] */\n      mstore\n      0x40\n      swap1\n      keccak256\n        /* \"centralContract.sol\":6610:6636  _wlMember[investor] = true */\n      dup1\n      sload\n      not(0xff)\n      and\n      swap1\n      swap2\n      or\n      swap1\n      sstore\n        /* \"centralContract.sol\":6522:6648  if (_wlMember[investor] != true) {... */\n    tag_141:\n      pop\n        /* \"centralContract.sol\":6665:6669  true */\n      0x01\n        /* \"centralContract.sol\":5724:6677  function aST(... */\n      swap4\n      swap3\n      pop\n      pop\n      pop\n      jump\t// out\n        /* \"centralContract.sol\":6741:7333  function cST() public virtual returns (bool) {... */\n    tag_56:\n        /* \"centralContract.sol\":6814:6824  msg.sender */\n      caller\n        /* \"centralContract.sol\":6780:6784  bool */\n      0x00\n        /* \"centralContract.sol\":6857:6874  _wlMember[caller] */\n      dup2\n      dup2\n      mstore\n        /* \"centralContract.sol\":6857:6866  _wlMember */\n      0x05\n        /* \"centralContract.sol\":6857:6874  _wlMember[caller] */\n      0x20\n      mstore\n      0x40\n      dup2\n      keccak256\n      sload\n        /* \"centralContract.sol\":6780:6784  bool */\n      swap1\n      swap2\n        /* \"centralContract.sol\":6814:6824  msg.sender */\n      swap1\n        /* \"centralContract.sol\":6857:6874  _wlMember[caller] */\n      0xff\n      and\n        /* \"centralContract.sol\":6857:6882  _wlMember[caller] == true */\n      iszero\n      iszero\n        /* \"centralContract.sol\":6857:6874  _wlMember[caller] */\n      0x01\n        /* \"centralContract.sol\":6857:6882  _wlMember[caller] == true */\n      eq\n        /* \"centralContract.sol\":6835:6958  require(... */\n      tag_146\n      jumpi\n      mload(0x40)\n      shl(0xe5, 0x461bcd)\n      dup2\n      mstore\n        /* \"#utility.yul\":5094:5096   */\n      0x20\n        /* \"centralContract.sol\":6835:6958  require(... */\n      0x04\n      dup3\n      add\n        /* \"#utility.yul\":5076:5097   */\n      mstore\n        /* \"#utility.yul\":5133:5135   */\n      0x30\n        /* \"#utility.yul\":5113:5131   */\n      0x24\n      dup3\n      add\n        /* \"#utility.yul\":5106:5136   */\n      mstore\n        /* \"#utility.yul\":5172:5206   */\n      0x6f6e6c792077686974652d6c6973746564206d656d626572732063616e20636c\n        /* \"#utility.yul\":5152:5170   */\n      0x44\n      dup3\n      add\n        /* \"#utility.yul\":5145:5207   */\n      mstore\n        /* \"#utility.yul\":5243:5261   */\n      0x61696d20736861726520746f6b656e7300000000000000000000000000000000\n        /* \"#utility.yul\":5223:5241   */\n      0x64\n      dup3\n      add\n        /* \"#utility.yul\":5216:5262   */\n      mstore\n        /* \"#utility.yul\":5279:5298   */\n      0x84\n      add\n        /* \"centralContract.sol\":6835:6958  require(... */\n      tag_111\n        /* \"#utility.yul\":4892:5304   */\n      jump\n        /* \"centralContract.sol\":6835:6958  require(... */\n    tag_146:\n      sub(shl(0xa0, 0x01), 0x01)\n        /* \"centralContract.sol\":6977:6993  _claimST[caller] */\n      dup2\n      and\n        /* \"centralContract.sol\":6996:6997  0 */\n      0x00\n        /* \"centralContract.sol\":6977:6993  _claimST[caller] */\n      swap1\n      dup2\n      mstore\n        /* \"centralContract.sol\":6977:6985  _claimST */\n      0x03\n        /* \"centralContract.sol\":6977:6993  _claimST[caller] */\n      0x20\n      mstore\n      0x40\n      swap1\n      keccak256\n      sload\n        /* \"centralContract.sol\":6969:7033  require(_claimST[caller] > 0, \"you have 0 share token to claim\") */\n      tag_149\n      jumpi\n      mload(0x40)\n      shl(0xe5, 0x461bcd)\n      dup2\n      mstore\n        /* \"#utility.yul\":5511:5513   */\n      0x20\n        /* \"centralContract.sol\":6969:7033  require(_claimST[caller] > 0, \"you have 0 share token to claim\") */\n      0x04\n      dup3\n      add\n        /* \"#utility.yul\":5493:5514   */\n      mstore\n        /* \"#utility.yul\":5550:5552   */\n      0x1f\n        /* \"#utility.yul\":5530:5548   */\n      0x24\n      dup3\n      add\n        /* \"#utility.yul\":5523:5553   */\n      mstore\n        /* \"#utility.yul\":5589:5622   */\n      0x796f752068617665203020736861726520746f6b656e20746f20636c61696d00\n        /* \"#utility.yul\":5569:5587   */\n      0x44\n      dup3\n      add\n        /* \"#utility.yul\":5562:5623   */\n      mstore\n        /* \"#utility.yul\":5640:5658   */\n      0x64\n      add\n        /* \"centralContract.sol\":6969:7033  require(_claimST[caller] > 0, \"you have 0 share token to claim\") */\n      tag_111\n        /* \"#utility.yul\":5309:5664   */\n      jump\n        /* \"centralContract.sol\":6969:7033  require(_claimST[caller] > 0, \"you have 0 share token to claim\") */\n    tag_149:\n      sub(shl(0xa0, 0x01), 0x01)\n        /* \"centralContract.sol\":7098:7114  _claimST[caller] */\n      dup2\n      dup2\n      and\n      0x00\n      swap1\n      dup2\n      mstore\n        /* \"centralContract.sol\":7098:7106  _claimST */\n      0x03\n        /* \"centralContract.sol\":7098:7114  _claimST[caller] */\n      0x20\n      mstore\n      0x40\n      swap1\n      dup2\n      swap1\n      keccak256\n      sload\n        /* \"centralContract.sol\":7066:7069  _st */\n      sload(0x08)\n        /* \"centralContract.sol\":7066:7094  _st.balanceOf(address(this)) */\n      swap2\n      mload\n      shl(0xe0, 0x70a08231)\n      dup2\n      mstore\n        /* \"centralContract.sol\":7088:7092  this */\n      address\n        /* \"centralContract.sol\":7066:7094  _st.balanceOf(address(this)) */\n      0x04\n      dup3\n      add\n        /* \"#utility.yul\":776:850   */\n      mstore\n        /* \"centralContract.sol\":7098:7114  _claimST[caller] */\n      swap1\n      swap3\n        /* \"centralContract.sol\":7066:7069  _st */\n      swap2\n      swap1\n      swap2\n      and\n      swap1\n        /* \"centralContract.sol\":7066:7079  _st.balanceOf */\n      0x70a08231\n      swap1\n        /* \"#utility.yul\":749:767   */\n      0x24\n      add\n        /* \"centralContract.sol\":7066:7094  _st.balanceOf(address(this)) */\n      0x20\n      mload(0x40)\n      dup1\n      dup4\n      sub\n      dup2\n      dup7\n      gas\n      staticcall\n      iszero\n      dup1\n      iszero\n      tag_154\n      jumpi\n      returndatasize\n      0x00\n      dup1\n      returndatacopy\n      revert(0x00, returndatasize)\n    tag_154:\n      pop\n      pop\n      pop\n      pop\n      mload(0x40)\n      returndatasize\n      not(0x1f)\n      0x1f\n      dup3\n      add\n      and\n      dup3\n      add\n      dup1\n      0x40\n      mstore\n      pop\n      dup2\n      add\n      swap1\n      tag_155\n      swap2\n      swap1\n      tag_127\n      jump\t// in\n    tag_155:\n        /* \"centralContract.sol\":7066:7114  _st.balanceOf(address(this)) >= _claimST[caller] */\n      lt\n      iszero\n        /* \"centralContract.sol\":7044:7223  require(... */\n      tag_156\n      jumpi\n      mload(0x40)\n      shl(0xe5, 0x461bcd)\n      dup2\n      mstore\n        /* \"#utility.yul\":5871:5873   */\n      0x20\n        /* \"centralContract.sol\":7044:7223  require(... */\n      0x04\n      dup3\n      add\n        /* \"#utility.yul\":5853:5874   */\n      mstore\n        /* \"#utility.yul\":5910:5912   */\n      0x51\n        /* \"#utility.yul\":5890:5908   */\n      0x24\n      dup3\n      add\n        /* \"#utility.yul\":5883:5913   */\n      mstore\n        /* \"#utility.yul\":5949:5983   */\n      0x6353543a20746869732073686f756c64206e657665722068617070656e203d3e\n        /* \"#utility.yul\":5929:5947   */\n      0x44\n      dup3\n      add\n        /* \"#utility.yul\":5922:5984   */\n      mstore\n        /* \"#utility.yul\":6020:6054   */\n      0x20696e73756666696369656e742062616c616e6365206f662073686172652074\n        /* \"#utility.yul\":6000:6018   */\n      0x64\n      dup3\n      add\n        /* \"#utility.yul\":5993:6055   */\n      mstore\n        /* \"#utility.yul\":6092:6111   */\n      0x6f6b656e7320696e20636f6e7472616374000000000000000000000000000000\n        /* \"#utility.yul\":6071:6090   */\n      0x84\n      dup3\n      add\n        /* \"#utility.yul\":6064:6112   */\n      mstore\n        /* \"#utility.yul\":6129:6148   */\n      0xa4\n      add\n        /* \"centralContract.sol\":7044:7223  require(... */\n      tag_111\n        /* \"#utility.yul\":5669:6154   */\n      jump\n        /* \"centralContract.sol\":7044:7223  require(... */\n    tag_156:\n        /* \"centralContract.sol\":7234:7237  _st */\n      sload(0x08)\n      sub(shl(0xa0, 0x01), 0x01)\n        /* \"centralContract.sol\":7255:7271  _claimST[caller] */\n      dup3\n      dup2\n      and\n        /* \"centralContract.sol\":7234:7237  _st */\n      0x00\n        /* \"centralContract.sol\":7255:7271  _claimST[caller] */\n      dup2\n      dup2\n      mstore\n        /* \"centralContract.sol\":7255:7263  _claimST */\n      0x03\n        /* \"centralContract.sol\":7255:7271  _claimST[caller] */\n      0x20\n      mstore\n      0x40\n      swap1\n      dup2\n      swap1\n      keccak256\n      sload\n        /* \"centralContract.sol\":7234:7272  _st.transfer(caller, _claimST[caller]) */\n      swap1\n      mload\n      shl(0xe0, 0xa9059cbb)\n      dup2\n      mstore\n      0x04\n      dup2\n      add\n        /* \"#utility.yul\":6333:6407   */\n      swap3\n      swap1\n      swap3\n      mstore\n        /* \"#utility.yul\":6423:6441   */\n      0x24\n      dup3\n      add\n        /* \"#utility.yul\":6416:6450   */\n      mstore\n        /* \"centralContract.sol\":7234:7237  _st */\n      swap2\n      and\n      swap1\n        /* \"centralContract.sol\":7234:7246  _st.transfer */\n      0xa9059cbb\n      swap1\n        /* \"#utility.yul\":6306:6324   */\n      0x44\n      add\n        /* \"centralContract.sol\":7234:7272  _st.transfer(caller, _claimST[caller]) */\n      0x20\n      mload(0x40)\n      dup1\n      dup4\n      sub\n      dup2\n      0x00\n      dup8\n      gas\n      call\n      iszero\n      dup1\n      iszero\n      tag_162\n      jumpi\n      returndatasize\n      0x00\n      dup1\n      returndatacopy\n      revert(0x00, returndatasize)\n    tag_162:\n      pop\n      pop\n      pop\n      pop\n      mload(0x40)\n      returndatasize\n      not(0x1f)\n      0x1f\n      dup3\n      add\n      and\n      dup3\n      add\n      dup1\n      0x40\n      mstore\n      pop\n      dup2\n      add\n      swap1\n      tag_163\n      swap2\n      swap1\n      tag_136\n      jump\t// in\n    tag_163:\n      pop\n      sub(shl(0xa0, 0x01), 0x01)\n        /* \"centralContract.sol\":7283:7299  _claimST[caller] */\n      and\n        /* \"centralContract.sol\":7302:7303  0 */\n      0x00\n        /* \"centralContract.sol\":7283:7299  _claimST[caller] */\n      swap1\n      dup2\n      mstore\n        /* \"centralContract.sol\":7283:7291  _claimST */\n      0x03\n        /* \"centralContract.sol\":7283:7299  _claimST[caller] */\n      0x20\n      mstore\n      0x40\n      dup2\n      keccak256\n        /* \"centralContract.sol\":7283:7303  _claimST[caller] = 0 */\n      sstore\n      pop\n        /* \"centralContract.sol\":7321:7325  true */\n      0x01\n      swap1\n        /* \"centralContract.sol\":6741:7333  function cST() public virtual returns (bool) {... */\n      jump\t// out\n        /* \"centralContract.sol\":8445:9062  function cBT() public virtual returns (bool) {... */\n    tag_73:\n        /* \"centralContract.sol\":8518:8528  msg.sender */\n      caller\n        /* \"centralContract.sol\":8484:8488  bool */\n      0x00\n        /* \"centralContract.sol\":8561:8578  _wlMember[caller] */\n      dup2\n      dup2\n      mstore\n        /* \"centralContract.sol\":8561:8570  _wlMember */\n      0x05\n        /* \"centralContract.sol\":8561:8578  _wlMember[caller] */\n      0x20\n      mstore\n      0x40\n      dup2\n      keccak256\n      sload\n        /* \"centralContract.sol\":8484:8488  bool */\n      swap1\n      swap2\n        /* \"centralContract.sol\":8518:8528  msg.sender */\n      swap1\n        /* \"centralContract.sol\":8561:8578  _wlMember[caller] */\n      0xff\n      and\n        /* \"centralContract.sol\":8561:8586  _wlMember[caller] == true */\n      iszero\n      iszero\n        /* \"centralContract.sol\":8561:8578  _wlMember[caller] */\n      0x01\n        /* \"centralContract.sol\":8561:8586  _wlMember[caller] == true */\n      eq\n        /* \"centralContract.sol\":8539:8670  require(... */\n      tag_166\n      jumpi\n      mload(0x40)\n      shl(0xe5, 0x461bcd)\n      dup2\n      mstore\n        /* \"#utility.yul\":6663:6665   */\n      0x20\n        /* \"centralContract.sol\":8539:8670  require(... */\n      0x04\n      dup3\n      add\n        /* \"#utility.yul\":6645:6666   */\n      mstore\n        /* \"#utility.yul\":6702:6704   */\n      0x38\n        /* \"#utility.yul\":6682:6700   */\n      0x24\n      dup3\n      add\n        /* \"#utility.yul\":6675:6705   */\n      mstore\n        /* \"#utility.yul\":6741:6775   */\n      0x6342543a206f6e6c792077686974652d6c6973746564206d656d626572732063\n        /* \"#utility.yul\":6721:6739   */\n      0x44\n      dup3\n      add\n        /* \"#utility.yul\":6714:6776   */\n      mstore\n        /* \"#utility.yul\":6812:6838   */\n      0x616e20636c61696d20206261636b696e6720746f6b656e730000000000000000\n        /* \"#utility.yul\":6792:6810   */\n      0x64\n      dup3\n      add\n        /* \"#utility.yul\":6785:6839   */\n      mstore\n        /* \"#utility.yul\":6856:6875   */\n      0x84\n      add\n        /* \"centralContract.sol\":8539:8670  require(... */\n      tag_111\n        /* \"#utility.yul\":6461:6881   */\n      jump\n        /* \"centralContract.sol\":8539:8670  require(... */\n    tag_166:\n      sub(shl(0xa0, 0x01), 0x01)\n        /* \"centralContract.sol\":8689:8705  _claimBT[caller] */\n      dup2\n      and\n        /* \"centralContract.sol\":8708:8709  0 */\n      0x00\n        /* \"centralContract.sol\":8689:8705  _claimBT[caller] */\n      swap1\n      dup2\n      mstore\n        /* \"centralContract.sol\":8689:8697  _claimBT */\n      0x04\n        /* \"centralContract.sol\":8689:8705  _claimBT[caller] */\n      0x20\n      mstore\n      0x40\n      swap1\n      keccak256\n      sload\n        /* \"centralContract.sol\":8681:8752  require(_claimBT[caller] > 0, \"cBT: you have 0 backing token to claim\") */\n      tag_169\n      jumpi\n      mload(0x40)\n      shl(0xe5, 0x461bcd)\n      dup2\n      mstore\n        /* \"#utility.yul\":7088:7090   */\n      0x20\n        /* \"centralContract.sol\":8681:8752  require(_claimBT[caller] > 0, \"cBT: you have 0 backing token to claim\") */\n      0x04\n      dup3\n      add\n        /* \"#utility.yul\":7070:7091   */\n      mstore\n        /* \"#utility.yul\":7127:7129   */\n      0x26\n        /* \"#utility.yul\":7107:7125   */\n      0x24\n      dup3\n      add\n        /* \"#utility.yul\":7100:7130   */\n      mstore\n        /* \"#utility.yul\":7166:7200   */\n      0x6342543a20796f7520686176652030206261636b696e6720746f6b656e20746f\n        /* \"#utility.yul\":7146:7164   */\n      0x44\n      dup3\n      add\n        /* \"#utility.yul\":7139:7201   */\n      mstore\n        /* \"#utility.yul\":7237:7245   */\n      0x20636c61696d0000000000000000000000000000000000000000000000000000\n        /* \"#utility.yul\":7217:7235   */\n      0x64\n      dup3\n      add\n        /* \"#utility.yul\":7210:7246   */\n      mstore\n        /* \"#utility.yul\":7263:7282   */\n      0x84\n      add\n        /* \"centralContract.sol\":8681:8752  require(_claimBT[caller] > 0, \"cBT: you have 0 backing token to claim\") */\n      tag_111\n        /* \"#utility.yul\":6886:7288   */\n      jump\n        /* \"centralContract.sol\":8681:8752  require(_claimBT[caller] > 0, \"cBT: you have 0 backing token to claim\") */\n    tag_169:\n      sub(shl(0xa0, 0x01), 0x01)\n        /* \"centralContract.sol\":8817:8833  _claimBT[caller] */\n      dup2\n      dup2\n      and\n      0x00\n      swap1\n      dup2\n      mstore\n        /* \"centralContract.sol\":8817:8825  _claimBT */\n      0x04\n        /* \"centralContract.sol\":8817:8833  _claimBT[caller] */\n      0x20\n      dup2\n      swap1\n      mstore\n      0x40\n      swap2\n      dup3\n      swap1\n      keccak256\n      sload\n        /* \"centralContract.sol\":8785:8788  _bt */\n      sload(0x07)\n        /* \"centralContract.sol\":8785:8813  _bt.balanceOf(address(this)) */\n      swap3\n      mload\n      shl(0xe0, 0x70a08231)\n      dup2\n      mstore\n        /* \"centralContract.sol\":8807:8811  this */\n      address\n        /* \"centralContract.sol\":8785:8813  _bt.balanceOf(address(this)) */\n      swap3\n      dup2\n      add\n        /* \"#utility.yul\":776:850   */\n      swap3\n      swap1\n      swap3\n      mstore\n        /* \"centralContract.sol\":8817:8833  _claimBT[caller] */\n      swap3\n        /* \"centralContract.sol\":8785:8788  _bt */\n      swap2\n      swap1\n      swap2\n      and\n      swap1\n        /* \"centralContract.sol\":8785:8798  _bt.balanceOf */\n      0x70a08231\n      swap1\n        /* \"#utility.yul\":749:767   */\n      0x24\n      add\n        /* \"centralContract.sol\":8785:8813  _bt.balanceOf(address(this)) */\n      0x20\n      mload(0x40)\n      dup1\n      dup4\n      sub\n      dup2\n      dup7\n      gas\n      staticcall\n      iszero\n      dup1\n      iszero\n      tag_174\n      jumpi\n      returndatasize\n      0x00\n      dup1\n      returndatacopy\n      revert(0x00, returndatasize)\n    tag_174:\n      pop\n      pop\n      pop\n      pop\n      mload(0x40)\n      returndatasize\n      not(0x1f)\n      0x1f\n      dup3\n      add\n      and\n      dup3\n      add\n      dup1\n      0x40\n      mstore\n      pop\n      dup2\n      add\n      swap1\n      tag_175\n      swap2\n      swap1\n      tag_127\n      jump\t// in\n    tag_175:\n        /* \"centralContract.sol\":8785:8833  _bt.balanceOf(address(this)) >= _claimBT[caller] */\n      lt\n      iszero\n        /* \"centralContract.sol\":8763:8952  require(... */\n      tag_176\n      jumpi\n      mload(0x40)\n      shl(0xe5, 0x461bcd)\n      dup2\n      mstore\n        /* \"#utility.yul\":7495:7497   */\n      0x20\n        /* \"centralContract.sol\":8763:8952  require(... */\n      0x04\n      dup3\n      add\n        /* \"#utility.yul\":7477:7498   */\n      mstore\n        /* \"#utility.yul\":7534:7536   */\n      0x5b\n        /* \"#utility.yul\":7514:7532   */\n      0x24\n      dup3\n      add\n        /* \"#utility.yul\":7507:7537   */\n      mstore\n        /* \"#utility.yul\":7573:7607   */\n      0x6342543a20746869732073686f756c64206e657665722068617070656e202877\n        /* \"#utility.yul\":7553:7571   */\n      0x44\n      dup3\n      add\n        /* \"#utility.yul\":7546:7608   */\n      mstore\n        /* \"#utility.yul\":7644:7678   */\n      0x6569726429203d3e20696e73756666696369656e742062616c616e6365206f66\n        /* \"#utility.yul\":7624:7642   */\n      0x64\n      dup3\n      add\n        /* \"#utility.yul\":7617:7679   */\n      mstore\n        /* \"#utility.yul\":7716:7745   */\n      0x206261636b696e6720746f6b656e7320696e20636f6e74726163740000000000\n        /* \"#utility.yul\":7695:7714   */\n      0x84\n      dup3\n      add\n        /* \"#utility.yul\":7688:7746   */\n      mstore\n        /* \"#utility.yul\":7763:7782   */\n      0xa4\n      add\n        /* \"centralContract.sol\":8763:8952  require(... */\n      tag_111\n        /* \"#utility.yul\":7293:7788   */\n      jump\n        /* \"centralContract.sol\":8763:8952  require(... */\n    tag_176:\n        /* \"centralContract.sol\":8963:8966  _bt */\n      sload(0x07)\n      sub(shl(0xa0, 0x01), 0x01)\n        /* \"centralContract.sol\":8984:9000  _claimBT[caller] */\n      dup3\n      dup2\n      and\n        /* \"centralContract.sol\":8963:8966  _bt */\n      0x00\n        /* \"centralContract.sol\":8984:9000  _claimBT[caller] */\n      dup2\n      dup2\n      mstore\n        /* \"centralContract.sol\":8984:8992  _claimBT */\n      0x04\n        /* \"centralContract.sol\":8984:9000  _claimBT[caller] */\n      0x20\n      dup2\n      swap1\n      mstore\n      0x40\n      swap2\n      dup3\n      swap1\n      keccak256\n      sload\n        /* \"centralContract.sol\":8963:9001  _bt.transfer(caller, _claimBT[caller]) */\n      swap2\n      mload\n      shl(0xe0, 0xa9059cbb)\n      dup2\n      mstore\n      swap1\n      dup2\n      add\n        /* \"#utility.yul\":6333:6407   */\n      swap3\n      swap1\n      swap3\n      mstore\n        /* \"#utility.yul\":6423:6441   */\n      0x24\n      dup3\n      add\n        /* \"#utility.yul\":6416:6450   */\n      mstore\n        /* \"centralContract.sol\":8963:8966  _bt */\n      swap2\n      and\n      swap1\n        /* \"centralContract.sol\":8963:8975  _bt.transfer */\n      0xa9059cbb\n      swap1\n        /* \"#utility.yul\":6306:6324   */\n      0x44\n      add\n        /* \"centralContract.sol\":8963:9001  _bt.transfer(caller, _claimBT[caller]) */\n      0x20\n      mload(0x40)\n      dup1\n      dup4\n      sub\n      dup2\n      0x00\n      dup8\n      gas\n      call\n      iszero\n      dup1\n      iszero\n      tag_181\n      jumpi\n      returndatasize\n      0x00\n      dup1\n      returndatacopy\n      revert(0x00, returndatasize)\n    tag_181:\n      pop\n      pop\n      pop\n      pop\n      mload(0x40)\n      returndatasize\n      not(0x1f)\n      0x1f\n      dup3\n      add\n      and\n      dup3\n      add\n      dup1\n      0x40\n      mstore\n      pop\n      dup2\n      add\n      swap1\n      tag_182\n      swap2\n      swap1\n      tag_136\n      jump\t// in\n    tag_182:\n      pop\n      sub(shl(0xa0, 0x01), 0x01)\n        /* \"centralContract.sol\":9012:9028  _claimBT[caller] */\n      and\n        /* \"centralContract.sol\":9031:9032  0 */\n      0x00\n        /* \"centralContract.sol\":9012:9028  _claimBT[caller] */\n      swap1\n      dup2\n      mstore\n        /* \"centralContract.sol\":9012:9020  _claimBT */\n      0x04\n        /* \"centralContract.sol\":9012:9028  _claimBT[caller] */\n      0x20\n      mstore\n      0x40\n      dup2\n      keccak256\n        /* \"centralContract.sol\":9012:9032  _claimBT[caller] = 0 */\n      sstore\n      pop\n        /* \"centralContract.sol\":9050:9054  true */\n      0x01\n      swap1\n        /* \"centralContract.sol\":8445:9062  function cBT() public virtual returns (bool) {... */\n      jump\t// out\n        /* \"centralContract.sol\":9456:9896  function remWL(address member) public virtual returns (bool) {... */\n    tag_88:\n        /* \"centralContract.sol\":9511:9515  bool */\n      0x00\n      sub(shl(0xa0, 0x01), 0x01)\n        /* \"centralContract.sol\":9550:9570  member != address(0) */\n      dup3\n      and\n        /* \"centralContract.sol\":9528:9650  require(... */\n      tag_186\n      jumpi\n      mload(0x40)\n      shl(0xe5, 0x461bcd)\n      dup2\n      mstore\n        /* \"#utility.yul\":7995:7997   */\n      0x20\n        /* \"centralContract.sol\":9528:9650  require(... */\n      0x04\n      dup3\n      add\n        /* \"#utility.yul\":7977:7998   */\n      mstore\n        /* \"#utility.yul\":8034:8036   */\n      0x34\n        /* \"#utility.yul\":8014:8032   */\n      0x24\n      dup3\n      add\n        /* \"#utility.yul\":8007:8037   */\n      mstore\n        /* \"#utility.yul\":8073:8107   */\n      0x72656d574c3a20796f752063616e6e6f742072656d6f76652061207a65726f20\n        /* \"#utility.yul\":8053:8071   */\n      0x44\n      dup3\n      add\n        /* \"#utility.yul\":8046:8108   */\n      mstore\n        /* \"#utility.yul\":8144:8166   */\n      0x6164647265737320746f2077686974654c697374000000000000000000000000\n        /* \"#utility.yul\":8124:8142   */\n      0x64\n      dup3\n      add\n        /* \"#utility.yul\":8117:8167   */\n      mstore\n        /* \"#utility.yul\":8184:8203   */\n      0x84\n      add\n        /* \"centralContract.sol\":9528:9650  require(... */\n      tag_111\n        /* \"#utility.yul\":7793:8209   */\n      jump\n        /* \"centralContract.sol\":9528:9650  require(... */\n    tag_186:\n      sub(shl(0xa0, 0x01), 0x01)\n        /* \"centralContract.sol\":9683:9700  _wlMember[member] */\n      dup3\n      and\n      0x00\n      swap1\n      dup2\n      mstore\n        /* \"centralContract.sol\":9683:9692  _wlMember */\n      0x05\n        /* \"centralContract.sol\":9683:9700  _wlMember[member] */\n      0x20\n      mstore\n      0x40\n      swap1\n      keccak256\n      sload\n      0xff\n      and\n        /* \"centralContract.sol\":9683:9708  _wlMember[member] == true */\n      iszero\n      iszero\n        /* \"centralContract.sol\":9683:9700  _wlMember[member] */\n      0x01\n        /* \"centralContract.sol\":9683:9708  _wlMember[member] == true */\n      eq\n        /* \"centralContract.sol\":9661:9796  require(... */\n      tag_189\n      jumpi\n      mload(0x40)\n      shl(0xe5, 0x461bcd)\n      dup2\n      mstore\n        /* \"#utility.yul\":8416:8418   */\n      0x20\n        /* \"centralContract.sol\":9661:9796  require(... */\n      0x04\n      dup3\n      add\n        /* \"#utility.yul\":8398:8419   */\n      mstore\n        /* \"#utility.yul\":8455:8457   */\n      0x3c\n        /* \"#utility.yul\":8435:8453   */\n      0x24\n      dup3\n      add\n        /* \"#utility.yul\":8428:8458   */\n      mstore\n        /* \"#utility.yul\":8494:8528   */\n      0x72656d574c3a2063616e6e6f742072656d6f7665206d656d6265722074686174\n        /* \"#utility.yul\":8474:8492   */\n      0x44\n      dup3\n      add\n        /* \"#utility.yul\":8467:8529   */\n      mstore\n        /* \"#utility.yul\":8565:8595   */\n      0x20646f6573206e6f7420657869737420696e2077686974656c69737400000000\n        /* \"#utility.yul\":8545:8563   */\n      0x64\n      dup3\n      add\n        /* \"#utility.yul\":8538:8596   */\n      mstore\n        /* \"#utility.yul\":8613:8632   */\n      0x84\n      add\n        /* \"centralContract.sol\":9661:9796  require(... */\n      tag_111\n        /* \"#utility.yul\":8214:8638   */\n      jump\n        /* \"centralContract.sol\":9661:9796  require(... */\n    tag_189:\n      pop\n        /* \"centralContract.sol\":9807:9817  _whiteList */\n      0x0c\n        /* \"centralContract.sol\":9807:9830  _whiteList.push(member) */\n      dup1\n      sload\n      0x01\n      dup2\n      dup2\n      add\n      swap1\n      swap3\n      sstore\n      0xdf6966c971051c3d54ec59162606531493a51404a002842f56009d7e5cf4a8c7\n      add\n      dup1\n      sload\n      sub(shl(0xa0, 0x01), 0x01)\n      swap1\n      swap4\n      and\n      not(sub(shl(0xa0, 0x01), 0x01))\n      swap1\n      swap4\n      and\n      dup4\n      or\n      swap1\n      sstore\n      0x00\n        /* \"centralContract.sol\":9841:9858  _wlMember[member] */\n      swap2\n      dup3\n      mstore\n        /* \"centralContract.sol\":9841:9850  _wlMember */\n      0x05\n        /* \"centralContract.sol\":9807:9830  _whiteList.push(member) */\n      0x20\n        /* \"centralContract.sol\":9841:9858  _wlMember[member] */\n      mstore\n      0x40\n      swap1\n      swap2\n      keccak256\n        /* \"centralContract.sol\":9841:9866  _wlMember[member] = false */\n      dup1\n      sload\n      not(0xff)\n      and\n      swap1\n      sstore\n        /* \"centralContract.sol\":9807:9830  _whiteList.push(member) */\n      swap1\n        /* \"centralContract.sol\":9456:9896  function remWL(address member) public virtual returns (bool) {... */\n      jump\t// out\n        /* \"centralContract.sol\":7413:8379  function dBT(IERC20 token, uint256 amount) public payable returns (bool) {... */\n    tag_98:\n        /* \"centralContract.sol\":7519:7527  _creator */\n      sload(0x0f)\n        /* \"centralContract.sol\":7480:7484  bool */\n      0x00\n      swap1\n      sub(shl(0xa0, 0x01), 0x01)\n        /* \"centralContract.sol\":7519:7527  _creator */\n      and\n        /* \"centralContract.sol\":7505:7515  msg.sender */\n      caller\n        /* \"centralContract.sol\":7505:7527  msg.sender == _creator */\n      eq\n      dup1\n        /* \"centralContract.sol\":7505:7553  msg.sender == _creator || msg.sender == _manager */\n      tag_195\n      jumpi\n      pop\n        /* \"centralContract.sol\":7545:7553  _manager */\n      and(sub(shl(0xa0, 0x01), 0x01), sload(0x0a))\n        /* \"centralContract.sol\":7531:7541  msg.sender */\n      caller\n        /* \"centralContract.sol\":7531:7553  msg.sender == _manager */\n      eq\n        /* \"centralContract.sol\":7505:7553  msg.sender == _creator || msg.sender == _manager */\n    tag_195:\n        /* \"centralContract.sol\":7497:7554  require(msg.sender == _creator || msg.sender == _manager) */\n      tag_196\n      jumpi\n      0x00\n      dup1\n      revert\n    tag_196:\n        /* \"centralContract.sol\":7596:7599  _bt */\n      sload(0x07)\n      sub(shl(0xa0, 0x01), 0x01)\n        /* \"centralContract.sol\":7587:7599  token == _bt */\n      dup5\n      dup2\n      and\n        /* \"centralContract.sol\":7596:7599  _bt */\n      swap2\n      and\n        /* \"centralContract.sol\":7587:7599  token == _bt */\n      eq\n        /* \"centralContract.sol\":7565:7676  require(... */\n      tag_197\n      jumpi\n      mload(0x40)\n      shl(0xe5, 0x461bcd)\n      dup2\n      mstore\n        /* \"#utility.yul\":8845:8847   */\n      0x20\n        /* \"centralContract.sol\":7565:7676  require(... */\n      0x04\n      dup3\n      add\n        /* \"#utility.yul\":8827:8848   */\n      mstore\n        /* \"#utility.yul\":8884:8886   */\n      0x31\n        /* \"#utility.yul\":8864:8882   */\n      0x24\n      dup3\n      add\n        /* \"#utility.yul\":8857:8887   */\n      mstore\n        /* \"#utility.yul\":8923:8957   */\n      0x6442543a206d616b65207375726520796f752061726520646973747269627574\n        /* \"#utility.yul\":8903:8921   */\n      0x44\n      dup3\n      add\n        /* \"#utility.yul\":8896:8958   */\n      mstore\n        /* \"#utility.yul\":8994:9013   */\n      0x696e67206261636b696e6720746f6b656e000000000000000000000000000000\n        /* \"#utility.yul\":8974:8992   */\n      0x64\n      dup3\n      add\n        /* \"#utility.yul\":8967:9014   */\n      mstore\n        /* \"#utility.yul\":9031:9050   */\n      0x84\n      add\n        /* \"centralContract.sol\":7565:7676  require(... */\n      tag_111\n        /* \"#utility.yul\":8643:9056   */\n      jump\n        /* \"centralContract.sol\":7565:7676  require(... */\n    tag_197:\n        /* \"centralContract.sol\":7718:7719  0 */\n      0x00\n        /* \"centralContract.sol\":7709:7715  amount */\n      dup3\n        /* \"centralContract.sol\":7709:7719  amount > 0 */\n      gt\n        /* \"centralContract.sol\":7687:7797  require(... */\n      tag_200\n      jumpi\n      mload(0x40)\n      shl(0xe5, 0x461bcd)\n      dup2\n      mstore\n        /* \"#utility.yul\":9263:9265   */\n      0x20\n        /* \"centralContract.sol\":7687:7797  require(... */\n      0x04\n      dup3\n      add\n        /* \"#utility.yul\":9245:9266   */\n      mstore\n        /* \"#utility.yul\":9302:9304   */\n      0x32\n        /* \"#utility.yul\":9282:9300   */\n      0x24\n      dup3\n      add\n        /* \"#utility.yul\":9275:9305   */\n      mstore\n        /* \"#utility.yul\":9341:9375   */\n      0x6442543a20796f75206d75737420706179206261636b696e6720746f6b656e73\n        /* \"#utility.yul\":9321:9339   */\n      0x44\n      dup3\n      add\n        /* \"#utility.yul\":9314:9376   */\n      mstore\n        /* \"#utility.yul\":9412:9432   */\n      0x2067726561746572207468616e207a65726f0000000000000000000000000000\n        /* \"#utility.yul\":9392:9410   */\n      0x64\n      dup3\n      add\n        /* \"#utility.yul\":9385:9433   */\n      mstore\n        /* \"#utility.yul\":9450:9469   */\n      0x84\n      add\n        /* \"centralContract.sol\":7687:7797  require(... */\n      tag_111\n        /* \"#utility.yul\":9061:9475   */\n      jump\n        /* \"centralContract.sol\":7687:7797  require(... */\n    tag_200:\n        /* \"centralContract.sol\":7830:7866  token.balanceOf(address(msg.sender)) */\n      mload(0x40)\n      shl(0xe0, 0x70a08231)\n      dup2\n      mstore\n        /* \"centralContract.sol\":7854:7864  msg.sender */\n      caller\n        /* \"centralContract.sol\":7830:7866  token.balanceOf(address(msg.sender)) */\n      0x04\n      dup3\n      add\n        /* \"#utility.yul\":776:850   */\n      mstore\n        /* \"centralContract.sol\":7870:7876  amount */\n      dup3\n      swap1\n      sub(shl(0xa0, 0x01), 0x01)\n        /* \"centralContract.sol\":7830:7845  token.balanceOf */\n      dup6\n      and\n      swap1\n      0x70a08231\n      swap1\n        /* \"#utility.yul\":749:767   */\n      0x24\n      add\n        /* \"centralContract.sol\":7830:7866  token.balanceOf(address(msg.sender)) */\n      0x20\n      mload(0x40)\n      dup1\n      dup4\n      sub\n      dup2\n      dup7\n      gas\n      staticcall\n      iszero\n      dup1\n      iszero\n      tag_205\n      jumpi\n      returndatasize\n      0x00\n      dup1\n      returndatacopy\n      revert(0x00, returndatasize)\n    tag_205:\n      pop\n      pop\n      pop\n      pop\n      mload(0x40)\n      returndatasize\n      not(0x1f)\n      0x1f\n      dup3\n      add\n      and\n      dup3\n      add\n      dup1\n      0x40\n      mstore\n      pop\n      dup2\n      add\n      swap1\n      tag_206\n      swap2\n      swap1\n      tag_127\n      jump\t// in\n    tag_206:\n        /* \"centralContract.sol\":7830:7876  token.balanceOf(address(msg.sender)) >= amount */\n      lt\n      iszero\n        /* \"centralContract.sol\":7808:7972  require(... */\n      tag_207\n      jumpi\n      mload(0x40)\n      shl(0xe5, 0x461bcd)\n      dup2\n      mstore\n        /* \"#utility.yul\":9682:9684   */\n      0x20\n        /* \"centralContract.sol\":7808:7972  require(... */\n      0x04\n      dup3\n      add\n        /* \"#utility.yul\":9664:9685   */\n      mstore\n        /* \"#utility.yul\":9721:9723   */\n      0x44\n        /* \"#utility.yul\":9701:9719   */\n      0x24\n      dup3\n      add\n        /* \"#utility.yul\":9694:9724   */\n      dup2\n      swap1\n      mstore\n        /* \"#utility.yul\":9760:9794   */\n      0x6442543a20796f7520646f206e6f7420686176652073756666696369656e7420\n        /* \"#utility.yul\":9740:9758   */\n      swap1\n      dup3\n      add\n        /* \"#utility.yul\":9733:9795   */\n      mstore\n        /* \"#utility.yul\":9831:9865   */\n      0x62616c616e636520746f2064697374726962757465206261636b696e6720746f\n        /* \"#utility.yul\":9811:9829   */\n      0x64\n      dup3\n      add\n        /* \"#utility.yul\":9804:9866   */\n      mstore\n      shl(0xe0, 0x6b656e73)\n        /* \"#utility.yul\":9882:9901   */\n      0x84\n      dup3\n      add\n        /* \"#utility.yul\":9875:9910   */\n      mstore\n        /* \"#utility.yul\":9927:9946   */\n      0xa4\n      add\n        /* \"centralContract.sol\":7808:7972  require(... */\n      tag_111\n        /* \"#utility.yul\":9480:9952   */\n      jump\n        /* \"centralContract.sol\":7808:7972  require(... */\n    tag_207:\n        /* \"centralContract.sol\":7983:8036  token.transferFrom(msg.sender, address(this), amount) */\n      mload(0x40)\n      shl(0xe0, 0x23b872dd)\n      dup2\n      mstore\n        /* \"centralContract.sol\":8002:8012  msg.sender */\n      caller\n        /* \"centralContract.sol\":7983:8036  token.transferFrom(msg.sender, address(this), amount) */\n      0x04\n      dup3\n      add\n        /* \"#utility.yul\":4205:4239   */\n      mstore\n        /* \"centralContract.sol\":8022:8026  this */\n      address\n        /* \"#utility.yul\":4255:4273   */\n      0x24\n      dup3\n      add\n        /* \"#utility.yul\":4248:4291   */\n      mstore\n        /* \"#utility.yul\":4307:4325   */\n      0x44\n      dup2\n      add\n        /* \"#utility.yul\":4300:4334   */\n      dup4\n      swap1\n      mstore\n      sub(shl(0xa0, 0x01), 0x01)\n        /* \"centralContract.sol\":7983:8001  token.transferFrom */\n      dup5\n      and\n      swap1\n      0x23b872dd\n      swap1\n        /* \"#utility.yul\":4117:4135   */\n      0x64\n      add\n        /* \"centralContract.sol\":7983:8036  token.transferFrom(msg.sender, address(this), amount) */\n      0x20\n      mload(0x40)\n      dup1\n      dup4\n      sub\n      dup2\n      0x00\n      dup8\n      gas\n      call\n      iszero\n      dup1\n      iszero\n      tag_212\n      jumpi\n      returndatasize\n      0x00\n      dup1\n      returndatacopy\n      revert(0x00, returndatasize)\n    tag_212:\n      pop\n      pop\n      pop\n      pop\n      mload(0x40)\n      returndatasize\n      not(0x1f)\n      0x1f\n      dup3\n      add\n      and\n      dup3\n      add\n      dup1\n      0x40\n      mstore\n      pop\n      dup2\n      add\n      swap1\n      tag_213\n      swap2\n      swap1\n      tag_136\n      jump\t// in\n    tag_213:\n      pop\n        /* \"centralContract.sol\":8054:8063  uint256 i */\n      0x00\n        /* \"centralContract.sol\":8049:8319  for (uint256 i = 0; i < _whiteList.length; i++) {... */\n    tag_214:\n        /* \"centralContract.sol\":8073:8083  _whiteList */\n      0x0c\n        /* \"centralContract.sol\":8073:8090  _whiteList.length */\n      sload\n        /* \"centralContract.sol\":8069:8090  i < _whiteList.length */\n      dup2\n      lt\n        /* \"centralContract.sol\":8049:8319  for (uint256 i = 0; i < _whiteList.length; i++) {... */\n      iszero\n      tag_215\n      jumpi\n        /* \"centralContract.sol\":8112:8121  address a */\n      0x00\n        /* \"centralContract.sol\":8124:8134  _whiteList */\n      0x0c\n        /* \"centralContract.sol\":8135:8136  i */\n      dup3\n        /* \"centralContract.sol\":8124:8137  _whiteList[i] */\n      dup2\n      sload\n      dup2\n      lt\n      tag_218\n      jumpi\n      tag_218\n      tag_219\n      jump\t// in\n    tag_218:\n      0x00\n      swap2\n      dup3\n      mstore\n      0x20\n      dup1\n      dup4\n      keccak256\n      swap1\n      swap2\n      add\n      sload\n        /* \"centralContract.sol\":8206:8212  _totST */\n      sload(0x10)\n      sub(shl(0xa0, 0x01), 0x01)\n        /* \"centralContract.sol\":8124:8137  _whiteList[i] */\n      swap1\n      swap2\n      and\n        /* \"centralContract.sol\":8181:8193  _totAllST[a] */\n      dup1\n      dup5\n      mstore\n        /* \"centralContract.sol\":8124:8137  _whiteList[i] */\n      0x01\n        /* \"centralContract.sol\":8181:8193  _totAllST[a] */\n      swap1\n      swap3\n      mstore\n      0x40\n      dup4\n      keccak256\n      sload\n        /* \"centralContract.sol\":8124:8137  _whiteList[i] */\n      swap2\n      swap4\n      pop\n        /* \"centralContract.sol\":8206:8212  _totST */\n      swap1\n        /* \"centralContract.sol\":8181:8202  _totAllST[a] * amount */\n      tag_221\n      swap1\n        /* \"centralContract.sol\":8196:8202  amount */\n      dup8\n      swap1\n        /* \"centralContract.sol\":8181:8202  _totAllST[a] * amount */\n      tag_222\n      jump\t// in\n    tag_221:\n        /* \"centralContract.sol\":8180:8212  (_totAllST[a] * amount) / _totST */\n      tag_223\n      swap2\n      swap1\n      tag_224\n      jump\t// in\n    tag_223:\n      sub(shl(0xa0, 0x01), 0x01)\n        /* \"centralContract.sol\":8227:8239  _totAllBT[a] */\n      dup4\n      and\n      0x00\n      swap1\n      dup2\n      mstore\n        /* \"centralContract.sol\":8227:8236  _totAllBT */\n      0x02\n        /* \"centralContract.sol\":8227:8239  _totAllBT[a] */\n      0x20\n      mstore\n      0x40\n      dup2\n      keccak256\n        /* \"centralContract.sol\":8227:8260  _totAllBT[a] += currentAllocation */\n      dup1\n      sload\n        /* \"centralContract.sol\":8152:8212  uint256 currentAllocation = (_totAllST[a] * amount) / _totST */\n      swap3\n      swap4\n      pop\n      dup4\n      swap3\n        /* \"centralContract.sol\":8227:8239  _totAllBT[a] */\n      swap1\n      swap2\n      swap1\n        /* \"centralContract.sol\":8227:8260  _totAllBT[a] += currentAllocation */\n      tag_225\n      swap1\n        /* \"centralContract.sol\":8152:8212  uint256 currentAllocation = (_totAllST[a] * amount) / _totST */\n      dup5\n      swap1\n        /* \"centralContract.sol\":8227:8260  _totAllBT[a] += currentAllocation */\n      tag_138\n      jump\t// in\n    tag_225:\n      swap1\n      swap2\n      sstore\n      pop\n      pop\n      sub(shl(0xa0, 0x01), 0x01)\n        /* \"centralContract.sol\":8275:8286  _claimBT[a] */\n      dup3\n      and\n      0x00\n      swap1\n      dup2\n      mstore\n        /* \"centralContract.sol\":8275:8283  _claimBT */\n      0x04\n        /* \"centralContract.sol\":8275:8286  _claimBT[a] */\n      0x20\n      mstore\n      0x40\n      dup2\n      keccak256\n        /* \"centralContract.sol\":8275:8307  _claimBT[a] += currentAllocation */\n      dup1\n      sload\n        /* \"centralContract.sol\":8290:8307  currentAllocation */\n      dup4\n      swap3\n        /* \"centralContract.sol\":8275:8286  _claimBT[a] */\n      swap1\n        /* \"centralContract.sol\":8275:8307  _claimBT[a] += currentAllocation */\n      tag_226\n      swap1\n        /* \"centralContract.sol\":8290:8307  currentAllocation */\n      dup5\n      swap1\n        /* \"centralContract.sol\":8275:8307  _claimBT[a] += currentAllocation */\n      tag_138\n      jump\t// in\n    tag_226:\n      swap3\n      pop\n      pop\n      dup2\n      swap1\n      sstore\n      pop\n        /* \"centralContract.sol\":8097:8319  {... */\n      pop\n      pop\n        /* \"centralContract.sol\":8092:8095  i++ */\n      dup1\n      dup1\n      tag_227\n      swap1\n      tag_228\n      jump\t// in\n    tag_227:\n      swap2\n      pop\n      pop\n        /* \"centralContract.sol\":8049:8319  for (uint256 i = 0; i < _whiteList.length; i++) {... */\n      jump(tag_214)\n    tag_215:\n      pop\n        /* \"centralContract.sol\":8341:8347  amount */\n      dup2\n        /* \"centralContract.sol\":8331:8337  _totBT */\n      0x11\n      0x00\n        /* \"centralContract.sol\":8331:8347  _totBT += amount */\n      dup3\n      dup3\n      sload\n      tag_229\n      swap2\n      swap1\n      tag_138\n      jump\t// in\n    tag_229:\n      swap1\n      swap2\n      sstore\n      pop\n        /* \"centralContract.sol\":8367:8371  true */\n      0x01\n      swap5\n        /* \"centralContract.sol\":7413:8379  function dBT(IERC20 token, uint256 amount) public payable returns (bool) {... */\n      swap4\n      pop\n      pop\n      pop\n      pop\n      jump\t// out\n        /* \"#utility.yul\":14:168   */\n    tag_231:\n      sub(shl(0xa0, 0x01), 0x01)\n        /* \"#utility.yul\":93:98   */\n      dup2\n        /* \"#utility.yul\":89:143   */\n      and\n        /* \"#utility.yul\":82:87   */\n      dup2\n        /* \"#utility.yul\":79:144   */\n      eq\n        /* \"#utility.yul\":69:162   */\n      tag_235\n      jumpi\n        /* \"#utility.yul\":158:159   */\n      0x00\n        /* \"#utility.yul\":155:156   */\n      dup1\n        /* \"#utility.yul\":148:160   */\n      revert\n        /* \"#utility.yul\":69:162   */\n    tag_235:\n        /* \"#utility.yul\":14:168   */\n      pop\n      jump\t// out\n        /* \"#utility.yul\":173:420   */\n    tag_29:\n        /* \"#utility.yul\":232:238   */\n      0x00\n        /* \"#utility.yul\":285:287   */\n      0x20\n        /* \"#utility.yul\":273:282   */\n      dup3\n        /* \"#utility.yul\":264:271   */\n      dup5\n        /* \"#utility.yul\":260:283   */\n      sub\n        /* \"#utility.yul\":256:288   */\n      slt\n        /* \"#utility.yul\":253:305   */\n      iszero\n      tag_237\n      jumpi\n        /* \"#utility.yul\":301:302   */\n      0x00\n        /* \"#utility.yul\":298:299   */\n      dup1\n        /* \"#utility.yul\":291:303   */\n      revert\n        /* \"#utility.yul\":253:305   */\n    tag_237:\n        /* \"#utility.yul\":340:349   */\n      dup2\n        /* \"#utility.yul\":327:350   */\n      calldataload\n        /* \"#utility.yul\":359:390   */\n      tag_238\n        /* \"#utility.yul\":384:389   */\n      dup2\n        /* \"#utility.yul\":359:390   */\n      tag_231\n      jump\t// in\n    tag_238:\n        /* \"#utility.yul\":409:414   */\n      swap4\n        /* \"#utility.yul\":173:420   */\n      swap3\n      pop\n      pop\n      pop\n      jump\t// out\n        /* \"#utility.yul\":861:1330   */\n    tag_40:\n        /* \"#utility.yul\":951:957   */\n      0x00\n        /* \"#utility.yul\":959:965   */\n      dup1\n        /* \"#utility.yul\":967:973   */\n      0x00\n        /* \"#utility.yul\":1020:1022   */\n      0x60\n        /* \"#utility.yul\":1008:1017   */\n      dup5\n        /* \"#utility.yul\":999:1006   */\n      dup7\n        /* \"#utility.yul\":995:1018   */\n      sub\n        /* \"#utility.yul\":991:1023   */\n      slt\n        /* \"#utility.yul\":988:1040   */\n      iszero\n      tag_242\n      jumpi\n        /* \"#utility.yul\":1036:1037   */\n      0x00\n        /* \"#utility.yul\":1033:1034   */\n      dup1\n        /* \"#utility.yul\":1026:1038   */\n      revert\n        /* \"#utility.yul\":988:1040   */\n    tag_242:\n        /* \"#utility.yul\":1075:1084   */\n      dup4\n        /* \"#utility.yul\":1062:1085   */\n      calldataload\n        /* \"#utility.yul\":1094:1125   */\n      tag_243\n        /* \"#utility.yul\":1119:1124   */\n      dup2\n        /* \"#utility.yul\":1094:1125   */\n      tag_231\n      jump\t// in\n    tag_243:\n        /* \"#utility.yul\":1144:1149   */\n      swap3\n      pop\n        /* \"#utility.yul\":1201:1203   */\n      0x20\n        /* \"#utility.yul\":1186:1204   */\n      dup5\n      add\n        /* \"#utility.yul\":1173:1205   */\n      calldataload\n        /* \"#utility.yul\":1214:1247   */\n      tag_244\n        /* \"#utility.yul\":1173:1205   */\n      dup2\n        /* \"#utility.yul\":1214:1247   */\n      tag_231\n      jump\t// in\n    tag_244:\n        /* \"#utility.yul\":861:1330   */\n      swap3\n      swap6\n        /* \"#utility.yul\":1266:1273   */\n      swap3\n      swap5\n      pop\n      pop\n      pop\n        /* \"#utility.yul\":1320:1322   */\n      0x40\n        /* \"#utility.yul\":1305:1323   */\n      swap2\n      swap1\n      swap2\n      add\n        /* \"#utility.yul\":1292:1324   */\n      calldataload\n      swap1\n        /* \"#utility.yul\":861:1330   */\n      jump\t// out\n        /* \"#utility.yul\":1748:2076   */\n    tag_97:\n        /* \"#utility.yul\":1829:1835   */\n      0x00\n        /* \"#utility.yul\":1837:1843   */\n      dup1\n        /* \"#utility.yul\":1890:1892   */\n      0x40\n        /* \"#utility.yul\":1878:1887   */\n      dup4\n        /* \"#utility.yul\":1869:1876   */\n      dup6\n        /* \"#utility.yul\":1865:1888   */\n      sub\n        /* \"#utility.yul\":1861:1893   */\n      slt\n        /* \"#utility.yul\":1858:1910   */\n      iszero\n      tag_248\n      jumpi\n        /* \"#utility.yul\":1906:1907   */\n      0x00\n        /* \"#utility.yul\":1903:1904   */\n      dup1\n        /* \"#utility.yul\":1896:1908   */\n      revert\n        /* \"#utility.yul\":1858:1910   */\n    tag_248:\n        /* \"#utility.yul\":1945:1954   */\n      dup3\n        /* \"#utility.yul\":1932:1955   */\n      calldataload\n        /* \"#utility.yul\":1964:1995   */\n      tag_249\n        /* \"#utility.yul\":1989:1994   */\n      dup2\n        /* \"#utility.yul\":1964:1995   */\n      tag_231\n      jump\t// in\n    tag_249:\n        /* \"#utility.yul\":2014:2019   */\n      swap5\n        /* \"#utility.yul\":2066:2068   */\n      0x20\n        /* \"#utility.yul\":2051:2069   */\n      swap4\n      swap1\n      swap4\n      add\n        /* \"#utility.yul\":2038:2070   */\n      calldataload\n      swap4\n      pop\n      pop\n      pop\n        /* \"#utility.yul\":1748:2076   */\n      jump\t// out\n        /* \"#utility.yul\":3334:3518   */\n    tag_127:\n        /* \"#utility.yul\":3404:3410   */\n      0x00\n        /* \"#utility.yul\":3457:3459   */\n      0x20\n        /* \"#utility.yul\":3445:3454   */\n      dup3\n        /* \"#utility.yul\":3436:3443   */\n      dup5\n        /* \"#utility.yul\":3432:3455   */\n      sub\n        /* \"#utility.yul\":3428:3460   */\n      slt\n        /* \"#utility.yul\":3425:3477   */\n      iszero\n      tag_254\n      jumpi\n        /* \"#utility.yul\":3473:3474   */\n      0x00\n        /* \"#utility.yul\":3470:3471   */\n      dup1\n        /* \"#utility.yul\":3463:3475   */\n      revert\n        /* \"#utility.yul\":3425:3477   */\n    tag_254:\n      pop\n        /* \"#utility.yul\":3496:3512   */\n      mload\n      swap2\n        /* \"#utility.yul\":3334:3518   */\n      swap1\n      pop\n      jump\t// out\n        /* \"#utility.yul\":4345:4622   */\n    tag_136:\n        /* \"#utility.yul\":4412:4418   */\n      0x00\n        /* \"#utility.yul\":4465:4467   */\n      0x20\n        /* \"#utility.yul\":4453:4462   */\n      dup3\n        /* \"#utility.yul\":4444:4451   */\n      dup5\n        /* \"#utility.yul\":4440:4463   */\n      sub\n        /* \"#utility.yul\":4436:4468   */\n      slt\n        /* \"#utility.yul\":4433:4485   */\n      iszero\n      tag_258\n      jumpi\n        /* \"#utility.yul\":4481:4482   */\n      0x00\n        /* \"#utility.yul\":4478:4479   */\n      dup1\n        /* \"#utility.yul\":4471:4483   */\n      revert\n        /* \"#utility.yul\":4433:4485   */\n    tag_258:\n        /* \"#utility.yul\":4513:4522   */\n      dup2\n        /* \"#utility.yul\":4507:4523   */\n      mload\n        /* \"#utility.yul\":4566:4571   */\n      dup1\n        /* \"#utility.yul\":4559:4572   */\n      iszero\n        /* \"#utility.yul\":4552:4573   */\n      iszero\n        /* \"#utility.yul\":4545:4550   */\n      dup2\n        /* \"#utility.yul\":4542:4574   */\n      eq\n        /* \"#utility.yul\":4532:4592   */\n      tag_238\n      jumpi\n        /* \"#utility.yul\":4588:4589   */\n      0x00\n        /* \"#utility.yul\":4585:4586   */\n      dup1\n        /* \"#utility.yul\":4578:4590   */\n      revert\n        /* \"#utility.yul\":4627:4754   */\n    tag_232:\n        /* \"#utility.yul\":4688:4698   */\n      0x4e487b71\n        /* \"#utility.yul\":4683:4686   */\n      0xe0\n        /* \"#utility.yul\":4679:4699   */\n      shl\n        /* \"#utility.yul\":4676:4677   */\n      0x00\n        /* \"#utility.yul\":4669:4700   */\n      mstore\n        /* \"#utility.yul\":4719:4723   */\n      0x11\n        /* \"#utility.yul\":4716:4717   */\n      0x04\n        /* \"#utility.yul\":4709:4724   */\n      mstore\n        /* \"#utility.yul\":4743:4747   */\n      0x24\n        /* \"#utility.yul\":4740:4741   */\n      0x00\n        /* \"#utility.yul\":4733:4748   */\n      revert\n        /* \"#utility.yul\":4759:4887   */\n    tag_138:\n        /* \"#utility.yul\":4799:4802   */\n      0x00\n        /* \"#utility.yul\":4830:4831   */\n      dup3\n        /* \"#utility.yul\":4826:4832   */\n      not\n        /* \"#utility.yul\":4823:4824   */\n      dup3\n        /* \"#utility.yul\":4820:4833   */\n      gt\n        /* \"#utility.yul\":4817:4856   */\n      iszero\n      tag_263\n      jumpi\n        /* \"#utility.yul\":4836:4854   */\n      tag_263\n      tag_232\n      jump\t// in\n    tag_263:\n      pop\n        /* \"#utility.yul\":4872:4881   */\n      add\n      swap1\n        /* \"#utility.yul\":4759:4887   */\n      jump\t// out\n        /* \"#utility.yul\":9957:10084   */\n    tag_219:\n        /* \"#utility.yul\":10018:10028   */\n      0x4e487b71\n        /* \"#utility.yul\":10013:10016   */\n      0xe0\n        /* \"#utility.yul\":10009:10029   */\n      shl\n        /* \"#utility.yul\":10006:10007   */\n      0x00\n        /* \"#utility.yul\":9999:10030   */\n      mstore\n        /* \"#utility.yul\":10049:10053   */\n      0x32\n        /* \"#utility.yul\":10046:10047   */\n      0x04\n        /* \"#utility.yul\":10039:10054   */\n      mstore\n        /* \"#utility.yul\":10073:10077   */\n      0x24\n        /* \"#utility.yul\":10070:10071   */\n      0x00\n        /* \"#utility.yul\":10063:10078   */\n      revert\n        /* \"#utility.yul\":10089:10257   */\n    tag_222:\n        /* \"#utility.yul\":10129:10136   */\n      0x00\n        /* \"#utility.yul\":10195:10196   */\n      dup2\n        /* \"#utility.yul\":10191:10192   */\n      0x00\n        /* \"#utility.yul\":10187:10193   */\n      not\n        /* \"#utility.yul\":10183:10197   */\n      div\n        /* \"#utility.yul\":10180:10181   */\n      dup4\n        /* \"#utility.yul\":10177:10198   */\n      gt\n        /* \"#utility.yul\":10172:10173   */\n      dup3\n        /* \"#utility.yul\":10165:10174   */\n      iszero\n        /* \"#utility.yul\":10158:10175   */\n      iszero\n        /* \"#utility.yul\":10154:10199   */\n      and\n        /* \"#utility.yul\":10151:10222   */\n      iszero\n      tag_279\n      jumpi\n        /* \"#utility.yul\":10202:10220   */\n      tag_279\n      tag_232\n      jump\t// in\n    tag_279:\n      pop\n        /* \"#utility.yul\":10242:10251   */\n      mul\n      swap1\n        /* \"#utility.yul\":10089:10257   */\n      jump\t// out\n        /* \"#utility.yul\":10262:10479   */\n    tag_224:\n        /* \"#utility.yul\":10302:10303   */\n      0x00\n        /* \"#utility.yul\":10328:10329   */\n      dup3\n        /* \"#utility.yul\":10318:10450   */\n      tag_281\n      jumpi\n        /* \"#utility.yul\":10372:10382   */\n      0x4e487b71\n        /* \"#utility.yul\":10367:10370   */\n      0xe0\n        /* \"#utility.yul\":10363:10383   */\n      shl\n        /* \"#utility.yul\":10360:10361   */\n      0x00\n        /* \"#utility.yul\":10353:10384   */\n      mstore\n        /* \"#utility.yul\":10407:10411   */\n      0x12\n        /* \"#utility.yul\":10404:10405   */\n      0x04\n        /* \"#utility.yul\":10397:10412   */\n      mstore\n        /* \"#utility.yul\":10435:10439   */\n      0x24\n        /* \"#utility.yul\":10432:10433   */\n      0x00\n        /* \"#utility.yul\":10425:10440   */\n      revert\n        /* \"#utility.yul\":10318:10450   */\n    tag_281:\n      pop\n        /* \"#utility.yul\":10464:10473   */\n      div\n      swap1\n        /* \"#utility.yul\":10262:10479   */\n      jump\t// out\n        /* \"#utility.yul\":10484:10619   */\n    tag_228:\n        /* \"#utility.yul\":10523:10526   */\n      0x00\n        /* \"#utility.yul\":10544:10561   */\n      0x01\n      dup3\n      add\n        /* \"#utility.yul\":10541:10584   */\n      tag_284\n      jumpi\n        /* \"#utility.yul\":10564:10582   */\n      tag_284\n      tag_232\n      jump\t// in\n    tag_284:\n      pop\n        /* \"#utility.yul\":10611:10612   */\n      0x01\n        /* \"#utility.yul\":10600:10613   */\n      add\n      swap1\n        /* \"#utility.yul\":10484:10619   */\n      jump\t// out\n\n    auxdata: 0xa2646970667358221220ab2fa761a5931d94102dd76a3f1b96ff4462bd4eb9563933e867ff222e3201cd64736f6c634300080d0033\n}\n",
    "bytecode": {
      "linkReferences": {},
      "object": "60806040523480156200001157600080fd5b506040516200178638038062001786833981016040819052620000349162000230565b83516200004990600d906020870190620000a0565b5082516200005f90600e906020860190620000a0565b50600f80546001600160a01b03199081163317909155600780546001600160a01b039485169083161790556008805492909316911617905550620002fb9050565b828054620000ae90620002bf565b90600052602060002090601f016020900481019282620000d257600085556200011d565b82601f10620000ed57805160ff19168380011785556200011d565b828001600101855582156200011d579182015b828111156200011d57825182559160200191906001019062000100565b506200012b9291506200012f565b5090565b5b808211156200012b576000815560010162000130565b634e487b7160e01b600052604160045260246000fd5b600082601f8301126200016e57600080fd5b81516001600160401b03808211156200018b576200018b62000146565b604051601f8301601f19908116603f01168101908282118183101715620001b657620001b662000146565b81604052838152602092508683858801011115620001d357600080fd5b600091505b83821015620001f75785820183015181830184015290820190620001d8565b83821115620002095760008385830101525b9695505050505050565b80516001600160a01b03811681146200022b57600080fd5b919050565b600080600080608085870312156200024757600080fd5b84516001600160401b03808211156200025f57600080fd5b6200026d888389016200015c565b955060208701519150808211156200028457600080fd5b5062000293878288016200015c565b935050620002a46040860162000213565b9150620002b46060860162000213565b905092959194509250565b600181811c90821680620002d457607f821691505b602082108103620002f557634e487b7160e01b600052602260045260246000fd5b50919050565b61147b806200030b6000396000f3fe6080604052600436106101125760003560e01c80636c72bc0b116100a5578063a153a9bd11610074578063e25f33da11610059578063e25f33da14610365578063eb138b2514610378578063f8f2cccc146103ae57600080fd5b8063a153a9bd1461030f578063c30bfa4b1461032f57600080fd5b80636c72bc0b1461026e5780637333bd091461028457806374fcef121461029957806392921ae1146102d957600080fd5b80634a7db782116100e15780634a7db782146101bc5780634acdd6cc146102005780635dab262c146102155780635f6639451461023557600080fd5b8063125f48e41461011e5780631921f1c2146101535780631e3f5f071461018b5780631f70c2861461019e57600080fd5b3661011957005b600080fd5b34801561012a57600080fd5b5061013e6101393660046112db565b6103c4565b60405190151581526020015b60405180910390f35b34801561015f57600080fd5b50600854610173906001600160a01b031681565b6040516001600160a01b03909116815260200161014a565b61013e6101993660046112ff565b6104af565b3480156101aa57600080fd5b50600a546001600160a01b0316610173565b3480156101c857600080fd5b506101f26101d73660046112db565b6001600160a01b031660009081526004602052604090205490565b60405190815260200161014a565b34801561020c57600080fd5b5061013e610833565b34801561022157600080fd5b50600754610173906001600160a01b031681565b34801561024157600080fd5b5061013e6102503660046112db565b6001600160a01b031660009081526005602052604090205460ff1690565b34801561027a57600080fd5b506101f260115481565b34801561029057600080fd5b5061013e610ae7565b3480156102a557600080fd5b5061013e6102b43660046112db565b600a80546001600160a01b0319166001600160a01b0392909216919091179055600190565b3480156102e557600080fd5b506101f26102f43660046112db565b6001600160a01b031660009081526003602052604090205490565b34801561031b57600080fd5b5061013e61032a3660046112db565b610dc5565b34801561033b57600080fd5b506101f261034a3660046112db565b6001600160a01b031660009081526002602052604090205490565b61013e610373366004611340565b610f3c565b34801561038457600080fd5b506101f26103933660046112db565b6001600160a01b031660009081526001602052604090205490565b3480156103ba57600080fd5b506101f260105481565b60006001600160a01b0382166104475760405162461bcd60e51b815260206004820152603160248201527f616464574c3a20796f752063616e6e6f74206164642061207a65726f2061646460448201527f7265737320746f2077686974654c69737400000000000000000000000000000060648201526084015b60405180910390fd5b50600c805460018181019092557fdf6966c971051c3d54ec59162606531493a51404a002842f56009d7e5cf4a8c70180546001600160a01b039093166001600160a01b031990931683179055600091825260056020526040909120805460ff19168217905590565b600f546000906001600160a01b03163314806104d55750600a546001600160a01b031633145b6104de57600080fd5b6008546001600160a01b038481169116146105615760405162461bcd60e51b815260206004820152603160248201527f6153543a206d616b6520737572652074686520746f6b656e206973207468652060448201527f726967687420736861726520746f6b656e000000000000000000000000000000606482015260840161043e565b600082116105d75760405162461bcd60e51b815260206004820152603060248201527f6153543a20796f75206d7573742070617920736861726520746f6b656e73206760448201527f726561746572207468616e207a65726f00000000000000000000000000000000606482015260840161043e565b6040516370a0823160e01b815233600482015282906001600160a01b038516906370a0823190602401602060405180830381865afa15801561061d573d6000803e3d6000fd5b505050506040513d601f19601f82011682018060405250810190610641919061136c565b10156106b55760405162461bcd60e51b815260206004820152603260248201527f6153543a20696e73756666696369656e742062616c616e636520746f20616c6c60448201527f6f6361746520736861726520746f6b656e730000000000000000000000000000606482015260840161043e565b6040516323b872dd60e01b8152336004820152306024820152604481018390526001600160a01b038416906323b872dd906064016020604051808303816000875af1158015610708573d6000803e3d6000fd5b505050506040513d601f19601f8201168201806040525081019061072c9190611385565b506001600160a01b038416600090815260016020526040812080548492906107559084906113bd565b90915550506001600160a01b038416600090815260036020526040812080548492906107829084906113bd565b92505081905550816010600082825461079b91906113bd565b90915550506001600160a01b03841660009081526005602052604090205460ff16151560011461082957600c805460018082019092557fdf6966c971051c3d54ec59162606531493a51404a002842f56009d7e5cf4a8c70180546001600160a01b0319166001600160a01b0387169081179091556000908152600560205260409020805460ff191690911790555b5060019392505050565b3360008181526005602052604081205490919060ff1615156001146108c05760405162461bcd60e51b815260206004820152603060248201527f6f6e6c792077686974652d6c6973746564206d656d626572732063616e20636c60448201527f61696d20736861726520746f6b656e7300000000000000000000000000000000606482015260840161043e565b6001600160a01b0381166000908152600360205260409020546109255760405162461bcd60e51b815260206004820152601f60248201527f796f752068617665203020736861726520746f6b656e20746f20636c61696d00604482015260640161043e565b6001600160a01b03818116600090815260036020526040908190205460085491516370a0823160e01b8152306004820152909291909116906370a0823190602401602060405180830381865afa158015610983573d6000803e3d6000fd5b505050506040513d601f19601f820116820180604052508101906109a7919061136c565b1015610a415760405162461bcd60e51b815260206004820152605160248201527f6353543a20746869732073686f756c64206e657665722068617070656e203d3e60448201527f20696e73756666696369656e742062616c616e6365206f66207368617265207460648201527f6f6b656e7320696e20636f6e7472616374000000000000000000000000000000608482015260a40161043e565b6008546001600160a01b038281166000818152600360205260409081902054905163a9059cbb60e01b81526004810192909252602482015291169063a9059cbb906044016020604051808303816000875af1158015610aa4573d6000803e3d6000fd5b505050506040513d601f19601f82011682018060405250810190610ac89190611385565b506001600160a01b031660009081526003602052604081205550600190565b3360008181526005602052604081205490919060ff161515600114610b745760405162461bcd60e51b815260206004820152603860248201527f6342543a206f6e6c792077686974652d6c6973746564206d656d62657273206360448201527f616e20636c61696d20206261636b696e6720746f6b656e730000000000000000606482015260840161043e565b6001600160a01b038116600090815260046020526040902054610bff5760405162461bcd60e51b815260206004820152602660248201527f6342543a20796f7520686176652030206261636b696e6720746f6b656e20746f60448201527f20636c61696d0000000000000000000000000000000000000000000000000000606482015260840161043e565b6001600160a01b038181166000908152600460208190526040918290205460075492516370a0823160e01b815230928101929092529291909116906370a0823190602401602060405180830381865afa158015610c60573d6000803e3d6000fd5b505050506040513d601f19601f82011682018060405250810190610c84919061136c565b1015610d1e5760405162461bcd60e51b815260206004820152605b60248201527f6342543a20746869732073686f756c64206e657665722068617070656e20287760448201527f6569726429203d3e20696e73756666696369656e742062616c616e6365206f6660648201527f206261636b696e6720746f6b656e7320696e20636f6e74726163740000000000608482015260a40161043e565b6007546001600160a01b0382811660008181526004602081905260409182902054915163a9059cbb60e01b815290810192909252602482015291169063a9059cbb906044016020604051808303816000875af1158015610d82573d6000803e3d6000fd5b505050506040513d601f19601f82011682018060405250810190610da69190611385565b506001600160a01b031660009081526004602052604081205550600190565b60006001600160a01b038216610e435760405162461bcd60e51b815260206004820152603460248201527f72656d574c3a20796f752063616e6e6f742072656d6f76652061207a65726f2060448201527f6164647265737320746f2077686974654c697374000000000000000000000000606482015260840161043e565b6001600160a01b03821660009081526005602052604090205460ff161515600114610ed65760405162461bcd60e51b815260206004820152603c60248201527f72656d574c3a2063616e6e6f742072656d6f7665206d656d626572207468617460448201527f20646f6573206e6f7420657869737420696e2077686974656c69737400000000606482015260840161043e565b50600c805460018181019092557fdf6966c971051c3d54ec59162606531493a51404a002842f56009d7e5cf4a8c70180546001600160a01b039093166001600160a01b031990931683179055600091825260056020526040909120805460ff1916905590565b600f546000906001600160a01b0316331480610f625750600a546001600160a01b031633145b610f6b57600080fd5b6007546001600160a01b03848116911614610fee5760405162461bcd60e51b815260206004820152603160248201527f6442543a206d616b65207375726520796f75206172652064697374726962757460448201527f696e67206261636b696e6720746f6b656e000000000000000000000000000000606482015260840161043e565b600082116110645760405162461bcd60e51b815260206004820152603260248201527f6442543a20796f75206d75737420706179206261636b696e6720746f6b656e7360448201527f2067726561746572207468616e207a65726f0000000000000000000000000000606482015260840161043e565b6040516370a0823160e01b815233600482015282906001600160a01b038516906370a0823190602401602060405180830381865afa1580156110aa573d6000803e3d6000fd5b505050506040513d601f19601f820116820180604052508101906110ce919061136c565b10156111505760405162461bcd60e51b8152602060048201526044602482018190527f6442543a20796f7520646f206e6f7420686176652073756666696369656e7420908201527f62616c616e636520746f2064697374726962757465206261636b696e6720746f6064820152636b656e7360e01b608482015260a40161043e565b6040516323b872dd60e01b8152336004820152306024820152604481018390526001600160a01b038416906323b872dd906064016020604051808303816000875af11580156111a3573d6000803e3d6000fd5b505050506040513d601f19601f820116820180604052508101906111c79190611385565b5060005b600c548110156112a2576000600c82815481106111ea576111ea6113d5565b60009182526020808320909101546010546001600160a01b0390911680845260019092526040832054919350906112229087906113eb565b61122c919061140a565b6001600160a01b0383166000908152600260205260408120805492935083929091906112599084906113bd565b90915550506001600160a01b038216600090815260046020526040812080548392906112869084906113bd565b925050819055505050808061129a9061142c565b9150506111cb565b5081601160008282546112b591906113bd565b909155506001949350505050565b6001600160a01b03811681146112d857600080fd5b50565b6000602082840312156112ed57600080fd5b81356112f8816112c3565b9392505050565b60008060006060848603121561131457600080fd5b833561131f816112c3565b9250602084013561132f816112c3565b929592945050506040919091013590565b6000806040838503121561135357600080fd5b823561135e816112c3565b946020939093013593505050565b60006020828403121561137e57600080fd5b5051919050565b60006020828403121561139757600080fd5b815180151581146112f857600080fd5b634e487b7160e01b600052601160045260246000fd5b600082198211156113d0576113d06113a7565b500190565b634e487b7160e01b600052603260045260246000fd5b6000816000190483118215151615611405576114056113a7565b500290565b60008261142757634e487b7160e01b600052601260045260246000fd5b500490565b60006001820161143e5761143e6113a7565b506001019056fea2646970667358221220ab2fa761a5931d94102dd76a3f1b96ff4462bd4eb9563933e867ff222e3201cd64736f6c634300080d0033",
      "opcodes": "PUSH1 0x80 PUSH1 0x40 MSTORE CALLVALUE DUP1 ISZERO PUSH3 0x11 JUMPI PUSH1 0x0 DUP1 REVERT JUMPDEST POP PUSH1 0x40 MLOAD PUSH3 0x1786 CODESIZE SUB DUP1 PUSH3 0x1786 DUP4 CODECOPY DUP2 ADD PUSH1 0x40 DUP2 SWAP1 MSTORE PUSH3 0x34 SWAP2 PUSH3 0x230 JUMP JUMPDEST DUP4 MLOAD PUSH3 0x49 SWAP1 PUSH1 0xD SWAP1 PUSH1 0x20 DUP8 ADD SWAP1 PUSH3 0xA0 JUMP JUMPDEST POP DUP3 MLOAD PUSH3 0x5F SWAP1 PUSH1 0xE SWAP1 PUSH1 0x20 DUP7 ADD SWAP1 PUSH3 0xA0 JUMP JUMPDEST POP PUSH1 0xF DUP1 SLOAD PUSH1 0x1 PUSH1 0x1 PUSH1 0xA0 SHL SUB NOT SWAP1 DUP2 AND CALLER OR SWAP1 SWAP2 SSTORE PUSH1 0x7 DUP1 SLOAD PUSH1 0x1 PUSH1 0x1 PUSH1 0xA0 SHL SUB SWAP5 DUP6 AND SWAP1 DUP4 AND OR SWAP1 SSTORE PUSH1 0x8 DUP1 SLOAD SWAP3 SWAP1 SWAP4 AND SWAP2 AND OR SWAP1 SSTORE POP PUSH3 0x2FB SWAP1 POP JUMP JUMPDEST DUP3 DUP1 SLOAD PUSH3 0xAE SWAP1 PUSH3 0x2BF JUMP JUMPDEST SWAP1 PUSH1 0x0 MSTORE PUSH1 0x20 PUSH1 0x0 KECCAK256 SWAP1 PUSH1 0x1F ADD PUSH1 0x20 SWAP1 DIV DUP2 ADD SWAP3 DUP3 PUSH3 0xD2 JUMPI PUSH1 0x0 DUP6 SSTORE PUSH3 0x11D JUMP JUMPDEST DUP3 PUSH1 0x1F LT PUSH3 0xED JUMPI DUP1 MLOAD PUSH1 0xFF NOT AND DUP4 DUP1 ADD OR DUP6 SSTORE PUSH3 0x11D JUMP JUMPDEST DUP3 DUP1 ADD PUSH1 0x1 ADD DUP6 SSTORE DUP3 ISZERO PUSH3 0x11D JUMPI SWAP2 DUP3 ADD JUMPDEST DUP3 DUP2 GT ISZERO PUSH3 0x11D JUMPI DUP3 MLOAD DUP3 SSTORE SWAP2 PUSH1 0x20 ADD SWAP2 SWAP1 PUSH1 0x1 ADD SWAP1 PUSH3 0x100 JUMP JUMPDEST POP PUSH3 0x12B SWAP3 SWAP2 POP PUSH3 0x12F JUMP JUMPDEST POP SWAP1 JUMP JUMPDEST JUMPDEST DUP1 DUP3 GT ISZERO PUSH3 0x12B JUMPI PUSH1 0x0 DUP2 SSTORE PUSH1 0x1 ADD PUSH3 0x130 JUMP JUMPDEST PUSH4 0x4E487B71 PUSH1 0xE0 SHL PUSH1 0x0 MSTORE PUSH1 0x41 PUSH1 0x4 MSTORE PUSH1 0x24 PUSH1 0x0 REVERT JUMPDEST PUSH1 0x0 DUP3 PUSH1 0x1F DUP4 ADD SLT PUSH3 0x16E JUMPI PUSH1 0x0 DUP1 REVERT JUMPDEST DUP2 MLOAD PUSH1 0x1 PUSH1 0x1 PUSH1 0x40 SHL SUB DUP1 DUP3 GT ISZERO PUSH3 0x18B JUMPI PUSH3 0x18B PUSH3 0x146 JUMP JUMPDEST PUSH1 0x40 MLOAD PUSH1 0x1F DUP4 ADD PUSH1 0x1F NOT SWAP1 DUP2 AND PUSH1 0x3F ADD AND DUP2 ADD SWAP1 DUP3 DUP3 GT DUP2 DUP4 LT OR ISZERO PUSH3 0x1B6 JUMPI PUSH3 0x1B6 PUSH3 0x146 JUMP JUMPDEST DUP2 PUSH1 0x40 MSTORE DUP4 DUP2 MSTORE PUSH1 0x20 SWAP3 POP DUP7 DUP4 DUP6 DUP9 ADD ADD GT ISZERO PUSH3 0x1D3 JUMPI PUSH1 0x0 DUP1 REVERT JUMPDEST PUSH1 0x0 SWAP2 POP JUMPDEST DUP4 DUP3 LT ISZERO PUSH3 0x1F7 JUMPI DUP6 DUP3 ADD DUP4 ADD MLOAD DUP2 DUP4 ADD DUP5 ADD MSTORE SWAP1 DUP3 ADD SWAP1 PUSH3 0x1D8 JUMP JUMPDEST DUP4 DUP3 GT ISZERO PUSH3 0x209 JUMPI PUSH1 0x0 DUP4 DUP6 DUP4 ADD ADD MSTORE JUMPDEST SWAP7 SWAP6 POP POP POP POP POP POP JUMP JUMPDEST DUP1 MLOAD PUSH1 0x1 PUSH1 0x1 PUSH1 0xA0 SHL SUB DUP2 AND DUP2 EQ PUSH3 0x22B JUMPI PUSH1 0x0 DUP1 REVERT JUMPDEST SWAP2 SWAP1 POP JUMP JUMPDEST PUSH1 0x0 DUP1 PUSH1 0x0 DUP1 PUSH1 0x80 DUP6 DUP8 SUB SLT ISZERO PUSH3 0x247 JUMPI PUSH1 0x0 DUP1 REVERT JUMPDEST DUP5 MLOAD PUSH1 0x1 PUSH1 0x1 PUSH1 0x40 SHL SUB DUP1 DUP3 GT ISZERO PUSH3 0x25F JUMPI PUSH1 0x0 DUP1 REVERT JUMPDEST PUSH3 0x26D DUP9 DUP4 DUP10 ADD PUSH3 0x15C JUMP JUMPDEST SWAP6 POP PUSH1 0x20 DUP8 ADD MLOAD SWAP2 POP DUP1 DUP3 GT ISZERO PUSH3 0x284 JUMPI PUSH1 0x0 DUP1 REVERT JUMPDEST POP PUSH3 0x293 DUP8 DUP3 DUP9 ADD PUSH3 0x15C JUMP JUMPDEST SWAP4 POP POP PUSH3 0x2A4 PUSH1 0x40 DUP7 ADD PUSH3 0x213 JUMP JUMPDEST SWAP2 POP PUSH3 0x2B4 PUSH1 0x60 DUP7 ADD PUSH3 0x213 JUMP JUMPDEST SWAP1 POP SWAP3 SWAP6 SWAP2 SWAP5 POP SWAP3 POP JUMP JUMPDEST PUSH1 0x1 DUP2 DUP2 SHR SWAP1 DUP3 AND DUP1 PUSH3 0x2D4 JUMPI PUSH1 0x7F DUP3 AND SWAP2 POP JUMPDEST PUSH1 0x20 DUP3 LT DUP2 SUB PUSH3 0x2F5 JUMPI PUSH4 0x4E487B71 PUSH1 0xE0 SHL PUSH1 0x0 MSTORE PUSH1 0x22 PUSH1 0x4 MSTORE PUSH1 0x24 PUSH1 0x0 REVERT JUMPDEST POP SWAP2 SWAP1 POP JUMP JUMPDEST PUSH2 0x147B DUP1 PUSH3 0x30B PUSH1 0x0 CODECOPY PUSH1 0x0 RETURN INVALID PUSH1 0x80 PUSH1 0x40 MSTORE PUSH1 0x4 CALLDATASIZE LT PUSH2 0x112 JUMPI PUSH1 0x0 CALLDATALOAD PUSH1 0xE0 SHR DUP1 PUSH4 0x6C72BC0B GT PUSH2 0xA5 JUMPI DUP1 PUSH4 0xA153A9BD GT PUSH2 0x74 JUMPI DUP1 PUSH4 0xE25F33DA GT PUSH2 0x59 JUMPI DUP1 PUSH4 0xE25F33DA EQ PUSH2 0x365 JUMPI DUP1 PUSH4 0xEB138B25 EQ PUSH2 0x378 JUMPI DUP1 PUSH4 0xF8F2CCCC EQ PUSH2 0x3AE JUMPI PUSH1 0x0 DUP1 REVERT JUMPDEST DUP1 PUSH4 0xA153A9BD EQ PUSH2 0x30F JUMPI DUP1 PUSH4 0xC30BFA4B EQ PUSH2 0x32F JUMPI PUSH1 0x0 DUP1 REVERT JUMPDEST DUP1 PUSH4 0x6C72BC0B EQ PUSH2 0x26E JUMPI DUP1 PUSH4 0x7333BD09 EQ PUSH2 0x284 JUMPI DUP1 PUSH4 0x74FCEF12 EQ PUSH2 0x299 JUMPI DUP1 PUSH4 0x92921AE1 EQ PUSH2 0x2D9 JUMPI PUSH1 0x0 DUP1 REVERT JUMPDEST DUP1 PUSH4 0x4A7DB782 GT PUSH2 0xE1 JUMPI DUP1 PUSH4 0x4A7DB782 EQ PUSH2 0x1BC JUMPI DUP1 PUSH4 0x4ACDD6CC EQ PUSH2 0x200 JUMPI DUP1 PUSH4 0x5DAB262C EQ PUSH2 0x215 JUMPI DUP1 PUSH4 0x5F663945 EQ PUSH2 0x235 JUMPI PUSH1 0x0 DUP1 REVERT JUMPDEST DUP1 PUSH4 0x125F48E4 EQ PUSH2 0x11E JUMPI DUP1 PUSH4 0x1921F1C2 EQ PUSH2 0x153 JUMPI DUP1 PUSH4 0x1E3F5F07 EQ PUSH2 0x18B JUMPI DUP1 PUSH4 0x1F70C286 EQ PUSH2 0x19E JUMPI PUSH1 0x0 DUP1 REVERT JUMPDEST CALLDATASIZE PUSH2 0x119 JUMPI STOP JUMPDEST PUSH1 0x0 DUP1 REVERT JUMPDEST CALLVALUE DUP1 ISZERO PUSH2 0x12A JUMPI PUSH1 0x0 DUP1 REVERT JUMPDEST POP PUSH2 0x13E PUSH2 0x139 CALLDATASIZE PUSH1 0x4 PUSH2 0x12DB JUMP JUMPDEST PUSH2 0x3C4 JUMP JUMPDEST PUSH1 0x40 MLOAD SWAP1 ISZERO ISZERO DUP2 MSTORE PUSH1 0x20 ADD JUMPDEST PUSH1 0x40 MLOAD DUP1 SWAP2 SUB SWAP1 RETURN JUMPDEST CALLVALUE DUP1 ISZERO PUSH2 0x15F JUMPI PUSH1 0x0 DUP1 REVERT JUMPDEST POP PUSH1 0x8 SLOAD PUSH2 0x173 SWAP1 PUSH1 0x1 PUSH1 0x1 PUSH1 0xA0 SHL SUB AND DUP2 JUMP JUMPDEST PUSH1 0x40 MLOAD PUSH1 0x1 PUSH1 0x1 PUSH1 0xA0 SHL SUB SWAP1 SWAP2 AND DUP2 MSTORE PUSH1 0x20 ADD PUSH2 0x14A JUMP JUMPDEST PUSH2 0x13E PUSH2 0x199 CALLDATASIZE PUSH1 0x4 PUSH2 0x12FF JUMP JUMPDEST PUSH2 0x4AF JUMP JUMPDEST CALLVALUE DUP1 ISZERO PUSH2 0x1AA JUMPI PUSH1 0x0 DUP1 REVERT JUMPDEST POP PUSH1 0xA SLOAD PUSH1 0x1 PUSH1 0x1 PUSH1 0xA0 SHL SUB AND PUSH2 0x173 JUMP JUMPDEST CALLVALUE DUP1 ISZERO PUSH2 0x1C8 JUMPI PUSH1 0x0 DUP1 REVERT JUMPDEST POP PUSH2 0x1F2 PUSH2 0x1D7 CALLDATASIZE PUSH1 0x4 PUSH2 0x12DB JUMP JUMPDEST PUSH1 0x1 PUSH1 0x1 PUSH1 0xA0 SHL SUB AND PUSH1 0x0 SWAP1 DUP2 MSTORE PUSH1 0x4 PUSH1 0x20 MSTORE PUSH1 0x40 SWAP1 KECCAK256 SLOAD SWAP1 JUMP JUMPDEST PUSH1 0x40 MLOAD SWAP1 DUP2 MSTORE PUSH1 0x20 ADD PUSH2 0x14A JUMP JUMPDEST CALLVALUE DUP1 ISZERO PUSH2 0x20C JUMPI PUSH1 0x0 DUP1 REVERT JUMPDEST POP PUSH2 0x13E PUSH2 0x833 JUMP JUMPDEST CALLVALUE DUP1 ISZERO PUSH2 0x221 JUMPI PUSH1 0x0 DUP1 REVERT JUMPDEST POP PUSH1 0x7 SLOAD PUSH2 0x173 SWAP1 PUSH1 0x1 PUSH1 0x1 PUSH1 0xA0 SHL SUB AND DUP2 JUMP JUMPDEST CALLVALUE DUP1 ISZERO PUSH2 0x241 JUMPI PUSH1 0x0 DUP1 REVERT JUMPDEST POP PUSH2 0x13E PUSH2 0x250 CALLDATASIZE PUSH1 0x4 PUSH2 0x12DB JUMP JUMPDEST PUSH1 0x1 PUSH1 0x1 PUSH1 0xA0 SHL SUB AND PUSH1 0x0 SWAP1 DUP2 MSTORE PUSH1 0x5 PUSH1 0x20 MSTORE PUSH1 0x40 SWAP1 KECCAK256 SLOAD PUSH1 0xFF AND SWAP1 JUMP JUMPDEST CALLVALUE DUP1 ISZERO PUSH2 0x27A JUMPI PUSH1 0x0 DUP1 REVERT JUMPDEST POP PUSH2 0x1F2 PUSH1 0x11 SLOAD DUP2 JUMP JUMPDEST CALLVALUE DUP1 ISZERO PUSH2 0x290 JUMPI PUSH1 0x0 DUP1 REVERT JUMPDEST POP PUSH2 0x13E PUSH2 0xAE7 JUMP JUMPDEST CALLVALUE DUP1 ISZERO PUSH2 0x2A5 JUMPI PUSH1 0x0 DUP1 REVERT JUMPDEST POP PUSH2 0x13E PUSH2 0x2B4 CALLDATASIZE PUSH1 0x4 PUSH2 0x12DB JUMP JUMPDEST PUSH1 0xA DUP1 SLOAD PUSH1 0x1 PUSH1 0x1 PUSH1 0xA0 SHL SUB NOT AND PUSH1 0x1 PUSH1 0x1 PUSH1 0xA0 SHL SUB SWAP3 SWAP1 SWAP3 AND SWAP2 SWAP1 SWAP2 OR SWAP1 SSTORE PUSH1 0x1 SWAP1 JUMP JUMPDEST CALLVALUE DUP1 ISZERO PUSH2 0x2E5 JUMPI PUSH1 0x0 DUP1 REVERT JUMPDEST POP PUSH2 0x1F2 PUSH2 0x2F4 CALLDATASIZE PUSH1 0x4 PUSH2 0x12DB JUMP JUMPDEST PUSH1 0x1 PUSH1 0x1 PUSH1 0xA0 SHL SUB AND PUSH1 0x0 SWAP1 DUP2 MSTORE PUSH1 0x3 PUSH1 0x20 MSTORE PUSH1 0x40 SWAP1 KECCAK256 SLOAD SWAP1 JUMP JUMPDEST CALLVALUE DUP1 ISZERO PUSH2 0x31B JUMPI PUSH1 0x0 DUP1 REVERT JUMPDEST POP PUSH2 0x13E PUSH2 0x32A CALLDATASIZE PUSH1 0x4 PUSH2 0x12DB JUMP JUMPDEST PUSH2 0xDC5 JUMP JUMPDEST CALLVALUE DUP1 ISZERO PUSH2 0x33B JUMPI PUSH1 0x0 DUP1 REVERT JUMPDEST POP PUSH2 0x1F2 PUSH2 0x34A CALLDATASIZE PUSH1 0x4 PUSH2 0x12DB JUMP JUMPDEST PUSH1 0x1 PUSH1 0x1 PUSH1 0xA0 SHL SUB AND PUSH1 0x0 SWAP1 DUP2 MSTORE PUSH1 0x2 PUSH1 0x20 MSTORE PUSH1 0x40 SWAP1 KECCAK256 SLOAD SWAP1 JUMP JUMPDEST PUSH2 0x13E PUSH2 0x373 CALLDATASIZE PUSH1 0x4 PUSH2 0x1340 JUMP JUMPDEST PUSH2 0xF3C JUMP JUMPDEST CALLVALUE DUP1 ISZERO PUSH2 0x384 JUMPI PUSH1 0x0 DUP1 REVERT JUMPDEST POP PUSH2 0x1F2 PUSH2 0x393 CALLDATASIZE PUSH1 0x4 PUSH2 0x12DB JUMP JUMPDEST PUSH1 0x1 PUSH1 0x1 PUSH1 0xA0 SHL SUB AND PUSH1 0x0 SWAP1 DUP2 MSTORE PUSH1 0x1 PUSH1 0x20 MSTORE PUSH1 0x40 SWAP1 KECCAK256 SLOAD SWAP1 JUMP JUMPDEST CALLVALUE DUP1 ISZERO PUSH2 0x3BA JUMPI PUSH1 0x0 DUP1 REVERT JUMPDEST POP PUSH2 0x1F2 PUSH1 0x10 SLOAD DUP2 JUMP JUMPDEST PUSH1 0x0 PUSH1 0x1 PUSH1 0x1 PUSH1 0xA0 SHL SUB DUP3 AND PUSH2 0x447 JUMPI PUSH1 0x40 MLOAD PUSH3 0x461BCD PUSH1 0xE5 SHL DUP2 MSTORE PUSH1 0x20 PUSH1 0x4 DUP3 ADD MSTORE PUSH1 0x31 PUSH1 0x24 DUP3 ADD MSTORE PUSH32 0x616464574C3A20796F752063616E6E6F74206164642061207A65726F20616464 PUSH1 0x44 DUP3 ADD MSTORE PUSH32 0x7265737320746F2077686974654C697374000000000000000000000000000000 PUSH1 0x64 DUP3 ADD MSTORE PUSH1 0x84 ADD JUMPDEST PUSH1 0x40 MLOAD DUP1 SWAP2 SUB SWAP1 REVERT JUMPDEST POP PUSH1 0xC DUP1 SLOAD PUSH1 0x1 DUP2 DUP2 ADD SWAP1 SWAP3 SSTORE PUSH32 0xDF6966C971051C3D54EC59162606531493A51404A002842F56009D7E5CF4A8C7 ADD DUP1 SLOAD PUSH1 0x1 PUSH1 0x1 PUSH1 0xA0 SHL SUB SWAP1 SWAP4 AND PUSH1 0x1 PUSH1 0x1 PUSH1 0xA0 SHL SUB NOT SWAP1 SWAP4 AND DUP4 OR SWAP1 SSTORE PUSH1 0x0 SWAP2 DUP3 MSTORE PUSH1 0x5 PUSH1 0x20 MSTORE PUSH1 0x40 SWAP1 SWAP2 KECCAK256 DUP1 SLOAD PUSH1 0xFF NOT AND DUP3 OR SWAP1 SSTORE SWAP1 JUMP JUMPDEST PUSH1 0xF SLOAD PUSH1 0x0 SWAP1 PUSH1 0x1 PUSH1 0x1 PUSH1 0xA0 SHL SUB AND CALLER EQ DUP1 PUSH2 0x4D5 JUMPI POP PUSH1 0xA SLOAD PUSH1 0x1 PUSH1 0x1 PUSH1 0xA0 SHL SUB AND CALLER EQ JUMPDEST PUSH2 0x4DE JUMPI PUSH1 0x0 DUP1 REVERT JUMPDEST PUSH1 0x8 SLOAD PUSH1 0x1 PUSH1 0x1 PUSH1 0xA0 SHL SUB DUP5 DUP2 AND SWAP2 AND EQ PUSH2 0x561 JUMPI PUSH1 0x40 MLOAD PUSH3 0x461BCD PUSH1 0xE5 SHL DUP2 MSTORE PUSH1 0x20 PUSH1 0x4 DUP3 ADD MSTORE PUSH1 0x31 PUSH1 0x24 DUP3 ADD MSTORE PUSH32 0x6153543A206D616B6520737572652074686520746F6B656E2069732074686520 PUSH1 0x44 DUP3 ADD MSTORE PUSH32 0x726967687420736861726520746F6B656E000000000000000000000000000000 PUSH1 0x64 DUP3 ADD MSTORE PUSH1 0x84 ADD PUSH2 0x43E JUMP JUMPDEST PUSH1 0x0 DUP3 GT PUSH2 0x5D7 JUMPI PUSH1 0x40 MLOAD PUSH3 0x461BCD PUSH1 0xE5 SHL DUP2 MSTORE PUSH1 0x20 PUSH1 0x4 DUP3 ADD MSTORE PUSH1 0x30 PUSH1 0x24 DUP3 ADD MSTORE PUSH32 0x6153543A20796F75206D7573742070617920736861726520746F6B656E732067 PUSH1 0x44 DUP3 ADD MSTORE PUSH32 0x726561746572207468616E207A65726F00000000000000000000000000000000 PUSH1 0x64 DUP3 ADD MSTORE PUSH1 0x84 ADD PUSH2 0x43E JUMP JUMPDEST PUSH1 0x40 MLOAD PUSH4 0x70A08231 PUSH1 0xE0 SHL DUP2 MSTORE CALLER PUSH1 0x4 DUP3 ADD MSTORE DUP3 SWAP1 PUSH1 0x1 PUSH1 0x1 PUSH1 0xA0 SHL SUB DUP6 AND SWAP1 PUSH4 0x70A08231 SWAP1 PUSH1 0x24 ADD PUSH1 0x20 PUSH1 0x40 MLOAD DUP1 DUP4 SUB DUP2 DUP7 GAS STATICCALL ISZERO DUP1 ISZERO PUSH2 0x61D JUMPI RETURNDATASIZE PUSH1 0x0 DUP1 RETURNDATACOPY RETURNDATASIZE PUSH1 0x0 REVERT JUMPDEST POP POP POP POP PUSH1 0x40 MLOAD RETURNDATASIZE PUSH1 0x1F NOT PUSH1 0x1F DUP3 ADD AND DUP3 ADD DUP1 PUSH1 0x40 MSTORE POP DUP2 ADD SWAP1 PUSH2 0x641 SWAP2 SWAP1 PUSH2 0x136C JUMP JUMPDEST LT ISZERO PUSH2 0x6B5 JUMPI PUSH1 0x40 MLOAD PUSH3 0x461BCD PUSH1 0xE5 SHL DUP2 MSTORE PUSH1 0x20 PUSH1 0x4 DUP3 ADD MSTORE PUSH1 0x32 PUSH1 0x24 DUP3 ADD MSTORE PUSH32 0x6153543A20696E73756666696369656E742062616C616E636520746F20616C6C PUSH1 0x44 DUP3 ADD MSTORE PUSH32 0x6F6361746520736861726520746F6B656E730000000000000000000000000000 PUSH1 0x64 DUP3 ADD MSTORE PUSH1 0x84 ADD PUSH2 0x43E JUMP JUMPDEST PUSH1 0x40 MLOAD PUSH4 0x23B872DD PUSH1 0xE0 SHL DUP2 MSTORE CALLER PUSH1 0x4 DUP3 ADD MSTORE ADDRESS PUSH1 0x24 DUP3 ADD MSTORE PUSH1 0x44 DUP2 ADD DUP4 SWAP1 MSTORE PUSH1 0x1 PUSH1 0x1 PUSH1 0xA0 SHL SUB DUP5 AND SWAP1 PUSH4 0x23B872DD SWAP1 PUSH1 0x64 ADD PUSH1 0x20 PUSH1 0x40 MLOAD DUP1 DUP4 SUB DUP2 PUSH1 0x0 DUP8 GAS CALL ISZERO DUP1 ISZERO PUSH2 0x708 JUMPI RETURNDATASIZE PUSH1 0x0 DUP1 RETURNDATACOPY RETURNDATASIZE PUSH1 0x0 REVERT JUMPDEST POP POP POP POP PUSH1 0x40 MLOAD RETURNDATASIZE PUSH1 0x1F NOT PUSH1 0x1F DUP3 ADD AND DUP3 ADD DUP1 PUSH1 0x40 MSTORE POP DUP2 ADD SWAP1 PUSH2 0x72C SWAP2 SWAP1 PUSH2 0x1385 JUMP JUMPDEST POP PUSH1 0x1 PUSH1 0x1 PUSH1 0xA0 SHL SUB DUP5 AND PUSH1 0x0 SWAP1 DUP2 MSTORE PUSH1 0x1 PUSH1 0x20 MSTORE PUSH1 0x40 DUP2 KECCAK256 DUP1 SLOAD DUP5 SWAP3 SWAP1 PUSH2 0x755 SWAP1 DUP5 SWAP1 PUSH2 0x13BD JUMP JUMPDEST SWAP1 SWAP2 SSTORE POP POP PUSH1 0x1 PUSH1 0x1 PUSH1 0xA0 SHL SUB DUP5 AND PUSH1 0x0 SWAP1 DUP2 MSTORE PUSH1 0x3 PUSH1 0x20 MSTORE PUSH1 0x40 DUP2 KECCAK256 DUP1 SLOAD DUP5 SWAP3 SWAP1 PUSH2 0x782 SWAP1 DUP5 SWAP1 PUSH2 0x13BD JUMP JUMPDEST SWAP3 POP POP DUP2 SWAP1 SSTORE POP DUP2 PUSH1 0x10 PUSH1 0x0 DUP3 DUP3 SLOAD PUSH2 0x79B SWAP2 SWAP1 PUSH2 0x13BD JUMP JUMPDEST SWAP1 SWAP2 SSTORE POP POP PUSH1 0x1 PUSH1 0x1 PUSH1 0xA0 SHL SUB DUP5 AND PUSH1 0x0 SWAP1 DUP2 MSTORE PUSH1 0x5 PUSH1 0x20 MSTORE PUSH1 0x40 SWAP1 KECCAK256 SLOAD PUSH1 0xFF AND ISZERO ISZERO PUSH1 0x1 EQ PUSH2 0x829 JUMPI PUSH1 0xC DUP1 SLOAD PUSH1 0x1 DUP1 DUP3 ADD SWAP1 SWAP3 SSTORE PUSH32 0xDF6966C971051C3D54EC59162606531493A51404A002842F56009D7E5CF4A8C7 ADD DUP1 SLOAD PUSH1 0x1 PUSH1 0x1 PUSH1 0xA0 SHL SUB NOT AND PUSH1 0x1 PUSH1 0x1 PUSH1 0xA0 SHL SUB DUP8 AND SWAP1 DUP2 OR SWAP1 SWAP2 SSTORE PUSH1 0x0 SWAP1 DUP2 MSTORE PUSH1 0x5 PUSH1 0x20 MSTORE PUSH1 0x40 SWAP1 KECCAK256 DUP1 SLOAD PUSH1 0xFF NOT AND SWAP1 SWAP2 OR SWAP1 SSTORE JUMPDEST POP PUSH1 0x1 SWAP4 SWAP3 POP POP POP JUMP JUMPDEST CALLER PUSH1 0x0 DUP2 DUP2 MSTORE PUSH1 0x5 PUSH1 0x20 MSTORE PUSH1 0x40 DUP2 KECCAK256 SLOAD SWAP1 SWAP2 SWAP1 PUSH1 0xFF AND ISZERO ISZERO PUSH1 0x1 EQ PUSH2 0x8C0 JUMPI PUSH1 0x40 MLOAD PUSH3 0x461BCD PUSH1 0xE5 SHL DUP2 MSTORE PUSH1 0x20 PUSH1 0x4 DUP3 ADD MSTORE PUSH1 0x30 PUSH1 0x24 DUP3 ADD MSTORE PUSH32 0x6F6E6C792077686974652D6C6973746564206D656D626572732063616E20636C PUSH1 0x44 DUP3 ADD MSTORE PUSH32 0x61696D20736861726520746F6B656E7300000000000000000000000000000000 PUSH1 0x64 DUP3 ADD MSTORE PUSH1 0x84 ADD PUSH2 0x43E JUMP JUMPDEST PUSH1 0x1 PUSH1 0x1 PUSH1 0xA0 SHL SUB DUP2 AND PUSH1 0x0 SWAP1 DUP2 MSTORE PUSH1 0x3 PUSH1 0x20 MSTORE PUSH1 0x40 SWAP1 KECCAK256 SLOAD PUSH2 0x925 JUMPI PUSH1 0x40 MLOAD PUSH3 0x461BCD PUSH1 0xE5 SHL DUP2 MSTORE PUSH1 0x20 PUSH1 0x4 DUP3 ADD MSTORE PUSH1 0x1F PUSH1 0x24 DUP3 ADD MSTORE PUSH32 0x796F752068617665203020736861726520746F6B656E20746F20636C61696D00 PUSH1 0x44 DUP3 ADD MSTORE PUSH1 0x64 ADD PUSH2 0x43E JUMP JUMPDEST PUSH1 0x1 PUSH1 0x1 PUSH1 0xA0 SHL SUB DUP2 DUP2 AND PUSH1 0x0 SWAP1 DUP2 MSTORE PUSH1 0x3 PUSH1 0x20 MSTORE PUSH1 0x40 SWAP1 DUP2 SWAP1 KECCAK256 SLOAD PUSH1 0x8 SLOAD SWAP2 MLOAD PUSH4 0x70A08231 PUSH1 0xE0 SHL DUP2 MSTORE ADDRESS PUSH1 0x4 DUP3 ADD MSTORE SWAP1 SWAP3 SWAP2 SWAP1 SWAP2 AND SWAP1 PUSH4 0x70A08231 SWAP1 PUSH1 0x24 ADD PUSH1 0x20 PUSH1 0x40 MLOAD DUP1 DUP4 SUB DUP2 DUP7 GAS STATICCALL ISZERO DUP1 ISZERO PUSH2 0x983 JUMPI RETURNDATASIZE PUSH1 0x0 DUP1 RETURNDATACOPY RETURNDATASIZE PUSH1 0x0 REVERT JUMPDEST POP POP POP POP PUSH1 0x40 MLOAD RETURNDATASIZE PUSH1 0x1F NOT PUSH1 0x1F DUP3 ADD AND DUP3 ADD DUP1 PUSH1 0x40 MSTORE POP DUP2 ADD SWAP1 PUSH2 0x9A7 SWAP2 SWAP1 PUSH2 0x136C JUMP JUMPDEST LT ISZERO PUSH2 0xA41 JUMPI PUSH1 0x40 MLOAD PUSH3 0x461BCD PUSH1 0xE5 SHL DUP2 MSTORE PUSH1 0x20 PUSH1 0x4 DUP3 ADD MSTORE PUSH1 0x51 PUSH1 0x24 DUP3 ADD MSTORE PUSH32 0x6353543A20746869732073686F756C64206E657665722068617070656E203D3E PUSH1 0x44 DUP3 ADD MSTORE PUSH32 0x20696E73756666696369656E742062616C616E6365206F662073686172652074 PUSH1 0x64 DUP3 ADD MSTORE PUSH32 0x6F6B656E7320696E20636F6E7472616374000000000000000000000000000000 PUSH1 0x84 DUP3 ADD MSTORE PUSH1 0xA4 ADD PUSH2 0x43E JUMP JUMPDEST PUSH1 0x8 SLOAD PUSH1 0x1 PUSH1 0x1 PUSH1 0xA0 SHL SUB DUP3 DUP2 AND PUSH1 0x0 DUP2 DUP2 MSTORE PUSH1 0x3 PUSH1 0x20 MSTORE PUSH1 0x40 SWAP1 DUP2 SWAP1 KECCAK256 SLOAD SWAP1 MLOAD PUSH4 0xA9059CBB PUSH1 0xE0 SHL DUP2 MSTORE PUSH1 0x4 DUP2 ADD SWAP3 SWAP1 SWAP3 MSTORE PUSH1 0x24 DUP3 ADD MSTORE SWAP2 AND SWAP1 PUSH4 0xA9059CBB SWAP1 PUSH1 0x44 ADD PUSH1 0x20 PUSH1 0x40 MLOAD DUP1 DUP4 SUB DUP2 PUSH1 0x0 DUP8 GAS CALL ISZERO DUP1 ISZERO PUSH2 0xAA4 JUMPI RETURNDATASIZE PUSH1 0x0 DUP1 RETURNDATACOPY RETURNDATASIZE PUSH1 0x0 REVERT JUMPDEST POP POP POP POP PUSH1 0x40 MLOAD RETURNDATASIZE PUSH1 0x1F NOT PUSH1 0x1F DUP3 ADD AND DUP3 ADD DUP1 PUSH1 0x40 MSTORE POP DUP2 ADD SWAP1 PUSH2 0xAC8 SWAP2 SWAP1 PUSH2 0x1385 JUMP JUMPDEST POP PUSH1 0x1 PUSH1 0x1 PUSH1 0xA0 SHL SUB AND PUSH1 0x0 SWAP1 DUP2 MSTORE PUSH1 0x3 PUSH1 0x20 MSTORE PUSH1 0x40 DUP2 KECCAK256 SSTORE POP PUSH1 0x1 SWAP1 JUMP JUMPDEST CALLER PUSH1 0x0 DUP2 DUP2 MSTORE PUSH1 0x5 PUSH1 0x20 MSTORE PUSH1 0x40 DUP2 KECCAK256 SLOAD SWAP1 SWAP2 SWAP1 PUSH1 0xFF AND ISZERO ISZERO PUSH1 0x1 EQ PUSH2 0xB74 JUMPI PUSH1 0x40 MLOAD PUSH3 0x461BCD PUSH1 0xE5 SHL DUP2 MSTORE PUSH1 0x20 PUSH1 0x4 DUP3 ADD MSTORE PUSH1 0x38 PUSH1 0x24 DUP3 ADD MSTORE PUSH32 0x6342543A206F6E6C792077686974652D6C6973746564206D656D626572732063 PUSH1 0x44 DUP3 ADD MSTORE PUSH32 0x616E20636C61696D20206261636B696E6720746F6B656E730000000000000000 PUSH1 0x64 DUP3 ADD MSTORE PUSH1 0x84 ADD PUSH2 0x43E JUMP JUMPDEST PUSH1 0x1 PUSH1 0x1 PUSH1 0xA0 SHL SUB DUP2 AND PUSH1 0x0 SWAP1 DUP2 MSTORE PUSH1 0x4 PUSH1 0x20 MSTORE PUSH1 0x40 SWAP1 KECCAK256 SLOAD PUSH2 0xBFF JUMPI PUSH1 0x40 MLOAD PUSH3 0x461BCD PUSH1 0xE5 SHL DUP2 MSTORE PUSH1 0x20 PUSH1 0x4 DUP3 ADD MSTORE PUSH1 0x26 PUSH1 0x24 DUP3 ADD MSTORE PUSH32 0x6342543A20796F7520686176652030206261636B696E6720746F6B656E20746F PUSH1 0x44 DUP3 ADD MSTORE PUSH32 0x20636C61696D0000000000000000000000000000000000000000000000000000 PUSH1 0x64 DUP3 ADD MSTORE PUSH1 0x84 ADD PUSH2 0x43E JUMP JUMPDEST PUSH1 0x1 PUSH1 0x1 PUSH1 0xA0 SHL SUB DUP2 DUP2 AND PUSH1 0x0 SWAP1 DUP2 MSTORE PUSH1 0x4 PUSH1 0x20 DUP2 SWAP1 MSTORE PUSH1 0x40 SWAP2 DUP3 SWAP1 KECCAK256 SLOAD PUSH1 0x7 SLOAD SWAP3 MLOAD PUSH4 0x70A08231 PUSH1 0xE0 SHL DUP2 MSTORE ADDRESS SWAP3 DUP2 ADD SWAP3 SWAP1 SWAP3 MSTORE SWAP3 SWAP2 SWAP1 SWAP2 AND SWAP1 PUSH4 0x70A08231 SWAP1 PUSH1 0x24 ADD PUSH1 0x20 PUSH1 0x40 MLOAD DUP1 DUP4 SUB DUP2 DUP7 GAS STATICCALL ISZERO DUP1 ISZERO PUSH2 0xC60 JUMPI RETURNDATASIZE PUSH1 0x0 DUP1 RETURNDATACOPY RETURNDATASIZE PUSH1 0x0 REVERT JUMPDEST POP POP POP POP PUSH1 0x40 MLOAD RETURNDATASIZE PUSH1 0x1F NOT PUSH1 0x1F DUP3 ADD AND DUP3 ADD DUP1 PUSH1 0x40 MSTORE POP DUP2 ADD SWAP1 PUSH2 0xC84 SWAP2 SWAP1 PUSH2 0x136C JUMP JUMPDEST LT ISZERO PUSH2 0xD1E JUMPI PUSH1 0x40 MLOAD PUSH3 0x461BCD PUSH1 0xE5 SHL DUP2 MSTORE PUSH1 0x20 PUSH1 0x4 DUP3 ADD MSTORE PUSH1 0x5B PUSH1 0x24 DUP3 ADD MSTORE PUSH32 0x6342543A20746869732073686F756C64206E657665722068617070656E202877 PUSH1 0x44 DUP3 ADD MSTORE PUSH32 0x6569726429203D3E20696E73756666696369656E742062616C616E6365206F66 PUSH1 0x64 DUP3 ADD MSTORE PUSH32 0x206261636B696E6720746F6B656E7320696E20636F6E74726163740000000000 PUSH1 0x84 DUP3 ADD MSTORE PUSH1 0xA4 ADD PUSH2 0x43E JUMP JUMPDEST PUSH1 0x7 SLOAD PUSH1 0x1 PUSH1 0x1 PUSH1 0xA0 SHL SUB DUP3 DUP2 AND PUSH1 0x0 DUP2 DUP2 MSTORE PUSH1 0x4 PUSH1 0x20 DUP2 SWAP1 MSTORE PUSH1 0x40 SWAP2 DUP3 SWAP1 KECCAK256 SLOAD SWAP2 MLOAD PUSH4 0xA9059CBB PUSH1 0xE0 SHL DUP2 MSTORE SWAP1 DUP2 ADD SWAP3 SWAP1 SWAP3 MSTORE PUSH1 0x24 DUP3 ADD MSTORE SWAP2 AND SWAP1 PUSH4 0xA9059CBB SWAP1 PUSH1 0x44 ADD PUSH1 0x20 PUSH1 0x40 MLOAD DUP1 DUP4 SUB DUP2 PUSH1 0x0 DUP8 GAS CALL ISZERO DUP1 ISZERO PUSH2 0xD82 JUMPI RETURNDATASIZE PUSH1 0x0 DUP1 RETURNDATACOPY RETURNDATASIZE PUSH1 0x0 REVERT JUMPDEST POP POP POP POP PUSH1 0x40 MLOAD RETURNDATASIZE PUSH1 0x1F NOT PUSH1 0x1F DUP3 ADD AND DUP3 ADD DUP1 PUSH1 0x40 MSTORE POP DUP2 ADD SWAP1 PUSH2 0xDA6 SWAP2 SWAP1 PUSH2 0x1385 JUMP JUMPDEST POP PUSH1 0x1 PUSH1 0x1 PUSH1 0xA0 SHL SUB AND PUSH1 0x0 SWAP1 DUP2 MSTORE PUSH1 0x4 PUSH1 0x20 MSTORE PUSH1 0x40 DUP2 KECCAK256 SSTORE POP PUSH1 0x1 SWAP1 JUMP JUMPDEST PUSH1 0x0 PUSH1 0x1 PUSH1 0x1 PUSH1 0xA0 SHL SUB DUP3 AND PUSH2 0xE43 JUMPI PUSH1 0x40 MLOAD PUSH3 0x461BCD PUSH1 0xE5 SHL DUP2 MSTORE PUSH1 0x20 PUSH1 0x4 DUP3 ADD MSTORE PUSH1 0x34 PUSH1 0x24 DUP3 ADD MSTORE PUSH32 0x72656D574C3A20796F752063616E6E6F742072656D6F76652061207A65726F20 PUSH1 0x44 DUP3 ADD MSTORE PUSH32 0x6164647265737320746F2077686974654C697374000000000000000000000000 PUSH1 0x64 DUP3 ADD MSTORE PUSH1 0x84 ADD PUSH2 0x43E JUMP JUMPDEST PUSH1 0x1 PUSH1 0x1 PUSH1 0xA0 SHL SUB DUP3 AND PUSH1 0x0 SWAP1 DUP2 MSTORE PUSH1 0x5 PUSH1 0x20 MSTORE PUSH1 0x40 SWAP1 KECCAK256 SLOAD PUSH1 0xFF AND ISZERO ISZERO PUSH1 0x1 EQ PUSH2 0xED6 JUMPI PUSH1 0x40 MLOAD PUSH3 0x461BCD PUSH1 0xE5 SHL DUP2 MSTORE PUSH1 0x20 PUSH1 0x4 DUP3 ADD MSTORE PUSH1 0x3C PUSH1 0x24 DUP3 ADD MSTORE PUSH32 0x72656D574C3A2063616E6E6F742072656D6F7665206D656D6265722074686174 PUSH1 0x44 DUP3 ADD MSTORE PUSH32 0x20646F6573206E6F7420657869737420696E2077686974656C69737400000000 PUSH1 0x64 DUP3 ADD MSTORE PUSH1 0x84 ADD PUSH2 0x43E JUMP JUMPDEST POP PUSH1 0xC DUP1 SLOAD PUSH1 0x1 DUP2 DUP2 ADD SWAP1 SWAP3 SSTORE PUSH32 0xDF6966C971051C3D54EC59162606531493A51404A002842F56009D7E5CF4A8C7 ADD DUP1 SLOAD PUSH1 0x1 PUSH1 0x1 PUSH1 0xA0 SHL SUB SWAP1 SWAP4 AND PUSH1 0x1 PUSH1 0x1 PUSH1 0xA0 SHL SUB NOT SWAP1 SWAP4 AND DUP4 OR SWAP1 SSTORE PUSH1 0x0 SWAP2 DUP3 MSTORE PUSH1 0x5 PUSH1 0x20 MSTORE PUSH1 0x40 SWAP1 SWAP2 KECCAK256 DUP1 SLOAD PUSH1 0xFF NOT AND SWAP1 SSTORE SWAP1 JUMP JUMPDEST PUSH1 0xF SLOAD PUSH1 0x0 SWAP1 PUSH1 0x1 PUSH1 0x1 PUSH1 0xA0 SHL SUB AND CALLER EQ DUP1 PUSH2 0xF62 JUMPI POP PUSH1 0xA SLOAD PUSH1 0x1 PUSH1 0x1 PUSH1 0xA0 SHL SUB AND CALLER EQ JUMPDEST PUSH2 0xF6B JUMPI PUSH1 0x0 DUP1 REVERT JUMPDEST PUSH1 0x7 SLOAD PUSH1 0x1 PUSH1 0x1 PUSH1 0xA0 SHL SUB DUP5 DUP2 AND SWAP2 AND EQ PUSH2 0xFEE JUMPI PUSH1 0x40 MLOAD PUSH3 0x461BCD PUSH1 0xE5 SHL DUP2 MSTORE PUSH1 0x20 PUSH1 0x4 DUP3 ADD MSTORE PUSH1 0x31 PUSH1 0x24 DUP3 ADD MSTORE PUSH32 0x6442543A206D616B65207375726520796F752061726520646973747269627574 PUSH1 0x44 DUP3 ADD MSTORE PUSH32 0x696E67206261636B696E6720746F6B656E000000000000000000000000000000 PUSH1 0x64 DUP3 ADD MSTORE PUSH1 0x84 ADD PUSH2 0x43E JUMP JUMPDEST PUSH1 0x0 DUP3 GT PUSH2 0x1064 JUMPI PUSH1 0x40 MLOAD PUSH3 0x461BCD PUSH1 0xE5 SHL DUP2 MSTORE PUSH1 0x20 PUSH1 0x4 DUP3 ADD MSTORE PUSH1 0x32 PUSH1 0x24 DUP3 ADD MSTORE PUSH32 0x6442543A20796F75206D75737420706179206261636B696E6720746F6B656E73 PUSH1 0x44 DUP3 ADD MSTORE PUSH32 0x2067726561746572207468616E207A65726F0000000000000000000000000000 PUSH1 0x64 DUP3 ADD MSTORE PUSH1 0x84 ADD PUSH2 0x43E JUMP JUMPDEST PUSH1 0x40 MLOAD PUSH4 0x70A08231 PUSH1 0xE0 SHL DUP2 MSTORE CALLER PUSH1 0x4 DUP3 ADD MSTORE DUP3 SWAP1 PUSH1 0x1 PUSH1 0x1 PUSH1 0xA0 SHL SUB DUP6 AND SWAP1 PUSH4 0x70A08231 SWAP1 PUSH1 0x24 ADD PUSH1 0x20 PUSH1 0x40 MLOAD DUP1 DUP4 SUB DUP2 DUP7 GAS STATICCALL ISZERO DUP1 ISZERO PUSH2 0x10AA JUMPI RETURNDATASIZE PUSH1 0x0 DUP1 RETURNDATACOPY RETURNDATASIZE PUSH1 0x0 REVERT JUMPDEST POP POP POP POP PUSH1 0x40 MLOAD RETURNDATASIZE PUSH1 0x1F NOT PUSH1 0x1F DUP3 ADD AND DUP3 ADD DUP1 PUSH1 0x40 MSTORE POP DUP2 ADD SWAP1 PUSH2 0x10CE SWAP2 SWAP1 PUSH2 0x136C JUMP JUMPDEST LT ISZERO PUSH2 0x1150 JUMPI PUSH1 0x40 MLOAD PUSH3 0x461BCD PUSH1 0xE5 SHL DUP2 MSTORE PUSH1 0x20 PUSH1 0x4 DUP3 ADD MSTORE PUSH1 0x44 PUSH1 0x24 DUP3 ADD DUP2 SWAP1 MSTORE PUSH32 0x6442543A20796F7520646F206E6F7420686176652073756666696369656E7420 SWAP1 DUP3 ADD MSTORE PUSH32 0x62616C616E636520746F2064697374726962757465206261636B696E6720746F PUSH1 0x64 DUP3 ADD MSTORE PUSH4 0x6B656E73 PUSH1 0xE0 SHL PUSH1 0x84 DUP3 ADD MSTORE PUSH1 0xA4 ADD PUSH2 0x43E JUMP JUMPDEST PUSH1 0x40 MLOAD PUSH4 0x23B872DD PUSH1 0xE0 SHL DUP2 MSTORE CALLER PUSH1 0x4 DUP3 ADD MSTORE ADDRESS PUSH1 0x24 DUP3 ADD MSTORE PUSH1 0x44 DUP2 ADD DUP4 SWAP1 MSTORE PUSH1 0x1 PUSH1 0x1 PUSH1 0xA0 SHL SUB DUP5 AND SWAP1 PUSH4 0x23B872DD SWAP1 PUSH1 0x64 ADD PUSH1 0x20 PUSH1 0x40 MLOAD DUP1 DUP4 SUB DUP2 PUSH1 0x0 DUP8 GAS CALL ISZERO DUP1 ISZERO PUSH2 0x11A3 JUMPI RETURNDATASIZE PUSH1 0x0 DUP1 RETURNDATACOPY RETURNDATASIZE PUSH1 0x0 REVERT JUMPDEST POP POP POP POP PUSH1 0x40 MLOAD RETURNDATASIZE PUSH1 0x1F NOT PUSH1 0x1F DUP3 ADD AND DUP3 ADD DUP1 PUSH1 0x40 MSTORE POP DUP2 ADD SWAP1 PUSH2 0x11C7 SWAP2 SWAP1 PUSH2 0x1385 JUMP JUMPDEST POP PUSH1 0x0 JUMPDEST PUSH1 0xC SLOAD DUP2 LT ISZERO PUSH2 0x12A2 JUMPI PUSH1 0x0 PUSH1 0xC DUP3 DUP2 SLOAD DUP2 LT PUSH2 0x11EA JUMPI PUSH2 0x11EA PUSH2 0x13D5 JUMP JUMPDEST PUSH1 0x0 SWAP2 DUP3 MSTORE PUSH1 0x20 DUP1 DUP4 KECCAK256 SWAP1 SWAP2 ADD SLOAD PUSH1 0x10 SLOAD PUSH1 0x1 PUSH1 0x1 PUSH1 0xA0 SHL SUB SWAP1 SWAP2 AND DUP1 DUP5 MSTORE PUSH1 0x1 SWAP1 SWAP3 MSTORE PUSH1 0x40 DUP4 KECCAK256 SLOAD SWAP2 SWAP4 POP SWAP1 PUSH2 0x1222 SWAP1 DUP8 SWAP1 PUSH2 0x13EB JUMP JUMPDEST PUSH2 0x122C SWAP2 SWAP1 PUSH2 0x140A JUMP JUMPDEST PUSH1 0x1 PUSH1 0x1 PUSH1 0xA0 SHL SUB DUP4 AND PUSH1 0x0 SWAP1 DUP2 MSTORE PUSH1 0x2 PUSH1 0x20 MSTORE PUSH1 0x40 DUP2 KECCAK256 DUP1 SLOAD SWAP3 SWAP4 POP DUP4 SWAP3 SWAP1 SWAP2 SWAP1 PUSH2 0x1259 SWAP1 DUP5 SWAP1 PUSH2 0x13BD JUMP JUMPDEST SWAP1 SWAP2 SSTORE POP POP PUSH1 0x1 PUSH1 0x1 PUSH1 0xA0 SHL SUB DUP3 AND PUSH1 0x0 SWAP1 DUP2 MSTORE PUSH1 0x4 PUSH1 0x20 MSTORE PUSH1 0x40 DUP2 KECCAK256 DUP1 SLOAD DUP4 SWAP3 SWAP1 PUSH2 0x1286 SWAP1 DUP5 SWAP1 PUSH2 0x13BD JUMP JUMPDEST SWAP3 POP POP DUP2 SWAP1 SSTORE POP POP POP DUP1 DUP1 PUSH2 0x129A SWAP1 PUSH2 0x142C JUMP JUMPDEST SWAP2 POP POP PUSH2 0x11CB JUMP JUMPDEST POP DUP2 PUSH1 0x11 PUSH1 0x0 DUP3 DUP3 SLOAD PUSH2 0x12B5 SWAP2 SWAP1 PUSH2 0x13BD JUMP JUMPDEST SWAP1 SWAP2 SSTORE POP PUSH1 0x1 SWAP5 SWAP4 POP POP POP POP JUMP JUMPDEST PUSH1 0x1 PUSH1 0x1 PUSH1 0xA0 SHL SUB DUP2 AND DUP2 EQ PUSH2 0x12D8 JUMPI PUSH1 0x0 DUP1 REVERT JUMPDEST POP JUMP JUMPDEST PUSH1 0x0 PUSH1 0x20 DUP3 DUP5 SUB SLT ISZERO PUSH2 0x12ED JUMPI PUSH1 0x0 DUP1 REVERT JUMPDEST DUP2 CALLDATALOAD PUSH2 0x12F8 DUP2 PUSH2 0x12C3 JUMP JUMPDEST SWAP4 SWAP3 POP POP POP JUMP JUMPDEST PUSH1 0x0 DUP1 PUSH1 0x0 PUSH1 0x60 DUP5 DUP7 SUB SLT ISZERO PUSH2 0x1314 JUMPI PUSH1 0x0 DUP1 REVERT JUMPDEST DUP4 CALLDATALOAD PUSH2 0x131F DUP2 PUSH2 0x12C3 JUMP JUMPDEST SWAP3 POP PUSH1 0x20 DUP5 ADD CALLDATALOAD PUSH2 0x132F DUP2 PUSH2 0x12C3 JUMP JUMPDEST SWAP3 SWAP6 SWAP3 SWAP5 POP POP POP PUSH1 0x40 SWAP2 SWAP1 SWAP2 ADD CALLDATALOAD SWAP1 JUMP JUMPDEST PUSH1 0x0 DUP1 PUSH1 0x40 DUP4 DUP6 SUB SLT ISZERO PUSH2 0x1353 JUMPI PUSH1 0x0 DUP1 REVERT JUMPDEST DUP3 CALLDATALOAD PUSH2 0x135E DUP2 PUSH2 0x12C3 JUMP JUMPDEST SWAP5 PUSH1 0x20 SWAP4 SWAP1 SWAP4 ADD CALLDATALOAD SWAP4 POP POP POP JUMP JUMPDEST PUSH1 0x0 PUSH1 0x20 DUP3 DUP5 SUB SLT ISZERO PUSH2 0x137E JUMPI PUSH1 0x0 DUP1 REVERT JUMPDEST POP MLOAD SWAP2 SWAP1 POP JUMP JUMPDEST PUSH1 0x0 PUSH1 0x20 DUP3 DUP5 SUB SLT ISZERO PUSH2 0x1397 JUMPI PUSH1 0x0 DUP1 REVERT JUMPDEST DUP2 MLOAD DUP1 ISZERO ISZERO DUP2 EQ PUSH2 0x12F8 JUMPI PUSH1 0x0 DUP1 REVERT JUMPDEST PUSH4 0x4E487B71 PUSH1 0xE0 SHL PUSH1 0x0 MSTORE PUSH1 0x11 PUSH1 0x4 MSTORE PUSH1 0x24 PUSH1 0x0 REVERT JUMPDEST PUSH1 0x0 DUP3 NOT DUP3 GT ISZERO PUSH2 0x13D0 JUMPI PUSH2 0x13D0 PUSH2 0x13A7 JUMP JUMPDEST POP ADD SWAP1 JUMP JUMPDEST PUSH4 0x4E487B71 PUSH1 0xE0 SHL PUSH1 0x0 MSTORE PUSH1 0x32 PUSH1 0x4 MSTORE PUSH1 0x24 PUSH1 0x0 REVERT JUMPDEST PUSH1 0x0 DUP2 PUSH1 0x0 NOT DIV DUP4 GT DUP3 ISZERO ISZERO AND ISZERO PUSH2 0x1405 JUMPI PUSH2 0x1405 PUSH2 0x13A7 JUMP JUMPDEST POP MUL SWAP1 JUMP JUMPDEST PUSH1 0x0 DUP3 PUSH2 0x1427 JUMPI PUSH4 0x4E487B71 PUSH1 0xE0 SHL PUSH1 0x0 MSTORE PUSH1 0x12 PUSH1 0x4 MSTORE PUSH1 0x24 PUSH1 0x0 REVERT JUMPDEST POP DIV SWAP1 JUMP JUMPDEST PUSH1 0x0 PUSH1 0x1 DUP3 ADD PUSH2 0x143E JUMPI PUSH2 0x143E PUSH2 0x13A7 JUMP JUMPDEST POP PUSH1 0x1 ADD SWAP1 JUMP INVALID LOG2 PUSH5 0x6970667358 0x22 SLT KECCAK256 0xAB 0x2F 0xA7 PUSH2 0xA593 SAR SWAP5 LT 0x2D 0xD7 PUSH11 0x3F1B96FF4462BD4EB95639 CALLER 0xE8 PUSH8 0xFF222E3201CD6473 PUSH16 0x6C634300080D00330000000000000000 "
    },
    "gasEstimates": {
      "creation": {
        "codeDepositCost": "1048600",
        "executionCost": "infinite",
        "totalCost": "infinite"
      },
      "external": {
        "WlMember(address)": "2621",
        "_bt()": "2404",
        "_st()": "2383",
        "_totBT()": "2318",
        "_totST()": "2383",
        "aST(address,address,uint256)": "infinite",
        "addWL(address)": "73201",
        "cBT()": "infinite",
        "cCM(address)": "24678",
        "cST()": "infinite",
        "claimBT(address)": "2554",
        "claimST(address)": "2620",
        "dBT(address,uint256)": "infinite",
        "getCM()": "2421",
        "remWL(address)": "75438",
        "totAllBT(address)": "2598",
        "totAllST(address)": "2597"
      }
    },
    "methodIdentifiers": {
      "WlMember(address)": "5f663945",
      "_bt()": "5dab262c",
      "_st()": "1921f1c2",
      "_totBT()": "6c72bc0b",
      "_totST()": "f8f2cccc",
      "aST(address,address,uint256)": "1e3f5f07",
      "addWL(address)": "125f48e4",
      "cBT()": "7333bd09",
      "cCM(address)": "74fcef12",
      "cST()": "4acdd6cc",
      "claimBT(address)": "4a7db782",
      "claimST(address)": "92921ae1",
      "dBT(address,uint256)": "e25f33da",
      "getCM()": "1f70c286",
      "remWL(address)": "a153a9bd",
      "totAllBT(address)": "c30bfa4b",
      "totAllST(address)": "eb138b25"
    }
  },
  "storageLayout": {
    "storage": [
      {
        "astId": 80,
        "contract": "centralContract.sol:CentralContract",
        "label": "_balances",
        "offset": 0,
        "slot": "0",
        "type": "t_mapping(t_address,t_uint256)"
      },
      {
        "astId": 84,
        "contract": "centralContract.sol:CentralContract",
        "label": "_totAllST",
        "offset": 0,
        "slot": "1",
        "type": "t_mapping(t_address,t_uint256)"
      },
      {
        "astId": 88,
        "contract": "centralContract.sol:CentralContract",
        "label": "_totAllBT",
        "offset": 0,
        "slot": "2",
        "type": "t_mapping(t_address,t_uint256)"
      },
      {
        "astId": 92,
        "contract": "centralContract.sol:CentralContract",
        "label": "_claimST",
        "offset": 0,
        "slot": "3",
        "type": "t_mapping(t_address,t_uint256)"
      },
      {
        "astId": 96,
        "contract": "centralContract.sol:CentralContract",
        "label": "_claimBT",
        "offset": 0,
        "slot": "4",
        "type": "t_mapping(t_address,t_uint256)"
      },
      {
        "astId": 100,
        "contract": "centralContract.sol:CentralContract",
        "label": "_wlMember",
        "offset": 0,
        "slot": "5",
        "type": "t_mapping(t_address,t_bool)"
      },
      {
        "astId": 106,
        "contract": "centralContract.sol:CentralContract",
        "label": "_allowances",
        "offset": 0,
        "slot": "6",
        "type": "t_mapping(t_address,t_mapping(t_address,t_uint256))"
      },
      {
        "astId": 109,
        "contract": "centralContract.sol:CentralContract",
        "label": "_bt",
        "offset": 0,
        "slot": "7",
        "type": "t_contract(IERC20)76"
      },
      {
        "astId": 112,
        "contract": "centralContract.sol:CentralContract",
        "label": "_st",
        "offset": 0,
        "slot": "8",
        "type": "t_contract(IERC20)76"
      },
      {
        "astId": 114,
        "contract": "centralContract.sol:CentralContract",
        "label": "_totalSupply",
        "offset": 0,
        "slot": "9",
        "type": "t_uint256"
      },
      {
        "astId": 116,
        "contract": "centralContract.sol:CentralContract",
        "label": "_manager",
        "offset": 0,
        "slot": "10",
        "type": "t_address"
      },
      {
        "astId": 118,
        "contract": "centralContract.sol:CentralContract",
        "label": "_centralContract",
        "offset": 0,
        "slot": "11",
        "type": "t_address"
      },
      {
        "astId": 121,
        "contract": "centralContract.sol:CentralContract",
        "label": "_whiteList",
        "offset": 0,
        "slot": "12",
        "type": "t_array(t_address)dyn_storage"
      },
      {
        "astId": 123,
        "contract": "centralContract.sol:CentralContract",
        "label": "_name",
        "offset": 0,
        "slot": "13",
        "type": "t_string_storage"
      },
      {
        "astId": 125,
        "contract": "centralContract.sol:CentralContract",
        "label": "_symbol",
        "offset": 0,
        "slot": "14",
        "type": "t_string_storage"
      },
      {
        "astId": 127,
        "contract": "centralContract.sol:CentralContract",
        "label": "_creator",
        "offset": 0,
        "slot": "15",
        "type": "t_address"
      },
      {
        "astId": 129,
        "contract": "centralContract.sol:CentralContract",
        "label": "_totST",
        "offset": 0,
        "slot": "16",
        "type": "t_uint256"
      },
      {
        "astId": 131,
        "contract": "centralContract.sol:CentralContract",
        "label": "_totBT",
        "offset": 0,
        "slot": "17",
        "type": "t_uint256"
      }
    ],
    "types": {
      "t_address": {
        "encoding": "inplace",
        "label": "address",
        "numberOfBytes": "20"
      },
      "t_array(t_address)dyn_storage": {
        "base": "t_address",
        "encoding": "dynamic_array",
        "label": "address[]",
        "numberOfBytes": "32"
      },
      "t_bool": {
        "encoding": "inplace",
        "label": "bool",
        "numberOfBytes": "1"
      },
      "t_contract(IERC20)76": {
        "encoding": "inplace",
        "label": "contract IERC20",
        "numberOfBytes": "20"
      },
      "t_mapping(t_address,t_bool)": {
        "encoding": "mapping",
        "key": "t_address",
        "label": "mapping(address => bool)",
        "numberOfBytes": "32",
        "value": "t_bool"
      },
      "t_mapping(t_address,t_mapping(t_address,t_uint256))": {
        "encoding": "mapping",
        "key": "t_address",
        "label": "mapping(address => mapping(address => uint256))",
        "numberOfBytes": "32",
        "value": "t_mapping(t_address,t_uint256)"
      },
      "t_mapping(t_address,t_uint256)": {
        "encoding": "mapping",
        "key": "t_address",
        "label": "mapping(address => uint256)",
        "numberOfBytes": "32",
        "value": "t_uint256"
      },
      "t_string_storage": {
        "encoding": "bytes",
        "label": "string",
        "numberOfBytes": "32"
      },
      "t_uint256": {
        "encoding": "inplace",
        "label": "uint256",
        "numberOfBytes": "32"
      }
    }
  },
  "userdoc": {
    "kind": "user",
    "methods": {
      "getCM()": {
        "notice": "/**"
      }
    },
    "version": 1
  }
}