{
  "abi": [
    {
      "inputs": [
        {
          "internalType": "string",
          "name": "name_",
          "type": "string"
        },
        {
          "internalType": "string",
          "name": "symbol_",
          "type": "string"
        }
      ],
      "stateMutability": "nonpayable",
      "type": "constructor"
    },
    {
      "anonymous": false,
      "inputs": [
        {
          "indexed": true,
          "internalType": "address",
          "name": "owner",
          "type": "address"
        },
        {
          "indexed": true,
          "internalType": "address",
          "name": "spender",
          "type": "address"
        },
        {
          "indexed": false,
          "internalType": "uint256",
          "name": "value",
          "type": "uint256"
        }
      ],
      "name": "Approval",
      "type": "event"
    },
    {
      "anonymous": false,
      "inputs": [
        {
          "indexed": true,
          "internalType": "address",
          "name": "from",
          "type": "address"
        },
        {
          "indexed": true,
          "internalType": "address",
          "name": "to",
          "type": "address"
        },
        {
          "indexed": false,
          "internalType": "uint256",
          "name": "value",
          "type": "uint256"
        }
      ],
      "name": "Transfer",
      "type": "event"
    },
    {
      "inputs": [
        {
          "internalType": "address",
          "name": "owner",
          "type": "address"
        },
        {
          "internalType": "address",
          "name": "spender",
          "type": "address"
        }
      ],
      "name": "allowance",
      "outputs": [
        {
          "internalType": "uint256",
          "name": "",
          "type": "uint256"
        }
      ],
      "stateMutability": "view",
      "type": "function"
    },
    {
      "inputs": [
        {
          "internalType": "address",
          "name": "spender",
          "type": "address"
        },
        {
          "internalType": "uint256",
          "name": "amount",
          "type": "uint256"
        }
      ],
      "name": "approve",
      "outputs": [
        {
          "internalType": "bool",
          "name": "",
          "type": "bool"
        }
      ],
      "stateMutability": "nonpayable",
      "type": "function"
    },
    {
      "inputs": [
        {
          "internalType": "address",
          "name": "account",
          "type": "address"
        }
      ],
      "name": "balanceOf",
      "outputs": [
        {
          "internalType": "uint256",
          "name": "",
          "type": "uint256"
        }
      ],
      "stateMutability": "view",
      "type": "function"
    },
    {
      "inputs": [
        {
          "internalType": "address",
          "name": "centralCtc",
          "type": "address"
        }
      ],
      "name": "cCC",
      "outputs": [
        {
          "internalType": "bool",
          "name": "",
          "type": "bool"
        }
      ],
      "stateMutability": "nonpayable",
      "type": "function"
    },
    {
      "inputs": [
        {
          "internalType": "address",
          "name": "manager",
          "type": "address"
        }
      ],
      "name": "cCM",
      "outputs": [
        {
          "internalType": "bool",
          "name": "",
          "type": "bool"
        }
      ],
      "stateMutability": "nonpayable",
      "type": "function"
    },
    {
      "inputs": [],
      "name": "decimals",
      "outputs": [
        {
          "internalType": "uint8",
          "name": "",
          "type": "uint8"
        }
      ],
      "stateMutability": "view",
      "type": "function"
    },
    {
      "inputs": [
        {
          "internalType": "address",
          "name": "spender",
          "type": "address"
        },
        {
          "internalType": "uint256",
          "name": "subtractedValue",
          "type": "uint256"
        }
      ],
      "name": "decreaseAllowance",
      "outputs": [
        {
          "internalType": "bool",
          "name": "",
          "type": "bool"
        }
      ],
      "stateMutability": "nonpayable",
      "type": "function"
    },
    {
      "inputs": [],
      "name": "getCentralContract",
      "outputs": [
        {
          "internalType": "address",
          "name": "",
          "type": "address"
        }
      ],
      "stateMutability": "view",
      "type": "function"
    },
    {
      "inputs": [],
      "name": "getManager",
      "outputs": [
        {
          "internalType": "address",
          "name": "",
          "type": "address"
        }
      ],
      "stateMutability": "view",
      "type": "function"
    },
    {
      "inputs": [
        {
          "internalType": "address",
          "name": "spender",
          "type": "address"
        },
        {
          "internalType": "uint256",
          "name": "addedValue",
          "type": "uint256"
        }
      ],
      "name": "increaseAllowance",
      "outputs": [
        {
          "internalType": "bool",
          "name": "",
          "type": "bool"
        }
      ],
      "stateMutability": "nonpayable",
      "type": "function"
    },
    {
      "inputs": [
        {
          "internalType": "address",
          "name": "account",
          "type": "address"
        },
        {
          "internalType": "uint256",
          "name": "amount",
          "type": "uint256"
        }
      ],
      "name": "mint",
      "outputs": [
        {
          "internalType": "bool",
          "name": "",
          "type": "bool"
        }
      ],
      "stateMutability": "nonpayable",
      "type": "function"
    },
    {
      "inputs": [],
      "name": "name",
      "outputs": [
        {
          "internalType": "string",
          "name": "",
          "type": "string"
        }
      ],
      "stateMutability": "view",
      "type": "function"
    },
    {
      "inputs": [],
      "name": "symbol",
      "outputs": [
        {
          "internalType": "string",
          "name": "",
          "type": "string"
        }
      ],
      "stateMutability": "view",
      "type": "function"
    },
    {
      "inputs": [],
      "name": "totalSupply",
      "outputs": [
        {
          "internalType": "uint256",
          "name": "",
          "type": "uint256"
        }
      ],
      "stateMutability": "view",
      "type": "function"
    },
    {
      "inputs": [
        {
          "internalType": "address",
          "name": "to",
          "type": "address"
        },
        {
          "internalType": "uint256",
          "name": "amount",
          "type": "uint256"
        }
      ],
      "name": "transfer",
      "outputs": [
        {
          "internalType": "bool",
          "name": "",
          "type": "bool"
        }
      ],
      "stateMutability": "nonpayable",
      "type": "function"
    },
    {
      "inputs": [
        {
          "internalType": "address",
          "name": "from",
          "type": "address"
        },
        {
          "internalType": "address",
          "name": "to",
          "type": "address"
        },
        {
          "internalType": "uint256",
          "name": "amount",
          "type": "uint256"
        }
      ],
      "name": "transferFrom",
      "outputs": [
        {
          "internalType": "bool",
          "name": "",
          "type": "bool"
        }
      ],
      "stateMutability": "nonpayable",
      "type": "function"
    }
  ],
  "devdoc": {
    "details": "Implementation of the {IERC20} interface. This implementation is agnostic to the way tokens are created. This means that a supply mechanism has to be added in a derived contract using {_mint}. For a generic mechanism see {ERC20PresetMinterPauser}. TIP: For a detailed writeup see our guide https://forum.zeppelin.solutions/t/how-to-implement-erc20-supply-mechanisms/226[How to implement supply mechanisms]. We have followed general OpenZeppelin Contracts guidelines: functions revert instead returning `false` on failure. This behavior is nonetheless conventional and does not conflict with the expectations of ERC20 applications. Additionally, an {Approval} event is emitted on calls to {transferFrom}. This allows applications to reconstruct the allowance for all accounts just by listening to said events. Other implementations of the EIP may not emit these events, as it isn't required by the specification. Finally, the non-standard {decreaseAllowance} and {increaseAllowance} functions have been added to mitigate the well-known issues around setting allowances. See {IERC20-approve}.",
    "kind": "dev",
    "methods": {
      "allowance(address,address)": {
        "details": "See {IERC20-allowance}."
      },
      "approve(address,uint256)": {
        "details": "See {IERC20-approve}. NOTE: If `amount` is the maximum `uint256`, the allowance is not updated on `transferFrom`. This is semantically equivalent to an infinite approval. Requirements: - `spender` cannot be the zero address."
      },
      "balanceOf(address)": {
        "details": "See {IERC20-balanceOf}."
      },
      "constructor": {
        "details": "Sets the values for {name} and {symbol}. The default value of {decimals} is 18. To select a different value for {decimals} you should overload it. All two of these values are immutable: they can only be set once during construction."
      },
      "decimals()": {
        "details": "Returns the number of decimals used to get its user representation. For example, if `decimals` equals `2`, a balance of `505` tokens should be displayed to a user as `5.05` (`505 / 10 ** 2`). Tokens usually opt for a value of 18, imitating the relationship between Ether and Wei. This is the value {ERC20} uses, unless this function is overridden; NOTE: This information is only used for _display_ purposes: it in no way affects any of the arithmetic of the contract, including {IERC20-balanceOf} and {IERC20-transfer}."
      },
      "decreaseAllowance(address,uint256)": {
        "details": "Atomically decreases the allowance granted to `spender` by the caller. This is an alternative to {approve} that can be used as a mitigation for problems described in {IERC20-approve}. Emits an {Approval} event indicating the updated allowance. Requirements: - `spender` cannot be the zero address. - `spender` must have allowance for the caller of at least `subtractedValue`."
      },
      "getCentralContract()": {
        "details": "this is just Sunday Akinbowale putting \"centralContract\" view for restricted token"
      },
      "getManager()": {
        "details": "this is just Sunday Akinbowale putting \"manager\" view for restricted token"
      },
      "increaseAllowance(address,uint256)": {
        "details": "Atomically increases the allowance granted to `spender` by the caller. This is an alternative to {approve} that can be used as a mitigation for problems described in {IERC20-approve}. Emits an {Approval} event indicating the updated allowance. Requirements: - `spender` cannot be the zero address."
      },
      "name()": {
        "details": "Returns the name of the token."
      },
      "symbol()": {
        "details": "Returns the symbol of the token, usually a shorter version of the name."
      },
      "totalSupply()": {
        "details": "See {IERC20-totalSupply}."
      },
      "transfer(address,uint256)": {
        "details": "See {IERC20-transfer}. Requirements: - `to` cannot be the zero address. - the caller must have a balance of at least `amount`."
      },
      "transferFrom(address,address,uint256)": {
        "details": "See {IERC20-transferFrom}. Emits an {Approval} event indicating the updated allowance. This is not required by the EIP. See the note at the beginning of {ERC20}. NOTE: Does not update the allowance if the current allowance is the maximum `uint256`. Requirements: - `from` and `to` cannot be the zero address. - `from` must have a balance of at least `amount`. - the caller must have allowance for ``from``'s tokens of at least `amount`."
      }
    },
    "version": 1
  },
  "evm": {
    "assembly": "    /* \"erc20.sol\":5420:18842  contract ERC20 is Context, IERC20, IERC20Metadata {... */\n  mstore(0x40, 0x80)\n    /* \"erc20.sol\":6115:6300  constructor(string memory name_, string memory symbol_) {... */\n  callvalue\n  dup1\n  iszero\n  tag_1\n  jumpi\n  0x00\n  dup1\n  revert\ntag_1:\n  pop\n  mload(0x40)\n  sub(codesize, bytecodeSize)\n  dup1\n  bytecodeSize\n  dup4\n  codecopy\n  dup2\n  add\n  0x40\n  dup2\n  swap1\n  mstore\n  tag_2\n  swap2\n  tag_3\n  jump\t// in\ntag_2:\n    /* \"erc20.sol\":6182:6195  _name = name_ */\n  dup2\n  mload\n  tag_6\n  swap1\n    /* \"erc20.sol\":6182:6187  _name */\n  0x05\n  swap1\n    /* \"erc20.sol\":6182:6195  _name = name_ */\n  0x20\n  dup6\n  add\n  swap1\n  tag_7\n  jump\t// in\ntag_6:\n  pop\n    /* \"erc20.sol\":6206:6223  _symbol = symbol_ */\n  dup1\n  mload\n  tag_8\n  swap1\n    /* \"erc20.sol\":6206:6213  _symbol */\n  0x06\n  swap1\n    /* \"erc20.sol\":6206:6223  _symbol = symbol_ */\n  0x20\n  dup5\n  add\n  swap1\n  tag_7\n  jump\t// in\ntag_8:\n  pop\n  pop\n    /* \"erc20.sol\":6234:6242  _creator */\n  0x07\n    /* \"erc20.sol\":6234:6255  _creator = msg.sender */\n  dup1\n  sload\n  not(sub(shl(0xa0, 0x01), 0x01))\n  and\n    /* \"erc20.sol\":6245:6255  msg.sender */\n  caller\n    /* \"erc20.sol\":6234:6255  _creator = msg.sender */\n  or\n  swap1\n  sstore\n  pop\n    /* \"erc20.sol\":5420:18842  contract ERC20 is Context, IERC20, IERC20Metadata {... */\n  jump(tag_23)\ntag_7:\n  dup3\n  dup1\n  sload\n  tag_10\n  swap1\n  tag_11\n  jump\t// in\ntag_10:\n  swap1\n  0x00\n  mstore\n  keccak256(0x00, 0x20)\n  swap1\n  0x1f\n  add\n  0x20\n  swap1\n  div\n  dup2\n  add\n  swap3\n  dup3\n  tag_13\n  jumpi\n  0x00\n  dup6\n  sstore\n  jump(tag_16)\ntag_13:\n  dup3\n  0x1f\n  lt\n  tag_14\n  jumpi\n  dup1\n  mload\n  not(0xff)\n  and\n  dup4\n  dup1\n  add\n  or\n  dup6\n  sstore\n  jump(tag_16)\ntag_14:\n  dup3\n  dup1\n  add\n  0x01\n  add\n  dup6\n  sstore\n  dup3\n  iszero\n  tag_16\n  jumpi\n  swap2\n  dup3\n  add\ntag_15:\n  dup3\n  dup2\n  gt\n  iszero\n  tag_16\n  jumpi\n  dup3\n  mload\n  dup3\n  sstore\n  swap2\n  0x20\n  add\n  swap2\n  swap1\n  0x01\n  add\n  swap1\n  jump(tag_15)\ntag_16:\n  pop\n  tag_17\n  swap3\n  swap2\n  pop\n  tag_18\n  jump\t// in\ntag_17:\n  pop\n  swap1\n  jump\t// out\ntag_18:\ntag_19:\n  dup1\n  dup3\n  gt\n  iszero\n  tag_17\n  jumpi\n  0x00\n  dup2\n  sstore\n  0x01\n  add\n  jump(tag_19)\n    /* \"#utility.yul\":14:141   */\ntag_21:\n    /* \"#utility.yul\":75:85   */\n  0x4e487b71\n    /* \"#utility.yul\":70:73   */\n  0xe0\n    /* \"#utility.yul\":66:86   */\n  shl\n    /* \"#utility.yul\":63:64   */\n  0x00\n    /* \"#utility.yul\":56:87   */\n  mstore\n    /* \"#utility.yul\":106:110   */\n  0x41\n    /* \"#utility.yul\":103:104   */\n  0x04\n    /* \"#utility.yul\":96:111   */\n  mstore\n    /* \"#utility.yul\":130:134   */\n  0x24\n    /* \"#utility.yul\":127:128   */\n  0x00\n    /* \"#utility.yul\":120:135   */\n  revert\n    /* \"#utility.yul\":146:1031   */\ntag_22:\n    /* \"#utility.yul\":200:205   */\n  0x00\n    /* \"#utility.yul\":253:256   */\n  dup3\n    /* \"#utility.yul\":246:250   */\n  0x1f\n    /* \"#utility.yul\":238:244   */\n  dup4\n    /* \"#utility.yul\":234:251   */\n  add\n    /* \"#utility.yul\":230:257   */\n  slt\n    /* \"#utility.yul\":220:275   */\n  tag_26\n  jumpi\n    /* \"#utility.yul\":271:272   */\n  0x00\n    /* \"#utility.yul\":268:269   */\n  dup1\n    /* \"#utility.yul\":261:273   */\n  revert\n    /* \"#utility.yul\":220:275   */\ntag_26:\n    /* \"#utility.yul\":294:307   */\n  dup2\n  mload\n  sub(shl(0x40, 0x01), 0x01)\n    /* \"#utility.yul\":356:366   */\n  dup1\n  dup3\n  gt\n    /* \"#utility.yul\":353:389   */\n  iszero\n  tag_28\n  jumpi\n    /* \"#utility.yul\":369:387   */\n  tag_28\n  tag_21\n  jump\t// in\ntag_28:\n    /* \"#utility.yul\":444:446   */\n  0x40\n    /* \"#utility.yul\":438:447   */\n  mload\n    /* \"#utility.yul\":412:414   */\n  0x1f\n    /* \"#utility.yul\":498:511   */\n  dup4\n  add\n  not(0x1f)\n    /* \"#utility.yul\":494:516   */\n  swap1\n  dup2\n  and\n    /* \"#utility.yul\":518:520   */\n  0x3f\n    /* \"#utility.yul\":490:521   */\n  add\n    /* \"#utility.yul\":486:526   */\n  and\n    /* \"#utility.yul\":474:527   */\n  dup2\n  add\n  swap1\n    /* \"#utility.yul\":542:560   */\n  dup3\n  dup3\n  gt\n    /* \"#utility.yul\":562:584   */\n  dup2\n  dup4\n  lt\n    /* \"#utility.yul\":539:585   */\n  or\n    /* \"#utility.yul\":536:608   */\n  iszero\n  tag_30\n  jumpi\n    /* \"#utility.yul\":588:606   */\n  tag_30\n  tag_21\n  jump\t// in\ntag_30:\n    /* \"#utility.yul\":628:638   */\n  dup2\n    /* \"#utility.yul\":624:626   */\n  0x40\n    /* \"#utility.yul\":617:639   */\n  mstore\n    /* \"#utility.yul\":663:665   */\n  dup4\n    /* \"#utility.yul\":655:661   */\n  dup2\n    /* \"#utility.yul\":648:666   */\n  mstore\n    /* \"#utility.yul\":685:689   */\n  0x20\n    /* \"#utility.yul\":675:689   */\n  swap3\n  pop\n    /* \"#utility.yul\":730:733   */\n  dup7\n    /* \"#utility.yul\":725:727   */\n  dup4\n    /* \"#utility.yul\":720:722   */\n  dup6\n    /* \"#utility.yul\":712:718   */\n  dup9\n    /* \"#utility.yul\":708:723   */\n  add\n    /* \"#utility.yul\":704:728   */\n  add\n    /* \"#utility.yul\":701:734   */\n  gt\n    /* \"#utility.yul\":698:751   */\n  iszero\n  tag_31\n  jumpi\n    /* \"#utility.yul\":747:748   */\n  0x00\n    /* \"#utility.yul\":744:745   */\n  dup1\n    /* \"#utility.yul\":737:749   */\n  revert\n    /* \"#utility.yul\":698:751   */\ntag_31:\n    /* \"#utility.yul\":769:770   */\n  0x00\n    /* \"#utility.yul\":760:770   */\n  swap2\n  pop\n    /* \"#utility.yul\":779:912   */\ntag_32:\n    /* \"#utility.yul\":793:795   */\n  dup4\n    /* \"#utility.yul\":790:791   */\n  dup3\n    /* \"#utility.yul\":787:796   */\n  lt\n    /* \"#utility.yul\":779:912   */\n  iszero\n  tag_34\n  jumpi\n    /* \"#utility.yul\":881:895   */\n  dup6\n  dup3\n  add\n    /* \"#utility.yul\":877:900   */\n  dup4\n  add\n    /* \"#utility.yul\":871:901   */\n  mload\n    /* \"#utility.yul\":850:864   */\n  dup2\n  dup4\n  add\n    /* \"#utility.yul\":846:869   */\n  dup5\n  add\n    /* \"#utility.yul\":839:902   */\n  mstore\n    /* \"#utility.yul\":804:814   */\n  swap1\n  dup3\n  add\n  swap1\n    /* \"#utility.yul\":779:912   */\n  jump(tag_32)\ntag_34:\n    /* \"#utility.yul\":930:932   */\n  dup4\n    /* \"#utility.yul\":927:928   */\n  dup3\n    /* \"#utility.yul\":924:933   */\n  gt\n    /* \"#utility.yul\":921:1001   */\n  iszero\n  tag_35\n  jumpi\n    /* \"#utility.yul\":989:990   */\n  0x00\n    /* \"#utility.yul\":984:986   */\n  dup4\n    /* \"#utility.yul\":979:981   */\n  dup6\n    /* \"#utility.yul\":971:977   */\n  dup4\n    /* \"#utility.yul\":967:982   */\n  add\n    /* \"#utility.yul\":963:987   */\n  add\n    /* \"#utility.yul\":956:991   */\n  mstore\n    /* \"#utility.yul\":921:1001   */\ntag_35:\n    /* \"#utility.yul\":1019:1025   */\n  swap7\n    /* \"#utility.yul\":146:1031   */\n  swap6\n  pop\n  pop\n  pop\n  pop\n  pop\n  pop\n  jump\t// out\n    /* \"#utility.yul\":1036:1598   */\ntag_3:\n    /* \"#utility.yul\":1135:1141   */\n  0x00\n    /* \"#utility.yul\":1143:1149   */\n  dup1\n    /* \"#utility.yul\":1196:1198   */\n  0x40\n    /* \"#utility.yul\":1184:1193   */\n  dup4\n    /* \"#utility.yul\":1175:1182   */\n  dup6\n    /* \"#utility.yul\":1171:1194   */\n  sub\n    /* \"#utility.yul\":1167:1199   */\n  slt\n    /* \"#utility.yul\":1164:1216   */\n  iszero\n  tag_37\n  jumpi\n    /* \"#utility.yul\":1212:1213   */\n  0x00\n    /* \"#utility.yul\":1209:1210   */\n  dup1\n    /* \"#utility.yul\":1202:1214   */\n  revert\n    /* \"#utility.yul\":1164:1216   */\ntag_37:\n    /* \"#utility.yul\":1239:1255   */\n  dup3\n  mload\n  sub(shl(0x40, 0x01), 0x01)\n    /* \"#utility.yul\":1304:1318   */\n  dup1\n  dup3\n  gt\n    /* \"#utility.yul\":1301:1335   */\n  iszero\n  tag_38\n  jumpi\n    /* \"#utility.yul\":1331:1332   */\n  0x00\n    /* \"#utility.yul\":1328:1329   */\n  dup1\n    /* \"#utility.yul\":1321:1333   */\n  revert\n    /* \"#utility.yul\":1301:1335   */\ntag_38:\n    /* \"#utility.yul\":1354:1415   */\n  tag_39\n    /* \"#utility.yul\":1407:1414   */\n  dup7\n    /* \"#utility.yul\":1398:1404   */\n  dup4\n    /* \"#utility.yul\":1387:1396   */\n  dup8\n    /* \"#utility.yul\":1383:1405   */\n  add\n    /* \"#utility.yul\":1354:1415   */\n  tag_22\n  jump\t// in\ntag_39:\n    /* \"#utility.yul\":1344:1415   */\n  swap4\n  pop\n    /* \"#utility.yul\":1461:1463   */\n  0x20\n    /* \"#utility.yul\":1450:1459   */\n  dup6\n    /* \"#utility.yul\":1446:1464   */\n  add\n    /* \"#utility.yul\":1440:1465   */\n  mload\n    /* \"#utility.yul\":1424:1465   */\n  swap2\n  pop\n    /* \"#utility.yul\":1490:1492   */\n  dup1\n    /* \"#utility.yul\":1480:1488   */\n  dup3\n    /* \"#utility.yul\":1477:1493   */\n  gt\n    /* \"#utility.yul\":1474:1510   */\n  iszero\n  tag_40\n  jumpi\n    /* \"#utility.yul\":1506:1507   */\n  0x00\n    /* \"#utility.yul\":1503:1504   */\n  dup1\n    /* \"#utility.yul\":1496:1508   */\n  revert\n    /* \"#utility.yul\":1474:1510   */\ntag_40:\n  pop\n    /* \"#utility.yul\":1529:1592   */\n  tag_41\n    /* \"#utility.yul\":1584:1591   */\n  dup6\n    /* \"#utility.yul\":1573:1581   */\n  dup3\n    /* \"#utility.yul\":1562:1571   */\n  dup7\n    /* \"#utility.yul\":1558:1582   */\n  add\n    /* \"#utility.yul\":1529:1592   */\n  tag_22\n  jump\t// in\ntag_41:\n    /* \"#utility.yul\":1519:1592   */\n  swap2\n  pop\n  pop\n    /* \"#utility.yul\":1036:1598   */\n  swap3\n  pop\n  swap3\n  swap1\n  pop\n  jump\t// out\n    /* \"#utility.yul\":1603:1983   */\ntag_11:\n    /* \"#utility.yul\":1682:1683   */\n  0x01\n    /* \"#utility.yul\":1678:1690   */\n  dup2\n  dup2\n  shr\n  swap1\n    /* \"#utility.yul\":1725:1737   */\n  dup3\n  and\n  dup1\n    /* \"#utility.yul\":1746:1807   */\n  tag_43\n  jumpi\n    /* \"#utility.yul\":1800:1804   */\n  0x7f\n    /* \"#utility.yul\":1792:1798   */\n  dup3\n    /* \"#utility.yul\":1788:1805   */\n  and\n    /* \"#utility.yul\":1778:1805   */\n  swap2\n  pop\n    /* \"#utility.yul\":1746:1807   */\ntag_43:\n    /* \"#utility.yul\":1853:1855   */\n  0x20\n    /* \"#utility.yul\":1845:1851   */\n  dup3\n    /* \"#utility.yul\":1842:1856   */\n  lt\n    /* \"#utility.yul\":1822:1840   */\n  dup2\n    /* \"#utility.yul\":1819:1857   */\n  sub\n    /* \"#utility.yul\":1816:1977   */\n  tag_44\n  jumpi\n    /* \"#utility.yul\":1899:1909   */\n  0x4e487b71\n    /* \"#utility.yul\":1894:1897   */\n  0xe0\n    /* \"#utility.yul\":1890:1910   */\n  shl\n    /* \"#utility.yul\":1887:1888   */\n  0x00\n    /* \"#utility.yul\":1880:1911   */\n  mstore\n    /* \"#utility.yul\":1934:1938   */\n  0x22\n    /* \"#utility.yul\":1931:1932   */\n  0x04\n    /* \"#utility.yul\":1924:1939   */\n  mstore\n    /* \"#utility.yul\":1962:1966   */\n  0x24\n    /* \"#utility.yul\":1959:1960   */\n  0x00\n    /* \"#utility.yul\":1952:1967   */\n  revert\n    /* \"#utility.yul\":1816:1977   */\ntag_44:\n  pop\n    /* \"#utility.yul\":1603:1983   */\n  swap2\n  swap1\n  pop\n  jump\t// out\ntag_23:\n    /* \"erc20.sol\":5420:18842  contract ERC20 is Context, IERC20, IERC20Metadata {... */\n  dataSize(sub_0)\n  dup1\n  dataOffset(sub_0)\n  0x00\n  codecopy\n  0x00\n  return\nstop\n\nsub_0: assembly {\n        /* \"erc20.sol\":5420:18842  contract ERC20 is Context, IERC20, IERC20Metadata {... */\n      mstore(0x40, 0x80)\n      callvalue\n      dup1\n      iszero\n      tag_1\n      jumpi\n      0x00\n      dup1\n      revert\n    tag_1:\n      pop\n      jumpi(tag_2, lt(calldatasize, 0x04))\n      shr(0xe0, calldataload(0x00))\n      dup1\n      0x70a08231\n      gt\n      tag_19\n      jumpi\n      dup1\n      0xa9059cbb\n      gt\n      tag_20\n      jumpi\n      dup1\n      0xa9059cbb\n      eq\n      tag_15\n      jumpi\n      dup1\n      0xd5009584\n      eq\n      tag_16\n      jumpi\n      dup1\n      0xdd62ed3e\n      eq\n      tag_17\n      jumpi\n      dup1\n      0xdda8ba05\n      eq\n      tag_18\n      jumpi\n      0x00\n      dup1\n      revert\n    tag_20:\n      dup1\n      0x70a08231\n      eq\n      tag_11\n      jumpi\n      dup1\n      0x74fcef12\n      eq\n      tag_12\n      jumpi\n      dup1\n      0x95d89b41\n      eq\n      tag_13\n      jumpi\n      dup1\n      0xa457c2d7\n      eq\n      tag_14\n      jumpi\n      0x00\n      dup1\n      revert\n    tag_19:\n      dup1\n      0x313ce567\n      gt\n      tag_21\n      jumpi\n      dup1\n      0x313ce567\n      eq\n      tag_7\n      jumpi\n      dup1\n      0x39509351\n      eq\n      tag_8\n      jumpi\n      dup1\n      0x40c10f19\n      eq\n      tag_9\n      jumpi\n      dup1\n      0x42c93e08\n      eq\n      tag_10\n      jumpi\n      0x00\n      dup1\n      revert\n    tag_21:\n      dup1\n      0x06fdde03\n      eq\n      tag_3\n      jumpi\n      dup1\n      0x095ea7b3\n      eq\n      tag_4\n      jumpi\n      dup1\n      0x18160ddd\n      eq\n      tag_5\n      jumpi\n      dup1\n      0x23b872dd\n      eq\n      tag_6\n      jumpi\n    tag_2:\n      0x00\n      dup1\n      revert\n        /* \"erc20.sol\":6370:6470  function name() public view virtual override returns (string memory) {... */\n    tag_3:\n      tag_22\n      tag_23\n      jump\t// in\n    tag_22:\n      mload(0x40)\n      tag_24\n      swap2\n      swap1\n      tag_25\n      jump\t// in\n    tag_24:\n      mload(0x40)\n      dup1\n      swap2\n      sub\n      swap1\n      return\n        /* \"erc20.sol\":9302:9544  function approve(address spender, uint256 amount)... */\n    tag_4:\n      tag_26\n      tag_27\n      calldatasize\n      0x04\n      tag_28\n      jump\t// in\n    tag_27:\n      tag_29\n      jump\t// in\n    tag_26:\n      mload(0x40)\n        /* \"#utility.yul\":1241:1255   */\n      swap1\n      iszero\n        /* \"#utility.yul\":1234:1256   */\n      iszero\n        /* \"#utility.yul\":1216:1257   */\n      dup2\n      mstore\n        /* \"#utility.yul\":1204:1206   */\n      0x20\n        /* \"#utility.yul\":1189:1207   */\n      add\n        /* \"erc20.sol\":9302:9544  function approve(address spender, uint256 amount)... */\n      tag_24\n        /* \"#utility.yul\":1076:1263   */\n      jump\n        /* \"erc20.sol\":7490:7598  function totalSupply() public view virtual override returns (uint256) {... */\n    tag_5:\n        /* \"erc20.sol\":7578:7590  _totalSupply */\n      sload(0x02)\n        /* \"erc20.sol\":7490:7598  function totalSupply() public view virtual override returns (uint256) {... */\n    tag_32:\n      mload(0x40)\n        /* \"#utility.yul\":1414:1439   */\n      swap1\n      dup2\n      mstore\n        /* \"#utility.yul\":1402:1404   */\n      0x20\n        /* \"#utility.yul\":1387:1405   */\n      add\n        /* \"erc20.sol\":7490:7598  function totalSupply() public view virtual override returns (uint256) {... */\n      tag_24\n        /* \"#utility.yul\":1268:1445   */\n      jump\n        /* \"erc20.sol\":10124:10419  function transferFrom(... */\n    tag_6:\n      tag_26\n      tag_37\n      calldatasize\n      0x04\n      tag_38\n      jump\t// in\n    tag_37:\n      tag_39\n      jump\t// in\n        /* \"erc20.sol\":7332:7425  function decimals() public view virtual override returns (uint8) {... */\n    tag_7:\n      mload(0x40)\n        /* \"erc20.sol\":7415:7417  18 */\n      0x12\n        /* \"#utility.yul\":1925:1961   */\n      dup2\n      mstore\n        /* \"#utility.yul\":1913:1915   */\n      0x20\n        /* \"#utility.yul\":1898:1916   */\n      add\n        /* \"erc20.sol\":7332:7425  function decimals() public view virtual override returns (uint8) {... */\n      tag_24\n        /* \"#utility.yul\":1783:1967   */\n      jump\n        /* \"erc20.sol\":10828:11098  function increaseAllowance(address spender, uint256 addedValue)... */\n    tag_8:\n      tag_26\n      tag_46\n      calldatasize\n      0x04\n      tag_28\n      jump\t// in\n    tag_46:\n      tag_47\n      jump\t// in\n        /* \"erc20.sol\":14141:14352  function mint(address account, uint256 amount)... */\n    tag_9:\n      tag_26\n      tag_50\n      calldatasize\n      0x04\n      tag_28\n      jump\t// in\n    tag_50:\n      tag_51\n      jump\t// in\n        /* \"erc20.sol\":7928:8038  function getCentralContract() public view virtual returns (address) {... */\n    tag_10:\n        /* \"erc20.sol\":8014:8030  _centralContract */\n      and(sub(shl(0xa0, 0x01), 0x01), sload(0x04))\n        /* \"erc20.sol\":7928:8038  function getCentralContract() public view virtual returns (address) {... */\n    tag_53:\n      mload(0x40)\n      sub(shl(0xa0, 0x01), 0x01)\n        /* \"#utility.yul\":2136:2191   */\n      swap1\n      swap2\n      and\n        /* \"#utility.yul\":2118:2192   */\n      dup2\n      mstore\n        /* \"#utility.yul\":2106:2108   */\n      0x20\n        /* \"#utility.yul\":2091:2109   */\n      add\n        /* \"erc20.sol\":7928:8038  function getCentralContract() public view virtual returns (address) {... */\n      tag_24\n        /* \"#utility.yul\":1972:2198   */\n      jump\n        /* \"erc20.sol\":8101:8278  function balanceOf(address account)... */\n    tag_11:\n      tag_32\n      tag_58\n      calldatasize\n      0x04\n      tag_59\n      jump\t// in\n    tag_58:\n      sub(shl(0xa0, 0x01), 0x01)\n        /* \"erc20.sol\":8252:8270  _balances[account] */\n      and\n        /* \"erc20.sol\":8220:8227  uint256 */\n      0x00\n        /* \"erc20.sol\":8252:8270  _balances[account] */\n      swap1\n      dup2\n      mstore\n      0x20\n      dup2\n      swap1\n      mstore\n      0x40\n      swap1\n      keccak256\n      sload\n      swap1\n        /* \"erc20.sol\":8101:8278  function balanceOf(address account)... */\n      jump\n        /* \"erc20.sol\":14391:14510  function cCM(address manager) public virtual returns (bool) {... */\n    tag_12:\n      tag_26\n      tag_63\n      calldatasize\n      0x04\n      tag_59\n      jump\t// in\n    tag_63:\n        /* \"erc20.sol\":14462:14470  _manager */\n      0x03\n        /* \"erc20.sol\":14462:14480  _manager = manager */\n      dup1\n      sload\n      not(0xffffffffffffffffffffffffffffffffffffffff)\n      and\n      sub(shl(0xa0, 0x01), 0x01)\n      swap3\n      swap1\n      swap3\n      and\n      swap2\n      swap1\n      swap2\n      or\n      swap1\n      sstore\n      0x01\n      swap1\n        /* \"erc20.sol\":14391:14510  function cCM(address manager) public virtual returns (bool) {... */\n      jump\n        /* \"erc20.sol\":6589:6693  function symbol() public view virtual override returns (string memory) {... */\n    tag_13:\n      tag_22\n      tag_67\n      jump\t// in\n        /* \"erc20.sol\":11601:12106  function decreaseAllowance(address spender, uint256 subtractedValue)... */\n    tag_14:\n      tag_26\n      tag_70\n      calldatasize\n      0x04\n      tag_28\n      jump\t// in\n    tag_70:\n      tag_71\n      jump\t// in\n        /* \"erc20.sol\":8484:8718  function transfer(address to, uint256 amount)... */\n    tag_15:\n      tag_26\n      tag_74\n      calldatasize\n      0x04\n      tag_28\n      jump\t// in\n    tag_74:\n      tag_75\n      jump\t// in\n        /* \"erc20.sol\":7712:7806  function getManager() public view virtual returns (address) {... */\n    tag_16:\n        /* \"erc20.sol\":7790:7798  _manager */\n      and(sub(shl(0xa0, 0x01), 0x01), sload(0x03))\n        /* \"erc20.sol\":7712:7806  function getManager() public view virtual returns (address) {... */\n      jump(tag_53)\n        /* \"erc20.sol\":8781:8982  function allowance(address owner, address spender)... */\n    tag_17:\n      tag_32\n      tag_81\n      calldatasize\n      0x04\n      tag_82\n      jump\t// in\n    tag_81:\n      sub(shl(0xa0, 0x01), 0x01)\n        /* \"erc20.sol\":8947:8965  _allowances[owner] */\n      swap2\n      dup3\n      and\n        /* \"erc20.sol\":8915:8922  uint256 */\n      0x00\n        /* \"erc20.sol\":8947:8965  _allowances[owner] */\n      swap1\n      dup2\n      mstore\n        /* \"erc20.sol\":8947:8958  _allowances */\n      0x01\n        /* \"erc20.sol\":8947:8965  _allowances[owner] */\n      0x20\n      swap1\n      dup2\n      mstore\n      0x40\n      dup1\n      dup4\n      keccak256\n        /* \"erc20.sol\":8947:8974  _allowances[owner][spender] */\n      swap4\n      swap1\n      swap5\n      and\n      dup3\n      mstore\n      swap2\n      swap1\n      swap2\n      mstore\n      keccak256\n      sload\n      swap1\n        /* \"erc20.sol\":8781:8982  function allowance(address owner, address spender)... */\n      jump\n        /* \"erc20.sol\":14551:14684  function cCC(address centralCtc) public virtual returns (bool) {... */\n    tag_18:\n      tag_26\n      tag_86\n      calldatasize\n      0x04\n      tag_59\n      jump\t// in\n    tag_86:\n        /* \"erc20.sol\":14625:14641  _centralContract */\n      0x04\n        /* \"erc20.sol\":14625:14654  _centralContract = centralCtc */\n      dup1\n      sload\n      not(0xffffffffffffffffffffffffffffffffffffffff)\n      and\n      sub(shl(0xa0, 0x01), 0x01)\n      swap3\n      swap1\n      swap3\n      and\n      swap2\n      swap1\n      swap2\n      or\n      swap1\n      sstore\n      0x01\n      swap1\n        /* \"erc20.sol\":14551:14684  function cCC(address centralCtc) public virtual returns (bool) {... */\n      jump\n        /* \"erc20.sol\":6370:6470  function name() public view virtual override returns (string memory) {... */\n    tag_23:\n        /* \"erc20.sol\":6424:6437  string memory */\n      0x60\n        /* \"erc20.sol\":6457:6462  _name */\n      0x05\n        /* \"erc20.sol\":6450:6462  return _name */\n      dup1\n      sload\n      tag_90\n      swap1\n      tag_91\n      jump\t// in\n    tag_90:\n      dup1\n      0x1f\n      add\n      0x20\n      dup1\n      swap2\n      div\n      mul\n      0x20\n      add\n      mload(0x40)\n      swap1\n      dup2\n      add\n      0x40\n      mstore\n      dup1\n      swap3\n      swap2\n      swap1\n      dup2\n      dup2\n      mstore\n      0x20\n      add\n      dup3\n      dup1\n      sload\n      tag_92\n      swap1\n      tag_91\n      jump\t// in\n    tag_92:\n      dup1\n      iszero\n      tag_93\n      jumpi\n      dup1\n      0x1f\n      lt\n      tag_94\n      jumpi\n      0x0100\n      dup1\n      dup4\n      sload\n      div\n      mul\n      dup4\n      mstore\n      swap2\n      0x20\n      add\n      swap2\n      jump(tag_93)\n    tag_94:\n      dup3\n      add\n      swap2\n      swap1\n      0x00\n      mstore\n      keccak256(0x00, 0x20)\n      swap1\n    tag_95:\n      dup2\n      sload\n      dup2\n      mstore\n      swap1\n      0x01\n      add\n      swap1\n      0x20\n      add\n      dup1\n      dup4\n      gt\n      tag_95\n      jumpi\n      dup3\n      swap1\n      sub\n      0x1f\n      and\n      dup3\n      add\n      swap2\n    tag_93:\n      pop\n      pop\n      pop\n      pop\n      pop\n      swap1\n      pop\n        /* \"erc20.sol\":6370:6470  function name() public view virtual override returns (string memory) {... */\n      swap1\n      jump\t// out\n        /* \"erc20.sol\":9302:9544  function approve(address spender, uint256 amount)... */\n    tag_29:\n        /* \"erc20.sol\":9421:9425  bool */\n      0x00\n        /* \"erc20.sol\":4088:4098  msg.sender */\n      caller\n        /* \"erc20.sol\":9482:9514  _approve(owner, spender, amount) */\n      tag_99\n        /* \"erc20.sol\":4088:4098  msg.sender */\n      dup2\n        /* \"erc20.sol\":9498:9505  spender */\n      dup6\n        /* \"erc20.sol\":9507:9513  amount */\n      dup6\n        /* \"erc20.sol\":9482:9490  _approve */\n      tag_100\n        /* \"erc20.sol\":9482:9514  _approve(owner, spender, amount) */\n      jump\t// in\n    tag_99:\n      pop\n        /* \"erc20.sol\":9532:9536  true */\n      0x01\n      swap4\n        /* \"erc20.sol\":9302:9544  function approve(address spender, uint256 amount)... */\n      swap3\n      pop\n      pop\n      pop\n      jump\t// out\n        /* \"erc20.sol\":10124:10419  function transferFrom(... */\n    tag_39:\n        /* \"erc20.sol\":10255:10259  bool */\n      0x00\n        /* \"erc20.sol\":4088:4098  msg.sender */\n      caller\n        /* \"erc20.sol\":10313:10351  _spendAllowance(from, spender, amount) */\n      tag_104\n        /* \"erc20.sol\":10329:10333  from */\n      dup6\n        /* \"erc20.sol\":4088:4098  msg.sender */\n      dup3\n        /* \"erc20.sol\":10344:10350  amount */\n      dup6\n        /* \"erc20.sol\":10313:10328  _spendAllowance */\n      tag_105\n        /* \"erc20.sol\":10313:10351  _spendAllowance(from, spender, amount) */\n      jump\t// in\n    tag_104:\n        /* \"erc20.sol\":10362:10389  _transfer(from, to, amount) */\n      tag_106\n        /* \"erc20.sol\":10372:10376  from */\n      dup6\n        /* \"erc20.sol\":10378:10380  to */\n      dup6\n        /* \"erc20.sol\":10382:10388  amount */\n      dup6\n        /* \"erc20.sol\":10362:10371  _transfer */\n      tag_107\n        /* \"erc20.sol\":10362:10389  _transfer(from, to, amount) */\n      jump\t// in\n    tag_106:\n      pop\n        /* \"erc20.sol\":10407:10411  true */\n      0x01\n      swap5\n        /* \"erc20.sol\":10124:10419  function transferFrom(... */\n      swap4\n      pop\n      pop\n      pop\n      pop\n      jump\t// out\n        /* \"erc20.sol\":10828:11098  function increaseAllowance(address spender, uint256 addedValue)... */\n    tag_47:\n        /* \"erc20.sol\":4088:4098  msg.sender */\n      caller\n        /* \"erc20.sol\":10943:10947  bool */\n      0x00\n        /* \"erc20.sol\":8947:8965  _allowances[owner] */\n      dup2\n      dup2\n      mstore\n        /* \"erc20.sol\":8947:8958  _allowances */\n      0x01\n        /* \"erc20.sol\":8947:8965  _allowances[owner] */\n      0x20\n      swap1\n      dup2\n      mstore\n      0x40\n      dup1\n      dup4\n      keccak256\n      sub(shl(0xa0, 0x01), 0x01)\n        /* \"erc20.sol\":8947:8974  _allowances[owner][spender] */\n      dup8\n      and\n      dup5\n      mstore\n      swap1\n      swap2\n      mstore\n      dup2\n      keccak256\n      sload\n        /* \"erc20.sol\":10943:10947  bool */\n      swap1\n      swap2\n        /* \"erc20.sol\":4088:4098  msg.sender */\n      swap1\n        /* \"erc20.sol\":11004:11068  _approve(owner, spender, allowance(owner, spender) + addedValue) */\n      tag_99\n      swap1\n        /* \"erc20.sol\":4088:4098  msg.sender */\n      dup3\n      swap1\n        /* \"erc20.sol\":8947:8974  _allowances[owner][spender] */\n      dup7\n      swap1\n        /* \"erc20.sol\":11029:11067  allowance(owner, spender) + addedValue */\n      tag_113\n      swap1\n        /* \"erc20.sol\":11057:11067  addedValue */\n      dup8\n      swap1\n        /* \"erc20.sol\":11029:11067  allowance(owner, spender) + addedValue */\n      tag_114\n      jump\t// in\n    tag_113:\n        /* \"erc20.sol\":11004:11012  _approve */\n      tag_100\n        /* \"erc20.sol\":11004:11068  _approve(owner, spender, allowance(owner, spender) + addedValue) */\n      jump\t// in\n        /* \"erc20.sol\":14141:14352  function mint(address account, uint256 amount)... */\n    tag_51:\n        /* \"erc20.sol\":14239:14243  bool */\n      0x00\n        /* \"erc20.sol\":14277:14283  amount */\n      dup2\n        /* \"erc20.sol\":14261:14273  _totalSupply */\n      0x02\n      0x00\n        /* \"erc20.sol\":14261:14283  _totalSupply += amount */\n      dup3\n      dup3\n      sload\n      tag_116\n      swap2\n      swap1\n      tag_114\n      jump\t// in\n    tag_116:\n      swap1\n      swap2\n      sstore\n      pop\n      pop\n      sub(shl(0xa0, 0x01), 0x01)\n        /* \"erc20.sol\":14294:14312  _balances[account] */\n      dup4\n      and\n        /* \"erc20.sol\":14294:14303  _balances */\n      0x00\n        /* \"erc20.sol\":14294:14312  _balances[account] */\n      swap1\n      dup2\n      mstore\n      0x20\n      dup2\n      swap1\n      mstore\n      0x40\n      dup2\n      keccak256\n        /* \"erc20.sol\":14294:14322  _balances[account] += amount */\n      dup1\n      sload\n        /* \"erc20.sol\":14316:14322  amount */\n      dup5\n      swap3\n        /* \"erc20.sol\":14294:14303  _balances */\n      swap1\n        /* \"erc20.sol\":14294:14322  _balances[account] += amount */\n      tag_117\n      swap1\n        /* \"erc20.sol\":14316:14322  amount */\n      dup5\n      swap1\n        /* \"erc20.sol\":14294:14322  _balances[account] += amount */\n      tag_114\n      jump\t// in\n    tag_117:\n      swap1\n      swap2\n      sstore\n      pop\n        /* \"erc20.sol\":14340:14344  true */\n      0x01\n      swap5\n        /* \"erc20.sol\":14141:14352  function mint(address account, uint256 amount)... */\n      swap4\n      pop\n      pop\n      pop\n      pop\n      jump\t// out\n        /* \"erc20.sol\":6589:6693  function symbol() public view virtual override returns (string memory) {... */\n    tag_67:\n        /* \"erc20.sol\":6645:6658  string memory */\n      0x60\n        /* \"erc20.sol\":6678:6685  _symbol */\n      0x06\n        /* \"erc20.sol\":6671:6685  return _symbol */\n      dup1\n      sload\n      tag_90\n      swap1\n      tag_91\n      jump\t// in\n        /* \"erc20.sol\":11601:12106  function decreaseAllowance(address spender, uint256 subtractedValue)... */\n    tag_71:\n        /* \"erc20.sol\":4088:4098  msg.sender */\n      caller\n        /* \"erc20.sol\":11721:11725  bool */\n      0x00\n        /* \"erc20.sol\":8947:8965  _allowances[owner] */\n      dup2\n      dup2\n      mstore\n        /* \"erc20.sol\":8947:8958  _allowances */\n      0x01\n        /* \"erc20.sol\":8947:8965  _allowances[owner] */\n      0x20\n      swap1\n      dup2\n      mstore\n      0x40\n      dup1\n      dup4\n      keccak256\n      sub(shl(0xa0, 0x01), 0x01)\n        /* \"erc20.sol\":8947:8974  _allowances[owner][spender] */\n      dup8\n      and\n      dup5\n      mstore\n      swap1\n      swap2\n      mstore\n      dup2\n      keccak256\n      sload\n        /* \"erc20.sol\":11721:11725  bool */\n      swap1\n      swap2\n        /* \"erc20.sol\":4088:4098  msg.sender */\n      swap1\n        /* \"erc20.sol\":11887:11902  subtractedValue */\n      dup4\n        /* \"erc20.sol\":11867:11883  currentAllowance */\n      dup2\n        /* \"erc20.sol\":11867:11902  currentAllowance >= subtractedValue */\n      lt\n      iszero\n        /* \"erc20.sol\":11845:11967  require(... */\n      tag_130\n      jumpi\n      mload(0x40)\n      shl(0xe5, 0x461bcd)\n      dup2\n      mstore\n        /* \"#utility.yul\":3476:3478   */\n      0x20\n        /* \"erc20.sol\":11845:11967  require(... */\n      0x04\n      dup3\n      add\n        /* \"#utility.yul\":3458:3479   */\n      mstore\n        /* \"#utility.yul\":3515:3517   */\n      0x25\n        /* \"#utility.yul\":3495:3513   */\n      0x24\n      dup3\n      add\n        /* \"#utility.yul\":3488:3518   */\n      mstore\n        /* \"#utility.yul\":3554:3588   */\n      0x45524332303a2064656372656173656420616c6c6f77616e63652062656c6f77\n        /* \"#utility.yul\":3534:3552   */\n      0x44\n      dup3\n      add\n        /* \"#utility.yul\":3527:3589   */\n      mstore\n        /* \"#utility.yul\":3625:3632   */\n      0x207a65726f000000000000000000000000000000000000000000000000000000\n        /* \"#utility.yul\":3605:3623   */\n      0x64\n      dup3\n      add\n        /* \"#utility.yul\":3598:3633   */\n      mstore\n        /* \"#utility.yul\":3650:3669   */\n      0x84\n      add\n        /* \"erc20.sol\":11845:11967  require(... */\n    tag_131:\n      mload(0x40)\n      dup1\n      swap2\n      sub\n      swap1\n      revert\n    tag_130:\n        /* \"erc20.sol\":12003:12063  _approve(owner, spender, currentAllowance - subtractedValue) */\n      tag_106\n        /* \"erc20.sol\":12012:12017  owner */\n      dup3\n        /* \"erc20.sol\":12019:12026  spender */\n      dup7\n        /* \"erc20.sol\":12047:12062  subtractedValue */\n      dup7\n        /* \"erc20.sol\":12028:12044  currentAllowance */\n      dup5\n        /* \"erc20.sol\":12028:12062  currentAllowance - subtractedValue */\n      sub\n        /* \"erc20.sol\":12003:12011  _approve */\n      tag_100\n        /* \"erc20.sol\":12003:12063  _approve(owner, spender, currentAllowance - subtractedValue) */\n      jump\t// in\n        /* \"erc20.sol\":8484:8718  function transfer(address to, uint256 amount)... */\n    tag_75:\n        /* \"erc20.sol\":8599:8603  bool */\n      0x00\n        /* \"erc20.sol\":4088:4098  msg.sender */\n      caller\n        /* \"erc20.sol\":8660:8688  _transfer(owner, to, amount) */\n      tag_99\n        /* \"erc20.sol\":4088:4098  msg.sender */\n      dup2\n        /* \"erc20.sol\":8677:8679  to */\n      dup6\n        /* \"erc20.sol\":8681:8687  amount */\n      dup6\n        /* \"erc20.sol\":8660:8669  _transfer */\n      tag_107\n        /* \"erc20.sol\":8660:8688  _transfer(owner, to, amount) */\n      jump\t// in\n        /* \"erc20.sol\":16213:16593  function _approve(... */\n    tag_100:\n      sub(shl(0xa0, 0x01), 0x01)\n        /* \"erc20.sol\":16349:16368  owner != address(0) */\n      dup4\n      and\n        /* \"erc20.sol\":16341:16409  require(owner != address(0), \"ERC20: approve from the zero address\") */\n      tag_142\n      jumpi\n      mload(0x40)\n      shl(0xe5, 0x461bcd)\n      dup2\n      mstore\n        /* \"#utility.yul\":3882:3884   */\n      0x20\n        /* \"erc20.sol\":16341:16409  require(owner != address(0), \"ERC20: approve from the zero address\") */\n      0x04\n      dup3\n      add\n        /* \"#utility.yul\":3864:3885   */\n      mstore\n        /* \"#utility.yul\":3921:3923   */\n      0x24\n        /* \"#utility.yul\":3901:3919   */\n      dup1\n      dup3\n      add\n        /* \"#utility.yul\":3894:3924   */\n      mstore\n        /* \"#utility.yul\":3960:3994   */\n      0x45524332303a20617070726f76652066726f6d20746865207a65726f20616464\n        /* \"#utility.yul\":3940:3958   */\n      0x44\n      dup3\n      add\n        /* \"#utility.yul\":3933:3995   */\n      mstore\n      shl(0xe0, 0x72657373)\n        /* \"#utility.yul\":4011:4029   */\n      0x64\n      dup3\n      add\n        /* \"#utility.yul\":4004:4038   */\n      mstore\n        /* \"#utility.yul\":4055:4074   */\n      0x84\n      add\n        /* \"erc20.sol\":16341:16409  require(owner != address(0), \"ERC20: approve from the zero address\") */\n      tag_131\n        /* \"#utility.yul\":3680:4080   */\n      jump\n        /* \"erc20.sol\":16341:16409  require(owner != address(0), \"ERC20: approve from the zero address\") */\n    tag_142:\n      sub(shl(0xa0, 0x01), 0x01)\n        /* \"erc20.sol\":16428:16449  spender != address(0) */\n      dup3\n      and\n        /* \"erc20.sol\":16420:16488  require(spender != address(0), \"ERC20: approve to the zero address\") */\n      tag_145\n      jumpi\n      mload(0x40)\n      shl(0xe5, 0x461bcd)\n      dup2\n      mstore\n        /* \"#utility.yul\":4287:4289   */\n      0x20\n        /* \"erc20.sol\":16420:16488  require(spender != address(0), \"ERC20: approve to the zero address\") */\n      0x04\n      dup3\n      add\n        /* \"#utility.yul\":4269:4290   */\n      mstore\n        /* \"#utility.yul\":4326:4328   */\n      0x22\n        /* \"#utility.yul\":4306:4324   */\n      0x24\n      dup3\n      add\n        /* \"#utility.yul\":4299:4329   */\n      mstore\n        /* \"#utility.yul\":4365:4399   */\n      0x45524332303a20617070726f766520746f20746865207a65726f206164647265\n        /* \"#utility.yul\":4345:4363   */\n      0x44\n      dup3\n      add\n        /* \"#utility.yul\":4338:4400   */\n      mstore\n      shl(0xf0, 0x7373)\n        /* \"#utility.yul\":4416:4434   */\n      0x64\n      dup3\n      add\n        /* \"#utility.yul\":4409:4441   */\n      mstore\n        /* \"#utility.yul\":4458:4477   */\n      0x84\n      add\n        /* \"erc20.sol\":16420:16488  require(spender != address(0), \"ERC20: approve to the zero address\") */\n      tag_131\n        /* \"#utility.yul\":4085:4483   */\n      jump\n        /* \"erc20.sol\":16420:16488  require(spender != address(0), \"ERC20: approve to the zero address\") */\n    tag_145:\n      sub(shl(0xa0, 0x01), 0x01)\n        /* \"erc20.sol\":16501:16519  _allowances[owner] */\n      dup4\n      dup2\n      and\n      0x00\n      dup2\n      dup2\n      mstore\n        /* \"erc20.sol\":16501:16512  _allowances */\n      0x01\n        /* \"erc20.sol\":16501:16519  _allowances[owner] */\n      0x20\n      swap1\n      dup2\n      mstore\n      0x40\n      dup1\n      dup4\n      keccak256\n        /* \"erc20.sol\":16501:16528  _allowances[owner][spender] */\n      swap5\n      dup8\n      and\n      dup1\n      dup5\n      mstore\n      swap5\n      dup3\n      mstore\n      swap2\n      dup3\n      swap1\n      keccak256\n        /* \"erc20.sol\":16501:16537  _allowances[owner][spender] = amount */\n      dup6\n      swap1\n      sstore\n        /* \"erc20.sol\":16553:16585  Approval(owner, spender, amount) */\n      swap1\n      mload\n        /* \"#utility.yul\":1414:1439   */\n      dup5\n      dup2\n      mstore\n        /* \"erc20.sol\":16553:16585  Approval(owner, spender, amount) */\n      0x8c5be1e5ebec7d5bd14f71427d1e84f3dd0314c0f7b2291e5b200ac8c7c3b925\n      swap2\n        /* \"#utility.yul\":1387:1405   */\n      add\n        /* \"erc20.sol\":16553:16585  Approval(owner, spender, amount) */\n      mload(0x40)\n      dup1\n      swap2\n      sub\n      swap1\n      log3\n        /* \"erc20.sol\":16213:16593  function _approve(... */\n      pop\n      pop\n      pop\n      jump\t// out\n        /* \"erc20.sol\":16884:17386  function _spendAllowance(... */\n    tag_105:\n      sub(shl(0xa0, 0x01), 0x01)\n        /* \"erc20.sol\":8947:8965  _allowances[owner] */\n      dup4\n      dup2\n      and\n        /* \"erc20.sol\":17019:17043  uint256 currentAllowance */\n      0x00\n        /* \"erc20.sol\":8947:8965  _allowances[owner] */\n      swap1\n      dup2\n      mstore\n        /* \"erc20.sol\":8947:8958  _allowances */\n      0x01\n        /* \"erc20.sol\":8947:8965  _allowances[owner] */\n      0x20\n      swap1\n      dup2\n      mstore\n      0x40\n      dup1\n      dup4\n      keccak256\n        /* \"erc20.sol\":8947:8974  _allowances[owner][spender] */\n      swap4\n      dup7\n      and\n      dup4\n      mstore\n      swap3\n      swap1\n      mstore\n      keccak256\n      sload\n      not(0x00)\n        /* \"erc20.sol\":17086:17123  currentAllowance != type(uint256).max */\n      dup2\n      eq\n        /* \"erc20.sol\":17082:17379  if (currentAllowance != type(uint256).max) {... */\n      tag_155\n      jumpi\n        /* \"erc20.sol\":17186:17192  amount */\n      dup2\n        /* \"erc20.sol\":17166:17182  currentAllowance */\n      dup2\n        /* \"erc20.sol\":17166:17192  currentAllowance >= amount */\n      lt\n      iszero\n        /* \"erc20.sol\":17140:17257  require(... */\n      tag_152\n      jumpi\n      mload(0x40)\n      shl(0xe5, 0x461bcd)\n      dup2\n      mstore\n        /* \"#utility.yul\":4690:4692   */\n      0x20\n        /* \"erc20.sol\":17140:17257  require(... */\n      0x04\n      dup3\n      add\n        /* \"#utility.yul\":4672:4693   */\n      mstore\n        /* \"#utility.yul\":4729:4731   */\n      0x1d\n        /* \"#utility.yul\":4709:4727   */\n      0x24\n      dup3\n      add\n        /* \"#utility.yul\":4702:4732   */\n      mstore\n        /* \"#utility.yul\":4768:4799   */\n      0x45524332303a20696e73756666696369656e7420616c6c6f77616e6365000000\n        /* \"#utility.yul\":4748:4766   */\n      0x44\n      dup3\n      add\n        /* \"#utility.yul\":4741:4800   */\n      mstore\n        /* \"#utility.yul\":4817:4835   */\n      0x64\n      add\n        /* \"erc20.sol\":17140:17257  require(... */\n      tag_131\n        /* \"#utility.yul\":4488:4841   */\n      jump\n        /* \"erc20.sol\":17140:17257  require(... */\n    tag_152:\n        /* \"erc20.sol\":17301:17352  _approve(owner, spender, currentAllowance - amount) */\n      tag_155\n        /* \"erc20.sol\":17310:17315  owner */\n      dup5\n        /* \"erc20.sol\":17317:17324  spender */\n      dup5\n        /* \"erc20.sol\":17345:17351  amount */\n      dup5\n        /* \"erc20.sol\":17326:17342  currentAllowance */\n      dup5\n        /* \"erc20.sol\":17326:17351  currentAllowance - amount */\n      sub\n        /* \"erc20.sol\":17301:17309  _approve */\n      tag_100\n        /* \"erc20.sol\":17301:17352  _approve(owner, spender, currentAllowance - amount) */\n      jump\t// in\n    tag_155:\n        /* \"erc20.sol\":17008:17386  {... */\n      pop\n        /* \"erc20.sol\":16884:17386  function _spendAllowance(... */\n      pop\n      pop\n      pop\n      jump\t// out\n        /* \"erc20.sol\":12576:13282  function _transfer(... */\n    tag_107:\n      sub(shl(0xa0, 0x01), 0x01)\n        /* \"erc20.sol\":12707:12725  from != address(0) */\n      dup4\n      and\n        /* \"erc20.sol\":12699:12767  require(from != address(0), \"ERC20: transfer from the zero address\") */\n      tag_157\n      jumpi\n      mload(0x40)\n      shl(0xe5, 0x461bcd)\n      dup2\n      mstore\n        /* \"#utility.yul\":5048:5050   */\n      0x20\n        /* \"erc20.sol\":12699:12767  require(from != address(0), \"ERC20: transfer from the zero address\") */\n      0x04\n      dup3\n      add\n        /* \"#utility.yul\":5030:5051   */\n      mstore\n        /* \"#utility.yul\":5087:5089   */\n      0x25\n        /* \"#utility.yul\":5067:5085   */\n      0x24\n      dup3\n      add\n        /* \"#utility.yul\":5060:5090   */\n      mstore\n        /* \"#utility.yul\":5126:5160   */\n      0x45524332303a207472616e736665722066726f6d20746865207a65726f206164\n        /* \"#utility.yul\":5106:5124   */\n      0x44\n      dup3\n      add\n        /* \"#utility.yul\":5099:5161   */\n      mstore\n        /* \"#utility.yul\":5197:5204   */\n      0x6472657373000000000000000000000000000000000000000000000000000000\n        /* \"#utility.yul\":5177:5195   */\n      0x64\n      dup3\n      add\n        /* \"#utility.yul\":5170:5205   */\n      mstore\n        /* \"#utility.yul\":5222:5241   */\n      0x84\n      add\n        /* \"erc20.sol\":12699:12767  require(from != address(0), \"ERC20: transfer from the zero address\") */\n      tag_131\n        /* \"#utility.yul\":4846:5247   */\n      jump\n        /* \"erc20.sol\":12699:12767  require(from != address(0), \"ERC20: transfer from the zero address\") */\n    tag_157:\n      sub(shl(0xa0, 0x01), 0x01)\n        /* \"erc20.sol\":12786:12802  to != address(0) */\n      dup3\n      and\n        /* \"erc20.sol\":12778:12842  require(to != address(0), \"ERC20: transfer to the zero address\") */\n      tag_160\n      jumpi\n      mload(0x40)\n      shl(0xe5, 0x461bcd)\n      dup2\n      mstore\n        /* \"#utility.yul\":5454:5456   */\n      0x20\n        /* \"erc20.sol\":12778:12842  require(to != address(0), \"ERC20: transfer to the zero address\") */\n      0x04\n      dup3\n      add\n        /* \"#utility.yul\":5436:5457   */\n      mstore\n        /* \"#utility.yul\":5493:5495   */\n      0x23\n        /* \"#utility.yul\":5473:5491   */\n      0x24\n      dup3\n      add\n        /* \"#utility.yul\":5466:5496   */\n      mstore\n        /* \"#utility.yul\":5532:5566   */\n      0x45524332303a207472616e7366657220746f20746865207a65726f2061646472\n        /* \"#utility.yul\":5512:5530   */\n      0x44\n      dup3\n      add\n        /* \"#utility.yul\":5505:5567   */\n      mstore\n      shl(0xe8, 0x657373)\n        /* \"#utility.yul\":5583:5601   */\n      0x64\n      dup3\n      add\n        /* \"#utility.yul\":5576:5609   */\n      mstore\n        /* \"#utility.yul\":5626:5645   */\n      0x84\n      add\n        /* \"erc20.sol\":12778:12842  require(to != address(0), \"ERC20: transfer to the zero address\") */\n      tag_131\n        /* \"#utility.yul\":5252:5651   */\n      jump\n        /* \"erc20.sol\":12778:12842  require(to != address(0), \"ERC20: transfer to the zero address\") */\n    tag_160:\n      sub(shl(0xa0, 0x01), 0x01)\n        /* \"erc20.sol\":12926:12941  _balances[from] */\n      dup4\n      and\n        /* \"erc20.sol\":12904:12923  uint256 fromBalance */\n      0x00\n        /* \"erc20.sol\":12926:12941  _balances[from] */\n      swap1\n      dup2\n      mstore\n      0x20\n      dup2\n      swap1\n      mstore\n      0x40\n      swap1\n      keccak256\n      sload\n        /* \"erc20.sol\":12974:12995  fromBalance >= amount */\n      dup2\n      dup2\n      lt\n      iszero\n        /* \"erc20.sol\":12952:13061  require(... */\n      tag_165\n      jumpi\n      mload(0x40)\n      shl(0xe5, 0x461bcd)\n      dup2\n      mstore\n        /* \"#utility.yul\":5858:5860   */\n      0x20\n        /* \"erc20.sol\":12952:13061  require(... */\n      0x04\n      dup3\n      add\n        /* \"#utility.yul\":5840:5861   */\n      mstore\n        /* \"#utility.yul\":5897:5899   */\n      0x26\n        /* \"#utility.yul\":5877:5895   */\n      0x24\n      dup3\n      add\n        /* \"#utility.yul\":5870:5900   */\n      mstore\n        /* \"#utility.yul\":5936:5970   */\n      0x45524332303a207472616e7366657220616d6f756e7420657863656564732062\n        /* \"#utility.yul\":5916:5934   */\n      0x44\n      dup3\n      add\n        /* \"#utility.yul\":5909:5971   */\n      mstore\n        /* \"#utility.yul\":6007:6015   */\n      0x616c616e63650000000000000000000000000000000000000000000000000000\n        /* \"#utility.yul\":5987:6005   */\n      0x64\n      dup3\n      add\n        /* \"#utility.yul\":5980:6016   */\n      mstore\n        /* \"#utility.yul\":6033:6052   */\n      0x84\n      add\n        /* \"erc20.sol\":12952:13061  require(... */\n      tag_131\n        /* \"#utility.yul\":5656:6058   */\n      jump\n        /* \"erc20.sol\":12952:13061  require(... */\n    tag_165:\n      sub(shl(0xa0, 0x01), 0x01)\n        /* \"erc20.sol\":13097:13112  _balances[from] */\n      dup1\n      dup6\n      and\n        /* \"erc20.sol\":13097:13106  _balances */\n      0x00\n        /* \"erc20.sol\":13097:13112  _balances[from] */\n      swap1\n      dup2\n      mstore\n      0x20\n      dup2\n      swap1\n      mstore\n      0x40\n      dup1\n      dup3\n      keccak256\n        /* \"erc20.sol\":13115:13135  fromBalance - amount */\n      dup6\n      dup6\n      sub\n        /* \"erc20.sol\":13097:13135  _balances[from] = fromBalance - amount */\n      swap1\n      sstore\n        /* \"erc20.sol\":13157:13170  _balances[to] */\n      swap2\n      dup6\n      and\n      dup2\n      mstore\n      swap1\n      dup2\n      keccak256\n        /* \"erc20.sol\":13157:13180  _balances[to] += amount */\n      dup1\n      sload\n        /* \"erc20.sol\":13129:13135  amount */\n      dup5\n      swap3\n        /* \"erc20.sol\":13097:13106  _balances */\n      swap1\n        /* \"erc20.sol\":13157:13180  _balances[to] += amount */\n      tag_168\n      swap1\n        /* \"erc20.sol\":13129:13135  amount */\n      dup5\n      swap1\n        /* \"erc20.sol\":13157:13180  _balances[to] += amount */\n      tag_114\n      jump\t// in\n    tag_168:\n      swap3\n      pop\n      pop\n      dup2\n      swap1\n      sstore\n      pop\n        /* \"erc20.sol\":13213:13215  to */\n      dup3\n      sub(shl(0xa0, 0x01), 0x01)\n        /* \"erc20.sol\":13198:13224  Transfer(from, to, amount) */\n      and\n        /* \"erc20.sol\":13207:13211  from */\n      dup5\n      sub(shl(0xa0, 0x01), 0x01)\n        /* \"erc20.sol\":13198:13224  Transfer(from, to, amount) */\n      and\n      0xddf252ad1be2c89b69c2b068fc378daa952ba7f163c4a11628f55a4df523b3ef\n        /* \"erc20.sol\":13217:13223  amount */\n      dup5\n        /* \"erc20.sol\":13198:13224  Transfer(from, to, amount) */\n      mload(0x40)\n      tag_169\n      swap2\n        /* \"#utility.yul\":1414:1439   */\n      dup2\n      mstore\n        /* \"#utility.yul\":1402:1404   */\n      0x20\n        /* \"#utility.yul\":1387:1405   */\n      add\n      swap1\n        /* \"#utility.yul\":1268:1445   */\n      jump\n        /* \"erc20.sol\":13198:13224  Transfer(from, to, amount) */\n    tag_169:\n      mload(0x40)\n      dup1\n      swap2\n      sub\n      swap1\n      log3\n        /* \"erc20.sol\":13237:13274  _afterTokenTransfer(from, to, amount) */\n      tag_155\n        /* \"erc20.sol\":17986:18111  function _beforeTokenTransfer(... */\n      jump\n        /* \"#utility.yul\":14:611   */\n    tag_25:\n        /* \"#utility.yul\":126:130   */\n      0x00\n        /* \"#utility.yul\":155:157   */\n      0x20\n        /* \"#utility.yul\":184:186   */\n      dup1\n        /* \"#utility.yul\":173:182   */\n      dup4\n        /* \"#utility.yul\":166:187   */\n      mstore\n        /* \"#utility.yul\":216:222   */\n      dup4\n        /* \"#utility.yul\":210:223   */\n      mload\n        /* \"#utility.yul\":259:265   */\n      dup1\n        /* \"#utility.yul\":254:256   */\n      dup3\n        /* \"#utility.yul\":243:252   */\n      dup6\n        /* \"#utility.yul\":239:257   */\n      add\n        /* \"#utility.yul\":232:266   */\n      mstore\n        /* \"#utility.yul\":284:285   */\n      0x00\n        /* \"#utility.yul\":294:434   */\n    tag_177:\n        /* \"#utility.yul\":308:314   */\n      dup2\n        /* \"#utility.yul\":305:306   */\n      dup2\n        /* \"#utility.yul\":302:315   */\n      lt\n        /* \"#utility.yul\":294:434   */\n      iszero\n      tag_179\n      jumpi\n        /* \"#utility.yul\":403:417   */\n      dup6\n      dup2\n      add\n        /* \"#utility.yul\":399:422   */\n      dup4\n      add\n        /* \"#utility.yul\":393:423   */\n      mload\n        /* \"#utility.yul\":369:386   */\n      dup6\n      dup3\n      add\n        /* \"#utility.yul\":388:390   */\n      0x40\n        /* \"#utility.yul\":365:391   */\n      add\n        /* \"#utility.yul\":358:424   */\n      mstore\n        /* \"#utility.yul\":323:333   */\n      dup3\n      add\n        /* \"#utility.yul\":294:434   */\n      jump(tag_177)\n    tag_179:\n        /* \"#utility.yul\":452:458   */\n      dup2\n        /* \"#utility.yul\":449:450   */\n      dup2\n        /* \"#utility.yul\":446:459   */\n      gt\n        /* \"#utility.yul\":443:534   */\n      iszero\n      tag_180\n      jumpi\n        /* \"#utility.yul\":522:523   */\n      0x00\n        /* \"#utility.yul\":517:519   */\n      0x40\n        /* \"#utility.yul\":508:514   */\n      dup4\n        /* \"#utility.yul\":497:506   */\n      dup8\n        /* \"#utility.yul\":493:515   */\n      add\n        /* \"#utility.yul\":489:520   */\n      add\n        /* \"#utility.yul\":482:524   */\n      mstore\n        /* \"#utility.yul\":443:534   */\n    tag_180:\n      pop\n        /* \"#utility.yul\":595:597   */\n      0x1f\n        /* \"#utility.yul\":574:589   */\n      add\n      not(0x1f)\n        /* \"#utility.yul\":570:599   */\n      and\n        /* \"#utility.yul\":555:600   */\n      swap3\n      swap1\n      swap3\n      add\n        /* \"#utility.yul\":602:604   */\n      0x40\n        /* \"#utility.yul\":551:605   */\n      add\n      swap4\n        /* \"#utility.yul\":14:611   */\n      swap3\n      pop\n      pop\n      pop\n      jump\t// out\n        /* \"#utility.yul\":616:812   */\n    tag_174:\n        /* \"#utility.yul\":684:704   */\n      dup1\n      calldataload\n      sub(shl(0xa0, 0x01), 0x01)\n        /* \"#utility.yul\":733:787   */\n      dup2\n      and\n        /* \"#utility.yul\":723:788   */\n      dup2\n      eq\n        /* \"#utility.yul\":713:806   */\n      tag_182\n      jumpi\n        /* \"#utility.yul\":802:803   */\n      0x00\n        /* \"#utility.yul\":799:800   */\n      dup1\n        /* \"#utility.yul\":792:804   */\n      revert\n        /* \"#utility.yul\":713:806   */\n    tag_182:\n        /* \"#utility.yul\":616:812   */\n      swap2\n      swap1\n      pop\n      jump\t// out\n        /* \"#utility.yul\":817:1071   */\n    tag_28:\n        /* \"#utility.yul\":885:891   */\n      0x00\n        /* \"#utility.yul\":893:899   */\n      dup1\n        /* \"#utility.yul\":946:948   */\n      0x40\n        /* \"#utility.yul\":934:943   */\n      dup4\n        /* \"#utility.yul\":925:932   */\n      dup6\n        /* \"#utility.yul\":921:944   */\n      sub\n        /* \"#utility.yul\":917:949   */\n      slt\n        /* \"#utility.yul\":914:966   */\n      iszero\n      tag_184\n      jumpi\n        /* \"#utility.yul\":962:963   */\n      0x00\n        /* \"#utility.yul\":959:960   */\n      dup1\n        /* \"#utility.yul\":952:964   */\n      revert\n        /* \"#utility.yul\":914:966   */\n    tag_184:\n        /* \"#utility.yul\":985:1014   */\n      tag_185\n        /* \"#utility.yul\":1004:1013   */\n      dup4\n        /* \"#utility.yul\":985:1014   */\n      tag_174\n      jump\t// in\n    tag_185:\n        /* \"#utility.yul\":975:1014   */\n      swap5\n        /* \"#utility.yul\":1061:1063   */\n      0x20\n        /* \"#utility.yul\":1046:1064   */\n      swap4\n      swap1\n      swap4\n      add\n        /* \"#utility.yul\":1033:1065   */\n      calldataload\n      swap4\n      pop\n      pop\n      pop\n        /* \"#utility.yul\":817:1071   */\n      jump\t// out\n        /* \"#utility.yul\":1450:1778   */\n    tag_38:\n        /* \"#utility.yul\":1527:1533   */\n      0x00\n        /* \"#utility.yul\":1535:1541   */\n      dup1\n        /* \"#utility.yul\":1543:1549   */\n      0x00\n        /* \"#utility.yul\":1596:1598   */\n      0x60\n        /* \"#utility.yul\":1584:1593   */\n      dup5\n        /* \"#utility.yul\":1575:1582   */\n      dup7\n        /* \"#utility.yul\":1571:1594   */\n      sub\n        /* \"#utility.yul\":1567:1599   */\n      slt\n        /* \"#utility.yul\":1564:1616   */\n      iszero\n      tag_189\n      jumpi\n        /* \"#utility.yul\":1612:1613   */\n      0x00\n        /* \"#utility.yul\":1609:1610   */\n      dup1\n        /* \"#utility.yul\":1602:1614   */\n      revert\n        /* \"#utility.yul\":1564:1616   */\n    tag_189:\n        /* \"#utility.yul\":1635:1664   */\n      tag_190\n        /* \"#utility.yul\":1654:1663   */\n      dup5\n        /* \"#utility.yul\":1635:1664   */\n      tag_174\n      jump\t// in\n    tag_190:\n        /* \"#utility.yul\":1625:1664   */\n      swap3\n      pop\n        /* \"#utility.yul\":1683:1721   */\n      tag_191\n        /* \"#utility.yul\":1717:1719   */\n      0x20\n        /* \"#utility.yul\":1706:1715   */\n      dup6\n        /* \"#utility.yul\":1702:1720   */\n      add\n        /* \"#utility.yul\":1683:1721   */\n      tag_174\n      jump\t// in\n    tag_191:\n        /* \"#utility.yul\":1673:1721   */\n      swap2\n      pop\n        /* \"#utility.yul\":1768:1770   */\n      0x40\n        /* \"#utility.yul\":1757:1766   */\n      dup5\n        /* \"#utility.yul\":1753:1771   */\n      add\n        /* \"#utility.yul\":1740:1772   */\n      calldataload\n        /* \"#utility.yul\":1730:1772   */\n      swap1\n      pop\n        /* \"#utility.yul\":1450:1778   */\n      swap3\n      pop\n      swap3\n      pop\n      swap3\n      jump\t// out\n        /* \"#utility.yul\":2203:2389   */\n    tag_59:\n        /* \"#utility.yul\":2262:2268   */\n      0x00\n        /* \"#utility.yul\":2315:2317   */\n      0x20\n        /* \"#utility.yul\":2303:2312   */\n      dup3\n        /* \"#utility.yul\":2294:2301   */\n      dup5\n        /* \"#utility.yul\":2290:2313   */\n      sub\n        /* \"#utility.yul\":2286:2318   */\n      slt\n        /* \"#utility.yul\":2283:2335   */\n      iszero\n      tag_195\n      jumpi\n        /* \"#utility.yul\":2331:2332   */\n      0x00\n        /* \"#utility.yul\":2328:2329   */\n      dup1\n        /* \"#utility.yul\":2321:2333   */\n      revert\n        /* \"#utility.yul\":2283:2335   */\n    tag_195:\n        /* \"#utility.yul\":2354:2383   */\n      tag_196\n        /* \"#utility.yul\":2373:2382   */\n      dup3\n        /* \"#utility.yul\":2354:2383   */\n      tag_174\n      jump\t// in\n    tag_196:\n        /* \"#utility.yul\":2344:2383   */\n      swap4\n        /* \"#utility.yul\":2203:2389   */\n      swap3\n      pop\n      pop\n      pop\n      jump\t// out\n        /* \"#utility.yul\":2394:2654   */\n    tag_82:\n        /* \"#utility.yul\":2462:2468   */\n      0x00\n        /* \"#utility.yul\":2470:2476   */\n      dup1\n        /* \"#utility.yul\":2523:2525   */\n      0x40\n        /* \"#utility.yul\":2511:2520   */\n      dup4\n        /* \"#utility.yul\":2502:2509   */\n      dup6\n        /* \"#utility.yul\":2498:2521   */\n      sub\n        /* \"#utility.yul\":2494:2526   */\n      slt\n        /* \"#utility.yul\":2491:2543   */\n      iszero\n      tag_198\n      jumpi\n        /* \"#utility.yul\":2539:2540   */\n      0x00\n        /* \"#utility.yul\":2536:2537   */\n      dup1\n        /* \"#utility.yul\":2529:2541   */\n      revert\n        /* \"#utility.yul\":2491:2543   */\n    tag_198:\n        /* \"#utility.yul\":2562:2591   */\n      tag_199\n        /* \"#utility.yul\":2581:2590   */\n      dup4\n        /* \"#utility.yul\":2562:2591   */\n      tag_174\n      jump\t// in\n    tag_199:\n        /* \"#utility.yul\":2552:2591   */\n      swap2\n      pop\n        /* \"#utility.yul\":2610:2648   */\n      tag_200\n        /* \"#utility.yul\":2644:2646   */\n      0x20\n        /* \"#utility.yul\":2633:2642   */\n      dup5\n        /* \"#utility.yul\":2629:2647   */\n      add\n        /* \"#utility.yul\":2610:2648   */\n      tag_174\n      jump\t// in\n    tag_200:\n        /* \"#utility.yul\":2600:2648   */\n      swap1\n      pop\n        /* \"#utility.yul\":2394:2654   */\n      swap3\n      pop\n      swap3\n      swap1\n      pop\n      jump\t// out\n        /* \"#utility.yul\":2659:3039   */\n    tag_91:\n        /* \"#utility.yul\":2738:2739   */\n      0x01\n        /* \"#utility.yul\":2734:2746   */\n      dup2\n      dup2\n      shr\n      swap1\n        /* \"#utility.yul\":2781:2793   */\n      dup3\n      and\n      dup1\n        /* \"#utility.yul\":2802:2863   */\n      tag_202\n      jumpi\n        /* \"#utility.yul\":2856:2860   */\n      0x7f\n        /* \"#utility.yul\":2848:2854   */\n      dup3\n        /* \"#utility.yul\":2844:2861   */\n      and\n        /* \"#utility.yul\":2834:2861   */\n      swap2\n      pop\n        /* \"#utility.yul\":2802:2863   */\n    tag_202:\n        /* \"#utility.yul\":2909:2911   */\n      0x20\n        /* \"#utility.yul\":2901:2907   */\n      dup3\n        /* \"#utility.yul\":2898:2912   */\n      lt\n        /* \"#utility.yul\":2878:2896   */\n      dup2\n        /* \"#utility.yul\":2875:2913   */\n      sub\n        /* \"#utility.yul\":2872:3033   */\n      tag_203\n      jumpi\n        /* \"#utility.yul\":2955:2965   */\n      0x4e487b71\n        /* \"#utility.yul\":2950:2953   */\n      0xe0\n        /* \"#utility.yul\":2946:2966   */\n      shl\n        /* \"#utility.yul\":2943:2944   */\n      0x00\n        /* \"#utility.yul\":2936:2967   */\n      mstore\n        /* \"#utility.yul\":2990:2994   */\n      0x22\n        /* \"#utility.yul\":2987:2988   */\n      0x04\n        /* \"#utility.yul\":2980:2995   */\n      mstore\n        /* \"#utility.yul\":3018:3022   */\n      0x24\n        /* \"#utility.yul\":3015:3016   */\n      0x00\n        /* \"#utility.yul\":3008:3023   */\n      revert\n        /* \"#utility.yul\":2872:3033   */\n    tag_203:\n      pop\n        /* \"#utility.yul\":2659:3039   */\n      swap2\n      swap1\n      pop\n      jump\t// out\n        /* \"#utility.yul\":3044:3269   */\n    tag_114:\n        /* \"#utility.yul\":3084:3087   */\n      0x00\n        /* \"#utility.yul\":3115:3116   */\n      dup3\n        /* \"#utility.yul\":3111:3117   */\n      not\n        /* \"#utility.yul\":3108:3109   */\n      dup3\n        /* \"#utility.yul\":3105:3118   */\n      gt\n        /* \"#utility.yul\":3102:3238   */\n      iszero\n      tag_205\n      jumpi\n        /* \"#utility.yul\":3160:3170   */\n      0x4e487b71\n        /* \"#utility.yul\":3155:3158   */\n      0xe0\n        /* \"#utility.yul\":3151:3171   */\n      shl\n        /* \"#utility.yul\":3148:3149   */\n      0x00\n        /* \"#utility.yul\":3141:3172   */\n      mstore\n        /* \"#utility.yul\":3195:3199   */\n      0x11\n        /* \"#utility.yul\":3192:3193   */\n      0x04\n        /* \"#utility.yul\":3185:3200   */\n      mstore\n        /* \"#utility.yul\":3223:3227   */\n      0x24\n        /* \"#utility.yul\":3220:3221   */\n      0x00\n        /* \"#utility.yul\":3213:3228   */\n      revert\n        /* \"#utility.yul\":3102:3238   */\n    tag_205:\n      pop\n        /* \"#utility.yul\":3254:3263   */\n      add\n      swap1\n        /* \"#utility.yul\":3044:3269   */\n      jump\t// out\n\n    auxdata: 0xa2646970667358221220e61922591b569cd008b4bb8c7aa1bb0f3587e4586a6d71507f16a0ce869a4d6264736f6c634300080d0033\n}\n",
    "bytecode": {
      "linkReferences": {},
      "object": "60806040523480156200001157600080fd5b5060405162000d2638038062000d268339810160408190526200003491620001ed565b8151620000499060059060208501906200007a565b5080516200005f9060069060208401906200007a565b5050600780546001600160a01b031916331790555062000293565b828054620000889062000257565b90600052602060002090601f016020900481019282620000ac5760008555620000f7565b82601f10620000c757805160ff1916838001178555620000f7565b82800160010185558215620000f7579182015b82811115620000f7578251825591602001919060010190620000da565b506200010592915062000109565b5090565b5b808211156200010557600081556001016200010a565b634e487b7160e01b600052604160045260246000fd5b600082601f8301126200014857600080fd5b81516001600160401b038082111562000165576200016562000120565b604051601f8301601f19908116603f0116810190828211818310171562000190576200019062000120565b81604052838152602092508683858801011115620001ad57600080fd5b600091505b83821015620001d15785820183015181830184015290820190620001b2565b83821115620001e35760008385830101525b9695505050505050565b600080604083850312156200020157600080fd5b82516001600160401b03808211156200021957600080fd5b620002278683870162000136565b935060208501519150808211156200023e57600080fd5b506200024d8582860162000136565b9150509250929050565b600181811c908216806200026c57607f821691505b6020821081036200028d57634e487b7160e01b600052602260045260246000fd5b50919050565b610a8380620002a36000396000f3fe608060405234801561001057600080fd5b50600436106101005760003560e01c806370a0823111610097578063a9059cbb11610066578063a9059cbb14610249578063d50095841461025c578063dd62ed3e1461026d578063dda8ba05146102a657600080fd5b806370a08231146101c557806374fcef12146101ee57806395d89b411461022e578063a457c2d71461023657600080fd5b8063313ce567116100d3578063313ce5671461016b578063395093511461017a57806340c10f191461018d57806342c93e08146101a057600080fd5b806306fdde0314610105578063095ea7b31461012357806318160ddd1461014657806323b872dd14610158575b600080fd5b61010d6102e6565b60405161011a91906108c1565b60405180910390f35b610136610131366004610932565b610378565b604051901515815260200161011a565b6002545b60405190815260200161011a565b61013661016636600461095c565b610390565b6040516012815260200161011a565b610136610188366004610932565b6103b4565b61013661019b366004610932565b6103f3565b6004546001600160a01b03165b6040516001600160a01b03909116815260200161011a565b61014a6101d3366004610998565b6001600160a01b031660009081526020819052604090205490565b6101366101fc366004610998565b6003805473ffffffffffffffffffffffffffffffffffffffff19166001600160a01b0392909216919091179055600190565b61010d610442565b610136610244366004610932565b610451565b610136610257366004610932565b610500565b6003546001600160a01b03166101ad565b61014a61027b3660046109ba565b6001600160a01b03918216600090815260016020908152604080832093909416825291909152205490565b6101366102b4366004610998565b6004805473ffffffffffffffffffffffffffffffffffffffff19166001600160a01b0392909216919091179055600190565b6060600580546102f5906109ed565b80601f0160208091040260200160405190810160405280929190818152602001828054610321906109ed565b801561036e5780601f106103435761010080835404028352916020019161036e565b820191906000526020600020905b81548152906001019060200180831161035157829003601f168201915b5050505050905090565b60003361038681858561050e565b5060019392505050565b60003361039e858285610632565b6103a98585856106c4565b506001949350505050565b3360008181526001602090815260408083206001600160a01b038716845290915281205490919061038690829086906103ee908790610a27565b61050e565b600081600260008282546104079190610a27565b90915550506001600160a01b03831660009081526020819052604081208054849290610434908490610a27565b909155506001949350505050565b6060600680546102f5906109ed565b3360008181526001602090815260408083206001600160a01b0387168452909152812054909190838110156104f35760405162461bcd60e51b815260206004820152602560248201527f45524332303a2064656372656173656420616c6c6f77616e63652062656c6f7760448201527f207a65726f00000000000000000000000000000000000000000000000000000060648201526084015b60405180910390fd5b6103a9828686840361050e565b6000336103868185856106c4565b6001600160a01b0383166105705760405162461bcd60e51b8152602060048201526024808201527f45524332303a20617070726f76652066726f6d20746865207a65726f206164646044820152637265737360e01b60648201526084016104ea565b6001600160a01b0382166105d15760405162461bcd60e51b815260206004820152602260248201527f45524332303a20617070726f766520746f20746865207a65726f206164647265604482015261737360f01b60648201526084016104ea565b6001600160a01b0383811660008181526001602090815260408083209487168084529482529182902085905590518481527f8c5be1e5ebec7d5bd14f71427d1e84f3dd0314c0f7b2291e5b200ac8c7c3b925910160405180910390a3505050565b6001600160a01b0383811660009081526001602090815260408083209386168352929052205460001981146106be57818110156106b15760405162461bcd60e51b815260206004820152601d60248201527f45524332303a20696e73756666696369656e7420616c6c6f77616e636500000060448201526064016104ea565b6106be848484840361050e565b50505050565b6001600160a01b0383166107405760405162461bcd60e51b815260206004820152602560248201527f45524332303a207472616e736665722066726f6d20746865207a65726f20616460448201527f647265737300000000000000000000000000000000000000000000000000000060648201526084016104ea565b6001600160a01b0382166107a25760405162461bcd60e51b815260206004820152602360248201527f45524332303a207472616e7366657220746f20746865207a65726f206164647260448201526265737360e81b60648201526084016104ea565b6001600160a01b038316600090815260208190526040902054818110156108315760405162461bcd60e51b815260206004820152602660248201527f45524332303a207472616e7366657220616d6f756e742065786365656473206260448201527f616c616e6365000000000000000000000000000000000000000000000000000060648201526084016104ea565b6001600160a01b03808516600090815260208190526040808220858503905591851681529081208054849290610868908490610a27565b92505081905550826001600160a01b0316846001600160a01b03167fddf252ad1be2c89b69c2b068fc378daa952ba7f163c4a11628f55a4df523b3ef846040516108b491815260200190565b60405180910390a36106be565b600060208083528351808285015260005b818110156108ee578581018301518582016040015282016108d2565b81811115610900576000604083870101525b50601f01601f1916929092016040019392505050565b80356001600160a01b038116811461092d57600080fd5b919050565b6000806040838503121561094557600080fd5b61094e83610916565b946020939093013593505050565b60008060006060848603121561097157600080fd5b61097a84610916565b925061098860208501610916565b9150604084013590509250925092565b6000602082840312156109aa57600080fd5b6109b382610916565b9392505050565b600080604083850312156109cd57600080fd5b6109d683610916565b91506109e460208401610916565b90509250929050565b600181811c90821680610a0157607f821691505b602082108103610a2157634e487b7160e01b600052602260045260246000fd5b50919050565b60008219821115610a4857634e487b7160e01b600052601160045260246000fd5b50019056fea2646970667358221220e61922591b569cd008b4bb8c7aa1bb0f3587e4586a6d71507f16a0ce869a4d6264736f6c634300080d0033",
      "opcodes": "PUSH1 0x80 PUSH1 0x40 MSTORE CALLVALUE DUP1 ISZERO PUSH3 0x11 JUMPI PUSH1 0x0 DUP1 REVERT JUMPDEST POP PUSH1 0x40 MLOAD PUSH3 0xD26 CODESIZE SUB DUP1 PUSH3 0xD26 DUP4 CODECOPY DUP2 ADD PUSH1 0x40 DUP2 SWAP1 MSTORE PUSH3 0x34 SWAP2 PUSH3 0x1ED JUMP JUMPDEST DUP2 MLOAD PUSH3 0x49 SWAP1 PUSH1 0x5 SWAP1 PUSH1 0x20 DUP6 ADD SWAP1 PUSH3 0x7A JUMP JUMPDEST POP DUP1 MLOAD PUSH3 0x5F SWAP1 PUSH1 0x6 SWAP1 PUSH1 0x20 DUP5 ADD SWAP1 PUSH3 0x7A JUMP JUMPDEST POP POP PUSH1 0x7 DUP1 SLOAD PUSH1 0x1 PUSH1 0x1 PUSH1 0xA0 SHL SUB NOT AND CALLER OR SWAP1 SSTORE POP PUSH3 0x293 JUMP JUMPDEST DUP3 DUP1 SLOAD PUSH3 0x88 SWAP1 PUSH3 0x257 JUMP JUMPDEST SWAP1 PUSH1 0x0 MSTORE PUSH1 0x20 PUSH1 0x0 KECCAK256 SWAP1 PUSH1 0x1F ADD PUSH1 0x20 SWAP1 DIV DUP2 ADD SWAP3 DUP3 PUSH3 0xAC JUMPI PUSH1 0x0 DUP6 SSTORE PUSH3 0xF7 JUMP JUMPDEST DUP3 PUSH1 0x1F LT PUSH3 0xC7 JUMPI DUP1 MLOAD PUSH1 0xFF NOT AND DUP4 DUP1 ADD OR DUP6 SSTORE PUSH3 0xF7 JUMP JUMPDEST DUP3 DUP1 ADD PUSH1 0x1 ADD DUP6 SSTORE DUP3 ISZERO PUSH3 0xF7 JUMPI SWAP2 DUP3 ADD JUMPDEST DUP3 DUP2 GT ISZERO PUSH3 0xF7 JUMPI DUP3 MLOAD DUP3 SSTORE SWAP2 PUSH1 0x20 ADD SWAP2 SWAP1 PUSH1 0x1 ADD SWAP1 PUSH3 0xDA JUMP JUMPDEST POP PUSH3 0x105 SWAP3 SWAP2 POP PUSH3 0x109 JUMP JUMPDEST POP SWAP1 JUMP JUMPDEST JUMPDEST DUP1 DUP3 GT ISZERO PUSH3 0x105 JUMPI PUSH1 0x0 DUP2 SSTORE PUSH1 0x1 ADD PUSH3 0x10A JUMP JUMPDEST PUSH4 0x4E487B71 PUSH1 0xE0 SHL PUSH1 0x0 MSTORE PUSH1 0x41 PUSH1 0x4 MSTORE PUSH1 0x24 PUSH1 0x0 REVERT JUMPDEST PUSH1 0x0 DUP3 PUSH1 0x1F DUP4 ADD SLT PUSH3 0x148 JUMPI PUSH1 0x0 DUP1 REVERT JUMPDEST DUP2 MLOAD PUSH1 0x1 PUSH1 0x1 PUSH1 0x40 SHL SUB DUP1 DUP3 GT ISZERO PUSH3 0x165 JUMPI PUSH3 0x165 PUSH3 0x120 JUMP JUMPDEST PUSH1 0x40 MLOAD PUSH1 0x1F DUP4 ADD PUSH1 0x1F NOT SWAP1 DUP2 AND PUSH1 0x3F ADD AND DUP2 ADD SWAP1 DUP3 DUP3 GT DUP2 DUP4 LT OR ISZERO PUSH3 0x190 JUMPI PUSH3 0x190 PUSH3 0x120 JUMP JUMPDEST DUP2 PUSH1 0x40 MSTORE DUP4 DUP2 MSTORE PUSH1 0x20 SWAP3 POP DUP7 DUP4 DUP6 DUP9 ADD ADD GT ISZERO PUSH3 0x1AD JUMPI PUSH1 0x0 DUP1 REVERT JUMPDEST PUSH1 0x0 SWAP2 POP JUMPDEST DUP4 DUP3 LT ISZERO PUSH3 0x1D1 JUMPI DUP6 DUP3 ADD DUP4 ADD MLOAD DUP2 DUP4 ADD DUP5 ADD MSTORE SWAP1 DUP3 ADD SWAP1 PUSH3 0x1B2 JUMP JUMPDEST DUP4 DUP3 GT ISZERO PUSH3 0x1E3 JUMPI PUSH1 0x0 DUP4 DUP6 DUP4 ADD ADD MSTORE JUMPDEST SWAP7 SWAP6 POP POP POP POP POP POP JUMP JUMPDEST PUSH1 0x0 DUP1 PUSH1 0x40 DUP4 DUP6 SUB SLT ISZERO PUSH3 0x201 JUMPI PUSH1 0x0 DUP1 REVERT JUMPDEST DUP3 MLOAD PUSH1 0x1 PUSH1 0x1 PUSH1 0x40 SHL SUB DUP1 DUP3 GT ISZERO PUSH3 0x219 JUMPI PUSH1 0x0 DUP1 REVERT JUMPDEST PUSH3 0x227 DUP7 DUP4 DUP8 ADD PUSH3 0x136 JUMP JUMPDEST SWAP4 POP PUSH1 0x20 DUP6 ADD MLOAD SWAP2 POP DUP1 DUP3 GT ISZERO PUSH3 0x23E JUMPI PUSH1 0x0 DUP1 REVERT JUMPDEST POP PUSH3 0x24D DUP6 DUP3 DUP7 ADD PUSH3 0x136 JUMP JUMPDEST SWAP2 POP POP SWAP3 POP SWAP3 SWAP1 POP JUMP JUMPDEST PUSH1 0x1 DUP2 DUP2 SHR SWAP1 DUP3 AND DUP1 PUSH3 0x26C JUMPI PUSH1 0x7F DUP3 AND SWAP2 POP JUMPDEST PUSH1 0x20 DUP3 LT DUP2 SUB PUSH3 0x28D JUMPI PUSH4 0x4E487B71 PUSH1 0xE0 SHL PUSH1 0x0 MSTORE PUSH1 0x22 PUSH1 0x4 MSTORE PUSH1 0x24 PUSH1 0x0 REVERT JUMPDEST POP SWAP2 SWAP1 POP JUMP JUMPDEST PUSH2 0xA83 DUP1 PUSH3 0x2A3 PUSH1 0x0 CODECOPY PUSH1 0x0 RETURN INVALID PUSH1 0x80 PUSH1 0x40 MSTORE CALLVALUE DUP1 ISZERO PUSH2 0x10 JUMPI PUSH1 0x0 DUP1 REVERT JUMPDEST POP PUSH1 0x4 CALLDATASIZE LT PUSH2 0x100 JUMPI PUSH1 0x0 CALLDATALOAD PUSH1 0xE0 SHR DUP1 PUSH4 0x70A08231 GT PUSH2 0x97 JUMPI DUP1 PUSH4 0xA9059CBB GT PUSH2 0x66 JUMPI DUP1 PUSH4 0xA9059CBB EQ PUSH2 0x249 JUMPI DUP1 PUSH4 0xD5009584 EQ PUSH2 0x25C JUMPI DUP1 PUSH4 0xDD62ED3E EQ PUSH2 0x26D JUMPI DUP1 PUSH4 0xDDA8BA05 EQ PUSH2 0x2A6 JUMPI PUSH1 0x0 DUP1 REVERT JUMPDEST DUP1 PUSH4 0x70A08231 EQ PUSH2 0x1C5 JUMPI DUP1 PUSH4 0x74FCEF12 EQ PUSH2 0x1EE JUMPI DUP1 PUSH4 0x95D89B41 EQ PUSH2 0x22E JUMPI DUP1 PUSH4 0xA457C2D7 EQ PUSH2 0x236 JUMPI PUSH1 0x0 DUP1 REVERT JUMPDEST DUP1 PUSH4 0x313CE567 GT PUSH2 0xD3 JUMPI DUP1 PUSH4 0x313CE567 EQ PUSH2 0x16B JUMPI DUP1 PUSH4 0x39509351 EQ PUSH2 0x17A JUMPI DUP1 PUSH4 0x40C10F19 EQ PUSH2 0x18D JUMPI DUP1 PUSH4 0x42C93E08 EQ PUSH2 0x1A0 JUMPI PUSH1 0x0 DUP1 REVERT JUMPDEST DUP1 PUSH4 0x6FDDE03 EQ PUSH2 0x105 JUMPI DUP1 PUSH4 0x95EA7B3 EQ PUSH2 0x123 JUMPI DUP1 PUSH4 0x18160DDD EQ PUSH2 0x146 JUMPI DUP1 PUSH4 0x23B872DD EQ PUSH2 0x158 JUMPI JUMPDEST PUSH1 0x0 DUP1 REVERT JUMPDEST PUSH2 0x10D PUSH2 0x2E6 JUMP JUMPDEST PUSH1 0x40 MLOAD PUSH2 0x11A SWAP2 SWAP1 PUSH2 0x8C1 JUMP JUMPDEST PUSH1 0x40 MLOAD DUP1 SWAP2 SUB SWAP1 RETURN JUMPDEST PUSH2 0x136 PUSH2 0x131 CALLDATASIZE PUSH1 0x4 PUSH2 0x932 JUMP JUMPDEST PUSH2 0x378 JUMP JUMPDEST PUSH1 0x40 MLOAD SWAP1 ISZERO ISZERO DUP2 MSTORE PUSH1 0x20 ADD PUSH2 0x11A JUMP JUMPDEST PUSH1 0x2 SLOAD JUMPDEST PUSH1 0x40 MLOAD SWAP1 DUP2 MSTORE PUSH1 0x20 ADD PUSH2 0x11A JUMP JUMPDEST PUSH2 0x136 PUSH2 0x166 CALLDATASIZE PUSH1 0x4 PUSH2 0x95C JUMP JUMPDEST PUSH2 0x390 JUMP JUMPDEST PUSH1 0x40 MLOAD PUSH1 0x12 DUP2 MSTORE PUSH1 0x20 ADD PUSH2 0x11A JUMP JUMPDEST PUSH2 0x136 PUSH2 0x188 CALLDATASIZE PUSH1 0x4 PUSH2 0x932 JUMP JUMPDEST PUSH2 0x3B4 JUMP JUMPDEST PUSH2 0x136 PUSH2 0x19B CALLDATASIZE PUSH1 0x4 PUSH2 0x932 JUMP JUMPDEST PUSH2 0x3F3 JUMP JUMPDEST PUSH1 0x4 SLOAD PUSH1 0x1 PUSH1 0x1 PUSH1 0xA0 SHL SUB AND JUMPDEST PUSH1 0x40 MLOAD PUSH1 0x1 PUSH1 0x1 PUSH1 0xA0 SHL SUB SWAP1 SWAP2 AND DUP2 MSTORE PUSH1 0x20 ADD PUSH2 0x11A JUMP JUMPDEST PUSH2 0x14A PUSH2 0x1D3 CALLDATASIZE PUSH1 0x4 PUSH2 0x998 JUMP JUMPDEST PUSH1 0x1 PUSH1 0x1 PUSH1 0xA0 SHL SUB AND PUSH1 0x0 SWAP1 DUP2 MSTORE PUSH1 0x20 DUP2 SWAP1 MSTORE PUSH1 0x40 SWAP1 KECCAK256 SLOAD SWAP1 JUMP JUMPDEST PUSH2 0x136 PUSH2 0x1FC CALLDATASIZE PUSH1 0x4 PUSH2 0x998 JUMP JUMPDEST PUSH1 0x3 DUP1 SLOAD PUSH20 0xFFFFFFFFFFFFFFFFFFFFFFFFFFFFFFFFFFFFFFFF NOT AND PUSH1 0x1 PUSH1 0x1 PUSH1 0xA0 SHL SUB SWAP3 SWAP1 SWAP3 AND SWAP2 SWAP1 SWAP2 OR SWAP1 SSTORE PUSH1 0x1 SWAP1 JUMP JUMPDEST PUSH2 0x10D PUSH2 0x442 JUMP JUMPDEST PUSH2 0x136 PUSH2 0x244 CALLDATASIZE PUSH1 0x4 PUSH2 0x932 JUMP JUMPDEST PUSH2 0x451 JUMP JUMPDEST PUSH2 0x136 PUSH2 0x257 CALLDATASIZE PUSH1 0x4 PUSH2 0x932 JUMP JUMPDEST PUSH2 0x500 JUMP JUMPDEST PUSH1 0x3 SLOAD PUSH1 0x1 PUSH1 0x1 PUSH1 0xA0 SHL SUB AND PUSH2 0x1AD JUMP JUMPDEST PUSH2 0x14A PUSH2 0x27B CALLDATASIZE PUSH1 0x4 PUSH2 0x9BA JUMP JUMPDEST PUSH1 0x1 PUSH1 0x1 PUSH1 0xA0 SHL SUB SWAP2 DUP3 AND PUSH1 0x0 SWAP1 DUP2 MSTORE PUSH1 0x1 PUSH1 0x20 SWAP1 DUP2 MSTORE PUSH1 0x40 DUP1 DUP4 KECCAK256 SWAP4 SWAP1 SWAP5 AND DUP3 MSTORE SWAP2 SWAP1 SWAP2 MSTORE KECCAK256 SLOAD SWAP1 JUMP JUMPDEST PUSH2 0x136 PUSH2 0x2B4 CALLDATASIZE PUSH1 0x4 PUSH2 0x998 JUMP JUMPDEST PUSH1 0x4 DUP1 SLOAD PUSH20 0xFFFFFFFFFFFFFFFFFFFFFFFFFFFFFFFFFFFFFFFF NOT AND PUSH1 0x1 PUSH1 0x1 PUSH1 0xA0 SHL SUB SWAP3 SWAP1 SWAP3 AND SWAP2 SWAP1 SWAP2 OR SWAP1 SSTORE PUSH1 0x1 SWAP1 JUMP JUMPDEST PUSH1 0x60 PUSH1 0x5 DUP1 SLOAD PUSH2 0x2F5 SWAP1 PUSH2 0x9ED JUMP JUMPDEST DUP1 PUSH1 0x1F ADD PUSH1 0x20 DUP1 SWAP2 DIV MUL PUSH1 0x20 ADD PUSH1 0x40 MLOAD SWAP1 DUP2 ADD PUSH1 0x40 MSTORE DUP1 SWAP3 SWAP2 SWAP1 DUP2 DUP2 MSTORE PUSH1 0x20 ADD DUP3 DUP1 SLOAD PUSH2 0x321 SWAP1 PUSH2 0x9ED JUMP JUMPDEST DUP1 ISZERO PUSH2 0x36E JUMPI DUP1 PUSH1 0x1F LT PUSH2 0x343 JUMPI PUSH2 0x100 DUP1 DUP4 SLOAD DIV MUL DUP4 MSTORE SWAP2 PUSH1 0x20 ADD SWAP2 PUSH2 0x36E JUMP JUMPDEST DUP3 ADD SWAP2 SWAP1 PUSH1 0x0 MSTORE PUSH1 0x20 PUSH1 0x0 KECCAK256 SWAP1 JUMPDEST DUP2 SLOAD DUP2 MSTORE SWAP1 PUSH1 0x1 ADD SWAP1 PUSH1 0x20 ADD DUP1 DUP4 GT PUSH2 0x351 JUMPI DUP3 SWAP1 SUB PUSH1 0x1F AND DUP3 ADD SWAP2 JUMPDEST POP POP POP POP POP SWAP1 POP SWAP1 JUMP JUMPDEST PUSH1 0x0 CALLER PUSH2 0x386 DUP2 DUP6 DUP6 PUSH2 0x50E JUMP JUMPDEST POP PUSH1 0x1 SWAP4 SWAP3 POP POP POP JUMP JUMPDEST PUSH1 0x0 CALLER PUSH2 0x39E DUP6 DUP3 DUP6 PUSH2 0x632 JUMP JUMPDEST PUSH2 0x3A9 DUP6 DUP6 DUP6 PUSH2 0x6C4 JUMP JUMPDEST POP PUSH1 0x1 SWAP5 SWAP4 POP POP POP POP JUMP JUMPDEST CALLER PUSH1 0x0 DUP2 DUP2 MSTORE PUSH1 0x1 PUSH1 0x20 SWAP1 DUP2 MSTORE PUSH1 0x40 DUP1 DUP4 KECCAK256 PUSH1 0x1 PUSH1 0x1 PUSH1 0xA0 SHL SUB DUP8 AND DUP5 MSTORE SWAP1 SWAP2 MSTORE DUP2 KECCAK256 SLOAD SWAP1 SWAP2 SWAP1 PUSH2 0x386 SWAP1 DUP3 SWAP1 DUP7 SWAP1 PUSH2 0x3EE SWAP1 DUP8 SWAP1 PUSH2 0xA27 JUMP JUMPDEST PUSH2 0x50E JUMP JUMPDEST PUSH1 0x0 DUP2 PUSH1 0x2 PUSH1 0x0 DUP3 DUP3 SLOAD PUSH2 0x407 SWAP2 SWAP1 PUSH2 0xA27 JUMP JUMPDEST SWAP1 SWAP2 SSTORE POP POP PUSH1 0x1 PUSH1 0x1 PUSH1 0xA0 SHL SUB DUP4 AND PUSH1 0x0 SWAP1 DUP2 MSTORE PUSH1 0x20 DUP2 SWAP1 MSTORE PUSH1 0x40 DUP2 KECCAK256 DUP1 SLOAD DUP5 SWAP3 SWAP1 PUSH2 0x434 SWAP1 DUP5 SWAP1 PUSH2 0xA27 JUMP JUMPDEST SWAP1 SWAP2 SSTORE POP PUSH1 0x1 SWAP5 SWAP4 POP POP POP POP JUMP JUMPDEST PUSH1 0x60 PUSH1 0x6 DUP1 SLOAD PUSH2 0x2F5 SWAP1 PUSH2 0x9ED JUMP JUMPDEST CALLER PUSH1 0x0 DUP2 DUP2 MSTORE PUSH1 0x1 PUSH1 0x20 SWAP1 DUP2 MSTORE PUSH1 0x40 DUP1 DUP4 KECCAK256 PUSH1 0x1 PUSH1 0x1 PUSH1 0xA0 SHL SUB DUP8 AND DUP5 MSTORE SWAP1 SWAP2 MSTORE DUP2 KECCAK256 SLOAD SWAP1 SWAP2 SWAP1 DUP4 DUP2 LT ISZERO PUSH2 0x4F3 JUMPI PUSH1 0x40 MLOAD PUSH3 0x461BCD PUSH1 0xE5 SHL DUP2 MSTORE PUSH1 0x20 PUSH1 0x4 DUP3 ADD MSTORE PUSH1 0x25 PUSH1 0x24 DUP3 ADD MSTORE PUSH32 0x45524332303A2064656372656173656420616C6C6F77616E63652062656C6F77 PUSH1 0x44 DUP3 ADD MSTORE PUSH32 0x207A65726F000000000000000000000000000000000000000000000000000000 PUSH1 0x64 DUP3 ADD MSTORE PUSH1 0x84 ADD JUMPDEST PUSH1 0x40 MLOAD DUP1 SWAP2 SUB SWAP1 REVERT JUMPDEST PUSH2 0x3A9 DUP3 DUP7 DUP7 DUP5 SUB PUSH2 0x50E JUMP JUMPDEST PUSH1 0x0 CALLER PUSH2 0x386 DUP2 DUP6 DUP6 PUSH2 0x6C4 JUMP JUMPDEST PUSH1 0x1 PUSH1 0x1 PUSH1 0xA0 SHL SUB DUP4 AND PUSH2 0x570 JUMPI PUSH1 0x40 MLOAD PUSH3 0x461BCD PUSH1 0xE5 SHL DUP2 MSTORE PUSH1 0x20 PUSH1 0x4 DUP3 ADD MSTORE PUSH1 0x24 DUP1 DUP3 ADD MSTORE PUSH32 0x45524332303A20617070726F76652066726F6D20746865207A65726F20616464 PUSH1 0x44 DUP3 ADD MSTORE PUSH4 0x72657373 PUSH1 0xE0 SHL PUSH1 0x64 DUP3 ADD MSTORE PUSH1 0x84 ADD PUSH2 0x4EA JUMP JUMPDEST PUSH1 0x1 PUSH1 0x1 PUSH1 0xA0 SHL SUB DUP3 AND PUSH2 0x5D1 JUMPI PUSH1 0x40 MLOAD PUSH3 0x461BCD PUSH1 0xE5 SHL DUP2 MSTORE PUSH1 0x20 PUSH1 0x4 DUP3 ADD MSTORE PUSH1 0x22 PUSH1 0x24 DUP3 ADD MSTORE PUSH32 0x45524332303A20617070726F766520746F20746865207A65726F206164647265 PUSH1 0x44 DUP3 ADD MSTORE PUSH2 0x7373 PUSH1 0xF0 SHL PUSH1 0x64 DUP3 ADD MSTORE PUSH1 0x84 ADD PUSH2 0x4EA JUMP JUMPDEST PUSH1 0x1 PUSH1 0x1 PUSH1 0xA0 SHL SUB DUP4 DUP2 AND PUSH1 0x0 DUP2 DUP2 MSTORE PUSH1 0x1 PUSH1 0x20 SWAP1 DUP2 MSTORE PUSH1 0x40 DUP1 DUP4 KECCAK256 SWAP5 DUP8 AND DUP1 DUP5 MSTORE SWAP5 DUP3 MSTORE SWAP2 DUP3 SWAP1 KECCAK256 DUP6 SWAP1 SSTORE SWAP1 MLOAD DUP5 DUP2 MSTORE PUSH32 0x8C5BE1E5EBEC7D5BD14F71427D1E84F3DD0314C0F7B2291E5B200AC8C7C3B925 SWAP2 ADD PUSH1 0x40 MLOAD DUP1 SWAP2 SUB SWAP1 LOG3 POP POP POP JUMP JUMPDEST PUSH1 0x1 PUSH1 0x1 PUSH1 0xA0 SHL SUB DUP4 DUP2 AND PUSH1 0x0 SWAP1 DUP2 MSTORE PUSH1 0x1 PUSH1 0x20 SWAP1 DUP2 MSTORE PUSH1 0x40 DUP1 DUP4 KECCAK256 SWAP4 DUP7 AND DUP4 MSTORE SWAP3 SWAP1 MSTORE KECCAK256 SLOAD PUSH1 0x0 NOT DUP2 EQ PUSH2 0x6BE JUMPI DUP2 DUP2 LT ISZERO PUSH2 0x6B1 JUMPI PUSH1 0x40 MLOAD PUSH3 0x461BCD PUSH1 0xE5 SHL DUP2 MSTORE PUSH1 0x20 PUSH1 0x4 DUP3 ADD MSTORE PUSH1 0x1D PUSH1 0x24 DUP3 ADD MSTORE PUSH32 0x45524332303A20696E73756666696369656E7420616C6C6F77616E6365000000 PUSH1 0x44 DUP3 ADD MSTORE PUSH1 0x64 ADD PUSH2 0x4EA JUMP JUMPDEST PUSH2 0x6BE DUP5 DUP5 DUP5 DUP5 SUB PUSH2 0x50E JUMP JUMPDEST POP POP POP POP JUMP JUMPDEST PUSH1 0x1 PUSH1 0x1 PUSH1 0xA0 SHL SUB DUP4 AND PUSH2 0x740 JUMPI PUSH1 0x40 MLOAD PUSH3 0x461BCD PUSH1 0xE5 SHL DUP2 MSTORE PUSH1 0x20 PUSH1 0x4 DUP3 ADD MSTORE PUSH1 0x25 PUSH1 0x24 DUP3 ADD MSTORE PUSH32 0x45524332303A207472616E736665722066726F6D20746865207A65726F206164 PUSH1 0x44 DUP3 ADD MSTORE PUSH32 0x6472657373000000000000000000000000000000000000000000000000000000 PUSH1 0x64 DUP3 ADD MSTORE PUSH1 0x84 ADD PUSH2 0x4EA JUMP JUMPDEST PUSH1 0x1 PUSH1 0x1 PUSH1 0xA0 SHL SUB DUP3 AND PUSH2 0x7A2 JUMPI PUSH1 0x40 MLOAD PUSH3 0x461BCD PUSH1 0xE5 SHL DUP2 MSTORE PUSH1 0x20 PUSH1 0x4 DUP3 ADD MSTORE PUSH1 0x23 PUSH1 0x24 DUP3 ADD MSTORE PUSH32 0x45524332303A207472616E7366657220746F20746865207A65726F2061646472 PUSH1 0x44 DUP3 ADD MSTORE PUSH3 0x657373 PUSH1 0xE8 SHL PUSH1 0x64 DUP3 ADD MSTORE PUSH1 0x84 ADD PUSH2 0x4EA JUMP JUMPDEST PUSH1 0x1 PUSH1 0x1 PUSH1 0xA0 SHL SUB DUP4 AND PUSH1 0x0 SWAP1 DUP2 MSTORE PUSH1 0x20 DUP2 SWAP1 MSTORE PUSH1 0x40 SWAP1 KECCAK256 SLOAD DUP2 DUP2 LT ISZERO PUSH2 0x831 JUMPI PUSH1 0x40 MLOAD PUSH3 0x461BCD PUSH1 0xE5 SHL DUP2 MSTORE PUSH1 0x20 PUSH1 0x4 DUP3 ADD MSTORE PUSH1 0x26 PUSH1 0x24 DUP3 ADD MSTORE PUSH32 0x45524332303A207472616E7366657220616D6F756E7420657863656564732062 PUSH1 0x44 DUP3 ADD MSTORE PUSH32 0x616C616E63650000000000000000000000000000000000000000000000000000 PUSH1 0x64 DUP3 ADD MSTORE PUSH1 0x84 ADD PUSH2 0x4EA JUMP JUMPDEST PUSH1 0x1 PUSH1 0x1 PUSH1 0xA0 SHL SUB DUP1 DUP6 AND PUSH1 0x0 SWAP1 DUP2 MSTORE PUSH1 0x20 DUP2 SWAP1 MSTORE PUSH1 0x40 DUP1 DUP3 KECCAK256 DUP6 DUP6 SUB SWAP1 SSTORE SWAP2 DUP6 AND DUP2 MSTORE SWAP1 DUP2 KECCAK256 DUP1 SLOAD DUP5 SWAP3 SWAP1 PUSH2 0x868 SWAP1 DUP5 SWAP1 PUSH2 0xA27 JUMP JUMPDEST SWAP3 POP POP DUP2 SWAP1 SSTORE POP DUP3 PUSH1 0x1 PUSH1 0x1 PUSH1 0xA0 SHL SUB AND DUP5 PUSH1 0x1 PUSH1 0x1 PUSH1 0xA0 SHL SUB AND PUSH32 0xDDF252AD1BE2C89B69C2B068FC378DAA952BA7F163C4A11628F55A4DF523B3EF DUP5 PUSH1 0x40 MLOAD PUSH2 0x8B4 SWAP2 DUP2 MSTORE PUSH1 0x20 ADD SWAP1 JUMP JUMPDEST PUSH1 0x40 MLOAD DUP1 SWAP2 SUB SWAP1 LOG3 PUSH2 0x6BE JUMP JUMPDEST PUSH1 0x0 PUSH1 0x20 DUP1 DUP4 MSTORE DUP4 MLOAD DUP1 DUP3 DUP6 ADD MSTORE PUSH1 0x0 JUMPDEST DUP2 DUP2 LT ISZERO PUSH2 0x8EE JUMPI DUP6 DUP2 ADD DUP4 ADD MLOAD DUP6 DUP3 ADD PUSH1 0x40 ADD MSTORE DUP3 ADD PUSH2 0x8D2 JUMP JUMPDEST DUP2 DUP2 GT ISZERO PUSH2 0x900 JUMPI PUSH1 0x0 PUSH1 0x40 DUP4 DUP8 ADD ADD MSTORE JUMPDEST POP PUSH1 0x1F ADD PUSH1 0x1F NOT AND SWAP3 SWAP1 SWAP3 ADD PUSH1 0x40 ADD SWAP4 SWAP3 POP POP POP JUMP JUMPDEST DUP1 CALLDATALOAD PUSH1 0x1 PUSH1 0x1 PUSH1 0xA0 SHL SUB DUP2 AND DUP2 EQ PUSH2 0x92D JUMPI PUSH1 0x0 DUP1 REVERT JUMPDEST SWAP2 SWAP1 POP JUMP JUMPDEST PUSH1 0x0 DUP1 PUSH1 0x40 DUP4 DUP6 SUB SLT ISZERO PUSH2 0x945 JUMPI PUSH1 0x0 DUP1 REVERT JUMPDEST PUSH2 0x94E DUP4 PUSH2 0x916 JUMP JUMPDEST SWAP5 PUSH1 0x20 SWAP4 SWAP1 SWAP4 ADD CALLDATALOAD SWAP4 POP POP POP JUMP JUMPDEST PUSH1 0x0 DUP1 PUSH1 0x0 PUSH1 0x60 DUP5 DUP7 SUB SLT ISZERO PUSH2 0x971 JUMPI PUSH1 0x0 DUP1 REVERT JUMPDEST PUSH2 0x97A DUP5 PUSH2 0x916 JUMP JUMPDEST SWAP3 POP PUSH2 0x988 PUSH1 0x20 DUP6 ADD PUSH2 0x916 JUMP JUMPDEST SWAP2 POP PUSH1 0x40 DUP5 ADD CALLDATALOAD SWAP1 POP SWAP3 POP SWAP3 POP SWAP3 JUMP JUMPDEST PUSH1 0x0 PUSH1 0x20 DUP3 DUP5 SUB SLT ISZERO PUSH2 0x9AA JUMPI PUSH1 0x0 DUP1 REVERT JUMPDEST PUSH2 0x9B3 DUP3 PUSH2 0x916 JUMP JUMPDEST SWAP4 SWAP3 POP POP POP JUMP JUMPDEST PUSH1 0x0 DUP1 PUSH1 0x40 DUP4 DUP6 SUB SLT ISZERO PUSH2 0x9CD JUMPI PUSH1 0x0 DUP1 REVERT JUMPDEST PUSH2 0x9D6 DUP4 PUSH2 0x916 JUMP JUMPDEST SWAP2 POP PUSH2 0x9E4 PUSH1 0x20 DUP5 ADD PUSH2 0x916 JUMP JUMPDEST SWAP1 POP SWAP3 POP SWAP3 SWAP1 POP JUMP JUMPDEST PUSH1 0x1 DUP2 DUP2 SHR SWAP1 DUP3 AND DUP1 PUSH2 0xA01 JUMPI PUSH1 0x7F DUP3 AND SWAP2 POP JUMPDEST PUSH1 0x20 DUP3 LT DUP2 SUB PUSH2 0xA21 JUMPI PUSH4 0x4E487B71 PUSH1 0xE0 SHL PUSH1 0x0 MSTORE PUSH1 0x22 PUSH1 0x4 MSTORE PUSH1 0x24 PUSH1 0x0 REVERT JUMPDEST POP SWAP2 SWAP1 POP JUMP JUMPDEST PUSH1 0x0 DUP3 NOT DUP3 GT ISZERO PUSH2 0xA48 JUMPI PUSH4 0x4E487B71 PUSH1 0xE0 SHL PUSH1 0x0 MSTORE PUSH1 0x11 PUSH1 0x4 MSTORE PUSH1 0x24 PUSH1 0x0 REVERT JUMPDEST POP ADD SWAP1 JUMP INVALID LOG2 PUSH5 0x6970667358 0x22 SLT KECCAK256 0xE6 NOT 0x22 MSIZE SHL JUMP SWAP13 0xD0 ADDMOD 0xB4 0xBB DUP13 PUSH27 0xA1BB0F3587E4586A6D71507F16A0CE869A4D6264736F6C63430008 0xD STOP CALLER "
    },
    "gasEstimates": {
      "creation": {
        "codeDepositCost": "538200",
        "executionCost": "infinite",
        "totalCost": "infinite"
      },
      "external": {
        "allowance(address,address)": "infinite",
        "approve(address,uint256)": "24647",
        "balanceOf(address)": "2563",
        "cCC(address)": "24704",
        "cCM(address)": "24661",
        "decimals()": "200",
        "decreaseAllowance(address,uint256)": "26989",
        "getCentralContract()": "2409",
        "getManager()": "2375",
        "increaseAllowance(address,uint256)": "26990",
        "mint(address,uint256)": "infinite",
        "name()": "infinite",
        "symbol()": "infinite",
        "totalSupply()": "2349",
        "transfer(address,uint256)": "51204",
        "transferFrom(address,address,uint256)": "infinite"
      },
      "internal": {
        "_afterTokenTransfer(address,address,uint256)": "infinite",
        "_approve(address,address,uint256)": "infinite",
        "_beforeTokenTransfer(address,address,uint256)": "infinite",
        "_burn(address,uint256)": "infinite",
        "_mint(address,uint256)": "infinite",
        "_spendAllowance(address,address,uint256)": "infinite",
        "_transfer(address,address,uint256)": "infinite"
      }
    },
    "methodIdentifiers": {
      "allowance(address,address)": "dd62ed3e",
      "approve(address,uint256)": "095ea7b3",
      "balanceOf(address)": "70a08231",
      "cCC(address)": "dda8ba05",
      "cCM(address)": "74fcef12",
      "decimals()": "313ce567",
      "decreaseAllowance(address,uint256)": "a457c2d7",
      "getCentralContract()": "42c93e08",
      "getManager()": "d5009584",
      "increaseAllowance(address,uint256)": "39509351",
      "mint(address,uint256)": "40c10f19",
      "name()": "06fdde03",
      "symbol()": "95d89b41",
      "totalSupply()": "18160ddd",
      "transfer(address,uint256)": "a9059cbb",
      "transferFrom(address,address,uint256)": "23b872dd"
    }
  },
  "storageLayout": {
    "storage": [
      {
        "astId": 797,
        "contract": "erc20.sol:ERC20",
        "label": "_balances",
        "offset": 0,
        "slot": "0",
        "type": "t_mapping(t_address,t_uint256)"
      },
      {
        "astId": 803,
        "contract": "erc20.sol:ERC20",
        "label": "_allowances",
        "offset": 0,
        "slot": "1",
        "type": "t_mapping(t_address,t_mapping(t_address,t_uint256))"
      },
      {
        "astId": 805,
        "contract": "erc20.sol:ERC20",
        "label": "_totalSupply",
        "offset": 0,
        "slot": "2",
        "type": "t_uint256"
      },
      {
        "astId": 807,
        "contract": "erc20.sol:ERC20",
        "label": "_manager",
        "offset": 0,
        "slot": "3",
        "type": "t_address"
      },
      {
        "astId": 809,
        "contract": "erc20.sol:ERC20",
        "label": "_centralContract",
        "offset": 0,
        "slot": "4",
        "type": "t_address"
      },
      {
        "astId": 811,
        "contract": "erc20.sol:ERC20",
        "label": "_name",
        "offset": 0,
        "slot": "5",
        "type": "t_string_storage"
      },
      {
        "astId": 813,
        "contract": "erc20.sol:ERC20",
        "label": "_symbol",
        "offset": 0,
        "slot": "6",
        "type": "t_string_storage"
      },
      {
        "astId": 815,
        "contract": "erc20.sol:ERC20",
        "label": "_creator",
        "offset": 0,
        "slot": "7",
        "type": "t_address"
      }
    ],
    "types": {
      "t_address": {
        "encoding": "inplace",
        "label": "address",
        "numberOfBytes": "20"
      },
      "t_mapping(t_address,t_mapping(t_address,t_uint256))": {
        "encoding": "mapping",
        "key": "t_address",
        "label": "mapping(address => mapping(address => uint256))",
        "numberOfBytes": "32",
        "value": "t_mapping(t_address,t_uint256)"
      },
      "t_mapping(t_address,t_uint256)": {
        "encoding": "mapping",
        "key": "t_address",
        "label": "mapping(address => uint256)",
        "numberOfBytes": "32",
        "value": "t_uint256"
      },
      "t_string_storage": {
        "encoding": "bytes",
        "label": "string",
        "numberOfBytes": "32"
      },
      "t_uint256": {
        "encoding": "inplace",
        "label": "uint256",
        "numberOfBytes": "32"
      }
    }
  },
  "userdoc": {
    "kind": "user",
    "methods": {},
    "version": 1
  }
}