{
  "abi": [
    {
      "inputs": [
        {
          "internalType": "string",
          "name": "name_",
          "type": "string"
        },
        {
          "internalType": "string",
          "name": "symbol_",
          "type": "string"
        }
      ],
      "stateMutability": "nonpayable",
      "type": "constructor"
    },
    {
      "anonymous": false,
      "inputs": [
        {
          "indexed": true,
          "internalType": "address",
          "name": "owner",
          "type": "address"
        },
        {
          "indexed": true,
          "internalType": "address",
          "name": "approved",
          "type": "address"
        },
        {
          "indexed": true,
          "internalType": "uint256",
          "name": "tokenId",
          "type": "uint256"
        }
      ],
      "name": "Approval",
      "type": "event"
    },
    {
      "anonymous": false,
      "inputs": [
        {
          "indexed": true,
          "internalType": "address",
          "name": "owner",
          "type": "address"
        },
        {
          "indexed": true,
          "internalType": "address",
          "name": "operator",
          "type": "address"
        },
        {
          "indexed": false,
          "internalType": "bool",
          "name": "approved",
          "type": "bool"
        }
      ],
      "name": "ApprovalForAll",
      "type": "event"
    },
    {
      "anonymous": false,
      "inputs": [
        {
          "indexed": true,
          "internalType": "address",
          "name": "from",
          "type": "address"
        },
        {
          "indexed": true,
          "internalType": "address",
          "name": "to",
          "type": "address"
        },
        {
          "indexed": true,
          "internalType": "uint256",
          "name": "tokenId",
          "type": "uint256"
        }
      ],
      "name": "Transfer",
      "type": "event"
    },
    {
      "inputs": [
        {
          "internalType": "address",
          "name": "to",
          "type": "address"
        },
        {
          "internalType": "uint256",
          "name": "tokenId",
          "type": "uint256"
        }
      ],
      "name": "approve",
      "outputs": [],
      "stateMutability": "nonpayable",
      "type": "function"
    },
    {
      "inputs": [
        {
          "internalType": "address",
          "name": "owner",
          "type": "address"
        }
      ],
      "name": "balanceOf",
      "outputs": [
        {
          "internalType": "uint256",
          "name": "",
          "type": "uint256"
        }
      ],
      "stateMutability": "view",
      "type": "function"
    },
    {
      "inputs": [
        {
          "internalType": "uint256",
          "name": "tokenId",
          "type": "uint256"
        }
      ],
      "name": "burn",
      "outputs": [],
      "stateMutability": "nonpayable",
      "type": "function"
    },
    {
      "inputs": [
        {
          "internalType": "uint256",
          "name": "tokenId",
          "type": "uint256"
        }
      ],
      "name": "getApproved",
      "outputs": [
        {
          "internalType": "address",
          "name": "",
          "type": "address"
        }
      ],
      "stateMutability": "view",
      "type": "function"
    },
    {
      "inputs": [
        {
          "internalType": "address",
          "name": "owner",
          "type": "address"
        },
        {
          "internalType": "address",
          "name": "operator",
          "type": "address"
        }
      ],
      "name": "isApprovedForAll",
      "outputs": [
        {
          "internalType": "bool",
          "name": "",
          "type": "bool"
        }
      ],
      "stateMutability": "view",
      "type": "function"
    },
    {
      "inputs": [
        {
          "internalType": "address",
          "name": "to",
          "type": "address"
        },
        {
          "internalType": "uint256",
          "name": "tokenId",
          "type": "uint256"
        }
      ],
      "name": "mint",
      "outputs": [],
      "stateMutability": "nonpayable",
      "type": "function"
    },
    {
      "inputs": [],
      "name": "name",
      "outputs": [
        {
          "internalType": "string",
          "name": "",
          "type": "string"
        }
      ],
      "stateMutability": "view",
      "type": "function"
    },
    {
      "inputs": [
        {
          "internalType": "address",
          "name": "from",
          "type": "address"
        },
        {
          "internalType": "address",
          "name": "to",
          "type": "address"
        },
        {
          "internalType": "uint256",
          "name": "",
          "type": "uint256"
        },
        {
          "internalType": "bytes",
          "name": "",
          "type": "bytes"
        }
      ],
      "name": "onERC721Received",
      "outputs": [
        {
          "internalType": "bytes4",
          "name": "",
          "type": "bytes4"
        }
      ],
      "stateMutability": "nonpayable",
      "type": "function"
    },
    {
      "inputs": [
        {
          "internalType": "uint256",
          "name": "tokenId",
          "type": "uint256"
        }
      ],
      "name": "ownerOf",
      "outputs": [
        {
          "internalType": "address",
          "name": "",
          "type": "address"
        }
      ],
      "stateMutability": "view",
      "type": "function"
    },
    {
      "inputs": [
        {
          "internalType": "address",
          "name": "from",
          "type": "address"
        },
        {
          "internalType": "address",
          "name": "to",
          "type": "address"
        },
        {
          "internalType": "uint256",
          "name": "tokenId",
          "type": "uint256"
        }
      ],
      "name": "safeTransferFrom",
      "outputs": [],
      "stateMutability": "nonpayable",
      "type": "function"
    },
    {
      "inputs": [
        {
          "internalType": "address",
          "name": "from",
          "type": "address"
        },
        {
          "internalType": "address",
          "name": "to",
          "type": "address"
        },
        {
          "internalType": "uint256",
          "name": "tokenId",
          "type": "uint256"
        },
        {
          "internalType": "bytes",
          "name": "data",
          "type": "bytes"
        }
      ],
      "name": "safeTransferFrom",
      "outputs": [],
      "stateMutability": "nonpayable",
      "type": "function"
    },
    {
      "inputs": [
        {
          "internalType": "address",
          "name": "operator",
          "type": "address"
        },
        {
          "internalType": "bool",
          "name": "approved",
          "type": "bool"
        }
      ],
      "name": "setApprovalForAll",
      "outputs": [],
      "stateMutability": "nonpayable",
      "type": "function"
    },
    {
      "inputs": [
        {
          "internalType": "bytes4",
          "name": "interfaceId",
          "type": "bytes4"
        }
      ],
      "name": "supportsInterface",
      "outputs": [
        {
          "internalType": "bool",
          "name": "",
          "type": "bool"
        }
      ],
      "stateMutability": "view",
      "type": "function"
    },
    {
      "inputs": [],
      "name": "symbol",
      "outputs": [
        {
          "internalType": "string",
          "name": "",
          "type": "string"
        }
      ],
      "stateMutability": "view",
      "type": "function"
    },
    {
      "inputs": [
        {
          "internalType": "uint256",
          "name": "tokenId",
          "type": "uint256"
        }
      ],
      "name": "tokenURI",
      "outputs": [
        {
          "internalType": "string",
          "name": "",
          "type": "string"
        }
      ],
      "stateMutability": "view",
      "type": "function"
    },
    {
      "inputs": [
        {
          "internalType": "address",
          "name": "from",
          "type": "address"
        },
        {
          "internalType": "address",
          "name": "to",
          "type": "address"
        },
        {
          "internalType": "uint256",
          "name": "tokenId",
          "type": "uint256"
        }
      ],
      "name": "transferFrom",
      "outputs": [],
      "stateMutability": "nonpayable",
      "type": "function"
    }
  ],
  "devdoc": {
    "details": "Implementation of https://eips.ethereum.org/EIPS/eip-721[ERC721] Non-Fungible Token Standard, including the Metadata extension, but not including the Enumerable extension, which is available separately as {ERC721Enumerable}.",
    "kind": "dev",
    "methods": {
      "approve(address,uint256)": {
        "details": "See {IERC721-approve}."
      },
      "balanceOf(address)": {
        "details": "See {IERC721-balanceOf}."
      },
      "constructor": {
        "details": "Initializes the contract by setting a `name` and a `symbol` to the token collection."
      },
      "getApproved(uint256)": {
        "details": "See {IERC721-getApproved}."
      },
      "isApprovedForAll(address,address)": {
        "details": "See {IERC721-isApprovedForAll}."
      },
      "name()": {
        "details": "See {IERC721Metadata-name}."
      },
      "ownerOf(uint256)": {
        "details": "See {IERC721-ownerOf}."
      },
      "safeTransferFrom(address,address,uint256)": {
        "details": "See {IERC721-safeTransferFrom}."
      },
      "safeTransferFrom(address,address,uint256,bytes)": {
        "details": "See {IERC721-safeTransferFrom}."
      },
      "setApprovalForAll(address,bool)": {
        "details": "See {IERC721-setApprovalForAll}."
      },
      "supportsInterface(bytes4)": {
        "details": "See {IERC165-supportsInterface}."
      },
      "symbol()": {
        "details": "See {IERC721Metadata-symbol}."
      },
      "tokenURI(uint256)": {
        "details": "See {IERC721Metadata-tokenURI}."
      },
      "transferFrom(address,address,uint256)": {
        "details": "See {IERC721-transferFrom}."
      }
    },
    "version": 1
  },
  "evm": {
    "assembly": "    /* \"erc721.sol\":20564:35303  contract ERC721 is Context, ERC165, IERC721, IERC721Metadata {... */\n  mstore(0x40, 0x80)\n    /* \"erc721.sol\":21351:21467  constructor(string memory name_, string memory symbol_) {... */\n  callvalue\n  dup1\n  iszero\n  tag_1\n  jumpi\n  0x00\n  dup1\n  revert\ntag_1:\n  pop\n  mload(0x40)\n  sub(codesize, bytecodeSize)\n  dup1\n  bytecodeSize\n  dup4\n  codecopy\n  dup2\n  add\n  0x40\n  dup2\n  swap1\n  mstore\n  tag_2\n  swap2\n  tag_3\n  jump\t// in\ntag_2:\n    /* \"erc721.sol\":21418:21431  _name = name_ */\n  dup2\n  mload\n  tag_6\n  swap1\n    /* \"erc721.sol\":21418:21423  _name */\n  0x00\n  swap1\n    /* \"erc721.sol\":21418:21431  _name = name_ */\n  0x20\n  dup6\n  add\n  swap1\n  tag_7\n  jump\t// in\ntag_6:\n  pop\n    /* \"erc721.sol\":21442:21459  _symbol = symbol_ */\n  dup1\n  mload\n  tag_8\n  swap1\n    /* \"erc721.sol\":21442:21449  _symbol */\n  0x01\n  swap1\n    /* \"erc721.sol\":21442:21459  _symbol = symbol_ */\n  0x20\n  dup5\n  add\n  swap1\n  tag_7\n  jump\t// in\ntag_8:\n  pop\n    /* \"erc721.sol\":21351:21467  constructor(string memory name_, string memory symbol_) {... */\n  pop\n  pop\n    /* \"erc721.sol\":20564:35303  contract ERC721 is Context, ERC165, IERC721, IERC721Metadata {... */\n  jump(tag_23)\ntag_7:\n  dup3\n  dup1\n  sload\n  tag_10\n  swap1\n  tag_11\n  jump\t// in\ntag_10:\n  swap1\n  0x00\n  mstore\n  keccak256(0x00, 0x20)\n  swap1\n  0x1f\n  add\n  0x20\n  swap1\n  div\n  dup2\n  add\n  swap3\n  dup3\n  tag_13\n  jumpi\n  0x00\n  dup6\n  sstore\n  jump(tag_16)\ntag_13:\n  dup3\n  0x1f\n  lt\n  tag_14\n  jumpi\n  dup1\n  mload\n  not(0xff)\n  and\n  dup4\n  dup1\n  add\n  or\n  dup6\n  sstore\n  jump(tag_16)\ntag_14:\n  dup3\n  dup1\n  add\n  0x01\n  add\n  dup6\n  sstore\n  dup3\n  iszero\n  tag_16\n  jumpi\n  swap2\n  dup3\n  add\ntag_15:\n  dup3\n  dup2\n  gt\n  iszero\n  tag_16\n  jumpi\n  dup3\n  mload\n  dup3\n  sstore\n  swap2\n  0x20\n  add\n  swap2\n  swap1\n  0x01\n  add\n  swap1\n  jump(tag_15)\ntag_16:\n  pop\n  tag_17\n  swap3\n  swap2\n  pop\n  tag_18\n  jump\t// in\ntag_17:\n  pop\n  swap1\n  jump\t// out\ntag_18:\ntag_19:\n  dup1\n  dup3\n  gt\n  iszero\n  tag_17\n  jumpi\n  0x00\n  dup2\n  sstore\n  0x01\n  add\n  jump(tag_19)\n    /* \"#utility.yul\":14:141   */\ntag_21:\n    /* \"#utility.yul\":75:85   */\n  0x4e487b71\n    /* \"#utility.yul\":70:73   */\n  0xe0\n    /* \"#utility.yul\":66:86   */\n  shl\n    /* \"#utility.yul\":63:64   */\n  0x00\n    /* \"#utility.yul\":56:87   */\n  mstore\n    /* \"#utility.yul\":106:110   */\n  0x41\n    /* \"#utility.yul\":103:104   */\n  0x04\n    /* \"#utility.yul\":96:111   */\n  mstore\n    /* \"#utility.yul\":130:134   */\n  0x24\n    /* \"#utility.yul\":127:128   */\n  0x00\n    /* \"#utility.yul\":120:135   */\n  revert\n    /* \"#utility.yul\":146:1031   */\ntag_22:\n    /* \"#utility.yul\":200:205   */\n  0x00\n    /* \"#utility.yul\":253:256   */\n  dup3\n    /* \"#utility.yul\":246:250   */\n  0x1f\n    /* \"#utility.yul\":238:244   */\n  dup4\n    /* \"#utility.yul\":234:251   */\n  add\n    /* \"#utility.yul\":230:257   */\n  slt\n    /* \"#utility.yul\":220:275   */\n  tag_26\n  jumpi\n    /* \"#utility.yul\":271:272   */\n  0x00\n    /* \"#utility.yul\":268:269   */\n  dup1\n    /* \"#utility.yul\":261:273   */\n  revert\n    /* \"#utility.yul\":220:275   */\ntag_26:\n    /* \"#utility.yul\":294:307   */\n  dup2\n  mload\n  sub(shl(0x40, 0x01), 0x01)\n    /* \"#utility.yul\":356:366   */\n  dup1\n  dup3\n  gt\n    /* \"#utility.yul\":353:389   */\n  iszero\n  tag_28\n  jumpi\n    /* \"#utility.yul\":369:387   */\n  tag_28\n  tag_21\n  jump\t// in\ntag_28:\n    /* \"#utility.yul\":444:446   */\n  0x40\n    /* \"#utility.yul\":438:447   */\n  mload\n    /* \"#utility.yul\":412:414   */\n  0x1f\n    /* \"#utility.yul\":498:511   */\n  dup4\n  add\n  not(0x1f)\n    /* \"#utility.yul\":494:516   */\n  swap1\n  dup2\n  and\n    /* \"#utility.yul\":518:520   */\n  0x3f\n    /* \"#utility.yul\":490:521   */\n  add\n    /* \"#utility.yul\":486:526   */\n  and\n    /* \"#utility.yul\":474:527   */\n  dup2\n  add\n  swap1\n    /* \"#utility.yul\":542:560   */\n  dup3\n  dup3\n  gt\n    /* \"#utility.yul\":562:584   */\n  dup2\n  dup4\n  lt\n    /* \"#utility.yul\":539:585   */\n  or\n    /* \"#utility.yul\":536:608   */\n  iszero\n  tag_30\n  jumpi\n    /* \"#utility.yul\":588:606   */\n  tag_30\n  tag_21\n  jump\t// in\ntag_30:\n    /* \"#utility.yul\":628:638   */\n  dup2\n    /* \"#utility.yul\":624:626   */\n  0x40\n    /* \"#utility.yul\":617:639   */\n  mstore\n    /* \"#utility.yul\":663:665   */\n  dup4\n    /* \"#utility.yul\":655:661   */\n  dup2\n    /* \"#utility.yul\":648:666   */\n  mstore\n    /* \"#utility.yul\":685:689   */\n  0x20\n    /* \"#utility.yul\":675:689   */\n  swap3\n  pop\n    /* \"#utility.yul\":730:733   */\n  dup7\n    /* \"#utility.yul\":725:727   */\n  dup4\n    /* \"#utility.yul\":720:722   */\n  dup6\n    /* \"#utility.yul\":712:718   */\n  dup9\n    /* \"#utility.yul\":708:723   */\n  add\n    /* \"#utility.yul\":704:728   */\n  add\n    /* \"#utility.yul\":701:734   */\n  gt\n    /* \"#utility.yul\":698:751   */\n  iszero\n  tag_31\n  jumpi\n    /* \"#utility.yul\":747:748   */\n  0x00\n    /* \"#utility.yul\":744:745   */\n  dup1\n    /* \"#utility.yul\":737:749   */\n  revert\n    /* \"#utility.yul\":698:751   */\ntag_31:\n    /* \"#utility.yul\":769:770   */\n  0x00\n    /* \"#utility.yul\":760:770   */\n  swap2\n  pop\n    /* \"#utility.yul\":779:912   */\ntag_32:\n    /* \"#utility.yul\":793:795   */\n  dup4\n    /* \"#utility.yul\":790:791   */\n  dup3\n    /* \"#utility.yul\":787:796   */\n  lt\n    /* \"#utility.yul\":779:912   */\n  iszero\n  tag_34\n  jumpi\n    /* \"#utility.yul\":881:895   */\n  dup6\n  dup3\n  add\n    /* \"#utility.yul\":877:900   */\n  dup4\n  add\n    /* \"#utility.yul\":871:901   */\n  mload\n    /* \"#utility.yul\":850:864   */\n  dup2\n  dup4\n  add\n    /* \"#utility.yul\":846:869   */\n  dup5\n  add\n    /* \"#utility.yul\":839:902   */\n  mstore\n    /* \"#utility.yul\":804:814   */\n  swap1\n  dup3\n  add\n  swap1\n    /* \"#utility.yul\":779:912   */\n  jump(tag_32)\ntag_34:\n    /* \"#utility.yul\":930:932   */\n  dup4\n    /* \"#utility.yul\":927:928   */\n  dup3\n    /* \"#utility.yul\":924:933   */\n  gt\n    /* \"#utility.yul\":921:1001   */\n  iszero\n  tag_35\n  jumpi\n    /* \"#utility.yul\":989:990   */\n  0x00\n    /* \"#utility.yul\":984:986   */\n  dup4\n    /* \"#utility.yul\":979:981   */\n  dup6\n    /* \"#utility.yul\":971:977   */\n  dup4\n    /* \"#utility.yul\":967:982   */\n  add\n    /* \"#utility.yul\":963:987   */\n  add\n    /* \"#utility.yul\":956:991   */\n  mstore\n    /* \"#utility.yul\":921:1001   */\ntag_35:\n    /* \"#utility.yul\":1019:1025   */\n  swap7\n    /* \"#utility.yul\":146:1031   */\n  swap6\n  pop\n  pop\n  pop\n  pop\n  pop\n  pop\n  jump\t// out\n    /* \"#utility.yul\":1036:1598   */\ntag_3:\n    /* \"#utility.yul\":1135:1141   */\n  0x00\n    /* \"#utility.yul\":1143:1149   */\n  dup1\n    /* \"#utility.yul\":1196:1198   */\n  0x40\n    /* \"#utility.yul\":1184:1193   */\n  dup4\n    /* \"#utility.yul\":1175:1182   */\n  dup6\n    /* \"#utility.yul\":1171:1194   */\n  sub\n    /* \"#utility.yul\":1167:1199   */\n  slt\n    /* \"#utility.yul\":1164:1216   */\n  iszero\n  tag_37\n  jumpi\n    /* \"#utility.yul\":1212:1213   */\n  0x00\n    /* \"#utility.yul\":1209:1210   */\n  dup1\n    /* \"#utility.yul\":1202:1214   */\n  revert\n    /* \"#utility.yul\":1164:1216   */\ntag_37:\n    /* \"#utility.yul\":1239:1255   */\n  dup3\n  mload\n  sub(shl(0x40, 0x01), 0x01)\n    /* \"#utility.yul\":1304:1318   */\n  dup1\n  dup3\n  gt\n    /* \"#utility.yul\":1301:1335   */\n  iszero\n  tag_38\n  jumpi\n    /* \"#utility.yul\":1331:1332   */\n  0x00\n    /* \"#utility.yul\":1328:1329   */\n  dup1\n    /* \"#utility.yul\":1321:1333   */\n  revert\n    /* \"#utility.yul\":1301:1335   */\ntag_38:\n    /* \"#utility.yul\":1354:1415   */\n  tag_39\n    /* \"#utility.yul\":1407:1414   */\n  dup7\n    /* \"#utility.yul\":1398:1404   */\n  dup4\n    /* \"#utility.yul\":1387:1396   */\n  dup8\n    /* \"#utility.yul\":1383:1405   */\n  add\n    /* \"#utility.yul\":1354:1415   */\n  tag_22\n  jump\t// in\ntag_39:\n    /* \"#utility.yul\":1344:1415   */\n  swap4\n  pop\n    /* \"#utility.yul\":1461:1463   */\n  0x20\n    /* \"#utility.yul\":1450:1459   */\n  dup6\n    /* \"#utility.yul\":1446:1464   */\n  add\n    /* \"#utility.yul\":1440:1465   */\n  mload\n    /* \"#utility.yul\":1424:1465   */\n  swap2\n  pop\n    /* \"#utility.yul\":1490:1492   */\n  dup1\n    /* \"#utility.yul\":1480:1488   */\n  dup3\n    /* \"#utility.yul\":1477:1493   */\n  gt\n    /* \"#utility.yul\":1474:1510   */\n  iszero\n  tag_40\n  jumpi\n    /* \"#utility.yul\":1506:1507   */\n  0x00\n    /* \"#utility.yul\":1503:1504   */\n  dup1\n    /* \"#utility.yul\":1496:1508   */\n  revert\n    /* \"#utility.yul\":1474:1510   */\ntag_40:\n  pop\n    /* \"#utility.yul\":1529:1592   */\n  tag_41\n    /* \"#utility.yul\":1584:1591   */\n  dup6\n    /* \"#utility.yul\":1573:1581   */\n  dup3\n    /* \"#utility.yul\":1562:1571   */\n  dup7\n    /* \"#utility.yul\":1558:1582   */\n  add\n    /* \"#utility.yul\":1529:1592   */\n  tag_22\n  jump\t// in\ntag_41:\n    /* \"#utility.yul\":1519:1592   */\n  swap2\n  pop\n  pop\n    /* \"#utility.yul\":1036:1598   */\n  swap3\n  pop\n  swap3\n  swap1\n  pop\n  jump\t// out\n    /* \"#utility.yul\":1603:1983   */\ntag_11:\n    /* \"#utility.yul\":1682:1683   */\n  0x01\n    /* \"#utility.yul\":1678:1690   */\n  dup2\n  dup2\n  shr\n  swap1\n    /* \"#utility.yul\":1725:1737   */\n  dup3\n  and\n  dup1\n    /* \"#utility.yul\":1746:1807   */\n  tag_43\n  jumpi\n    /* \"#utility.yul\":1800:1804   */\n  0x7f\n    /* \"#utility.yul\":1792:1798   */\n  dup3\n    /* \"#utility.yul\":1788:1805   */\n  and\n    /* \"#utility.yul\":1778:1805   */\n  swap2\n  pop\n    /* \"#utility.yul\":1746:1807   */\ntag_43:\n    /* \"#utility.yul\":1853:1855   */\n  0x20\n    /* \"#utility.yul\":1845:1851   */\n  dup3\n    /* \"#utility.yul\":1842:1856   */\n  lt\n    /* \"#utility.yul\":1822:1840   */\n  dup2\n    /* \"#utility.yul\":1819:1857   */\n  sub\n    /* \"#utility.yul\":1816:1977   */\n  tag_44\n  jumpi\n    /* \"#utility.yul\":1899:1909   */\n  0x4e487b71\n    /* \"#utility.yul\":1894:1897   */\n  0xe0\n    /* \"#utility.yul\":1890:1910   */\n  shl\n    /* \"#utility.yul\":1887:1888   */\n  0x00\n    /* \"#utility.yul\":1880:1911   */\n  mstore\n    /* \"#utility.yul\":1934:1938   */\n  0x22\n    /* \"#utility.yul\":1931:1932   */\n  0x04\n    /* \"#utility.yul\":1924:1939   */\n  mstore\n    /* \"#utility.yul\":1962:1966   */\n  0x24\n    /* \"#utility.yul\":1959:1960   */\n  0x00\n    /* \"#utility.yul\":1952:1967   */\n  revert\n    /* \"#utility.yul\":1816:1977   */\ntag_44:\n  pop\n    /* \"#utility.yul\":1603:1983   */\n  swap2\n  swap1\n  pop\n  jump\t// out\ntag_23:\n    /* \"erc721.sol\":20564:35303  contract ERC721 is Context, ERC165, IERC721, IERC721Metadata {... */\n  dataSize(sub_0)\n  dup1\n  dataOffset(sub_0)\n  0x00\n  codecopy\n  0x00\n  return\nstop\n\nsub_0: assembly {\n        /* \"erc721.sol\":20564:35303  contract ERC721 is Context, ERC165, IERC721, IERC721Metadata {... */\n      mstore(0x40, 0x80)\n      callvalue\n      dup1\n      iszero\n      tag_1\n      jumpi\n      0x00\n      dup1\n      revert\n    tag_1:\n      pop\n      jumpi(tag_2, lt(calldatasize, 0x04))\n      shr(0xe0, calldataload(0x00))\n      dup1\n      0x42966c68\n      gt\n      tag_19\n      jumpi\n      dup1\n      0xa22cb465\n      gt\n      tag_20\n      jumpi\n      dup1\n      0xa22cb465\n      eq\n      tag_15\n      jumpi\n      dup1\n      0xb88d4fde\n      eq\n      tag_16\n      jumpi\n      dup1\n      0xc87b56dd\n      eq\n      tag_17\n      jumpi\n      dup1\n      0xe985e9c5\n      eq\n      tag_18\n      jumpi\n      0x00\n      dup1\n      revert\n    tag_20:\n      dup1\n      0x42966c68\n      eq\n      tag_11\n      jumpi\n      dup1\n      0x6352211e\n      eq\n      tag_12\n      jumpi\n      dup1\n      0x70a08231\n      eq\n      tag_13\n      jumpi\n      dup1\n      0x95d89b41\n      eq\n      tag_14\n      jumpi\n      0x00\n      dup1\n      revert\n    tag_19:\n      dup1\n      0x150b7a02\n      gt\n      tag_21\n      jumpi\n      dup1\n      0x150b7a02\n      eq\n      tag_7\n      jumpi\n      dup1\n      0x23b872dd\n      eq\n      tag_8\n      jumpi\n      dup1\n      0x40c10f19\n      eq\n      tag_9\n      jumpi\n      dup1\n      0x42842e0e\n      eq\n      tag_10\n      jumpi\n      0x00\n      dup1\n      revert\n    tag_21:\n      dup1\n      0x01ffc9a7\n      eq\n      tag_3\n      jumpi\n      dup1\n      0x06fdde03\n      eq\n      tag_4\n      jumpi\n      dup1\n      0x081812fc\n      eq\n      tag_5\n      jumpi\n      dup1\n      0x095ea7b3\n      eq\n      tag_6\n      jumpi\n    tag_2:\n      0x00\n      dup1\n      revert\n        /* \"erc721.sol\":21539:21844  function supportsInterface(bytes4 interfaceId) public view virtual override(ERC165, IERC165) returns (bool) {... */\n    tag_3:\n      tag_22\n      tag_23\n      calldatasize\n      0x04\n      tag_24\n      jump\t// in\n    tag_23:\n      tag_25\n      jump\t// in\n    tag_22:\n      mload(0x40)\n        /* \"#utility.yul\":565:579   */\n      swap1\n      iszero\n        /* \"#utility.yul\":558:580   */\n      iszero\n        /* \"#utility.yul\":540:581   */\n      dup2\n      mstore\n        /* \"#utility.yul\":528:530   */\n      0x20\n        /* \"#utility.yul\":513:531   */\n      add\n        /* \"erc721.sol\":21539:21844  function supportsInterface(bytes4 interfaceId) public view virtual override(ERC165, IERC165) returns (bool) {... */\n    tag_26:\n      mload(0x40)\n      dup1\n      swap2\n      sub\n      swap1\n      return\n        /* \"erc721.sol\":22466:22566  function name() public view virtual override returns (string memory) {... */\n    tag_4:\n      tag_28\n      tag_29\n      jump\t// in\n    tag_28:\n      mload(0x40)\n      tag_26\n      swap2\n      swap1\n      tag_31\n      jump\t// in\n        /* \"erc721.sol\":23978:24149  function getApproved(uint256 tokenId) public view virtual override returns (address) {... */\n    tag_5:\n      tag_32\n      tag_33\n      calldatasize\n      0x04\n      tag_34\n      jump\t// in\n    tag_33:\n      tag_35\n      jump\t// in\n    tag_32:\n      mload(0x40)\n      sub(shl(0xa0, 0x01), 0x01)\n        /* \"#utility.yul\":1692:1747   */\n      swap1\n      swap2\n      and\n        /* \"#utility.yul\":1674:1748   */\n      dup2\n      mstore\n        /* \"#utility.yul\":1662:1664   */\n      0x20\n        /* \"#utility.yul\":1647:1665   */\n      add\n        /* \"erc721.sol\":23978:24149  function getApproved(uint256 tokenId) public view virtual override returns (address) {... */\n      tag_26\n        /* \"#utility.yul\":1528:1754   */\n      jump\n        /* \"erc721.sol\":23496:23912  function approve(address to, uint256 tokenId) public virtual override {... */\n    tag_6:\n      tag_38\n      tag_39\n      calldatasize\n      0x04\n      tag_40\n      jump\t// in\n    tag_39:\n      tag_41\n      jump\t// in\n    tag_38:\n      stop\n        /* \"erc721.sol\":33835:34094  function onERC721Received(address from, address to, uint256, bytes memory) public virtual returns (bytes4) {... */\n    tag_7:\n      tag_42\n      tag_43\n      calldatasize\n      0x04\n      tag_44\n      jump\t// in\n    tag_43:\n      tag_45\n      jump\t// in\n    tag_42:\n      mload(0x40)\n      not(sub(shl(0xe0, 0x01), 0x01))\n        /* \"#utility.yul\":3656:3689   */\n      swap1\n      swap2\n      and\n        /* \"#utility.yul\":3638:3690   */\n      dup2\n      mstore\n        /* \"#utility.yul\":3626:3628   */\n      0x20\n        /* \"#utility.yul\":3611:3629   */\n      add\n        /* \"erc721.sol\":33835:34094  function onERC721Received(address from, address to, uint256, bytes memory) public virtual returns (bytes4) {... */\n      tag_26\n        /* \"#utility.yul\":3494:3696   */\n      jump\n        /* \"erc721.sol\":24678:25013  function transferFrom(... */\n    tag_8:\n      tag_38\n      tag_49\n      calldatasize\n      0x04\n      tag_50\n      jump\t// in\n    tag_49:\n      tag_51\n      jump\t// in\n        /* \"erc721.sol\":25670:25769  function mint(address to, uint256 tokenId) public virtual {... */\n    tag_9:\n      tag_38\n      tag_53\n      calldatasize\n      0x04\n      tag_40\n      jump\t// in\n    tag_53:\n      tag_54\n      jump\t// in\n        /* \"erc721.sol\":25084:25269  function safeTransferFrom(... */\n    tag_10:\n      tag_38\n      tag_56\n      calldatasize\n      0x04\n      tag_50\n      jump\t// in\n    tag_56:\n      tag_57\n      jump\t// in\n        /* \"erc721.sol\":25777:25856  function burn(uint256 tokenId) public virtual {... */\n    tag_11:\n      tag_38\n      tag_59\n      calldatasize\n      0x04\n      tag_34\n      jump\t// in\n    tag_59:\n      tag_60\n      jump\t// in\n        /* \"erc721.sol\":22177:22399  function ownerOf(uint256 tokenId) public view virtual override returns (address) {... */\n    tag_12:\n      tag_32\n      tag_62\n      calldatasize\n      0x04\n      tag_34\n      jump\t// in\n    tag_62:\n      tag_63\n      jump\t// in\n        /* \"erc721.sol\":21908:22115  function balanceOf(address owner) public view virtual override returns (uint256) {... */\n    tag_13:\n      tag_65\n      tag_66\n      calldatasize\n      0x04\n      tag_67\n      jump\t// in\n    tag_66:\n      tag_68\n      jump\t// in\n    tag_65:\n      mload(0x40)\n        /* \"#utility.yul\":4371:4396   */\n      swap1\n      dup2\n      mstore\n        /* \"#utility.yul\":4359:4361   */\n      0x20\n        /* \"#utility.yul\":4344:4362   */\n      add\n        /* \"erc721.sol\":21908:22115  function balanceOf(address owner) public view virtual override returns (uint256) {... */\n      tag_26\n        /* \"#utility.yul\":4225:4402   */\n      jump\n        /* \"erc721.sol\":22635:22739  function symbol() public view virtual override returns (string memory) {... */\n    tag_14:\n      tag_28\n      tag_72\n      jump\t// in\n        /* \"erc721.sol\":24221:24376  function setApprovalForAll(address operator, bool approved) public virtual override {... */\n    tag_15:\n      tag_38\n      tag_75\n      calldatasize\n      0x04\n      tag_76\n      jump\t// in\n    tag_75:\n      tag_77\n      jump\t// in\n        /* \"erc721.sol\":25340:25662  function safeTransferFrom(... */\n    tag_16:\n      tag_38\n      tag_79\n      calldatasize\n      0x04\n      tag_44\n      jump\t// in\n    tag_79:\n      tag_80\n      jump\t// in\n        /* \"erc721.sol\":22810:23091  function tokenURI(uint256 tokenId) public view virtual override returns (string memory) {... */\n    tag_17:\n      tag_28\n      tag_82\n      calldatasize\n      0x04\n      tag_34\n      jump\t// in\n    tag_82:\n      tag_83\n      jump\t// in\n        /* \"erc721.sol\":24447:24611  function isApprovedForAll(address owner, address operator) public view virtual override returns (bool) {... */\n    tag_18:\n      tag_22\n      tag_86\n      calldatasize\n      0x04\n      tag_87\n      jump\t// in\n    tag_86:\n      sub(shl(0xa0, 0x01), 0x01)\n        /* \"erc721.sol\":24568:24593  _operatorApprovals[owner] */\n      swap2\n      dup3\n      and\n        /* \"erc721.sol\":24544:24548  bool */\n      0x00\n        /* \"erc721.sol\":24568:24593  _operatorApprovals[owner] */\n      swap1\n      dup2\n      mstore\n        /* \"erc721.sol\":24568:24586  _operatorApprovals */\n      0x05\n        /* \"erc721.sol\":24568:24593  _operatorApprovals[owner] */\n      0x20\n      swap1\n      dup2\n      mstore\n      0x40\n      dup1\n      dup4\n      keccak256\n        /* \"erc721.sol\":24568:24603  _operatorApprovals[owner][operator] */\n      swap4\n      swap1\n      swap5\n      and\n      dup3\n      mstore\n      swap2\n      swap1\n      swap2\n      mstore\n      keccak256\n      sload\n      0xff\n      and\n      swap1\n        /* \"erc721.sol\":24447:24611  function isApprovedForAll(address owner, address operator) public view virtual override returns (bool) {... */\n      jump\n        /* \"erc721.sol\":21539:21844  function supportsInterface(bytes4 interfaceId) public view virtual override(ERC165, IERC165) returns (bool) {... */\n    tag_25:\n        /* \"erc721.sol\":21641:21645  bool */\n      0x00\n      not(sub(shl(0xe0, 0x01), 0x01))\n        /* \"erc721.sol\":21678:21718  interfaceId == type(IERC721).interfaceId */\n      dup3\n      and\n      shl(0xe0, 0x80ac58cd)\n      eq\n      dup1\n        /* \"erc721.sol\":21678:21783  interfaceId == type(IERC721).interfaceId ||... */\n      tag_91\n      jumpi\n      pop\n      not(sub(shl(0xe0, 0x01), 0x01))\n        /* \"erc721.sol\":21735:21783  interfaceId == type(IERC721Metadata).interfaceId */\n      dup3\n      and\n      shl(0xe0, 0x5b5e139f)\n      eq\n        /* \"erc721.sol\":21678:21783  interfaceId == type(IERC721).interfaceId ||... */\n    tag_91:\n        /* \"erc721.sol\":21678:21836  interfaceId == type(IERC721).interfaceId ||... */\n      dup1\n      tag_93\n      jumpi\n      pop\n      shl(0xe0, 0x01ffc9a7)\n      not(sub(shl(0xe0, 0x01), 0x01))\n        /* \"erc721.sol\":14931:14971  interfaceId == type(IERC165).interfaceId */\n      dup4\n      and\n      eq\n        /* \"erc721.sol\":21800:21836  super.supportsInterface(interfaceId) */\n    tag_93:\n        /* \"erc721.sol\":21658:21836  return... */\n      swap3\n        /* \"erc721.sol\":21539:21844  function supportsInterface(bytes4 interfaceId) public view virtual override(ERC165, IERC165) returns (bool) {... */\n      swap2\n      pop\n      pop\n      jump\t// out\n        /* \"erc721.sol\":22466:22566  function name() public view virtual override returns (string memory) {... */\n    tag_29:\n        /* \"erc721.sol\":22520:22533  string memory */\n      0x60\n        /* \"erc721.sol\":22553:22558  _name */\n      0x00\n        /* \"erc721.sol\":22546:22558  return _name */\n      dup1\n      sload\n      tag_96\n      swap1\n      tag_97\n      jump\t// in\n    tag_96:\n      dup1\n      0x1f\n      add\n      0x20\n      dup1\n      swap2\n      div\n      mul\n      0x20\n      add\n      mload(0x40)\n      swap1\n      dup2\n      add\n      0x40\n      mstore\n      dup1\n      swap3\n      swap2\n      swap1\n      dup2\n      dup2\n      mstore\n      0x20\n      add\n      dup3\n      dup1\n      sload\n      tag_98\n      swap1\n      tag_97\n      jump\t// in\n    tag_98:\n      dup1\n      iszero\n      tag_99\n      jumpi\n      dup1\n      0x1f\n      lt\n      tag_100\n      jumpi\n      0x0100\n      dup1\n      dup4\n      sload\n      div\n      mul\n      dup4\n      mstore\n      swap2\n      0x20\n      add\n      swap2\n      jump(tag_99)\n    tag_100:\n      dup3\n      add\n      swap2\n      swap1\n      0x00\n      mstore\n      keccak256(0x00, 0x20)\n      swap1\n    tag_101:\n      dup2\n      sload\n      dup2\n      mstore\n      swap1\n      0x01\n      add\n      swap1\n      0x20\n      add\n      dup1\n      dup4\n      gt\n      tag_101\n      jumpi\n      dup3\n      swap1\n      sub\n      0x1f\n      and\n      dup3\n      add\n      swap2\n    tag_99:\n      pop\n      pop\n      pop\n      pop\n      pop\n      swap1\n      pop\n        /* \"erc721.sol\":22466:22566  function name() public view virtual override returns (string memory) {... */\n      swap1\n      jump\t// out\n        /* \"erc721.sol\":23978:24149  function getApproved(uint256 tokenId) public view virtual override returns (address) {... */\n    tag_35:\n        /* \"erc721.sol\":24054:24061  address */\n      0x00\n        /* \"erc721.sol\":24074:24097  _requireMinted(tokenId) */\n      tag_103\n        /* \"erc721.sol\":24089:24096  tokenId */\n      dup3\n        /* \"erc721.sol\":24074:24088  _requireMinted */\n      tag_104\n        /* \"erc721.sol\":24074:24097  _requireMinted(tokenId) */\n      jump\t// in\n    tag_103:\n      pop\n        /* \"erc721.sol\":24117:24141  _tokenApprovals[tokenId] */\n      0x00\n      swap1\n      dup2\n      mstore\n        /* \"erc721.sol\":24117:24132  _tokenApprovals */\n      0x04\n        /* \"erc721.sol\":24117:24141  _tokenApprovals[tokenId] */\n      0x20\n      mstore\n      0x40\n      swap1\n      keccak256\n      sload\n      sub(shl(0xa0, 0x01), 0x01)\n      and\n      swap1\n        /* \"erc721.sol\":23978:24149  function getApproved(uint256 tokenId) public view virtual override returns (address) {... */\n      jump\t// out\n        /* \"erc721.sol\":23496:23912  function approve(address to, uint256 tokenId) public virtual override {... */\n    tag_41:\n        /* \"erc721.sol\":23577:23590  address owner */\n      0x00\n        /* \"erc721.sol\":23593:23616  ERC721.ownerOf(tokenId) */\n      tag_106\n        /* \"erc721.sol\":23608:23615  tokenId */\n      dup3\n        /* \"erc721.sol\":23593:23607  ERC721.ownerOf */\n      tag_63\n        /* \"erc721.sol\":23593:23616  ERC721.ownerOf(tokenId) */\n      jump\t// in\n    tag_106:\n        /* \"erc721.sol\":23577:23616  address owner = ERC721.ownerOf(tokenId) */\n      swap1\n      pop\n        /* \"erc721.sol\":23641:23646  owner */\n      dup1\n      sub(shl(0xa0, 0x01), 0x01)\n        /* \"erc721.sol\":23635:23646  to != owner */\n      and\n        /* \"erc721.sol\":23635:23637  to */\n      dup4\n      sub(shl(0xa0, 0x01), 0x01)\n        /* \"erc721.sol\":23635:23646  to != owner */\n      and\n      sub\n        /* \"erc721.sol\":23627:23684  require(to != owner, \"ERC721: approval to current owner\") */\n      tag_107\n      jumpi\n      mload(0x40)\n      shl(0xe5, 0x461bcd)\n      dup2\n      mstore\n        /* \"#utility.yul\":5611:5613   */\n      0x20\n        /* \"erc721.sol\":23627:23684  require(to != owner, \"ERC721: approval to current owner\") */\n      0x04\n      dup3\n      add\n        /* \"#utility.yul\":5593:5614   */\n      mstore\n        /* \"#utility.yul\":5650:5652   */\n      0x21\n        /* \"#utility.yul\":5630:5648   */\n      0x24\n      dup3\n      add\n        /* \"#utility.yul\":5623:5653   */\n      mstore\n        /* \"#utility.yul\":5689:5723   */\n      0x4552433732313a20617070726f76616c20746f2063757272656e74206f776e65\n        /* \"#utility.yul\":5669:5687   */\n      0x44\n      dup3\n      add\n        /* \"#utility.yul\":5662:5724   */\n      mstore\n      shl(0xf9, 0x39)\n        /* \"#utility.yul\":5740:5758   */\n      0x64\n      dup3\n      add\n        /* \"#utility.yul\":5733:5764   */\n      mstore\n        /* \"#utility.yul\":5781:5800   */\n      0x84\n      add\n        /* \"erc721.sol\":23627:23684  require(to != owner, \"ERC721: approval to current owner\") */\n    tag_108:\n      mload(0x40)\n      dup1\n      swap2\n      sub\n      swap1\n      revert\n    tag_107:\n        /* \"erc721.sol\":3099:3109  msg.sender */\n      caller\n      sub(shl(0xa0, 0x01), 0x01)\n        /* \"erc721.sol\":23719:23740  _msgSender() == owner */\n      dup3\n      and\n      eq\n      dup1\n        /* \"erc721.sol\":23719:23781  _msgSender() == owner || isApprovedForAll(owner, _msgSender()) */\n      tag_113\n      jumpi\n      pop\n        /* \"erc721.sol\":23744:23781  isApprovedForAll(owner, _msgSender()) */\n      tag_113\n        /* \"erc721.sol\":23761:23766  owner */\n      dup2\n        /* \"erc721.sol\":3099:3109  msg.sender */\n      caller\n        /* \"erc721.sol\":24447:24611  function isApprovedForAll(address owner, address operator) public view virtual override returns (bool) {... */\n      tag_86\n      jump\t// in\n        /* \"erc721.sol\":23744:23781  isApprovedForAll(owner, _msgSender()) */\n    tag_113:\n        /* \"erc721.sol\":23697:23870  require(... */\n      tag_115\n      jumpi\n      mload(0x40)\n      shl(0xe5, 0x461bcd)\n      dup2\n      mstore\n        /* \"#utility.yul\":6013:6015   */\n      0x20\n        /* \"erc721.sol\":23697:23870  require(... */\n      0x04\n      dup3\n      add\n        /* \"#utility.yul\":5995:6016   */\n      mstore\n        /* \"#utility.yul\":6052:6054   */\n      0x3d\n        /* \"#utility.yul\":6032:6050   */\n      0x24\n      dup3\n      add\n        /* \"#utility.yul\":6025:6055   */\n      mstore\n        /* \"#utility.yul\":6091:6125   */\n      0x4552433732313a20617070726f76652063616c6c6572206973206e6f7420746f\n        /* \"#utility.yul\":6071:6089   */\n      0x44\n      dup3\n      add\n        /* \"#utility.yul\":6064:6126   */\n      mstore\n        /* \"#utility.yul\":6162:6193   */\n      0x6b656e206f776e6572206f7220617070726f76656420666f7220616c6c000000\n        /* \"#utility.yul\":6142:6160   */\n      0x64\n      dup3\n      add\n        /* \"#utility.yul\":6135:6194   */\n      mstore\n        /* \"#utility.yul\":6211:6230   */\n      0x84\n      add\n        /* \"erc721.sol\":23697:23870  require(... */\n      tag_108\n        /* \"#utility.yul\":5811:6236   */\n      jump\n        /* \"erc721.sol\":23697:23870  require(... */\n    tag_115:\n        /* \"erc721.sol\":23883:23904  _approve(to, tokenId) */\n      tag_118\n        /* \"erc721.sol\":23892:23894  to */\n      dup4\n        /* \"erc721.sol\":23896:23903  tokenId */\n      dup4\n        /* \"erc721.sol\":23883:23891  _approve */\n      tag_119\n        /* \"erc721.sol\":23883:23904  _approve(to, tokenId) */\n      jump\t// in\n    tag_118:\n        /* \"erc721.sol\":23566:23912  {... */\n      pop\n        /* \"erc721.sol\":23496:23912  function approve(address to, uint256 tokenId) public virtual override {... */\n      pop\n      pop\n      jump\t// out\n        /* \"erc721.sol\":33835:34094  function onERC721Received(address from, address to, uint256, bytes memory) public virtual returns (bytes4) {... */\n    tag_45:\n      sub(shl(0xa0, 0x01), 0x01)\n        /* \"erc721.sol\":33953:33975  _operatorApprovals[to] */\n      dup4\n      dup2\n      and\n        /* \"erc721.sol\":33934:33940  bytes4 */\n      0x00\n        /* \"erc721.sol\":33953:33975  _operatorApprovals[to] */\n      dup2\n      dup2\n      mstore\n        /* \"erc721.sol\":33953:33971  _operatorApprovals */\n      0x05\n        /* \"erc721.sol\":33953:33975  _operatorApprovals[to] */\n      0x20\n      swap1\n      dup2\n      mstore\n      0x40\n      dup1\n      dup4\n      keccak256\n        /* \"erc721.sol\":33953:33981  _operatorApprovals[to][from] */\n      swap5\n      dup10\n      and\n      dup1\n      dup5\n      mstore\n      swap5\n      dup3\n      mstore\n      dup1\n      dup4\n      keccak256\n        /* \"erc721.sol\":33953:33988  _operatorApprovals[to][from] = true */\n      dup1\n      sload\n      not(0xff)\n      and\n        /* \"erc721.sol\":33984:33988  true */\n      0x01\n        /* \"erc721.sol\":33953:33988  _operatorApprovals[to][from] = true */\n      swap1\n      dup2\n      or\n      swap1\n      swap2\n      sstore\n        /* \"erc721.sol\":34004:34034  ApprovalForAll(to, from, true) */\n      swap1\n      mload\n        /* \"#utility.yul\":540:581   */\n      swap1\n      dup2\n      mstore\n        /* \"erc721.sol\":33934:33940  bytes4 */\n      swap2\n      swap4\n        /* \"erc721.sol\":33953:33981  _operatorApprovals[to][from] */\n      swap3\n        /* \"erc721.sol\":33953:33975  _operatorApprovals[to] */\n      swap2\n        /* \"erc721.sol\":34004:34034  ApprovalForAll(to, from, true) */\n      0x17307eab39ab6107e8899845ad3d59bd9653f200f220920489ca2b5937696c31\n      swap2\n        /* \"#utility.yul\":513:531   */\n      add\n        /* \"erc721.sol\":34004:34034  ApprovalForAll(to, from, true) */\n      mload(0x40)\n      dup1\n      swap2\n      sub\n      swap1\n      log3\n      pop\n      shl(0xe1, 0x0a85bd01)\n        /* \"erc721.sol\":33835:34094  function onERC721Received(address from, address to, uint256, bytes memory) public virtual returns (bytes4) {... */\n    tag_120:\n      swap5\n      swap4\n      pop\n      pop\n      pop\n      pop\n      jump\t// out\n        /* \"erc721.sol\":24678:25013  function transferFrom(... */\n    tag_51:\n        /* \"erc721.sol\":24873:24914  _isApprovedOrOwner(_msgSender(), tokenId) */\n      tag_123\n        /* \"erc721.sol\":3099:3109  msg.sender */\n      caller\n        /* \"erc721.sol\":24906:24913  tokenId */\n      dup3\n        /* \"erc721.sol\":24873:24891  _isApprovedOrOwner */\n      tag_125\n        /* \"erc721.sol\":24873:24914  _isApprovedOrOwner(_msgSender(), tokenId) */\n      jump\t// in\n    tag_123:\n        /* \"erc721.sol\":24865:24964  require(_isApprovedOrOwner(_msgSender(), tokenId), \"ERC721: caller is not token owner or approved\") */\n      tag_126\n      jumpi\n      mload(0x40)\n      shl(0xe5, 0x461bcd)\n      dup2\n      mstore\n        /* \"#utility.yul\":6443:6445   */\n      0x20\n        /* \"erc721.sol\":24865:24964  require(_isApprovedOrOwner(_msgSender(), tokenId), \"ERC721: caller is not token owner or approved\") */\n      0x04\n      dup3\n      add\n        /* \"#utility.yul\":6425:6446   */\n      mstore\n        /* \"#utility.yul\":6482:6484   */\n      0x2d\n        /* \"#utility.yul\":6462:6480   */\n      0x24\n      dup3\n      add\n        /* \"#utility.yul\":6455:6485   */\n      mstore\n        /* \"#utility.yul\":6521:6555   */\n      0x4552433732313a2063616c6c6572206973206e6f7420746f6b656e206f776e65\n        /* \"#utility.yul\":6501:6519   */\n      0x44\n      dup3\n      add\n        /* \"#utility.yul\":6494:6556   */\n      mstore\n      shl(0x9a, 0x1c881bdc88185c1c1c9bdd9959)\n        /* \"#utility.yul\":6572:6590   */\n      0x64\n      dup3\n      add\n        /* \"#utility.yul\":6565:6608   */\n      mstore\n        /* \"#utility.yul\":6625:6644   */\n      0x84\n      add\n        /* \"erc721.sol\":24865:24964  require(_isApprovedOrOwner(_msgSender(), tokenId), \"ERC721: caller is not token owner or approved\") */\n      tag_108\n        /* \"#utility.yul\":6241:6650   */\n      jump\n        /* \"erc721.sol\":24865:24964  require(_isApprovedOrOwner(_msgSender(), tokenId), \"ERC721: caller is not token owner or approved\") */\n    tag_126:\n        /* \"erc721.sol\":24977:25005  _transfer(from, to, tokenId) */\n      tag_118\n        /* \"erc721.sol\":24987:24991  from */\n      dup4\n        /* \"erc721.sol\":24993:24995  to */\n      dup4\n        /* \"erc721.sol\":24997:25004  tokenId */\n      dup4\n        /* \"erc721.sol\":24977:24986  _transfer */\n      tag_130\n        /* \"erc721.sol\":24977:25005  _transfer(from, to, tokenId) */\n      jump\t// in\n        /* \"erc721.sol\":25670:25769  function mint(address to, uint256 tokenId) public virtual {... */\n    tag_54:\n        /* \"erc721.sol\":25739:25761  _safeMint(to, tokenId) */\n      tag_132\n        /* \"erc721.sol\":25749:25751  to */\n      dup3\n        /* \"erc721.sol\":25753:25760  tokenId */\n      dup3\n        /* \"erc721.sol\":25739:25748  _safeMint */\n      tag_133\n        /* \"erc721.sol\":25739:25761  _safeMint(to, tokenId) */\n      jump\t// in\n    tag_132:\n        /* \"erc721.sol\":25670:25769  function mint(address to, uint256 tokenId) public virtual {... */\n      pop\n      pop\n      jump\t// out\n        /* \"erc721.sol\":25084:25269  function safeTransferFrom(... */\n    tag_57:\n        /* \"erc721.sol\":25222:25261  safeTransferFrom(from, to, tokenId, \"\") */\n      tag_118\n        /* \"erc721.sol\":25239:25243  from */\n      dup4\n        /* \"erc721.sol\":25245:25247  to */\n      dup4\n        /* \"erc721.sol\":25249:25256  tokenId */\n      dup4\n        /* \"erc721.sol\":25222:25261  safeTransferFrom(from, to, tokenId, \"\") */\n      mload(0x40)\n      dup1\n      0x20\n      add\n      0x40\n      mstore\n      dup1\n      0x00\n      dup2\n      mstore\n      pop\n        /* \"erc721.sol\":25222:25238  safeTransferFrom */\n      tag_80\n        /* \"erc721.sol\":25222:25261  safeTransferFrom(from, to, tokenId, \"\") */\n      jump\t// in\n        /* \"erc721.sol\":25777:25856  function burn(uint256 tokenId) public virtual {... */\n    tag_60:\n        /* \"erc721.sol\":25834:25848  _burn(tokenId) */\n      tag_137\n        /* \"erc721.sol\":25840:25847  tokenId */\n      dup2\n        /* \"erc721.sol\":25834:25839  _burn */\n      tag_138\n        /* \"erc721.sol\":25834:25848  _burn(tokenId) */\n      jump\t// in\n    tag_137:\n        /* \"erc721.sol\":25777:25856  function burn(uint256 tokenId) public virtual {... */\n      pop\n      jump\t// out\n        /* \"erc721.sol\":22177:22399  function ownerOf(uint256 tokenId) public view virtual override returns (address) {... */\n    tag_63:\n        /* \"erc721.sol\":22249:22256  address */\n      0x00\n        /* \"erc721.sol\":22285:22301  _owners[tokenId] */\n      dup2\n      dup2\n      mstore\n        /* \"erc721.sol\":22285:22292  _owners */\n      0x02\n        /* \"erc721.sol\":22285:22301  _owners[tokenId] */\n      0x20\n      mstore\n      0x40\n      dup2\n      keccak256\n      sload\n      sub(shl(0xa0, 0x01), 0x01)\n      and\n      dup1\n        /* \"erc721.sol\":22312:22368  require(owner != address(0), \"ERC721: invalid token ID\") */\n      tag_93\n      jumpi\n      mload(0x40)\n      shl(0xe5, 0x461bcd)\n      dup2\n      mstore\n        /* \"#utility.yul\":6857:6859   */\n      0x20\n        /* \"erc721.sol\":22312:22368  require(owner != address(0), \"ERC721: invalid token ID\") */\n      0x04\n      dup3\n      add\n        /* \"#utility.yul\":6839:6860   */\n      mstore\n        /* \"#utility.yul\":6896:6898   */\n      0x18\n        /* \"#utility.yul\":6876:6894   */\n      0x24\n      dup3\n      add\n        /* \"#utility.yul\":6869:6899   */\n      mstore\n        /* \"#utility.yul\":6935:6961   */\n      0x4552433732313a20696e76616c696420746f6b656e2049440000000000000000\n        /* \"#utility.yul\":6915:6933   */\n      0x44\n      dup3\n      add\n        /* \"#utility.yul\":6908:6962   */\n      mstore\n        /* \"#utility.yul\":6979:6997   */\n      0x64\n      add\n        /* \"erc721.sol\":22312:22368  require(owner != address(0), \"ERC721: invalid token ID\") */\n      tag_108\n        /* \"#utility.yul\":6655:7003   */\n      jump\n        /* \"erc721.sol\":21908:22115  function balanceOf(address owner) public view virtual override returns (uint256) {... */\n    tag_68:\n        /* \"erc721.sol\":21980:21987  uint256 */\n      0x00\n      sub(shl(0xa0, 0x01), 0x01)\n        /* \"erc721.sol\":22008:22027  owner != address(0) */\n      dup3\n      and\n        /* \"erc721.sol\":22000:22073  require(owner != address(0), \"ERC721: address zero is not a valid owner\") */\n      tag_144\n      jumpi\n      mload(0x40)\n      shl(0xe5, 0x461bcd)\n      dup2\n      mstore\n        /* \"#utility.yul\":7210:7212   */\n      0x20\n        /* \"erc721.sol\":22000:22073  require(owner != address(0), \"ERC721: address zero is not a valid owner\") */\n      0x04\n      dup3\n      add\n        /* \"#utility.yul\":7192:7213   */\n      mstore\n        /* \"#utility.yul\":7249:7251   */\n      0x29\n        /* \"#utility.yul\":7229:7247   */\n      0x24\n      dup3\n      add\n        /* \"#utility.yul\":7222:7252   */\n      mstore\n        /* \"#utility.yul\":7288:7322   */\n      0x4552433732313a2061646472657373207a65726f206973206e6f742061207661\n        /* \"#utility.yul\":7268:7286   */\n      0x44\n      dup3\n      add\n        /* \"#utility.yul\":7261:7323   */\n      mstore\n        /* \"#utility.yul\":7359:7370   */\n      0x6c6964206f776e65720000000000000000000000000000000000000000000000\n        /* \"#utility.yul\":7339:7357   */\n      0x64\n      dup3\n      add\n        /* \"#utility.yul\":7332:7371   */\n      mstore\n        /* \"#utility.yul\":7388:7407   */\n      0x84\n      add\n        /* \"erc721.sol\":22000:22073  require(owner != address(0), \"ERC721: address zero is not a valid owner\") */\n      tag_108\n        /* \"#utility.yul\":7008:7413   */\n      jump\n        /* \"erc721.sol\":22000:22073  require(owner != address(0), \"ERC721: address zero is not a valid owner\") */\n    tag_144:\n      pop\n      sub(shl(0xa0, 0x01), 0x01)\n        /* \"erc721.sol\":22091:22107  _balances[owner] */\n      and\n      0x00\n      swap1\n      dup2\n      mstore\n        /* \"erc721.sol\":22091:22100  _balances */\n      0x03\n        /* \"erc721.sol\":22091:22107  _balances[owner] */\n      0x20\n      mstore\n      0x40\n      swap1\n      keccak256\n      sload\n      swap1\n        /* \"erc721.sol\":21908:22115  function balanceOf(address owner) public view virtual override returns (uint256) {... */\n      jump\t// out\n        /* \"erc721.sol\":22635:22739  function symbol() public view virtual override returns (string memory) {... */\n    tag_72:\n        /* \"erc721.sol\":22691:22704  string memory */\n      0x60\n        /* \"erc721.sol\":22724:22731  _symbol */\n      0x01\n        /* \"erc721.sol\":22717:22731  return _symbol */\n      dup1\n      sload\n      tag_96\n      swap1\n      tag_97\n      jump\t// in\n        /* \"erc721.sol\":24221:24376  function setApprovalForAll(address operator, bool approved) public virtual override {... */\n    tag_77:\n        /* \"erc721.sol\":24316:24368  _setApprovalForAll(_msgSender(), operator, approved) */\n      tag_132\n        /* \"erc721.sol\":3099:3109  msg.sender */\n      caller\n        /* \"erc721.sol\":24349:24357  operator */\n      dup4\n        /* \"erc721.sol\":24359:24367  approved */\n      dup4\n        /* \"erc721.sol\":24316:24334  _setApprovalForAll */\n      tag_156\n        /* \"erc721.sol\":24316:24368  _setApprovalForAll(_msgSender(), operator, approved) */\n      jump\t// in\n        /* \"erc721.sol\":25340:25662  function safeTransferFrom(... */\n    tag_80:\n        /* \"erc721.sol\":25514:25555  _isApprovedOrOwner(_msgSender(), tokenId) */\n      tag_158\n        /* \"erc721.sol\":3099:3109  msg.sender */\n      caller\n        /* \"erc721.sol\":25547:25554  tokenId */\n      dup4\n        /* \"erc721.sol\":25514:25532  _isApprovedOrOwner */\n      tag_125\n        /* \"erc721.sol\":25514:25555  _isApprovedOrOwner(_msgSender(), tokenId) */\n      jump\t// in\n    tag_158:\n        /* \"erc721.sol\":25506:25605  require(_isApprovedOrOwner(_msgSender(), tokenId), \"ERC721: caller is not token owner or approved\") */\n      tag_160\n      jumpi\n      mload(0x40)\n      shl(0xe5, 0x461bcd)\n      dup2\n      mstore\n        /* \"#utility.yul\":6443:6445   */\n      0x20\n        /* \"erc721.sol\":25506:25605  require(_isApprovedOrOwner(_msgSender(), tokenId), \"ERC721: caller is not token owner or approved\") */\n      0x04\n      dup3\n      add\n        /* \"#utility.yul\":6425:6446   */\n      mstore\n        /* \"#utility.yul\":6482:6484   */\n      0x2d\n        /* \"#utility.yul\":6462:6480   */\n      0x24\n      dup3\n      add\n        /* \"#utility.yul\":6455:6485   */\n      mstore\n        /* \"#utility.yul\":6521:6555   */\n      0x4552433732313a2063616c6c6572206973206e6f7420746f6b656e206f776e65\n        /* \"#utility.yul\":6501:6519   */\n      0x44\n      dup3\n      add\n        /* \"#utility.yul\":6494:6556   */\n      mstore\n      shl(0x9a, 0x1c881bdc88185c1c1c9bdd9959)\n        /* \"#utility.yul\":6572:6590   */\n      0x64\n      dup3\n      add\n        /* \"#utility.yul\":6565:6608   */\n      mstore\n        /* \"#utility.yul\":6625:6644   */\n      0x84\n      add\n        /* \"erc721.sol\":25506:25605  require(_isApprovedOrOwner(_msgSender(), tokenId), \"ERC721: caller is not token owner or approved\") */\n      tag_108\n        /* \"#utility.yul\":6241:6650   */\n      jump\n        /* \"erc721.sol\":25506:25605  require(_isApprovedOrOwner(_msgSender(), tokenId), \"ERC721: caller is not token owner or approved\") */\n    tag_160:\n        /* \"erc721.sol\":25616:25654  _safeTransfer(from, to, tokenId, data) */\n      tag_162\n        /* \"erc721.sol\":25630:25634  from */\n      dup5\n        /* \"erc721.sol\":25636:25638  to */\n      dup5\n        /* \"erc721.sol\":25640:25647  tokenId */\n      dup5\n        /* \"erc721.sol\":25649:25653  data */\n      dup5\n        /* \"erc721.sol\":25616:25629  _safeTransfer */\n      tag_163\n        /* \"erc721.sol\":25616:25654  _safeTransfer(from, to, tokenId, data) */\n      jump\t// in\n    tag_162:\n        /* \"erc721.sol\":25340:25662  function safeTransferFrom(... */\n      pop\n      pop\n      pop\n      pop\n      jump\t// out\n        /* \"erc721.sol\":22810:23091  function tokenURI(uint256 tokenId) public view virtual override returns (string memory) {... */\n    tag_83:\n        /* \"erc721.sol\":22883:22896  string memory */\n      0x60\n        /* \"erc721.sol\":22909:22932  _requireMinted(tokenId) */\n      tag_165\n        /* \"erc721.sol\":22924:22931  tokenId */\n      dup3\n        /* \"erc721.sol\":22909:22923  _requireMinted */\n      tag_104\n        /* \"erc721.sol\":22909:22932  _requireMinted(tokenId) */\n      jump\t// in\n    tag_165:\n        /* \"erc721.sol\":22945:22966  string memory baseURI */\n      0x00\n        /* \"erc721.sol\":22969:22979  _baseURI() */\n      tag_166\n        /* \"erc721.sol\":23417:23426  return \"\" */\n      0x40\n      dup1\n      mload\n      0x20\n      dup2\n      add\n      swap1\n      swap2\n      mstore\n      0x00\n      dup2\n      mstore\n      swap1\n        /* \"erc721.sol\":23340:23434  function _baseURI() internal view virtual returns (string memory) {... */\n      jump\n        /* \"erc721.sol\":22969:22979  _baseURI() */\n    tag_166:\n        /* \"erc721.sol\":22945:22979  string memory baseURI = _baseURI() */\n      swap1\n      pop\n        /* \"erc721.sol\":23021:23022  0 */\n      0x00\n        /* \"erc721.sol\":23003:23010  baseURI */\n      dup2\n        /* \"erc721.sol\":22997:23018  bytes(baseURI).length */\n      mload\n        /* \"erc721.sol\":22997:23022  bytes(baseURI).length > 0 */\n      gt\n        /* \"erc721.sol\":22997:23083  bytes(baseURI).length > 0 ? string(abi.encodePacked(baseURI, tokenId.toString())) : \"\" */\n      tag_168\n      jumpi\n      mload(0x40)\n      dup1\n      0x20\n      add\n      0x40\n      mstore\n      dup1\n      0x00\n      dup2\n      mstore\n      pop\n      jump(tag_169)\n    tag_168:\n        /* \"erc721.sol\":23049:23056  baseURI */\n      dup1\n        /* \"erc721.sol\":23058:23076  tokenId.toString() */\n      tag_170\n        /* \"erc721.sol\":23058:23065  tokenId */\n      dup5\n        /* \"erc721.sol\":23058:23074  tokenId.toString */\n      tag_171\n        /* \"erc721.sol\":23058:23076  tokenId.toString() */\n      jump\t// in\n    tag_170:\n        /* \"erc721.sol\":23032:23077  abi.encodePacked(baseURI, tokenId.toString()) */\n      add(0x20, mload(0x40))\n      tag_172\n      swap3\n      swap2\n      swap1\n      tag_173\n      jump\t// in\n    tag_172:\n      mload(0x40)\n      0x20\n      dup2\n      dup4\n      sub\n      sub\n      dup2\n      mstore\n      swap1\n      0x40\n      mstore\n        /* \"erc721.sol\":22997:23083  bytes(baseURI).length > 0 ? string(abi.encodePacked(baseURI, tokenId.toString())) : \"\" */\n    tag_169:\n        /* \"erc721.sol\":22990:23083  return bytes(baseURI).length > 0 ? string(abi.encodePacked(baseURI, tokenId.toString())) : \"\" */\n      swap4\n        /* \"erc721.sol\":22810:23091  function tokenURI(uint256 tokenId) public view virtual override returns (string memory) {... */\n      swap3\n      pop\n      pop\n      pop\n      jump\t// out\n        /* \"erc721.sol\":32265:32400  function _requireMinted(uint256 tokenId) internal view virtual {... */\n    tag_104:\n        /* \"erc721.sol\":27428:27432  bool */\n      0x00\n        /* \"erc721.sol\":27452:27468  _owners[tokenId] */\n      dup2\n      dup2\n      mstore\n        /* \"erc721.sol\":27452:27459  _owners */\n      0x02\n        /* \"erc721.sol\":27452:27468  _owners[tokenId] */\n      0x20\n      mstore\n      0x40\n      swap1\n      keccak256\n      sload\n      sub(shl(0xa0, 0x01), 0x01)\n      and\n        /* \"erc721.sol\":32339:32392  require(_exists(tokenId), \"ERC721: invalid token ID\") */\n      tag_137\n      jumpi\n      mload(0x40)\n      shl(0xe5, 0x461bcd)\n      dup2\n      mstore\n        /* \"#utility.yul\":6857:6859   */\n      0x20\n        /* \"erc721.sol\":32339:32392  require(_exists(tokenId), \"ERC721: invalid token ID\") */\n      0x04\n      dup3\n      add\n        /* \"#utility.yul\":6839:6860   */\n      mstore\n        /* \"#utility.yul\":6896:6898   */\n      0x18\n        /* \"#utility.yul\":6876:6894   */\n      0x24\n      dup3\n      add\n        /* \"#utility.yul\":6869:6899   */\n      mstore\n        /* \"#utility.yul\":6935:6961   */\n      0x4552433732313a20696e76616c696420746f6b656e2049440000000000000000\n        /* \"#utility.yul\":6915:6933   */\n      0x44\n      dup3\n      add\n        /* \"#utility.yul\":6908:6962   */\n      mstore\n        /* \"#utility.yul\":6979:6997   */\n      0x64\n      add\n        /* \"erc721.sol\":32339:32392  require(_exists(tokenId), \"ERC721: invalid token ID\") */\n      tag_108\n        /* \"#utility.yul\":6655:7003   */\n      jump\n        /* \"erc721.sol\":31544:31718  function _approve(address to, uint256 tokenId) internal virtual {... */\n    tag_119:\n        /* \"erc721.sol\":31619:31643  _tokenApprovals[tokenId] */\n      0x00\n      dup2\n      dup2\n      mstore\n        /* \"erc721.sol\":31619:31634  _tokenApprovals */\n      0x04\n        /* \"erc721.sol\":31619:31643  _tokenApprovals[tokenId] */\n      0x20\n      mstore\n      0x40\n      swap1\n      keccak256\n        /* \"erc721.sol\":31619:31648  _tokenApprovals[tokenId] = to */\n      dup1\n      sload\n      not(sub(shl(0xa0, 0x01), 0x01))\n      and\n      sub(shl(0xa0, 0x01), 0x01)\n      dup5\n      and\n      swap1\n      dup2\n      or\n      swap1\n      swap2\n      sstore\n        /* \"erc721.sol\":31619:31643  _tokenApprovals[tokenId] */\n      dup2\n      swap1\n        /* \"erc721.sol\":31673:31696  ERC721.ownerOf(tokenId) */\n      tag_183\n        /* \"erc721.sol\":31619:31643  _tokenApprovals[tokenId] */\n      dup3\n        /* \"erc721.sol\":31673:31687  ERC721.ownerOf */\n      tag_63\n        /* \"erc721.sol\":31673:31696  ERC721.ownerOf(tokenId) */\n      jump\t// in\n    tag_183:\n      sub(shl(0xa0, 0x01), 0x01)\n        /* \"erc721.sol\":31664:31710  Approval(ERC721.ownerOf(tokenId), to, tokenId) */\n      and\n      0x8c5be1e5ebec7d5bd14f71427d1e84f3dd0314c0f7b2291e5b200ac8c7c3b925\n      mload(0x40)\n      mload(0x40)\n      dup1\n      swap2\n      sub\n      swap1\n      log4\n        /* \"erc721.sol\":31544:31718  function _approve(address to, uint256 tokenId) internal virtual {... */\n      pop\n      pop\n      jump\t// out\n        /* \"erc721.sol\":27657:27921  function _isApprovedOrOwner(address spender, uint256 tokenId) internal view virtual returns (bool) {... */\n    tag_125:\n        /* \"erc721.sol\":27750:27754  bool */\n      0x00\n        /* \"erc721.sol\":27767:27780  address owner */\n      dup1\n        /* \"erc721.sol\":27783:27806  ERC721.ownerOf(tokenId) */\n      tag_185\n        /* \"erc721.sol\":27798:27805  tokenId */\n      dup4\n        /* \"erc721.sol\":27783:27797  ERC721.ownerOf */\n      tag_63\n        /* \"erc721.sol\":27783:27806  ERC721.ownerOf(tokenId) */\n      jump\t// in\n    tag_185:\n        /* \"erc721.sol\":27767:27806  address owner = ERC721.ownerOf(tokenId) */\n      swap1\n      pop\n        /* \"erc721.sol\":27836:27841  owner */\n      dup1\n      sub(shl(0xa0, 0x01), 0x01)\n        /* \"erc721.sol\":27825:27841  spender == owner */\n      and\n        /* \"erc721.sol\":27825:27832  spender */\n      dup5\n      sub(shl(0xa0, 0x01), 0x01)\n        /* \"erc721.sol\":27825:27841  spender == owner */\n      and\n      eq\n        /* \"erc721.sol\":27825:27877  spender == owner || isApprovedForAll(owner, spender) */\n      dup1\n      tag_187\n      jumpi\n      pop\n      sub(shl(0xa0, 0x01), 0x01)\n        /* \"erc721.sol\":24568:24593  _operatorApprovals[owner] */\n      dup1\n      dup3\n      and\n        /* \"erc721.sol\":24544:24548  bool */\n      0x00\n        /* \"erc721.sol\":24568:24593  _operatorApprovals[owner] */\n      swap1\n      dup2\n      mstore\n        /* \"erc721.sol\":24568:24586  _operatorApprovals */\n      0x05\n        /* \"erc721.sol\":24568:24593  _operatorApprovals[owner] */\n      0x20\n      swap1\n      dup2\n      mstore\n      0x40\n      dup1\n      dup4\n      keccak256\n        /* \"erc721.sol\":24568:24603  _operatorApprovals[owner][operator] */\n      swap4\n      dup9\n      and\n      dup4\n      mstore\n      swap3\n      swap1\n      mstore\n      keccak256\n      sload\n      0xff\n      and\n        /* \"erc721.sol\":27845:27877  isApprovedForAll(owner, spender) */\n    tag_187:\n        /* \"erc721.sol\":27825:27912  spender == owner || isApprovedForAll(owner, spender) || getApproved(tokenId) == spender */\n      dup1\n      tag_120\n      jumpi\n      pop\n        /* \"erc721.sol\":27905:27912  spender */\n      dup4\n      sub(shl(0xa0, 0x01), 0x01)\n        /* \"erc721.sol\":27881:27912  getApproved(tokenId) == spender */\n      and\n        /* \"erc721.sol\":27881:27901  getApproved(tokenId) */\n      tag_189\n        /* \"erc721.sol\":27893:27900  tokenId */\n      dup5\n        /* \"erc721.sol\":27881:27892  getApproved */\n      tag_35\n        /* \"erc721.sol\":27881:27901  getApproved(tokenId) */\n      jump\t// in\n    tag_189:\n      sub(shl(0xa0, 0x01), 0x01)\n        /* \"erc721.sol\":27881:27912  getApproved(tokenId) == spender */\n      and\n      eq\n        /* \"erc721.sol\":27817:27913  return (spender == owner || isApprovedForAll(owner, spender) || getApproved(tokenId) == spender) */\n      swap5\n        /* \"erc721.sol\":27657:27921  function _isApprovedOrOwner(address spender, uint256 tokenId) internal view virtual returns (bool) {... */\n      swap4\n      pop\n      pop\n      pop\n      pop\n      jump\t// out\n        /* \"erc721.sol\":30798:31425  function _transfer(... */\n    tag_130:\n        /* \"erc721.sol\":30957:30961  from */\n      dup3\n      sub(shl(0xa0, 0x01), 0x01)\n        /* \"erc721.sol\":30930:30961  ERC721.ownerOf(tokenId) == from */\n      and\n        /* \"erc721.sol\":30930:30953  ERC721.ownerOf(tokenId) */\n      tag_191\n        /* \"erc721.sol\":30945:30952  tokenId */\n      dup3\n        /* \"erc721.sol\":30930:30944  ERC721.ownerOf */\n      tag_63\n        /* \"erc721.sol\":30930:30953  ERC721.ownerOf(tokenId) */\n      jump\t// in\n    tag_191:\n      sub(shl(0xa0, 0x01), 0x01)\n        /* \"erc721.sol\":30930:30961  ERC721.ownerOf(tokenId) == from */\n      and\n      eq\n        /* \"erc721.sol\":30922:31003  require(ERC721.ownerOf(tokenId) == from, \"ERC721: transfer from incorrect owner\") */\n      tag_192\n      jumpi\n      mload(0x40)\n      shl(0xe5, 0x461bcd)\n      dup2\n      mstore\n        /* \"#utility.yul\":8095:8097   */\n      0x20\n        /* \"erc721.sol\":30922:31003  require(ERC721.ownerOf(tokenId) == from, \"ERC721: transfer from incorrect owner\") */\n      0x04\n      dup3\n      add\n        /* \"#utility.yul\":8077:8098   */\n      mstore\n        /* \"#utility.yul\":8134:8136   */\n      0x25\n        /* \"#utility.yul\":8114:8132   */\n      0x24\n      dup3\n      add\n        /* \"#utility.yul\":8107:8137   */\n      mstore\n        /* \"#utility.yul\":8173:8207   */\n      0x4552433732313a207472616e736665722066726f6d20696e636f727265637420\n        /* \"#utility.yul\":8153:8171   */\n      0x44\n      dup3\n      add\n        /* \"#utility.yul\":8146:8208   */\n      mstore\n        /* \"#utility.yul\":8244:8251   */\n      0x6f776e6572000000000000000000000000000000000000000000000000000000\n        /* \"#utility.yul\":8224:8242   */\n      0x64\n      dup3\n      add\n        /* \"#utility.yul\":8217:8252   */\n      mstore\n        /* \"#utility.yul\":8269:8288   */\n      0x84\n      add\n        /* \"erc721.sol\":30922:31003  require(ERC721.ownerOf(tokenId) == from, \"ERC721: transfer from incorrect owner\") */\n      tag_108\n        /* \"#utility.yul\":7893:8294   */\n      jump\n        /* \"erc721.sol\":30922:31003  require(ERC721.ownerOf(tokenId) == from, \"ERC721: transfer from incorrect owner\") */\n    tag_192:\n      sub(shl(0xa0, 0x01), 0x01)\n        /* \"erc721.sol\":31022:31038  to != address(0) */\n      dup3\n      and\n        /* \"erc721.sol\":31014:31079  require(to != address(0), \"ERC721: transfer to the zero address\") */\n      tag_195\n      jumpi\n      mload(0x40)\n      shl(0xe5, 0x461bcd)\n      dup2\n      mstore\n        /* \"#utility.yul\":8501:8503   */\n      0x20\n        /* \"erc721.sol\":31014:31079  require(to != address(0), \"ERC721: transfer to the zero address\") */\n      0x04\n      dup3\n      add\n        /* \"#utility.yul\":8483:8504   */\n      mstore\n        /* \"#utility.yul\":8540:8542   */\n      0x24\n        /* \"#utility.yul\":8520:8538   */\n      dup1\n      dup3\n      add\n        /* \"#utility.yul\":8513:8543   */\n      mstore\n        /* \"#utility.yul\":8579:8613   */\n      0x4552433732313a207472616e7366657220746f20746865207a65726f20616464\n        /* \"#utility.yul\":8559:8577   */\n      0x44\n      dup3\n      add\n        /* \"#utility.yul\":8552:8614   */\n      mstore\n      shl(0xe0, 0x72657373)\n        /* \"#utility.yul\":8630:8648   */\n      0x64\n      dup3\n      add\n        /* \"#utility.yul\":8623:8657   */\n      mstore\n        /* \"#utility.yul\":8674:8693   */\n      0x84\n      add\n        /* \"erc721.sol\":31014:31079  require(to != address(0), \"ERC721: transfer to the zero address\") */\n      tag_108\n        /* \"#utility.yul\":8299:8699   */\n      jump\n        /* \"erc721.sol\":31014:31079  require(to != address(0), \"ERC721: transfer to the zero address\") */\n    tag_195:\n        /* \"erc721.sol\":31203:31227  _tokenApprovals[tokenId] */\n      0x00\n      dup2\n      dup2\n      mstore\n        /* \"erc721.sol\":31203:31218  _tokenApprovals */\n      0x04\n        /* \"erc721.sol\":31203:31227  _tokenApprovals[tokenId] */\n      0x20\n      swap1\n      dup2\n      mstore\n      0x40\n      dup1\n      dup4\n      keccak256\n        /* \"erc721.sol\":31196:31227  delete _tokenApprovals[tokenId] */\n      dup1\n      sload\n      not(sub(shl(0xa0, 0x01), 0x01))\n      and\n      swap1\n      sstore\n      sub(shl(0xa0, 0x01), 0x01)\n        /* \"erc721.sol\":31240:31255  _balances[from] */\n      dup7\n      and\n      dup4\n      mstore\n        /* \"erc721.sol\":31240:31249  _balances */\n      0x03\n        /* \"erc721.sol\":31240:31255  _balances[from] */\n      swap1\n      swap2\n      mstore\n      dup2\n      keccak256\n        /* \"erc721.sol\":31240:31260  _balances[from] -= 1 */\n      dup1\n      sload\n        /* \"erc721.sol\":31196:31227  delete _tokenApprovals[tokenId] */\n      0x01\n      swap3\n        /* \"erc721.sol\":31203:31227  _tokenApprovals[tokenId] */\n      swap1\n        /* \"erc721.sol\":31240:31260  _balances[from] -= 1 */\n      tag_200\n      swap1\n        /* \"erc721.sol\":31196:31227  delete _tokenApprovals[tokenId] */\n      dup5\n      swap1\n        /* \"erc721.sol\":31240:31260  _balances[from] -= 1 */\n      tag_201\n      jump\t// in\n    tag_200:\n      swap1\n      swap2\n      sstore\n      pop\n      pop\n      sub(shl(0xa0, 0x01), 0x01)\n        /* \"erc721.sol\":31271:31284  _balances[to] */\n      dup3\n      and\n      0x00\n      swap1\n      dup2\n      mstore\n        /* \"erc721.sol\":31271:31280  _balances */\n      0x03\n        /* \"erc721.sol\":31271:31284  _balances[to] */\n      0x20\n      mstore\n      0x40\n      dup2\n      keccak256\n        /* \"erc721.sol\":31271:31289  _balances[to] += 1 */\n      dup1\n      sload\n        /* \"erc721.sol\":31288:31289  1 */\n      0x01\n      swap3\n        /* \"erc721.sol\":31271:31284  _balances[to] */\n      swap1\n        /* \"erc721.sol\":31271:31289  _balances[to] += 1 */\n      tag_202\n      swap1\n        /* \"erc721.sol\":31288:31289  1 */\n      dup5\n      swap1\n        /* \"erc721.sol\":31271:31289  _balances[to] += 1 */\n      tag_203\n      jump\t// in\n    tag_202:\n      swap1\n      swap2\n      sstore\n      pop\n      pop\n        /* \"erc721.sol\":31300:31316  _owners[tokenId] */\n      0x00\n      dup2\n      dup2\n      mstore\n        /* \"erc721.sol\":31300:31307  _owners */\n      0x02\n        /* \"erc721.sol\":31300:31316  _owners[tokenId] */\n      0x20\n      mstore\n      0x40\n      dup1\n      dup3\n      keccak256\n        /* \"erc721.sol\":31300:31321  _owners[tokenId] = to */\n      dup1\n      sload\n      not(sub(shl(0xa0, 0x01), 0x01))\n      and\n      sub(shl(0xa0, 0x01), 0x01)\n      dup7\n      dup2\n      and\n      swap2\n      dup3\n      or\n      swap1\n      swap3\n      sstore\n        /* \"erc721.sol\":31339:31366  Transfer(from, to, tokenId) */\n      swap2\n      mload\n        /* \"erc721.sol\":31300:31316  _owners[tokenId] */\n      dup5\n      swap4\n        /* \"erc721.sol\":31339:31366  Transfer(from, to, tokenId) */\n      swap2\n      dup8\n      and\n      swap2\n      0xddf252ad1be2c89b69c2b068fc378daa952ba7f163c4a11628f55a4df523b3ef\n      swap2\n      log4\n        /* \"erc721.sol\":23566:23912  {... */\n      pop\n        /* \"erc721.sol\":23496:23912  function approve(address to, uint256 tokenId) public virtual override {... */\n      pop\n      pop\n      jump\t// out\n        /* \"erc721.sol\":28263:28373  function _safeMint(address to, uint256 tokenId) internal virtual {... */\n    tag_133:\n        /* \"erc721.sol\":28339:28365  _safeMint(to, tokenId, \"\") */\n      tag_132\n        /* \"erc721.sol\":28349:28351  to */\n      dup3\n        /* \"erc721.sol\":28353:28360  tokenId */\n      dup3\n        /* \"erc721.sol\":28339:28365  _safeMint(to, tokenId, \"\") */\n      mload(0x40)\n      dup1\n      0x20\n      add\n      0x40\n      mstore\n      dup1\n      0x00\n      dup2\n      mstore\n      pop\n        /* \"erc721.sol\":28339:28348  _safeMint */\n      tag_208\n        /* \"erc721.sol\":28339:28365  _safeMint(to, tokenId, \"\") */\n      jump\t// in\n        /* \"erc721.sol\":30039:30461  function _burn(uint256 tokenId) internal virtual {... */\n    tag_138:\n        /* \"erc721.sol\":30099:30112  address owner */\n      0x00\n        /* \"erc721.sol\":30115:30138  ERC721.ownerOf(tokenId) */\n      tag_210\n        /* \"erc721.sol\":30130:30137  tokenId */\n      dup3\n        /* \"erc721.sol\":30115:30129  ERC721.ownerOf */\n      tag_63\n        /* \"erc721.sol\":30115:30138  ERC721.ownerOf(tokenId) */\n      jump\t// in\n    tag_210:\n        /* \"erc721.sol\":30099:30138  address owner = ERC721.ownerOf(tokenId) */\n      swap1\n      pop\n        /* \"erc721.sol\":30247:30271  _tokenApprovals[tokenId] */\n      0x00\n      dup3\n      dup2\n      mstore\n        /* \"erc721.sol\":30247:30262  _tokenApprovals */\n      0x04\n        /* \"erc721.sol\":30247:30271  _tokenApprovals[tokenId] */\n      0x20\n      swap1\n      dup2\n      mstore\n      0x40\n      dup1\n      dup4\n      keccak256\n        /* \"erc721.sol\":30240:30271  delete _tokenApprovals[tokenId] */\n      dup1\n      sload\n      not(sub(shl(0xa0, 0x01), 0x01))\n      and\n      swap1\n      sstore\n      sub(shl(0xa0, 0x01), 0x01)\n        /* \"erc721.sol\":30284:30300  _balances[owner] */\n      dup5\n      and\n      dup4\n      mstore\n        /* \"erc721.sol\":30284:30293  _balances */\n      0x03\n        /* \"erc721.sol\":30284:30300  _balances[owner] */\n      swap1\n      swap2\n      mstore\n      dup2\n      keccak256\n        /* \"erc721.sol\":30284:30305  _balances[owner] -= 1 */\n      dup1\n      sload\n        /* \"erc721.sol\":30240:30271  delete _tokenApprovals[tokenId] */\n      0x01\n      swap3\n        /* \"erc721.sol\":30247:30271  _tokenApprovals[tokenId] */\n      swap1\n        /* \"erc721.sol\":30284:30305  _balances[owner] -= 1 */\n      tag_212\n      swap1\n        /* \"erc721.sol\":30240:30271  delete _tokenApprovals[tokenId] */\n      dup5\n      swap1\n        /* \"erc721.sol\":30284:30305  _balances[owner] -= 1 */\n      tag_201\n      jump\t// in\n    tag_212:\n      swap1\n      swap2\n      sstore\n      pop\n      pop\n        /* \"erc721.sol\":30323:30339  _owners[tokenId] */\n      0x00\n      dup3\n      dup2\n      mstore\n        /* \"erc721.sol\":30323:30330  _owners */\n      0x02\n        /* \"erc721.sol\":30323:30339  _owners[tokenId] */\n      0x20\n      mstore\n      0x40\n      dup1\n      dup3\n      keccak256\n        /* \"erc721.sol\":30316:30339  delete _owners[tokenId] */\n      dup1\n      sload\n      not(sub(shl(0xa0, 0x01), 0x01))\n      and\n      swap1\n      sstore\n        /* \"erc721.sol\":30357:30393  Transfer(owner, address(0), tokenId) */\n      mload\n        /* \"erc721.sol\":30331:30338  tokenId */\n      dup4\n      swap2\n        /* \"erc721.sol\":30323:30339  _owners[tokenId] */\n      swap1\n      sub(shl(0xa0, 0x01), 0x01)\n        /* \"erc721.sol\":30357:30393  Transfer(owner, address(0), tokenId) */\n      dup5\n      and\n      swap1\n      0xddf252ad1be2c89b69c2b068fc378daa952ba7f163c4a11628f55a4df523b3ef\n      swap1\n        /* \"erc721.sol\":30323:30339  _owners[tokenId] */\n      dup4\n      swap1\n        /* \"erc721.sol\":30357:30393  Transfer(owner, address(0), tokenId) */\n      log4\n        /* \"erc721.sol\":25670:25769  function mint(address to, uint256 tokenId) public virtual {... */\n      pop\n      pop\n      jump\t// out\n        /* \"erc721.sol\":31861:32176  function _setApprovalForAll(... */\n    tag_156:\n        /* \"erc721.sol\":32016:32024  operator */\n      dup2\n      sub(shl(0xa0, 0x01), 0x01)\n        /* \"erc721.sol\":32007:32024  owner != operator */\n      and\n        /* \"erc721.sol\":32007:32012  owner */\n      dup4\n      sub(shl(0xa0, 0x01), 0x01)\n        /* \"erc721.sol\":32007:32024  owner != operator */\n      and\n      sub\n        /* \"erc721.sol\":31999:32054  require(owner != operator, \"ERC721: approve to caller\") */\n      tag_215\n      jumpi\n      mload(0x40)\n      shl(0xe5, 0x461bcd)\n      dup2\n      mstore\n        /* \"#utility.yul\":9301:9303   */\n      0x20\n        /* \"erc721.sol\":31999:32054  require(owner != operator, \"ERC721: approve to caller\") */\n      0x04\n      dup3\n      add\n        /* \"#utility.yul\":9283:9304   */\n      mstore\n        /* \"#utility.yul\":9340:9342   */\n      0x19\n        /* \"#utility.yul\":9320:9338   */\n      0x24\n      dup3\n      add\n        /* \"#utility.yul\":9313:9343   */\n      mstore\n        /* \"#utility.yul\":9379:9406   */\n      0x4552433732313a20617070726f766520746f2063616c6c657200000000000000\n        /* \"#utility.yul\":9359:9377   */\n      0x44\n      dup3\n      add\n        /* \"#utility.yul\":9352:9407   */\n      mstore\n        /* \"#utility.yul\":9424:9442   */\n      0x64\n      add\n        /* \"erc721.sol\":31999:32054  require(owner != operator, \"ERC721: approve to caller\") */\n      tag_108\n        /* \"#utility.yul\":9099:9448   */\n      jump\n        /* \"erc721.sol\":31999:32054  require(owner != operator, \"ERC721: approve to caller\") */\n    tag_215:\n      sub(shl(0xa0, 0x01), 0x01)\n        /* \"erc721.sol\":32065:32090  _operatorApprovals[owner] */\n      dup4\n      dup2\n      and\n      0x00\n      dup2\n      dup2\n      mstore\n        /* \"erc721.sol\":32065:32083  _operatorApprovals */\n      0x05\n        /* \"erc721.sol\":32065:32090  _operatorApprovals[owner] */\n      0x20\n      swap1\n      dup2\n      mstore\n      0x40\n      dup1\n      dup4\n      keccak256\n        /* \"erc721.sol\":32065:32100  _operatorApprovals[owner][operator] */\n      swap5\n      dup8\n      and\n      dup1\n      dup5\n      mstore\n      swap5\n      dup3\n      mstore\n      swap2\n      dup3\n      swap1\n      keccak256\n        /* \"erc721.sol\":32065:32111  _operatorApprovals[owner][operator] = approved */\n      dup1\n      sload\n      not(0xff)\n      and\n      dup7\n      iszero\n      iszero\n      swap1\n      dup2\n      or\n      swap1\n      swap2\n      sstore\n        /* \"erc721.sol\":32127:32168  ApprovalForAll(owner, operator, approved) */\n      swap2\n      mload\n        /* \"#utility.yul\":540:581   */\n      swap2\n      dup3\n      mstore\n        /* \"erc721.sol\":32127:32168  ApprovalForAll(owner, operator, approved) */\n      0x17307eab39ab6107e8899845ad3d59bd9653f200f220920489ca2b5937696c31\n      swap2\n        /* \"#utility.yul\":513:531   */\n      add\n        /* \"erc721.sol\":32127:32168  ApprovalForAll(owner, operator, approved) */\n      mload(0x40)\n      dup1\n      swap2\n      sub\n      swap1\n      log3\n        /* \"erc721.sol\":31861:32176  function _setApprovalForAll(... */\n      pop\n      pop\n      pop\n      jump\t// out\n        /* \"erc721.sol\":26737:27050  function _safeTransfer(... */\n    tag_163:\n        /* \"erc721.sol\":26893:26921  _transfer(from, to, tokenId) */\n      tag_220\n        /* \"erc721.sol\":26903:26907  from */\n      dup5\n        /* \"erc721.sol\":26909:26911  to */\n      dup5\n        /* \"erc721.sol\":26913:26920  tokenId */\n      dup5\n        /* \"erc721.sol\":26893:26902  _transfer */\n      tag_130\n        /* \"erc721.sol\":26893:26921  _transfer(from, to, tokenId) */\n      jump\t// in\n    tag_220:\n        /* \"erc721.sol\":26940:26987  _checkOnERC721Received(from, to, tokenId, data) */\n      tag_221\n        /* \"erc721.sol\":26963:26967  from */\n      dup5\n        /* \"erc721.sol\":26969:26971  to */\n      dup5\n        /* \"erc721.sol\":26973:26980  tokenId */\n      dup5\n        /* \"erc721.sol\":26982:26986  data */\n      dup5\n        /* \"erc721.sol\":26940:26962  _checkOnERC721Received */\n      tag_222\n        /* \"erc721.sol\":26940:26987  _checkOnERC721Received(from, to, tokenId, data) */\n      jump\t// in\n    tag_221:\n        /* \"erc721.sol\":26932:27042  require(_checkOnERC721Received(from, to, tokenId, data), \"ERC721: transfer to non ERC721Receiver implementer\") */\n      tag_162\n      jumpi\n      mload(0x40)\n      shl(0xe5, 0x461bcd)\n      dup2\n      mstore\n        /* \"#utility.yul\":9655:9657   */\n      0x20\n        /* \"erc721.sol\":26932:27042  require(_checkOnERC721Received(from, to, tokenId, data), \"ERC721: transfer to non ERC721Receiver implementer\") */\n      0x04\n      dup3\n      add\n        /* \"#utility.yul\":9637:9658   */\n      mstore\n        /* \"#utility.yul\":9694:9696   */\n      0x32\n        /* \"#utility.yul\":9674:9692   */\n      0x24\n      dup3\n      add\n        /* \"#utility.yul\":9667:9697   */\n      mstore\n        /* \"#utility.yul\":9733:9767   */\n      0x4552433732313a207472616e7366657220746f206e6f6e204552433732315265\n        /* \"#utility.yul\":9713:9731   */\n      0x44\n      dup3\n      add\n        /* \"#utility.yul\":9706:9768   */\n      mstore\n      shl(0x71, 0x31b2b4bb32b91034b6b83632b6b2b73a32b9)\n        /* \"#utility.yul\":9784:9802   */\n      0x64\n      dup3\n      add\n        /* \"#utility.yul\":9777:9825   */\n      mstore\n        /* \"#utility.yul\":9842:9861   */\n      0x84\n      add\n        /* \"erc721.sol\":26932:27042  require(_checkOnERC721Received(from, to, tokenId, data), \"ERC721: transfer to non ERC721Receiver implementer\") */\n      tag_108\n        /* \"#utility.yul\":9453:9867   */\n      jump\n        /* \"erc721.sol\":413:1136  function toString(uint256 value) internal pure returns (string memory) {... */\n    tag_171:\n        /* \"erc721.sol\":469:482  string memory */\n      0x60\n        /* \"erc721.sol\":690:695  value */\n      dup2\n        /* \"erc721.sol\":699:700  0 */\n      0x00\n        /* \"erc721.sol\":690:700  value == 0 */\n      sub\n        /* \"erc721.sol\":686:739  if (value == 0) {... */\n      tag_228\n      jumpi\n      pop\n      pop\n        /* \"erc721.sol\":717:727  return \"0\" */\n      0x40\n      dup1\n      mload\n      dup1\n      dup3\n      add\n      swap1\n      swap2\n      mstore\n      0x01\n      dup2\n      mstore\n      shl(0xfc, 0x03)\n      0x20\n      dup3\n      add\n      mstore\n      swap1\n        /* \"erc721.sol\":413:1136  function toString(uint256 value) internal pure returns (string memory) {... */\n      jump\t// out\n        /* \"erc721.sol\":686:739  if (value == 0) {... */\n    tag_228:\n        /* \"erc721.sol\":764:769  value */\n      dup2\n        /* \"erc721.sol\":749:761  uint256 temp */\n      0x00\n        /* \"erc721.sol\":805:883  while (temp != 0) {... */\n    tag_229:\n        /* \"erc721.sol\":812:821  temp != 0 */\n      dup2\n      iszero\n        /* \"erc721.sol\":805:883  while (temp != 0) {... */\n      tag_230\n      jumpi\n        /* \"erc721.sol\":838:846  digits++ */\n      dup1\n      tag_231\n      dup2\n      tag_232\n      jump\t// in\n    tag_231:\n      swap2\n      pop\n        /* \"erc721.sol\":861:871  temp /= 10 */\n      tag_233\n      swap1\n      pop\n        /* \"erc721.sol\":869:871  10 */\n      0x0a\n        /* \"erc721.sol\":861:871  temp /= 10 */\n      dup4\n      tag_234\n      jump\t// in\n    tag_233:\n      swap2\n      pop\n        /* \"erc721.sol\":805:883  while (temp != 0) {... */\n      jump(tag_229)\n    tag_230:\n        /* \"erc721.sol\":893:912  bytes memory buffer */\n      0x00\n        /* \"erc721.sol\":925:931  digits */\n      dup2\n        /* \"erc721.sol\":915:932  new bytes(digits) */\n      0xffffffffffffffff\n      dup2\n      gt\n      iszero\n      tag_236\n      jumpi\n      tag_236\n      tag_237\n      jump\t// in\n    tag_236:\n      mload(0x40)\n      swap1\n      dup1\n      dup3\n      mstore\n      dup1\n      0x1f\n      add\n      not(0x1f)\n      and\n      0x20\n      add\n      dup3\n      add\n      0x40\n      mstore\n      dup1\n      iszero\n      tag_238\n      jumpi\n      0x20\n      dup3\n      add\n      dup2\n      dup1\n      calldatasize\n      dup4\n      calldatacopy\n      add\n      swap1\n      pop\n    tag_238:\n      pop\n        /* \"erc721.sol\":893:932  bytes memory buffer = new bytes(digits) */\n      swap1\n      pop\n        /* \"erc721.sol\":943:1097  while (value != 0) {... */\n    tag_239:\n        /* \"erc721.sol\":950:960  value != 0 */\n      dup5\n      iszero\n        /* \"erc721.sol\":943:1097  while (value != 0) {... */\n      tag_120\n      jumpi\n        /* \"erc721.sol\":977:988  digits -= 1 */\n      tag_241\n        /* \"erc721.sol\":987:988  1 */\n      0x01\n        /* \"erc721.sol\":977:988  digits -= 1 */\n      dup4\n      tag_201\n      jump\t// in\n    tag_241:\n      swap2\n      pop\n        /* \"erc721.sol\":1046:1056  value % 10 */\n      tag_242\n        /* \"erc721.sol\":1054:1056  10 */\n      0x0a\n        /* \"erc721.sol\":1046:1051  value */\n      dup7\n        /* \"erc721.sol\":1046:1056  value % 10 */\n      tag_243\n      jump\t// in\n    tag_242:\n        /* \"erc721.sol\":1033:1057  48 + uint256(value % 10) */\n      tag_244\n      swap1\n        /* \"erc721.sol\":1033:1035  48 */\n      0x30\n        /* \"erc721.sol\":1033:1057  48 + uint256(value % 10) */\n      tag_203\n      jump\t// in\n    tag_244:\n        /* \"erc721.sol\":1020:1059  bytes1(uint8(48 + uint256(value % 10))) */\n      0xf8\n      shl\n        /* \"erc721.sol\":1003:1009  buffer */\n      dup2\n        /* \"erc721.sol\":1010:1016  digits */\n      dup4\n        /* \"erc721.sol\":1003:1017  buffer[digits] */\n      dup2\n      mload\n      dup2\n      lt\n      tag_246\n      jumpi\n      tag_246\n      tag_247\n      jump\t// in\n    tag_246:\n      0x20\n      add\n      add\n        /* \"erc721.sol\":1003:1059  buffer[digits] = bytes1(uint8(48 + uint256(value % 10))) */\n      swap1\n      not(0xffffffffffffffffffffffffffffffffffffffffffffffffffffffffffffff)\n      and\n      swap1\n      dup2\n      0x00\n      byte\n      swap1\n      mstore8\n      pop\n        /* \"erc721.sol\":1074:1085  value /= 10 */\n      tag_248\n        /* \"erc721.sol\":1083:1085  10 */\n      0x0a\n        /* \"erc721.sol\":1074:1085  value /= 10 */\n      dup7\n      tag_234\n      jump\t// in\n    tag_248:\n      swap5\n      pop\n        /* \"erc721.sol\":943:1097  while (value != 0) {... */\n      jump(tag_239)\n        /* \"erc721.sol\":28606:28925  function _safeMint(... */\n    tag_208:\n        /* \"erc721.sol\":28735:28753  _mint(to, tokenId) */\n      tag_253\n        /* \"erc721.sol\":28741:28743  to */\n      dup4\n        /* \"erc721.sol\":28745:28752  tokenId */\n      dup4\n        /* \"erc721.sol\":28735:28740  _mint */\n      tag_254\n        /* \"erc721.sol\":28735:28753  _mint(to, tokenId) */\n      jump\t// in\n    tag_253:\n        /* \"erc721.sol\":28786:28839  _checkOnERC721Received(address(0), to, tokenId, data) */\n      tag_255\n        /* \"erc721.sol\":28817:28818  0 */\n      0x00\n        /* \"erc721.sol\":28821:28823  to */\n      dup5\n        /* \"erc721.sol\":28825:28832  tokenId */\n      dup5\n        /* \"erc721.sol\":28834:28838  data */\n      dup5\n        /* \"erc721.sol\":28786:28808  _checkOnERC721Received */\n      tag_222\n        /* \"erc721.sol\":28786:28839  _checkOnERC721Received(address(0), to, tokenId, data) */\n      jump\t// in\n    tag_255:\n        /* \"erc721.sol\":28764:28917  require(... */\n      tag_118\n      jumpi\n      mload(0x40)\n      shl(0xe5, 0x461bcd)\n      dup2\n      mstore\n        /* \"#utility.yul\":9655:9657   */\n      0x20\n        /* \"erc721.sol\":28764:28917  require(... */\n      0x04\n      dup3\n      add\n        /* \"#utility.yul\":9637:9658   */\n      mstore\n        /* \"#utility.yul\":9694:9696   */\n      0x32\n        /* \"#utility.yul\":9674:9692   */\n      0x24\n      dup3\n      add\n        /* \"#utility.yul\":9667:9697   */\n      mstore\n        /* \"#utility.yul\":9733:9767   */\n      0x4552433732313a207472616e7366657220746f206e6f6e204552433732315265\n        /* \"#utility.yul\":9713:9731   */\n      0x44\n      dup3\n      add\n        /* \"#utility.yul\":9706:9768   */\n      mstore\n      shl(0x71, 0x31b2b4bb32b91034b6b83632b6b2b73a32b9)\n        /* \"#utility.yul\":9784:9802   */\n      0x64\n      dup3\n      add\n        /* \"#utility.yul\":9777:9825   */\n      mstore\n        /* \"#utility.yul\":9842:9861   */\n      0x84\n      add\n        /* \"erc721.sol\":28764:28917  require(... */\n      tag_108\n        /* \"#utility.yul\":9453:9867   */\n      jump\n        /* \"erc721.sol\":32976:33829  function _checkOnERC721Received(... */\n    tag_222:\n        /* \"erc721.sol\":33130:33134  bool */\n      0x00\n      sub(shl(0xa0, 0x01), 0x01)\n        /* \"erc721.sol\":33151:33164  to.isContract */\n      dup5\n      and\n        /* \"erc721.sol\":4607:4626  account.code.length */\n      extcodesize\n        /* \"erc721.sol\":4607:4630  account.code.length > 0 */\n      iszero\n        /* \"erc721.sol\":33147:33822  if (to.isContract()) {... */\n      tag_261\n      jumpi\n        /* \"erc721.sol\":33187:33258  IERC721Receiver(to).onERC721Received(_msgSender(), from, tokenId, data) */\n      mload(0x40)\n      shl(0xe1, 0x0a85bd01)\n      dup2\n      mstore\n      sub(shl(0xa0, 0x01), 0x01)\n        /* \"erc721.sol\":33187:33223  IERC721Receiver(to).onERC721Received */\n      dup6\n      and\n      swap1\n      0x150b7a02\n      swap1\n        /* \"erc721.sol\":33187:33258  IERC721Receiver(to).onERC721Received(_msgSender(), from, tokenId, data) */\n      tag_263\n      swap1\n        /* \"erc721.sol\":3099:3109  msg.sender */\n      caller\n      swap1\n        /* \"erc721.sol\":33238:33242  from */\n      dup10\n      swap1\n        /* \"erc721.sol\":33244:33251  tokenId */\n      dup9\n      swap1\n        /* \"erc721.sol\":33253:33257  data */\n      dup9\n      swap1\n        /* \"erc721.sol\":33187:33258  IERC721Receiver(to).onERC721Received(_msgSender(), from, tokenId, data) */\n      0x04\n      add\n      tag_264\n      jump\t// in\n    tag_263:\n      0x20\n      mload(0x40)\n      dup1\n      dup4\n      sub\n      dup2\n      0x00\n      dup8\n      gas\n      call\n      swap3\n      pop\n      pop\n      pop\n      dup1\n      iszero\n      tag_265\n      jumpi\n      pop\n      0x40\n      dup1\n      mload\n      0x1f\n      returndatasize\n      swap1\n      dup2\n      add\n      not(0x1f)\n      and\n      dup3\n      add\n      swap1\n      swap3\n      mstore\n      tag_266\n      swap2\n      dup2\n      add\n      swap1\n      tag_267\n      jump\t// in\n    tag_266:\n      0x01\n    tag_265:\n        /* \"erc721.sol\":33183:33767  try IERC721Receiver(to).onERC721Received(_msgSender(), from, tokenId, data) returns (bytes4 retval) {... */\n      tag_268\n      jumpi\n      returndatasize\n      dup1\n      dup1\n      iszero\n      tag_273\n      jumpi\n      mload(0x40)\n      swap2\n      pop\n      and(add(returndatasize, 0x3f), not(0x1f))\n      dup3\n      add\n      0x40\n      mstore\n      returndatasize\n      dup3\n      mstore\n      returndatasize\n      0x00\n      0x20\n      dup5\n      add\n      returndatacopy\n      jump(tag_272)\n    tag_273:\n      0x60\n      swap2\n      pop\n    tag_272:\n      pop\n        /* \"erc721.sol\":33428:33434  reason */\n      dup1\n        /* \"erc721.sol\":33428:33441  reason.length */\n      mload\n        /* \"erc721.sol\":33445:33446  0 */\n      0x00\n        /* \"erc721.sol\":33428:33446  reason.length == 0 */\n      sub\n        /* \"erc721.sol\":33424:33752  if (reason.length == 0) {... */\n      tag_274\n      jumpi\n        /* \"erc721.sol\":33471:33531  revert(\"ERC721: transfer to non ERC721Receiver implementer\") */\n      mload(0x40)\n      shl(0xe5, 0x461bcd)\n      dup2\n      mstore\n        /* \"#utility.yul\":9655:9657   */\n      0x20\n        /* \"erc721.sol\":33471:33531  revert(\"ERC721: transfer to non ERC721Receiver implementer\") */\n      0x04\n      dup3\n      add\n        /* \"#utility.yul\":9637:9658   */\n      mstore\n        /* \"#utility.yul\":9694:9696   */\n      0x32\n        /* \"#utility.yul\":9674:9692   */\n      0x24\n      dup3\n      add\n        /* \"#utility.yul\":9667:9697   */\n      mstore\n        /* \"#utility.yul\":9733:9767   */\n      0x4552433732313a207472616e7366657220746f206e6f6e204552433732315265\n        /* \"#utility.yul\":9713:9731   */\n      0x44\n      dup3\n      add\n        /* \"#utility.yul\":9706:9768   */\n      mstore\n      shl(0x71, 0x31b2b4bb32b91034b6b83632b6b2b73a32b9)\n        /* \"#utility.yul\":9784:9802   */\n      0x64\n      dup3\n      add\n        /* \"#utility.yul\":9777:9825   */\n      mstore\n        /* \"#utility.yul\":9842:9861   */\n      0x84\n      add\n        /* \"erc721.sol\":33471:33531  revert(\"ERC721: transfer to non ERC721Receiver implementer\") */\n      tag_108\n        /* \"#utility.yul\":9453:9867   */\n      jump\n        /* \"erc721.sol\":33424:33752  if (reason.length == 0) {... */\n    tag_274:\n        /* \"erc721.sol\":33702:33708  reason */\n      dup1\n        /* \"erc721.sol\":33696:33709  mload(reason) */\n      mload\n        /* \"erc721.sol\":33687:33693  reason */\n      dup2\n        /* \"erc721.sol\":33683:33685  32 */\n      0x20\n        /* \"erc721.sol\":33679:33694  add(32, reason) */\n      add\n        /* \"erc721.sol\":33672:33710  revert(add(32, reason), mload(reason)) */\n      revert\n        /* \"erc721.sol\":33183:33767  try IERC721Receiver(to).onERC721Received(_msgSender(), from, tokenId, data) returns (bytes4 retval) {... */\n    tag_268:\n      not(sub(shl(0xe0, 0x01), 0x01))\n        /* \"erc721.sol\":33309:33360  retval == IERC721Receiver.onERC721Received.selector */\n      and\n      shl(0xe1, 0x0a85bd01)\n      eq\n      swap1\n      pop\n        /* \"erc721.sol\":33302:33360  return retval == IERC721Receiver.onERC721Received.selector */\n      jump(tag_120)\n        /* \"erc721.sol\":33147:33822  if (to.isContract()) {... */\n    tag_261:\n      pop\n        /* \"erc721.sol\":33806:33810  true */\n      0x01\n        /* \"erc721.sol\":33799:33810  return true */\n      jump(tag_120)\n        /* \"erc721.sol\":29261:29700  function _mint(address to, uint256 tokenId) internal virtual {... */\n    tag_254:\n      sub(shl(0xa0, 0x01), 0x01)\n        /* \"erc721.sol\":29341:29357  to != address(0) */\n      dup3\n      and\n        /* \"erc721.sol\":29333:29394  require(to != address(0), \"ERC721: mint to the zero address\") */\n      tag_280\n      jumpi\n      mload(0x40)\n      shl(0xe5, 0x461bcd)\n      dup2\n      mstore\n        /* \"#utility.yul\":11491:11493   */\n      0x20\n        /* \"erc721.sol\":29333:29394  require(to != address(0), \"ERC721: mint to the zero address\") */\n      0x04\n      dup3\n      add\n        /* \"#utility.yul\":11473:11494   */\n      dup2\n      swap1\n      mstore\n        /* \"#utility.yul\":11510:11528   */\n      0x24\n      dup3\n      add\n        /* \"#utility.yul\":11503:11533   */\n      mstore\n        /* \"#utility.yul\":11569:11603   */\n      0x4552433732313a206d696e7420746f20746865207a65726f2061646472657373\n        /* \"#utility.yul\":11549:11567   */\n      0x44\n      dup3\n      add\n        /* \"#utility.yul\":11542:11604   */\n      mstore\n        /* \"#utility.yul\":11621:11639   */\n      0x64\n      add\n        /* \"erc721.sol\":29333:29394  require(to != address(0), \"ERC721: mint to the zero address\") */\n      tag_108\n        /* \"#utility.yul\":11289:11645   */\n      jump\n        /* \"erc721.sol\":29333:29394  require(to != address(0), \"ERC721: mint to the zero address\") */\n    tag_280:\n        /* \"erc721.sol\":27428:27432  bool */\n      0x00\n        /* \"erc721.sol\":27452:27468  _owners[tokenId] */\n      dup2\n      dup2\n      mstore\n        /* \"erc721.sol\":27452:27459  _owners */\n      0x02\n        /* \"erc721.sol\":27452:27468  _owners[tokenId] */\n      0x20\n      mstore\n      0x40\n      swap1\n      keccak256\n      sload\n      sub(shl(0xa0, 0x01), 0x01)\n      and\n        /* \"erc721.sol\":27452:27482  _owners[tokenId] != address(0) */\n      iszero\n        /* \"erc721.sol\":29405:29463  require(!_exists(tokenId), \"ERC721: token already minted\") */\n      tag_284\n      jumpi\n      mload(0x40)\n      shl(0xe5, 0x461bcd)\n      dup2\n      mstore\n        /* \"#utility.yul\":11852:11854   */\n      0x20\n        /* \"erc721.sol\":29405:29463  require(!_exists(tokenId), \"ERC721: token already minted\") */\n      0x04\n      dup3\n      add\n        /* \"#utility.yul\":11834:11855   */\n      mstore\n        /* \"#utility.yul\":11891:11893   */\n      0x1c\n        /* \"#utility.yul\":11871:11889   */\n      0x24\n      dup3\n      add\n        /* \"#utility.yul\":11864:11894   */\n      mstore\n        /* \"#utility.yul\":11930:11960   */\n      0x4552433732313a20746f6b656e20616c7265616479206d696e74656400000000\n        /* \"#utility.yul\":11910:11928   */\n      0x44\n      dup3\n      add\n        /* \"#utility.yul\":11903:11961   */\n      mstore\n        /* \"#utility.yul\":11978:11996   */\n      0x64\n      add\n        /* \"erc721.sol\":29405:29463  require(!_exists(tokenId), \"ERC721: token already minted\") */\n      tag_108\n        /* \"#utility.yul\":11650:12002   */\n      jump\n        /* \"erc721.sol\":29405:29463  require(!_exists(tokenId), \"ERC721: token already minted\") */\n    tag_284:\n      sub(shl(0xa0, 0x01), 0x01)\n        /* \"erc721.sol\":29534:29547  _balances[to] */\n      dup3\n      and\n      0x00\n      swap1\n      dup2\n      mstore\n        /* \"erc721.sol\":29534:29543  _balances */\n      0x03\n        /* \"erc721.sol\":29534:29547  _balances[to] */\n      0x20\n      mstore\n      0x40\n      dup2\n      keccak256\n        /* \"erc721.sol\":29534:29552  _balances[to] += 1 */\n      dup1\n      sload\n        /* \"erc721.sol\":29551:29552  1 */\n      0x01\n      swap3\n        /* \"erc721.sol\":29534:29547  _balances[to] */\n      swap1\n        /* \"erc721.sol\":29534:29552  _balances[to] += 1 */\n      tag_288\n      swap1\n        /* \"erc721.sol\":29551:29552  1 */\n      dup5\n      swap1\n        /* \"erc721.sol\":29534:29552  _balances[to] += 1 */\n      tag_203\n      jump\t// in\n    tag_288:\n      swap1\n      swap2\n      sstore\n      pop\n      pop\n        /* \"erc721.sol\":29563:29579  _owners[tokenId] */\n      0x00\n      dup2\n      dup2\n      mstore\n        /* \"erc721.sol\":29563:29570  _owners */\n      0x02\n        /* \"erc721.sol\":29563:29579  _owners[tokenId] */\n      0x20\n      mstore\n      0x40\n      dup1\n      dup3\n      keccak256\n        /* \"erc721.sol\":29563:29584  _owners[tokenId] = to */\n      dup1\n      sload\n      not(sub(shl(0xa0, 0x01), 0x01))\n      and\n      sub(shl(0xa0, 0x01), 0x01)\n      dup7\n      and\n      swap1\n      dup2\n      or\n      swap1\n      swap2\n      sstore\n        /* \"erc721.sol\":29602:29635  Transfer(address(0), to, tokenId) */\n      swap1\n      mload\n        /* \"erc721.sol\":29563:29579  _owners[tokenId] */\n      dup4\n      swap3\n      swap1\n        /* \"erc721.sol\":29602:29635  Transfer(address(0), to, tokenId) */\n      0xddf252ad1be2c89b69c2b068fc378daa952ba7f163c4a11628f55a4df523b3ef\n      swap1\n        /* \"erc721.sol\":29563:29579  _owners[tokenId] */\n      dup3\n      swap1\n        /* \"erc721.sol\":29602:29635  Transfer(address(0), to, tokenId) */\n      log4\n        /* \"erc721.sol\":25670:25769  function mint(address to, uint256 tokenId) public virtual {... */\n      pop\n      pop\n      jump\t// out\n        /* \"#utility.yul\":14:145   */\n    tag_291:\n      not(sub(shl(0xe0, 0x01), 0x01))\n        /* \"#utility.yul\":88:120   */\n      dup2\n      and\n        /* \"#utility.yul\":78:121   */\n      dup2\n      eq\n        /* \"#utility.yul\":68:139   */\n      tag_137\n      jumpi\n        /* \"#utility.yul\":135:136   */\n      0x00\n        /* \"#utility.yul\":132:133   */\n      dup1\n        /* \"#utility.yul\":125:137   */\n      revert\n        /* \"#utility.yul\":150:395   */\n    tag_24:\n        /* \"#utility.yul\":208:214   */\n      0x00\n        /* \"#utility.yul\":261:263   */\n      0x20\n        /* \"#utility.yul\":249:258   */\n      dup3\n        /* \"#utility.yul\":240:247   */\n      dup5\n        /* \"#utility.yul\":236:259   */\n      sub\n        /* \"#utility.yul\":232:264   */\n      slt\n        /* \"#utility.yul\":229:281   */\n      iszero\n      tag_301\n      jumpi\n        /* \"#utility.yul\":277:278   */\n      0x00\n        /* \"#utility.yul\":274:275   */\n      dup1\n        /* \"#utility.yul\":267:279   */\n      revert\n        /* \"#utility.yul\":229:281   */\n    tag_301:\n        /* \"#utility.yul\":316:325   */\n      dup2\n        /* \"#utility.yul\":303:326   */\n      calldataload\n        /* \"#utility.yul\":335:365   */\n      tag_169\n        /* \"#utility.yul\":359:364   */\n      dup2\n        /* \"#utility.yul\":335:365   */\n      tag_291\n      jump\t// in\n        /* \"#utility.yul\":592:850   */\n    tag_292:\n        /* \"#utility.yul\":664:665   */\n      0x00\n        /* \"#utility.yul\":674:787   */\n    tag_305:\n        /* \"#utility.yul\":688:694   */\n      dup4\n        /* \"#utility.yul\":685:686   */\n      dup2\n        /* \"#utility.yul\":682:695   */\n      lt\n        /* \"#utility.yul\":674:787   */\n      iszero\n      tag_307\n      jumpi\n        /* \"#utility.yul\":764:775   */\n      dup2\n      dup2\n      add\n        /* \"#utility.yul\":758:776   */\n      mload\n        /* \"#utility.yul\":745:756   */\n      dup4\n      dup3\n      add\n        /* \"#utility.yul\":738:777   */\n      mstore\n        /* \"#utility.yul\":710:712   */\n      0x20\n        /* \"#utility.yul\":703:713   */\n      add\n        /* \"#utility.yul\":674:787   */\n      jump(tag_305)\n    tag_307:\n        /* \"#utility.yul\":805:811   */\n      dup4\n        /* \"#utility.yul\":802:803   */\n      dup2\n        /* \"#utility.yul\":799:812   */\n      gt\n        /* \"#utility.yul\":796:844   */\n      iszero\n      tag_162\n      jumpi\n      pop\n      pop\n        /* \"#utility.yul\":840:841   */\n      0x00\n        /* \"#utility.yul\":822:838   */\n      swap2\n      add\n        /* \"#utility.yul\":815:842   */\n      mstore\n        /* \"#utility.yul\":592:850   */\n      jump\t// out\n        /* \"#utility.yul\":855:1113   */\n    tag_293:\n        /* \"#utility.yul\":897:900   */\n      0x00\n        /* \"#utility.yul\":935:940   */\n      dup2\n        /* \"#utility.yul\":929:941   */\n      mload\n        /* \"#utility.yul\":962:968   */\n      dup1\n        /* \"#utility.yul\":957:960   */\n      dup5\n        /* \"#utility.yul\":950:969   */\n      mstore\n        /* \"#utility.yul\":978:1041   */\n      tag_310\n        /* \"#utility.yul\":1034:1040   */\n      dup2\n        /* \"#utility.yul\":1027:1031   */\n      0x20\n        /* \"#utility.yul\":1022:1025   */\n      dup7\n        /* \"#utility.yul\":1018:1032   */\n      add\n        /* \"#utility.yul\":1011:1015   */\n      0x20\n        /* \"#utility.yul\":1004:1009   */\n      dup7\n        /* \"#utility.yul\":1000:1016   */\n      add\n        /* \"#utility.yul\":978:1041   */\n      tag_292\n      jump\t// in\n    tag_310:\n        /* \"#utility.yul\":1095:1097   */\n      0x1f\n        /* \"#utility.yul\":1074:1089   */\n      add\n      not(0x1f)\n        /* \"#utility.yul\":1070:1099   */\n      and\n        /* \"#utility.yul\":1061:1100   */\n      swap3\n      swap1\n      swap3\n      add\n        /* \"#utility.yul\":1102:1106   */\n      0x20\n        /* \"#utility.yul\":1057:1107   */\n      add\n      swap3\n        /* \"#utility.yul\":855:1113   */\n      swap2\n      pop\n      pop\n      jump\t// out\n        /* \"#utility.yul\":1118:1338   */\n    tag_31:\n        /* \"#utility.yul\":1267:1269   */\n      0x20\n        /* \"#utility.yul\":1256:1265   */\n      dup2\n        /* \"#utility.yul\":1249:1270   */\n      mstore\n        /* \"#utility.yul\":1230:1234   */\n      0x00\n        /* \"#utility.yul\":1287:1332   */\n      tag_169\n        /* \"#utility.yul\":1328:1330   */\n      0x20\n        /* \"#utility.yul\":1317:1326   */\n      dup4\n        /* \"#utility.yul\":1313:1331   */\n      add\n        /* \"#utility.yul\":1305:1311   */\n      dup5\n        /* \"#utility.yul\":1287:1332   */\n      tag_293\n      jump\t// in\n        /* \"#utility.yul\":1343:1523   */\n    tag_34:\n        /* \"#utility.yul\":1402:1408   */\n      0x00\n        /* \"#utility.yul\":1455:1457   */\n      0x20\n        /* \"#utility.yul\":1443:1452   */\n      dup3\n        /* \"#utility.yul\":1434:1441   */\n      dup5\n        /* \"#utility.yul\":1430:1453   */\n      sub\n        /* \"#utility.yul\":1426:1458   */\n      slt\n        /* \"#utility.yul\":1423:1475   */\n      iszero\n      tag_314\n      jumpi\n        /* \"#utility.yul\":1471:1472   */\n      0x00\n        /* \"#utility.yul\":1468:1469   */\n      dup1\n        /* \"#utility.yul\":1461:1473   */\n      revert\n        /* \"#utility.yul\":1423:1475   */\n    tag_314:\n      pop\n        /* \"#utility.yul\":1494:1517   */\n      calldataload\n      swap2\n        /* \"#utility.yul\":1343:1523   */\n      swap1\n      pop\n      jump\t// out\n        /* \"#utility.yul\":1759:1955   */\n    tag_294:\n        /* \"#utility.yul\":1827:1847   */\n      dup1\n      calldataload\n      sub(shl(0xa0, 0x01), 0x01)\n        /* \"#utility.yul\":1876:1930   */\n      dup2\n      and\n        /* \"#utility.yul\":1866:1931   */\n      dup2\n      eq\n        /* \"#utility.yul\":1856:1949   */\n      tag_317\n      jumpi\n        /* \"#utility.yul\":1945:1946   */\n      0x00\n        /* \"#utility.yul\":1942:1943   */\n      dup1\n        /* \"#utility.yul\":1935:1947   */\n      revert\n        /* \"#utility.yul\":1856:1949   */\n    tag_317:\n        /* \"#utility.yul\":1759:1955   */\n      swap2\n      swap1\n      pop\n      jump\t// out\n        /* \"#utility.yul\":1960:2214   */\n    tag_40:\n        /* \"#utility.yul\":2028:2034   */\n      0x00\n        /* \"#utility.yul\":2036:2042   */\n      dup1\n        /* \"#utility.yul\":2089:2091   */\n      0x40\n        /* \"#utility.yul\":2077:2086   */\n      dup4\n        /* \"#utility.yul\":2068:2075   */\n      dup6\n        /* \"#utility.yul\":2064:2087   */\n      sub\n        /* \"#utility.yul\":2060:2092   */\n      slt\n        /* \"#utility.yul\":2057:2109   */\n      iszero\n      tag_319\n      jumpi\n        /* \"#utility.yul\":2105:2106   */\n      0x00\n        /* \"#utility.yul\":2102:2103   */\n      dup1\n        /* \"#utility.yul\":2095:2107   */\n      revert\n        /* \"#utility.yul\":2057:2109   */\n    tag_319:\n        /* \"#utility.yul\":2128:2157   */\n      tag_320\n        /* \"#utility.yul\":2147:2156   */\n      dup4\n        /* \"#utility.yul\":2128:2157   */\n      tag_294\n      jump\t// in\n    tag_320:\n        /* \"#utility.yul\":2118:2157   */\n      swap5\n        /* \"#utility.yul\":2204:2206   */\n      0x20\n        /* \"#utility.yul\":2189:2207   */\n      swap4\n      swap1\n      swap4\n      add\n        /* \"#utility.yul\":2176:2208   */\n      calldataload\n      swap4\n      pop\n      pop\n      pop\n        /* \"#utility.yul\":1960:2214   */\n      jump\t// out\n        /* \"#utility.yul\":2219:2346   */\n    tag_237:\n        /* \"#utility.yul\":2280:2290   */\n      0x4e487b71\n        /* \"#utility.yul\":2275:2278   */\n      0xe0\n        /* \"#utility.yul\":2271:2291   */\n      shl\n        /* \"#utility.yul\":2268:2269   */\n      0x00\n        /* \"#utility.yul\":2261:2292   */\n      mstore\n        /* \"#utility.yul\":2311:2315   */\n      0x41\n        /* \"#utility.yul\":2308:2309   */\n      0x04\n        /* \"#utility.yul\":2301:2316   */\n      mstore\n        /* \"#utility.yul\":2335:2339   */\n      0x24\n        /* \"#utility.yul\":2332:2333   */\n      0x00\n        /* \"#utility.yul\":2325:2340   */\n      revert\n        /* \"#utility.yul\":2351:3489   */\n    tag_44:\n        /* \"#utility.yul\":2446:2452   */\n      0x00\n        /* \"#utility.yul\":2454:2460   */\n      dup1\n        /* \"#utility.yul\":2462:2468   */\n      0x00\n        /* \"#utility.yul\":2470:2476   */\n      dup1\n        /* \"#utility.yul\":2523:2526   */\n      0x80\n        /* \"#utility.yul\":2511:2520   */\n      dup6\n        /* \"#utility.yul\":2502:2509   */\n      dup8\n        /* \"#utility.yul\":2498:2521   */\n      sub\n        /* \"#utility.yul\":2494:2527   */\n      slt\n        /* \"#utility.yul\":2491:2544   */\n      iszero\n      tag_323\n      jumpi\n        /* \"#utility.yul\":2540:2541   */\n      0x00\n        /* \"#utility.yul\":2537:2538   */\n      dup1\n        /* \"#utility.yul\":2530:2542   */\n      revert\n        /* \"#utility.yul\":2491:2544   */\n    tag_323:\n        /* \"#utility.yul\":2563:2592   */\n      tag_324\n        /* \"#utility.yul\":2582:2591   */\n      dup6\n        /* \"#utility.yul\":2563:2592   */\n      tag_294\n      jump\t// in\n    tag_324:\n        /* \"#utility.yul\":2553:2592   */\n      swap4\n      pop\n        /* \"#utility.yul\":2611:2649   */\n      tag_325\n        /* \"#utility.yul\":2645:2647   */\n      0x20\n        /* \"#utility.yul\":2634:2643   */\n      dup7\n        /* \"#utility.yul\":2630:2648   */\n      add\n        /* \"#utility.yul\":2611:2649   */\n      tag_294\n      jump\t// in\n    tag_325:\n        /* \"#utility.yul\":2601:2649   */\n      swap3\n      pop\n        /* \"#utility.yul\":2696:2698   */\n      0x40\n        /* \"#utility.yul\":2685:2694   */\n      dup6\n        /* \"#utility.yul\":2681:2699   */\n      add\n        /* \"#utility.yul\":2668:2700   */\n      calldataload\n        /* \"#utility.yul\":2658:2700   */\n      swap2\n      pop\n        /* \"#utility.yul\":2751:2753   */\n      0x60\n        /* \"#utility.yul\":2740:2749   */\n      dup6\n        /* \"#utility.yul\":2736:2754   */\n      add\n        /* \"#utility.yul\":2723:2755   */\n      calldataload\n        /* \"#utility.yul\":2774:2792   */\n      0xffffffffffffffff\n        /* \"#utility.yul\":2815:2817   */\n      dup1\n        /* \"#utility.yul\":2807:2813   */\n      dup3\n        /* \"#utility.yul\":2804:2818   */\n      gt\n        /* \"#utility.yul\":2801:2835   */\n      iszero\n      tag_326\n      jumpi\n        /* \"#utility.yul\":2831:2832   */\n      0x00\n        /* \"#utility.yul\":2828:2829   */\n      dup1\n        /* \"#utility.yul\":2821:2833   */\n      revert\n        /* \"#utility.yul\":2801:2835   */\n    tag_326:\n        /* \"#utility.yul\":2869:2875   */\n      dup2\n        /* \"#utility.yul\":2858:2867   */\n      dup8\n        /* \"#utility.yul\":2854:2876   */\n      add\n        /* \"#utility.yul\":2844:2876   */\n      swap2\n      pop\n        /* \"#utility.yul\":2914:2921   */\n      dup8\n        /* \"#utility.yul\":2907:2911   */\n      0x1f\n        /* \"#utility.yul\":2903:2905   */\n      dup4\n        /* \"#utility.yul\":2899:2912   */\n      add\n        /* \"#utility.yul\":2895:2922   */\n      slt\n        /* \"#utility.yul\":2885:2940   */\n      tag_327\n      jumpi\n        /* \"#utility.yul\":2936:2937   */\n      0x00\n        /* \"#utility.yul\":2933:2934   */\n      dup1\n        /* \"#utility.yul\":2926:2938   */\n      revert\n        /* \"#utility.yul\":2885:2940   */\n    tag_327:\n        /* \"#utility.yul\":2972:2974   */\n      dup2\n        /* \"#utility.yul\":2959:2975   */\n      calldataload\n        /* \"#utility.yul\":2994:2996   */\n      dup2\n        /* \"#utility.yul\":2990:2992   */\n      dup2\n        /* \"#utility.yul\":2987:2997   */\n      gt\n        /* \"#utility.yul\":2984:3020   */\n      iszero\n      tag_329\n      jumpi\n        /* \"#utility.yul\":3000:3018   */\n      tag_329\n      tag_237\n      jump\t// in\n    tag_329:\n        /* \"#utility.yul\":3075:3077   */\n      0x40\n        /* \"#utility.yul\":3069:3078   */\n      mload\n        /* \"#utility.yul\":3043:3045   */\n      0x1f\n        /* \"#utility.yul\":3129:3142   */\n      dup3\n      add\n      not(0x1f)\n        /* \"#utility.yul\":3125:3147   */\n      swap1\n      dup2\n      and\n        /* \"#utility.yul\":3149:3151   */\n      0x3f\n        /* \"#utility.yul\":3121:3152   */\n      add\n        /* \"#utility.yul\":3117:3157   */\n      and\n        /* \"#utility.yul\":3105:3158   */\n      dup2\n      add\n      swap1\n        /* \"#utility.yul\":3173:3191   */\n      dup4\n      dup3\n      gt\n        /* \"#utility.yul\":3193:3215   */\n      dup2\n      dup4\n      lt\n        /* \"#utility.yul\":3170:3216   */\n      or\n        /* \"#utility.yul\":3167:3239   */\n      iszero\n      tag_331\n      jumpi\n        /* \"#utility.yul\":3219:3237   */\n      tag_331\n      tag_237\n      jump\t// in\n    tag_331:\n        /* \"#utility.yul\":3259:3269   */\n      dup2\n        /* \"#utility.yul\":3255:3257   */\n      0x40\n        /* \"#utility.yul\":3248:3270   */\n      mstore\n        /* \"#utility.yul\":3294:3296   */\n      dup3\n        /* \"#utility.yul\":3286:3292   */\n      dup2\n        /* \"#utility.yul\":3279:3297   */\n      mstore\n        /* \"#utility.yul\":3334:3341   */\n      dup11\n        /* \"#utility.yul\":3329:3331   */\n      0x20\n        /* \"#utility.yul\":3324:3326   */\n      dup5\n        /* \"#utility.yul\":3320:3322   */\n      dup8\n        /* \"#utility.yul\":3316:3327   */\n      add\n        /* \"#utility.yul\":3312:3332   */\n      add\n        /* \"#utility.yul\":3309:3342   */\n      gt\n        /* \"#utility.yul\":3306:3359   */\n      iszero\n      tag_332\n      jumpi\n        /* \"#utility.yul\":3355:3356   */\n      0x00\n        /* \"#utility.yul\":3352:3353   */\n      dup1\n        /* \"#utility.yul\":3345:3357   */\n      revert\n        /* \"#utility.yul\":3306:3359   */\n    tag_332:\n        /* \"#utility.yul\":3411:3413   */\n      dup3\n        /* \"#utility.yul\":3406:3408   */\n      0x20\n        /* \"#utility.yul\":3402:3404   */\n      dup7\n        /* \"#utility.yul\":3398:3409   */\n      add\n        /* \"#utility.yul\":3393:3395   */\n      0x20\n        /* \"#utility.yul\":3385:3391   */\n      dup4\n        /* \"#utility.yul\":3381:3396   */\n      add\n        /* \"#utility.yul\":3368:3414   */\n      calldatacopy\n        /* \"#utility.yul\":3456:3457   */\n      0x00\n        /* \"#utility.yul\":3451:3453   */\n      0x20\n        /* \"#utility.yul\":3446:3448   */\n      dup5\n        /* \"#utility.yul\":3438:3444   */\n      dup4\n        /* \"#utility.yul\":3434:3449   */\n      add\n        /* \"#utility.yul\":3430:3454   */\n      add\n        /* \"#utility.yul\":3423:3458   */\n      mstore\n        /* \"#utility.yul\":3477:3483   */\n      dup1\n        /* \"#utility.yul\":3467:3483   */\n      swap6\n      pop\n      pop\n      pop\n      pop\n      pop\n      pop\n        /* \"#utility.yul\":2351:3489   */\n      swap3\n      swap6\n      swap2\n      swap5\n      pop\n      swap3\n      pop\n      jump\t// out\n        /* \"#utility.yul\":3701:4029   */\n    tag_50:\n        /* \"#utility.yul\":3778:3784   */\n      0x00\n        /* \"#utility.yul\":3786:3792   */\n      dup1\n        /* \"#utility.yul\":3794:3800   */\n      0x00\n        /* \"#utility.yul\":3847:3849   */\n      0x60\n        /* \"#utility.yul\":3835:3844   */\n      dup5\n        /* \"#utility.yul\":3826:3833   */\n      dup7\n        /* \"#utility.yul\":3822:3845   */\n      sub\n        /* \"#utility.yul\":3818:3850   */\n      slt\n        /* \"#utility.yul\":3815:3867   */\n      iszero\n      tag_335\n      jumpi\n        /* \"#utility.yul\":3863:3864   */\n      0x00\n        /* \"#utility.yul\":3860:3861   */\n      dup1\n        /* \"#utility.yul\":3853:3865   */\n      revert\n        /* \"#utility.yul\":3815:3867   */\n    tag_335:\n        /* \"#utility.yul\":3886:3915   */\n      tag_336\n        /* \"#utility.yul\":3905:3914   */\n      dup5\n        /* \"#utility.yul\":3886:3915   */\n      tag_294\n      jump\t// in\n    tag_336:\n        /* \"#utility.yul\":3876:3915   */\n      swap3\n      pop\n        /* \"#utility.yul\":3934:3972   */\n      tag_337\n        /* \"#utility.yul\":3968:3970   */\n      0x20\n        /* \"#utility.yul\":3957:3966   */\n      dup6\n        /* \"#utility.yul\":3953:3971   */\n      add\n        /* \"#utility.yul\":3934:3972   */\n      tag_294\n      jump\t// in\n    tag_337:\n        /* \"#utility.yul\":3924:3972   */\n      swap2\n      pop\n        /* \"#utility.yul\":4019:4021   */\n      0x40\n        /* \"#utility.yul\":4008:4017   */\n      dup5\n        /* \"#utility.yul\":4004:4022   */\n      add\n        /* \"#utility.yul\":3991:4023   */\n      calldataload\n        /* \"#utility.yul\":3981:4023   */\n      swap1\n      pop\n        /* \"#utility.yul\":3701:4029   */\n      swap3\n      pop\n      swap3\n      pop\n      swap3\n      jump\t// out\n        /* \"#utility.yul\":4034:4220   */\n    tag_67:\n        /* \"#utility.yul\":4093:4099   */\n      0x00\n        /* \"#utility.yul\":4146:4148   */\n      0x20\n        /* \"#utility.yul\":4134:4143   */\n      dup3\n        /* \"#utility.yul\":4125:4132   */\n      dup5\n        /* \"#utility.yul\":4121:4144   */\n      sub\n        /* \"#utility.yul\":4117:4149   */\n      slt\n        /* \"#utility.yul\":4114:4166   */\n      iszero\n      tag_339\n      jumpi\n        /* \"#utility.yul\":4162:4163   */\n      0x00\n        /* \"#utility.yul\":4159:4160   */\n      dup1\n        /* \"#utility.yul\":4152:4164   */\n      revert\n        /* \"#utility.yul\":4114:4166   */\n    tag_339:\n        /* \"#utility.yul\":4185:4214   */\n      tag_169\n        /* \"#utility.yul\":4204:4213   */\n      dup3\n        /* \"#utility.yul\":4185:4214   */\n      tag_294\n      jump\t// in\n        /* \"#utility.yul\":4407:4754   */\n    tag_76:\n        /* \"#utility.yul\":4472:4478   */\n      0x00\n        /* \"#utility.yul\":4480:4486   */\n      dup1\n        /* \"#utility.yul\":4533:4535   */\n      0x40\n        /* \"#utility.yul\":4521:4530   */\n      dup4\n        /* \"#utility.yul\":4512:4519   */\n      dup6\n        /* \"#utility.yul\":4508:4531   */\n      sub\n        /* \"#utility.yul\":4504:4536   */\n      slt\n        /* \"#utility.yul\":4501:4553   */\n      iszero\n      tag_343\n      jumpi\n        /* \"#utility.yul\":4549:4550   */\n      0x00\n        /* \"#utility.yul\":4546:4547   */\n      dup1\n        /* \"#utility.yul\":4539:4551   */\n      revert\n        /* \"#utility.yul\":4501:4553   */\n    tag_343:\n        /* \"#utility.yul\":4572:4601   */\n      tag_344\n        /* \"#utility.yul\":4591:4600   */\n      dup4\n        /* \"#utility.yul\":4572:4601   */\n      tag_294\n      jump\t// in\n    tag_344:\n        /* \"#utility.yul\":4562:4601   */\n      swap2\n      pop\n        /* \"#utility.yul\":4651:4653   */\n      0x20\n        /* \"#utility.yul\":4640:4649   */\n      dup4\n        /* \"#utility.yul\":4636:4654   */\n      add\n        /* \"#utility.yul\":4623:4655   */\n      calldataload\n        /* \"#utility.yul\":4698:4703   */\n      dup1\n        /* \"#utility.yul\":4691:4704   */\n      iszero\n        /* \"#utility.yul\":4684:4705   */\n      iszero\n        /* \"#utility.yul\":4677:4682   */\n      dup2\n        /* \"#utility.yul\":4674:4706   */\n      eq\n        /* \"#utility.yul\":4664:4724   */\n      tag_345\n      jumpi\n        /* \"#utility.yul\":4720:4721   */\n      0x00\n        /* \"#utility.yul\":4717:4718   */\n      dup1\n        /* \"#utility.yul\":4710:4722   */\n      revert\n        /* \"#utility.yul\":4664:4724   */\n    tag_345:\n        /* \"#utility.yul\":4743:4748   */\n      dup1\n        /* \"#utility.yul\":4733:4748   */\n      swap2\n      pop\n      pop\n        /* \"#utility.yul\":4407:4754   */\n      swap3\n      pop\n      swap3\n      swap1\n      pop\n      jump\t// out\n        /* \"#utility.yul\":4759:5019   */\n    tag_87:\n        /* \"#utility.yul\":4827:4833   */\n      0x00\n        /* \"#utility.yul\":4835:4841   */\n      dup1\n        /* \"#utility.yul\":4888:4890   */\n      0x40\n        /* \"#utility.yul\":4876:4885   */\n      dup4\n        /* \"#utility.yul\":4867:4874   */\n      dup6\n        /* \"#utility.yul\":4863:4886   */\n      sub\n        /* \"#utility.yul\":4859:4891   */\n      slt\n        /* \"#utility.yul\":4856:4908   */\n      iszero\n      tag_347\n      jumpi\n        /* \"#utility.yul\":4904:4905   */\n      0x00\n        /* \"#utility.yul\":4901:4902   */\n      dup1\n        /* \"#utility.yul\":4894:4906   */\n      revert\n        /* \"#utility.yul\":4856:4908   */\n    tag_347:\n        /* \"#utility.yul\":4927:4956   */\n      tag_348\n        /* \"#utility.yul\":4946:4955   */\n      dup4\n        /* \"#utility.yul\":4927:4956   */\n      tag_294\n      jump\t// in\n    tag_348:\n        /* \"#utility.yul\":4917:4956   */\n      swap2\n      pop\n        /* \"#utility.yul\":4975:5013   */\n      tag_349\n        /* \"#utility.yul\":5009:5011   */\n      0x20\n        /* \"#utility.yul\":4998:5007   */\n      dup5\n        /* \"#utility.yul\":4994:5012   */\n      add\n        /* \"#utility.yul\":4975:5013   */\n      tag_294\n      jump\t// in\n    tag_349:\n        /* \"#utility.yul\":4965:5013   */\n      swap1\n      pop\n        /* \"#utility.yul\":4759:5019   */\n      swap3\n      pop\n      swap3\n      swap1\n      pop\n      jump\t// out\n        /* \"#utility.yul\":5024:5404   */\n    tag_97:\n        /* \"#utility.yul\":5103:5104   */\n      0x01\n        /* \"#utility.yul\":5099:5111   */\n      dup2\n      dup2\n      shr\n      swap1\n        /* \"#utility.yul\":5146:5158   */\n      dup3\n      and\n      dup1\n        /* \"#utility.yul\":5167:5228   */\n      tag_351\n      jumpi\n        /* \"#utility.yul\":5221:5225   */\n      0x7f\n        /* \"#utility.yul\":5213:5219   */\n      dup3\n        /* \"#utility.yul\":5209:5226   */\n      and\n        /* \"#utility.yul\":5199:5226   */\n      swap2\n      pop\n        /* \"#utility.yul\":5167:5228   */\n    tag_351:\n        /* \"#utility.yul\":5274:5276   */\n      0x20\n        /* \"#utility.yul\":5266:5272   */\n      dup3\n        /* \"#utility.yul\":5263:5277   */\n      lt\n        /* \"#utility.yul\":5243:5261   */\n      dup2\n        /* \"#utility.yul\":5240:5278   */\n      sub\n        /* \"#utility.yul\":5237:5398   */\n      tag_352\n      jumpi\n        /* \"#utility.yul\":5320:5330   */\n      0x4e487b71\n        /* \"#utility.yul\":5315:5318   */\n      0xe0\n        /* \"#utility.yul\":5311:5331   */\n      shl\n        /* \"#utility.yul\":5308:5309   */\n      0x00\n        /* \"#utility.yul\":5301:5332   */\n      mstore\n        /* \"#utility.yul\":5355:5359   */\n      0x22\n        /* \"#utility.yul\":5352:5353   */\n      0x04\n        /* \"#utility.yul\":5345:5360   */\n      mstore\n        /* \"#utility.yul\":5383:5387   */\n      0x24\n        /* \"#utility.yul\":5380:5381   */\n      0x00\n        /* \"#utility.yul\":5373:5388   */\n      revert\n        /* \"#utility.yul\":5237:5398   */\n    tag_352:\n      pop\n        /* \"#utility.yul\":5024:5404   */\n      swap2\n      swap1\n      pop\n      jump\t// out\n        /* \"#utility.yul\":7418:7888   */\n    tag_173:\n        /* \"#utility.yul\":7597:7600   */\n      0x00\n        /* \"#utility.yul\":7635:7641   */\n      dup4\n        /* \"#utility.yul\":7629:7642   */\n      mload\n        /* \"#utility.yul\":7651:7704   */\n      tag_359\n        /* \"#utility.yul\":7697:7703   */\n      dup2\n        /* \"#utility.yul\":7692:7695   */\n      dup5\n        /* \"#utility.yul\":7685:7689   */\n      0x20\n        /* \"#utility.yul\":7677:7683   */\n      dup9\n        /* \"#utility.yul\":7673:7690   */\n      add\n        /* \"#utility.yul\":7651:7704   */\n      tag_292\n      jump\t// in\n    tag_359:\n        /* \"#utility.yul\":7767:7780   */\n      dup4\n      mload\n        /* \"#utility.yul\":7726:7742   */\n      swap1\n      dup4\n      add\n      swap1\n        /* \"#utility.yul\":7789:7846   */\n      tag_360\n        /* \"#utility.yul\":7767:7780   */\n      dup2\n        /* \"#utility.yul\":7726:7742   */\n      dup4\n        /* \"#utility.yul\":7823:7827   */\n      0x20\n        /* \"#utility.yul\":7811:7828   */\n      dup9\n      add\n        /* \"#utility.yul\":7789:7846   */\n      tag_292\n      jump\t// in\n    tag_360:\n        /* \"#utility.yul\":7862:7882   */\n      add\n      swap5\n        /* \"#utility.yul\":7418:7888   */\n      swap4\n      pop\n      pop\n      pop\n      pop\n      jump\t// out\n        /* \"#utility.yul\":8704:8831   */\n    tag_295:\n        /* \"#utility.yul\":8765:8775   */\n      0x4e487b71\n        /* \"#utility.yul\":8760:8763   */\n      0xe0\n        /* \"#utility.yul\":8756:8776   */\n      shl\n        /* \"#utility.yul\":8753:8754   */\n      0x00\n        /* \"#utility.yul\":8746:8777   */\n      mstore\n        /* \"#utility.yul\":8796:8800   */\n      0x11\n        /* \"#utility.yul\":8793:8794   */\n      0x04\n        /* \"#utility.yul\":8786:8801   */\n      mstore\n        /* \"#utility.yul\":8820:8824   */\n      0x24\n        /* \"#utility.yul\":8817:8818   */\n      0x00\n        /* \"#utility.yul\":8810:8825   */\n      revert\n        /* \"#utility.yul\":8836:8961   */\n    tag_201:\n        /* \"#utility.yul\":8876:8880   */\n      0x00\n        /* \"#utility.yul\":8904:8905   */\n      dup3\n        /* \"#utility.yul\":8901:8902   */\n      dup3\n        /* \"#utility.yul\":8898:8906   */\n      lt\n        /* \"#utility.yul\":8895:8929   */\n      iszero\n      tag_366\n      jumpi\n        /* \"#utility.yul\":8909:8927   */\n      tag_366\n      tag_295\n      jump\t// in\n    tag_366:\n      pop\n        /* \"#utility.yul\":8946:8955   */\n      sub\n      swap1\n        /* \"#utility.yul\":8836:8961   */\n      jump\t// out\n        /* \"#utility.yul\":8966:9094   */\n    tag_203:\n        /* \"#utility.yul\":9006:9009   */\n      0x00\n        /* \"#utility.yul\":9037:9038   */\n      dup3\n        /* \"#utility.yul\":9033:9039   */\n      not\n        /* \"#utility.yul\":9030:9031   */\n      dup3\n        /* \"#utility.yul\":9027:9040   */\n      gt\n        /* \"#utility.yul\":9024:9063   */\n      iszero\n      tag_369\n      jumpi\n        /* \"#utility.yul\":9043:9061   */\n      tag_369\n      tag_295\n      jump\t// in\n    tag_369:\n      pop\n        /* \"#utility.yul\":9079:9088   */\n      add\n      swap1\n        /* \"#utility.yul\":8966:9094   */\n      jump\t// out\n        /* \"#utility.yul\":9872:10007   */\n    tag_232:\n        /* \"#utility.yul\":9911:9914   */\n      0x00\n        /* \"#utility.yul\":9932:9949   */\n      0x01\n      dup3\n      add\n        /* \"#utility.yul\":9929:9972   */\n      tag_374\n      jumpi\n        /* \"#utility.yul\":9952:9970   */\n      tag_374\n      tag_295\n      jump\t// in\n    tag_374:\n      pop\n        /* \"#utility.yul\":9999:10000   */\n      0x01\n        /* \"#utility.yul\":9988:10001   */\n      add\n      swap1\n        /* \"#utility.yul\":9872:10007   */\n      jump\t// out\n        /* \"#utility.yul\":10012:10139   */\n    tag_296:\n        /* \"#utility.yul\":10073:10083   */\n      0x4e487b71\n        /* \"#utility.yul\":10068:10071   */\n      0xe0\n        /* \"#utility.yul\":10064:10084   */\n      shl\n        /* \"#utility.yul\":10061:10062   */\n      0x00\n        /* \"#utility.yul\":10054:10085   */\n      mstore\n        /* \"#utility.yul\":10104:10108   */\n      0x12\n        /* \"#utility.yul\":10101:10102   */\n      0x04\n        /* \"#utility.yul\":10094:10109   */\n      mstore\n        /* \"#utility.yul\":10128:10132   */\n      0x24\n        /* \"#utility.yul\":10125:10126   */\n      0x00\n        /* \"#utility.yul\":10118:10133   */\n      revert\n        /* \"#utility.yul\":10144:10264   */\n    tag_234:\n        /* \"#utility.yul\":10184:10185   */\n      0x00\n        /* \"#utility.yul\":10210:10211   */\n      dup3\n        /* \"#utility.yul\":10200:10235   */\n      tag_378\n      jumpi\n        /* \"#utility.yul\":10215:10233   */\n      tag_378\n      tag_296\n      jump\t// in\n    tag_378:\n      pop\n        /* \"#utility.yul\":10249:10258   */\n      div\n      swap1\n        /* \"#utility.yul\":10144:10264   */\n      jump\t// out\n        /* \"#utility.yul\":10269:10381   */\n    tag_243:\n        /* \"#utility.yul\":10301:10302   */\n      0x00\n        /* \"#utility.yul\":10327:10328   */\n      dup3\n        /* \"#utility.yul\":10317:10352   */\n      tag_381\n      jumpi\n        /* \"#utility.yul\":10332:10350   */\n      tag_381\n      tag_296\n      jump\t// in\n    tag_381:\n      pop\n        /* \"#utility.yul\":10366:10375   */\n      mod\n      swap1\n        /* \"#utility.yul\":10269:10381   */\n      jump\t// out\n        /* \"#utility.yul\":10386:10513   */\n    tag_247:\n        /* \"#utility.yul\":10447:10457   */\n      0x4e487b71\n        /* \"#utility.yul\":10442:10445   */\n      0xe0\n        /* \"#utility.yul\":10438:10458   */\n      shl\n        /* \"#utility.yul\":10435:10436   */\n      0x00\n        /* \"#utility.yul\":10428:10459   */\n      mstore\n        /* \"#utility.yul\":10478:10482   */\n      0x32\n        /* \"#utility.yul\":10475:10476   */\n      0x04\n        /* \"#utility.yul\":10468:10483   */\n      mstore\n        /* \"#utility.yul\":10502:10506   */\n      0x24\n        /* \"#utility.yul\":10499:10500   */\n      0x00\n        /* \"#utility.yul\":10492:10507   */\n      revert\n        /* \"#utility.yul\":10518:11030   */\n    tag_264:\n        /* \"#utility.yul\":10712:10716   */\n      0x00\n      sub(shl(0xa0, 0x01), 0x01)\n        /* \"#utility.yul\":10822:10824   */\n      dup1\n        /* \"#utility.yul\":10814:10820   */\n      dup8\n        /* \"#utility.yul\":10810:10825   */\n      and\n        /* \"#utility.yul\":10799:10808   */\n      dup4\n        /* \"#utility.yul\":10792:10826   */\n      mstore\n        /* \"#utility.yul\":10874:10876   */\n      dup1\n        /* \"#utility.yul\":10866:10872   */\n      dup7\n        /* \"#utility.yul\":10862:10877   */\n      and\n        /* \"#utility.yul\":10857:10859   */\n      0x20\n        /* \"#utility.yul\":10846:10855   */\n      dup5\n        /* \"#utility.yul\":10842:10860   */\n      add\n        /* \"#utility.yul\":10835:10878   */\n      mstore\n      pop\n        /* \"#utility.yul\":10914:10920   */\n      dup4\n        /* \"#utility.yul\":10909:10911   */\n      0x40\n        /* \"#utility.yul\":10898:10907   */\n      dup4\n        /* \"#utility.yul\":10894:10912   */\n      add\n        /* \"#utility.yul\":10887:10921   */\n      mstore\n        /* \"#utility.yul\":10957:10960   */\n      0x80\n        /* \"#utility.yul\":10952:10954   */\n      0x60\n        /* \"#utility.yul\":10941:10950   */\n      dup4\n        /* \"#utility.yul\":10937:10955   */\n      add\n        /* \"#utility.yul\":10930:10961   */\n      mstore\n        /* \"#utility.yul\":10978:11024   */\n      tag_384\n        /* \"#utility.yul\":11019:11022   */\n      0x80\n        /* \"#utility.yul\":11008:11017   */\n      dup4\n        /* \"#utility.yul\":11004:11023   */\n      add\n        /* \"#utility.yul\":10996:11002   */\n      dup5\n        /* \"#utility.yul\":10978:11024   */\n      tag_293\n      jump\t// in\n    tag_384:\n        /* \"#utility.yul\":10970:11024   */\n      swap7\n        /* \"#utility.yul\":10518:11030   */\n      swap6\n      pop\n      pop\n      pop\n      pop\n      pop\n      pop\n      jump\t// out\n        /* \"#utility.yul\":11035:11284   */\n    tag_267:\n        /* \"#utility.yul\":11104:11110   */\n      0x00\n        /* \"#utility.yul\":11157:11159   */\n      0x20\n        /* \"#utility.yul\":11145:11154   */\n      dup3\n        /* \"#utility.yul\":11136:11143   */\n      dup5\n        /* \"#utility.yul\":11132:11155   */\n      sub\n        /* \"#utility.yul\":11128:11160   */\n      slt\n        /* \"#utility.yul\":11125:11177   */\n      iszero\n      tag_386\n      jumpi\n        /* \"#utility.yul\":11173:11174   */\n      0x00\n        /* \"#utility.yul\":11170:11171   */\n      dup1\n        /* \"#utility.yul\":11163:11175   */\n      revert\n        /* \"#utility.yul\":11125:11177   */\n    tag_386:\n        /* \"#utility.yul\":11205:11214   */\n      dup2\n        /* \"#utility.yul\":11199:11215   */\n      mload\n        /* \"#utility.yul\":11224:11254   */\n      tag_169\n        /* \"#utility.yul\":11248:11253   */\n      dup2\n        /* \"#utility.yul\":11224:11254   */\n      tag_291\n      jump\t// in\n\n    auxdata: 0xa26469706673582212201644eae50da4d3a82f572e7bbc70169677f234d22a1480ea0051b081a20973e964736f6c634300080d0033\n}\n",
    "bytecode": {
      "linkReferences": {},
      "object": "60806040523480156200001157600080fd5b5060405162001838380380620018388339810160408190526200003491620001db565b81516200004990600090602085019062000068565b5080516200005f90600190602084019062000068565b50505062000281565b828054620000769062000245565b90600052602060002090601f0160209004810192826200009a5760008555620000e5565b82601f10620000b557805160ff1916838001178555620000e5565b82800160010185558215620000e5579182015b82811115620000e5578251825591602001919060010190620000c8565b50620000f3929150620000f7565b5090565b5b80821115620000f35760008155600101620000f8565b634e487b7160e01b600052604160045260246000fd5b600082601f8301126200013657600080fd5b81516001600160401b03808211156200015357620001536200010e565b604051601f8301601f19908116603f011681019082821181831017156200017e576200017e6200010e565b816040528381526020925086838588010111156200019b57600080fd5b600091505b83821015620001bf5785820183015181830184015290820190620001a0565b83821115620001d15760008385830101525b9695505050505050565b60008060408385031215620001ef57600080fd5b82516001600160401b03808211156200020757600080fd5b620002158683870162000124565b935060208501519150808211156200022c57600080fd5b506200023b8582860162000124565b9150509250929050565b600181811c908216806200025a57607f821691505b6020821081036200027b57634e487b7160e01b600052602260045260246000fd5b50919050565b6115a780620002916000396000f3fe608060405234801561001057600080fd5b50600436106101005760003560e01c806342966c6811610097578063a22cb46511610066578063a22cb46514610236578063b88d4fde14610249578063c87b56dd1461025c578063e985e9c51461026f57600080fd5b806342966c68146101e75780636352211e146101fa57806370a082311461020d57806395d89b411461022e57600080fd5b8063150b7a02116100d3578063150b7a021461018257806323b872dd146101ae57806340c10f19146101c157806342842e0e146101d457600080fd5b806301ffc9a71461010557806306fdde031461012d578063081812fc14610142578063095ea7b31461016d575b600080fd5b61011861011336600461115e565b6102ab565b60405190151581526020015b60405180910390f35b6101356102fd565b60405161012491906111d3565b6101556101503660046111e6565b61038f565b6040516001600160a01b039091168152602001610124565b61018061017b36600461121b565b6103b6565b005b61019561019036600461125b565b6104d0565b6040516001600160e01b03199091168152602001610124565b6101806101bc366004611337565b61054c565b6101806101cf36600461121b565b6105c3565b6101806101e2366004611337565b6105d1565b6101806101f53660046111e6565b6105ec565b6101556102083660046111e6565b6105f8565b61022061021b366004611373565b61065d565b604051908152602001610124565b6101356106f7565b61018061024436600461138e565b610706565b61018061025736600461125b565b610711565b61013561026a3660046111e6565b61078f565b61011861027d3660046113ca565b6001600160a01b03918216600090815260056020908152604080832093909416825291909152205460ff1690565b60006001600160e01b031982166380ac58cd60e01b14806102dc57506001600160e01b03198216635b5e139f60e01b145b806102f757506301ffc9a760e01b6001600160e01b03198316145b92915050565b60606000805461030c906113fd565b80601f0160208091040260200160405190810160405280929190818152602001828054610338906113fd565b80156103855780601f1061035a57610100808354040283529160200191610385565b820191906000526020600020905b81548152906001019060200180831161036857829003601f168201915b5050505050905090565b600061039a82610803565b506000908152600460205260409020546001600160a01b031690565b60006103c1826105f8565b9050806001600160a01b0316836001600160a01b0316036104335760405162461bcd60e51b815260206004820152602160248201527f4552433732313a20617070726f76616c20746f2063757272656e74206f776e656044820152603960f91b60648201526084015b60405180910390fd5b336001600160a01b038216148061044f575061044f813361027d565b6104c15760405162461bcd60e51b815260206004820152603d60248201527f4552433732313a20617070726f76652063616c6c6572206973206e6f7420746f60448201527f6b656e206f776e6572206f7220617070726f76656420666f7220616c6c000000606482015260840161042a565b6104cb8383610867565b505050565b6001600160a01b038381166000818152600560209081526040808320948916808452948252808320805460ff191660019081179091559051908152919392917f17307eab39ab6107e8899845ad3d59bd9653f200f220920489ca2b5937696c31910160405180910390a350630a85bd0160e11b5b949350505050565b61055633826108d5565b6105b85760405162461bcd60e51b815260206004820152602d60248201527f4552433732313a2063616c6c6572206973206e6f7420746f6b656e206f776e6560448201526c1c881bdc88185c1c1c9bdd9959609a1b606482015260840161042a565b6104cb838383610953565b6105cd8282610b16565b5050565b6104cb83838360405180602001604052806000815250610711565b6105f581610b30565b50565b6000818152600260205260408120546001600160a01b0316806102f75760405162461bcd60e51b815260206004820152601860248201527f4552433732313a20696e76616c696420746f6b656e2049440000000000000000604482015260640161042a565b60006001600160a01b0382166106db5760405162461bcd60e51b815260206004820152602960248201527f4552433732313a2061646472657373207a65726f206973206e6f74206120766160448201527f6c6964206f776e65720000000000000000000000000000000000000000000000606482015260840161042a565b506001600160a01b031660009081526003602052604090205490565b60606001805461030c906113fd565b6105cd338383610bda565b61071b33836108d5565b61077d5760405162461bcd60e51b815260206004820152602d60248201527f4552433732313a2063616c6c6572206973206e6f7420746f6b656e206f776e6560448201526c1c881bdc88185c1c1c9bdd9959609a1b606482015260840161042a565b61078984848484610ca8565b50505050565b606061079a82610803565b60006107b160408051602081019091526000815290565b905060008151116107d157604051806020016040528060008152506107fc565b806107db84610d26565b6040516020016107ec929190611437565b6040516020818303038152906040525b9392505050565b6000818152600260205260409020546001600160a01b03166105f55760405162461bcd60e51b815260206004820152601860248201527f4552433732313a20696e76616c696420746f6b656e2049440000000000000000604482015260640161042a565b600081815260046020526040902080546001600160a01b0319166001600160a01b038416908117909155819061089c826105f8565b6001600160a01b03167f8c5be1e5ebec7d5bd14f71427d1e84f3dd0314c0f7b2291e5b200ac8c7c3b92560405160405180910390a45050565b6000806108e1836105f8565b9050806001600160a01b0316846001600160a01b0316148061092857506001600160a01b0380821660009081526005602090815260408083209388168352929052205460ff165b806105445750836001600160a01b03166109418461038f565b6001600160a01b031614949350505050565b826001600160a01b0316610966826105f8565b6001600160a01b0316146109e25760405162461bcd60e51b815260206004820152602560248201527f4552433732313a207472616e736665722066726f6d20696e636f72726563742060448201527f6f776e6572000000000000000000000000000000000000000000000000000000606482015260840161042a565b6001600160a01b038216610a445760405162461bcd60e51b8152602060048201526024808201527f4552433732313a207472616e7366657220746f20746865207a65726f206164646044820152637265737360e01b606482015260840161042a565b600081815260046020908152604080832080546001600160a01b03191690556001600160a01b038616835260039091528120805460019290610a8790849061147c565b90915550506001600160a01b0382166000908152600360205260408120805460019290610ab5908490611493565b909155505060008181526002602052604080822080546001600160a01b0319166001600160a01b0386811691821790925591518493918716917fddf252ad1be2c89b69c2b068fc378daa952ba7f163c4a11628f55a4df523b3ef91a4505050565b6105cd828260405180602001604052806000815250610e3f565b6000610b3b826105f8565b9050600082815260046020908152604080832080546001600160a01b03191690556001600160a01b038416835260039091528120805460019290610b8090849061147c565b909155505060008281526002602052604080822080546001600160a01b0319169055518391906001600160a01b038416907fddf252ad1be2c89b69c2b068fc378daa952ba7f163c4a11628f55a4df523b3ef908390a45050565b816001600160a01b0316836001600160a01b031603610c3b5760405162461bcd60e51b815260206004820152601960248201527f4552433732313a20617070726f766520746f2063616c6c657200000000000000604482015260640161042a565b6001600160a01b03838116600081815260056020908152604080832094871680845294825291829020805460ff191686151590811790915591519182527f17307eab39ab6107e8899845ad3d59bd9653f200f220920489ca2b5937696c31910160405180910390a3505050565b610cb3848484610953565b610cbf84848484610ebd565b6107895760405162461bcd60e51b815260206004820152603260248201527f4552433732313a207472616e7366657220746f206e6f6e20455243373231526560448201527131b2b4bb32b91034b6b83632b6b2b73a32b960711b606482015260840161042a565b606081600003610d4d5750506040805180820190915260018152600360fc1b602082015290565b8160005b8115610d775780610d61816114ab565b9150610d709050600a836114da565b9150610d51565b60008167ffffffffffffffff811115610d9257610d92611245565b6040519080825280601f01601f191660200182016040528015610dbc576020820181803683370190505b5090505b841561054457610dd160018361147c565b9150610dde600a866114ee565b610de9906030611493565b60f81b818381518110610dfe57610dfe611502565b60200101907effffffffffffffffffffffffffffffffffffffffffffffffffffffffffffff1916908160001a905350610e38600a866114da565b9450610dc0565b610e498383611006565b610e566000848484610ebd565b6104cb5760405162461bcd60e51b815260206004820152603260248201527f4552433732313a207472616e7366657220746f206e6f6e20455243373231526560448201527131b2b4bb32b91034b6b83632b6b2b73a32b960711b606482015260840161042a565b60006001600160a01b0384163b15610ffe57604051630a85bd0160e11b81526001600160a01b0385169063150b7a0290610f01903390899088908890600401611518565b6020604051808303816000875af1925050508015610f3c575060408051601f3d908101601f19168201909252610f3991810190611554565b60015b610fe4573d808015610f6a576040519150601f19603f3d011682016040523d82523d6000602084013e610f6f565b606091505b508051600003610fdc5760405162461bcd60e51b815260206004820152603260248201527f4552433732313a207472616e7366657220746f206e6f6e20455243373231526560448201527131b2b4bb32b91034b6b83632b6b2b73a32b960711b606482015260840161042a565b805181602001fd5b6001600160e01b031916630a85bd0160e11b149050610544565b506001610544565b6001600160a01b03821661105c5760405162461bcd60e51b815260206004820181905260248201527f4552433732313a206d696e7420746f20746865207a65726f2061646472657373604482015260640161042a565b6000818152600260205260409020546001600160a01b0316156110c15760405162461bcd60e51b815260206004820152601c60248201527f4552433732313a20746f6b656e20616c7265616479206d696e74656400000000604482015260640161042a565b6001600160a01b03821660009081526003602052604081208054600192906110ea908490611493565b909155505060008181526002602052604080822080546001600160a01b0319166001600160a01b03861690811790915590518392907fddf252ad1be2c89b69c2b068fc378daa952ba7f163c4a11628f55a4df523b3ef908290a45050565b6001600160e01b0319811681146105f557600080fd5b60006020828403121561117057600080fd5b81356107fc81611148565b60005b8381101561119657818101518382015260200161117e565b838111156107895750506000910152565b600081518084526111bf81602086016020860161117b565b601f01601f19169290920160200192915050565b6020815260006107fc60208301846111a7565b6000602082840312156111f857600080fd5b5035919050565b80356001600160a01b038116811461121657600080fd5b919050565b6000806040838503121561122e57600080fd5b611237836111ff565b946020939093013593505050565b634e487b7160e01b600052604160045260246000fd5b6000806000806080858703121561127157600080fd5b61127a856111ff565b9350611288602086016111ff565b925060408501359150606085013567ffffffffffffffff808211156112ac57600080fd5b818701915087601f8301126112c057600080fd5b8135818111156112d2576112d2611245565b604051601f8201601f19908116603f011681019083821181831017156112fa576112fa611245565b816040528281528a602084870101111561131357600080fd5b82602086016020830137600060208483010152809550505050505092959194509250565b60008060006060848603121561134c57600080fd5b611355846111ff565b9250611363602085016111ff565b9150604084013590509250925092565b60006020828403121561138557600080fd5b6107fc826111ff565b600080604083850312156113a157600080fd5b6113aa836111ff565b9150602083013580151581146113bf57600080fd5b809150509250929050565b600080604083850312156113dd57600080fd5b6113e6836111ff565b91506113f4602084016111ff565b90509250929050565b600181811c9082168061141157607f821691505b60208210810361143157634e487b7160e01b600052602260045260246000fd5b50919050565b6000835161144981846020880161117b565b83519083019061145d81836020880161117b565b01949350505050565b634e487b7160e01b600052601160045260246000fd5b60008282101561148e5761148e611466565b500390565b600082198211156114a6576114a6611466565b500190565b6000600182016114bd576114bd611466565b5060010190565b634e487b7160e01b600052601260045260246000fd5b6000826114e9576114e96114c4565b500490565b6000826114fd576114fd6114c4565b500690565b634e487b7160e01b600052603260045260246000fd5b60006001600160a01b0380871683528086166020840152508360408301526080606083015261154a60808301846111a7565b9695505050505050565b60006020828403121561156657600080fd5b81516107fc8161114856fea26469706673582212201644eae50da4d3a82f572e7bbc70169677f234d22a1480ea0051b081a20973e964736f6c634300080d0033",
      "opcodes": "PUSH1 0x80 PUSH1 0x40 MSTORE CALLVALUE DUP1 ISZERO PUSH3 0x11 JUMPI PUSH1 0x0 DUP1 REVERT JUMPDEST POP PUSH1 0x40 MLOAD PUSH3 0x1838 CODESIZE SUB DUP1 PUSH3 0x1838 DUP4 CODECOPY DUP2 ADD PUSH1 0x40 DUP2 SWAP1 MSTORE PUSH3 0x34 SWAP2 PUSH3 0x1DB JUMP JUMPDEST DUP2 MLOAD PUSH3 0x49 SWAP1 PUSH1 0x0 SWAP1 PUSH1 0x20 DUP6 ADD SWAP1 PUSH3 0x68 JUMP JUMPDEST POP DUP1 MLOAD PUSH3 0x5F SWAP1 PUSH1 0x1 SWAP1 PUSH1 0x20 DUP5 ADD SWAP1 PUSH3 0x68 JUMP JUMPDEST POP POP POP PUSH3 0x281 JUMP JUMPDEST DUP3 DUP1 SLOAD PUSH3 0x76 SWAP1 PUSH3 0x245 JUMP JUMPDEST SWAP1 PUSH1 0x0 MSTORE PUSH1 0x20 PUSH1 0x0 KECCAK256 SWAP1 PUSH1 0x1F ADD PUSH1 0x20 SWAP1 DIV DUP2 ADD SWAP3 DUP3 PUSH3 0x9A JUMPI PUSH1 0x0 DUP6 SSTORE PUSH3 0xE5 JUMP JUMPDEST DUP3 PUSH1 0x1F LT PUSH3 0xB5 JUMPI DUP1 MLOAD PUSH1 0xFF NOT AND DUP4 DUP1 ADD OR DUP6 SSTORE PUSH3 0xE5 JUMP JUMPDEST DUP3 DUP1 ADD PUSH1 0x1 ADD DUP6 SSTORE DUP3 ISZERO PUSH3 0xE5 JUMPI SWAP2 DUP3 ADD JUMPDEST DUP3 DUP2 GT ISZERO PUSH3 0xE5 JUMPI DUP3 MLOAD DUP3 SSTORE SWAP2 PUSH1 0x20 ADD SWAP2 SWAP1 PUSH1 0x1 ADD SWAP1 PUSH3 0xC8 JUMP JUMPDEST POP PUSH3 0xF3 SWAP3 SWAP2 POP PUSH3 0xF7 JUMP JUMPDEST POP SWAP1 JUMP JUMPDEST JUMPDEST DUP1 DUP3 GT ISZERO PUSH3 0xF3 JUMPI PUSH1 0x0 DUP2 SSTORE PUSH1 0x1 ADD PUSH3 0xF8 JUMP JUMPDEST PUSH4 0x4E487B71 PUSH1 0xE0 SHL PUSH1 0x0 MSTORE PUSH1 0x41 PUSH1 0x4 MSTORE PUSH1 0x24 PUSH1 0x0 REVERT JUMPDEST PUSH1 0x0 DUP3 PUSH1 0x1F DUP4 ADD SLT PUSH3 0x136 JUMPI PUSH1 0x0 DUP1 REVERT JUMPDEST DUP2 MLOAD PUSH1 0x1 PUSH1 0x1 PUSH1 0x40 SHL SUB DUP1 DUP3 GT ISZERO PUSH3 0x153 JUMPI PUSH3 0x153 PUSH3 0x10E JUMP JUMPDEST PUSH1 0x40 MLOAD PUSH1 0x1F DUP4 ADD PUSH1 0x1F NOT SWAP1 DUP2 AND PUSH1 0x3F ADD AND DUP2 ADD SWAP1 DUP3 DUP3 GT DUP2 DUP4 LT OR ISZERO PUSH3 0x17E JUMPI PUSH3 0x17E PUSH3 0x10E JUMP JUMPDEST DUP2 PUSH1 0x40 MSTORE DUP4 DUP2 MSTORE PUSH1 0x20 SWAP3 POP DUP7 DUP4 DUP6 DUP9 ADD ADD GT ISZERO PUSH3 0x19B JUMPI PUSH1 0x0 DUP1 REVERT JUMPDEST PUSH1 0x0 SWAP2 POP JUMPDEST DUP4 DUP3 LT ISZERO PUSH3 0x1BF JUMPI DUP6 DUP3 ADD DUP4 ADD MLOAD DUP2 DUP4 ADD DUP5 ADD MSTORE SWAP1 DUP3 ADD SWAP1 PUSH3 0x1A0 JUMP JUMPDEST DUP4 DUP3 GT ISZERO PUSH3 0x1D1 JUMPI PUSH1 0x0 DUP4 DUP6 DUP4 ADD ADD MSTORE JUMPDEST SWAP7 SWAP6 POP POP POP POP POP POP JUMP JUMPDEST PUSH1 0x0 DUP1 PUSH1 0x40 DUP4 DUP6 SUB SLT ISZERO PUSH3 0x1EF JUMPI PUSH1 0x0 DUP1 REVERT JUMPDEST DUP3 MLOAD PUSH1 0x1 PUSH1 0x1 PUSH1 0x40 SHL SUB DUP1 DUP3 GT ISZERO PUSH3 0x207 JUMPI PUSH1 0x0 DUP1 REVERT JUMPDEST PUSH3 0x215 DUP7 DUP4 DUP8 ADD PUSH3 0x124 JUMP JUMPDEST SWAP4 POP PUSH1 0x20 DUP6 ADD MLOAD SWAP2 POP DUP1 DUP3 GT ISZERO PUSH3 0x22C JUMPI PUSH1 0x0 DUP1 REVERT JUMPDEST POP PUSH3 0x23B DUP6 DUP3 DUP7 ADD PUSH3 0x124 JUMP JUMPDEST SWAP2 POP POP SWAP3 POP SWAP3 SWAP1 POP JUMP JUMPDEST PUSH1 0x1 DUP2 DUP2 SHR SWAP1 DUP3 AND DUP1 PUSH3 0x25A JUMPI PUSH1 0x7F DUP3 AND SWAP2 POP JUMPDEST PUSH1 0x20 DUP3 LT DUP2 SUB PUSH3 0x27B JUMPI PUSH4 0x4E487B71 PUSH1 0xE0 SHL PUSH1 0x0 MSTORE PUSH1 0x22 PUSH1 0x4 MSTORE PUSH1 0x24 PUSH1 0x0 REVERT JUMPDEST POP SWAP2 SWAP1 POP JUMP JUMPDEST PUSH2 0x15A7 DUP1 PUSH3 0x291 PUSH1 0x0 CODECOPY PUSH1 0x0 RETURN INVALID PUSH1 0x80 PUSH1 0x40 MSTORE CALLVALUE DUP1 ISZERO PUSH2 0x10 JUMPI PUSH1 0x0 DUP1 REVERT JUMPDEST POP PUSH1 0x4 CALLDATASIZE LT PUSH2 0x100 JUMPI PUSH1 0x0 CALLDATALOAD PUSH1 0xE0 SHR DUP1 PUSH4 0x42966C68 GT PUSH2 0x97 JUMPI DUP1 PUSH4 0xA22CB465 GT PUSH2 0x66 JUMPI DUP1 PUSH4 0xA22CB465 EQ PUSH2 0x236 JUMPI DUP1 PUSH4 0xB88D4FDE EQ PUSH2 0x249 JUMPI DUP1 PUSH4 0xC87B56DD EQ PUSH2 0x25C JUMPI DUP1 PUSH4 0xE985E9C5 EQ PUSH2 0x26F JUMPI PUSH1 0x0 DUP1 REVERT JUMPDEST DUP1 PUSH4 0x42966C68 EQ PUSH2 0x1E7 JUMPI DUP1 PUSH4 0x6352211E EQ PUSH2 0x1FA JUMPI DUP1 PUSH4 0x70A08231 EQ PUSH2 0x20D JUMPI DUP1 PUSH4 0x95D89B41 EQ PUSH2 0x22E JUMPI PUSH1 0x0 DUP1 REVERT JUMPDEST DUP1 PUSH4 0x150B7A02 GT PUSH2 0xD3 JUMPI DUP1 PUSH4 0x150B7A02 EQ PUSH2 0x182 JUMPI DUP1 PUSH4 0x23B872DD EQ PUSH2 0x1AE JUMPI DUP1 PUSH4 0x40C10F19 EQ PUSH2 0x1C1 JUMPI DUP1 PUSH4 0x42842E0E EQ PUSH2 0x1D4 JUMPI PUSH1 0x0 DUP1 REVERT JUMPDEST DUP1 PUSH4 0x1FFC9A7 EQ PUSH2 0x105 JUMPI DUP1 PUSH4 0x6FDDE03 EQ PUSH2 0x12D JUMPI DUP1 PUSH4 0x81812FC EQ PUSH2 0x142 JUMPI DUP1 PUSH4 0x95EA7B3 EQ PUSH2 0x16D JUMPI JUMPDEST PUSH1 0x0 DUP1 REVERT JUMPDEST PUSH2 0x118 PUSH2 0x113 CALLDATASIZE PUSH1 0x4 PUSH2 0x115E JUMP JUMPDEST PUSH2 0x2AB JUMP JUMPDEST PUSH1 0x40 MLOAD SWAP1 ISZERO ISZERO DUP2 MSTORE PUSH1 0x20 ADD JUMPDEST PUSH1 0x40 MLOAD DUP1 SWAP2 SUB SWAP1 RETURN JUMPDEST PUSH2 0x135 PUSH2 0x2FD JUMP JUMPDEST PUSH1 0x40 MLOAD PUSH2 0x124 SWAP2 SWAP1 PUSH2 0x11D3 JUMP JUMPDEST PUSH2 0x155 PUSH2 0x150 CALLDATASIZE PUSH1 0x4 PUSH2 0x11E6 JUMP JUMPDEST PUSH2 0x38F JUMP JUMPDEST PUSH1 0x40 MLOAD PUSH1 0x1 PUSH1 0x1 PUSH1 0xA0 SHL SUB SWAP1 SWAP2 AND DUP2 MSTORE PUSH1 0x20 ADD PUSH2 0x124 JUMP JUMPDEST PUSH2 0x180 PUSH2 0x17B CALLDATASIZE PUSH1 0x4 PUSH2 0x121B JUMP JUMPDEST PUSH2 0x3B6 JUMP JUMPDEST STOP JUMPDEST PUSH2 0x195 PUSH2 0x190 CALLDATASIZE PUSH1 0x4 PUSH2 0x125B JUMP JUMPDEST PUSH2 0x4D0 JUMP JUMPDEST PUSH1 0x40 MLOAD PUSH1 0x1 PUSH1 0x1 PUSH1 0xE0 SHL SUB NOT SWAP1 SWAP2 AND DUP2 MSTORE PUSH1 0x20 ADD PUSH2 0x124 JUMP JUMPDEST PUSH2 0x180 PUSH2 0x1BC CALLDATASIZE PUSH1 0x4 PUSH2 0x1337 JUMP JUMPDEST PUSH2 0x54C JUMP JUMPDEST PUSH2 0x180 PUSH2 0x1CF CALLDATASIZE PUSH1 0x4 PUSH2 0x121B JUMP JUMPDEST PUSH2 0x5C3 JUMP JUMPDEST PUSH2 0x180 PUSH2 0x1E2 CALLDATASIZE PUSH1 0x4 PUSH2 0x1337 JUMP JUMPDEST PUSH2 0x5D1 JUMP JUMPDEST PUSH2 0x180 PUSH2 0x1F5 CALLDATASIZE PUSH1 0x4 PUSH2 0x11E6 JUMP JUMPDEST PUSH2 0x5EC JUMP JUMPDEST PUSH2 0x155 PUSH2 0x208 CALLDATASIZE PUSH1 0x4 PUSH2 0x11E6 JUMP JUMPDEST PUSH2 0x5F8 JUMP JUMPDEST PUSH2 0x220 PUSH2 0x21B CALLDATASIZE PUSH1 0x4 PUSH2 0x1373 JUMP JUMPDEST PUSH2 0x65D JUMP JUMPDEST PUSH1 0x40 MLOAD SWAP1 DUP2 MSTORE PUSH1 0x20 ADD PUSH2 0x124 JUMP JUMPDEST PUSH2 0x135 PUSH2 0x6F7 JUMP JUMPDEST PUSH2 0x180 PUSH2 0x244 CALLDATASIZE PUSH1 0x4 PUSH2 0x138E JUMP JUMPDEST PUSH2 0x706 JUMP JUMPDEST PUSH2 0x180 PUSH2 0x257 CALLDATASIZE PUSH1 0x4 PUSH2 0x125B JUMP JUMPDEST PUSH2 0x711 JUMP JUMPDEST PUSH2 0x135 PUSH2 0x26A CALLDATASIZE PUSH1 0x4 PUSH2 0x11E6 JUMP JUMPDEST PUSH2 0x78F JUMP JUMPDEST PUSH2 0x118 PUSH2 0x27D CALLDATASIZE PUSH1 0x4 PUSH2 0x13CA JUMP JUMPDEST PUSH1 0x1 PUSH1 0x1 PUSH1 0xA0 SHL SUB SWAP2 DUP3 AND PUSH1 0x0 SWAP1 DUP2 MSTORE PUSH1 0x5 PUSH1 0x20 SWAP1 DUP2 MSTORE PUSH1 0x40 DUP1 DUP4 KECCAK256 SWAP4 SWAP1 SWAP5 AND DUP3 MSTORE SWAP2 SWAP1 SWAP2 MSTORE KECCAK256 SLOAD PUSH1 0xFF AND SWAP1 JUMP JUMPDEST PUSH1 0x0 PUSH1 0x1 PUSH1 0x1 PUSH1 0xE0 SHL SUB NOT DUP3 AND PUSH4 0x80AC58CD PUSH1 0xE0 SHL EQ DUP1 PUSH2 0x2DC JUMPI POP PUSH1 0x1 PUSH1 0x1 PUSH1 0xE0 SHL SUB NOT DUP3 AND PUSH4 0x5B5E139F PUSH1 0xE0 SHL EQ JUMPDEST DUP1 PUSH2 0x2F7 JUMPI POP PUSH4 0x1FFC9A7 PUSH1 0xE0 SHL PUSH1 0x1 PUSH1 0x1 PUSH1 0xE0 SHL SUB NOT DUP4 AND EQ JUMPDEST SWAP3 SWAP2 POP POP JUMP JUMPDEST PUSH1 0x60 PUSH1 0x0 DUP1 SLOAD PUSH2 0x30C SWAP1 PUSH2 0x13FD JUMP JUMPDEST DUP1 PUSH1 0x1F ADD PUSH1 0x20 DUP1 SWAP2 DIV MUL PUSH1 0x20 ADD PUSH1 0x40 MLOAD SWAP1 DUP2 ADD PUSH1 0x40 MSTORE DUP1 SWAP3 SWAP2 SWAP1 DUP2 DUP2 MSTORE PUSH1 0x20 ADD DUP3 DUP1 SLOAD PUSH2 0x338 SWAP1 PUSH2 0x13FD JUMP JUMPDEST DUP1 ISZERO PUSH2 0x385 JUMPI DUP1 PUSH1 0x1F LT PUSH2 0x35A JUMPI PUSH2 0x100 DUP1 DUP4 SLOAD DIV MUL DUP4 MSTORE SWAP2 PUSH1 0x20 ADD SWAP2 PUSH2 0x385 JUMP JUMPDEST DUP3 ADD SWAP2 SWAP1 PUSH1 0x0 MSTORE PUSH1 0x20 PUSH1 0x0 KECCAK256 SWAP1 JUMPDEST DUP2 SLOAD DUP2 MSTORE SWAP1 PUSH1 0x1 ADD SWAP1 PUSH1 0x20 ADD DUP1 DUP4 GT PUSH2 0x368 JUMPI DUP3 SWAP1 SUB PUSH1 0x1F AND DUP3 ADD SWAP2 JUMPDEST POP POP POP POP POP SWAP1 POP SWAP1 JUMP JUMPDEST PUSH1 0x0 PUSH2 0x39A DUP3 PUSH2 0x803 JUMP JUMPDEST POP PUSH1 0x0 SWAP1 DUP2 MSTORE PUSH1 0x4 PUSH1 0x20 MSTORE PUSH1 0x40 SWAP1 KECCAK256 SLOAD PUSH1 0x1 PUSH1 0x1 PUSH1 0xA0 SHL SUB AND SWAP1 JUMP JUMPDEST PUSH1 0x0 PUSH2 0x3C1 DUP3 PUSH2 0x5F8 JUMP JUMPDEST SWAP1 POP DUP1 PUSH1 0x1 PUSH1 0x1 PUSH1 0xA0 SHL SUB AND DUP4 PUSH1 0x1 PUSH1 0x1 PUSH1 0xA0 SHL SUB AND SUB PUSH2 0x433 JUMPI PUSH1 0x40 MLOAD PUSH3 0x461BCD PUSH1 0xE5 SHL DUP2 MSTORE PUSH1 0x20 PUSH1 0x4 DUP3 ADD MSTORE PUSH1 0x21 PUSH1 0x24 DUP3 ADD MSTORE PUSH32 0x4552433732313A20617070726F76616C20746F2063757272656E74206F776E65 PUSH1 0x44 DUP3 ADD MSTORE PUSH1 0x39 PUSH1 0xF9 SHL PUSH1 0x64 DUP3 ADD MSTORE PUSH1 0x84 ADD JUMPDEST PUSH1 0x40 MLOAD DUP1 SWAP2 SUB SWAP1 REVERT JUMPDEST CALLER PUSH1 0x1 PUSH1 0x1 PUSH1 0xA0 SHL SUB DUP3 AND EQ DUP1 PUSH2 0x44F JUMPI POP PUSH2 0x44F DUP2 CALLER PUSH2 0x27D JUMP JUMPDEST PUSH2 0x4C1 JUMPI PUSH1 0x40 MLOAD PUSH3 0x461BCD PUSH1 0xE5 SHL DUP2 MSTORE PUSH1 0x20 PUSH1 0x4 DUP3 ADD MSTORE PUSH1 0x3D PUSH1 0x24 DUP3 ADD MSTORE PUSH32 0x4552433732313A20617070726F76652063616C6C6572206973206E6F7420746F PUSH1 0x44 DUP3 ADD MSTORE PUSH32 0x6B656E206F776E6572206F7220617070726F76656420666F7220616C6C000000 PUSH1 0x64 DUP3 ADD MSTORE PUSH1 0x84 ADD PUSH2 0x42A JUMP JUMPDEST PUSH2 0x4CB DUP4 DUP4 PUSH2 0x867 JUMP JUMPDEST POP POP POP JUMP JUMPDEST PUSH1 0x1 PUSH1 0x1 PUSH1 0xA0 SHL SUB DUP4 DUP2 AND PUSH1 0x0 DUP2 DUP2 MSTORE PUSH1 0x5 PUSH1 0x20 SWAP1 DUP2 MSTORE PUSH1 0x40 DUP1 DUP4 KECCAK256 SWAP5 DUP10 AND DUP1 DUP5 MSTORE SWAP5 DUP3 MSTORE DUP1 DUP4 KECCAK256 DUP1 SLOAD PUSH1 0xFF NOT AND PUSH1 0x1 SWAP1 DUP2 OR SWAP1 SWAP2 SSTORE SWAP1 MLOAD SWAP1 DUP2 MSTORE SWAP2 SWAP4 SWAP3 SWAP2 PUSH32 0x17307EAB39AB6107E8899845AD3D59BD9653F200F220920489CA2B5937696C31 SWAP2 ADD PUSH1 0x40 MLOAD DUP1 SWAP2 SUB SWAP1 LOG3 POP PUSH4 0xA85BD01 PUSH1 0xE1 SHL JUMPDEST SWAP5 SWAP4 POP POP POP POP JUMP JUMPDEST PUSH2 0x556 CALLER DUP3 PUSH2 0x8D5 JUMP JUMPDEST PUSH2 0x5B8 JUMPI PUSH1 0x40 MLOAD PUSH3 0x461BCD PUSH1 0xE5 SHL DUP2 MSTORE PUSH1 0x20 PUSH1 0x4 DUP3 ADD MSTORE PUSH1 0x2D PUSH1 0x24 DUP3 ADD MSTORE PUSH32 0x4552433732313A2063616C6C6572206973206E6F7420746F6B656E206F776E65 PUSH1 0x44 DUP3 ADD MSTORE PUSH13 0x1C881BDC88185C1C1C9BDD9959 PUSH1 0x9A SHL PUSH1 0x64 DUP3 ADD MSTORE PUSH1 0x84 ADD PUSH2 0x42A JUMP JUMPDEST PUSH2 0x4CB DUP4 DUP4 DUP4 PUSH2 0x953 JUMP JUMPDEST PUSH2 0x5CD DUP3 DUP3 PUSH2 0xB16 JUMP JUMPDEST POP POP JUMP JUMPDEST PUSH2 0x4CB DUP4 DUP4 DUP4 PUSH1 0x40 MLOAD DUP1 PUSH1 0x20 ADD PUSH1 0x40 MSTORE DUP1 PUSH1 0x0 DUP2 MSTORE POP PUSH2 0x711 JUMP JUMPDEST PUSH2 0x5F5 DUP2 PUSH2 0xB30 JUMP JUMPDEST POP JUMP JUMPDEST PUSH1 0x0 DUP2 DUP2 MSTORE PUSH1 0x2 PUSH1 0x20 MSTORE PUSH1 0x40 DUP2 KECCAK256 SLOAD PUSH1 0x1 PUSH1 0x1 PUSH1 0xA0 SHL SUB AND DUP1 PUSH2 0x2F7 JUMPI PUSH1 0x40 MLOAD PUSH3 0x461BCD PUSH1 0xE5 SHL DUP2 MSTORE PUSH1 0x20 PUSH1 0x4 DUP3 ADD MSTORE PUSH1 0x18 PUSH1 0x24 DUP3 ADD MSTORE PUSH32 0x4552433732313A20696E76616C696420746F6B656E2049440000000000000000 PUSH1 0x44 DUP3 ADD MSTORE PUSH1 0x64 ADD PUSH2 0x42A JUMP JUMPDEST PUSH1 0x0 PUSH1 0x1 PUSH1 0x1 PUSH1 0xA0 SHL SUB DUP3 AND PUSH2 0x6DB JUMPI PUSH1 0x40 MLOAD PUSH3 0x461BCD PUSH1 0xE5 SHL DUP2 MSTORE PUSH1 0x20 PUSH1 0x4 DUP3 ADD MSTORE PUSH1 0x29 PUSH1 0x24 DUP3 ADD MSTORE PUSH32 0x4552433732313A2061646472657373207A65726F206973206E6F742061207661 PUSH1 0x44 DUP3 ADD MSTORE PUSH32 0x6C6964206F776E65720000000000000000000000000000000000000000000000 PUSH1 0x64 DUP3 ADD MSTORE PUSH1 0x84 ADD PUSH2 0x42A JUMP JUMPDEST POP PUSH1 0x1 PUSH1 0x1 PUSH1 0xA0 SHL SUB AND PUSH1 0x0 SWAP1 DUP2 MSTORE PUSH1 0x3 PUSH1 0x20 MSTORE PUSH1 0x40 SWAP1 KECCAK256 SLOAD SWAP1 JUMP JUMPDEST PUSH1 0x60 PUSH1 0x1 DUP1 SLOAD PUSH2 0x30C SWAP1 PUSH2 0x13FD JUMP JUMPDEST PUSH2 0x5CD CALLER DUP4 DUP4 PUSH2 0xBDA JUMP JUMPDEST PUSH2 0x71B CALLER DUP4 PUSH2 0x8D5 JUMP JUMPDEST PUSH2 0x77D JUMPI PUSH1 0x40 MLOAD PUSH3 0x461BCD PUSH1 0xE5 SHL DUP2 MSTORE PUSH1 0x20 PUSH1 0x4 DUP3 ADD MSTORE PUSH1 0x2D PUSH1 0x24 DUP3 ADD MSTORE PUSH32 0x4552433732313A2063616C6C6572206973206E6F7420746F6B656E206F776E65 PUSH1 0x44 DUP3 ADD MSTORE PUSH13 0x1C881BDC88185C1C1C9BDD9959 PUSH1 0x9A SHL PUSH1 0x64 DUP3 ADD MSTORE PUSH1 0x84 ADD PUSH2 0x42A JUMP JUMPDEST PUSH2 0x789 DUP5 DUP5 DUP5 DUP5 PUSH2 0xCA8 JUMP JUMPDEST POP POP POP POP JUMP JUMPDEST PUSH1 0x60 PUSH2 0x79A DUP3 PUSH2 0x803 JUMP JUMPDEST PUSH1 0x0 PUSH2 0x7B1 PUSH1 0x40 DUP1 MLOAD PUSH1 0x20 DUP2 ADD SWAP1 SWAP2 MSTORE PUSH1 0x0 DUP2 MSTORE SWAP1 JUMP JUMPDEST SWAP1 POP PUSH1 0x0 DUP2 MLOAD GT PUSH2 0x7D1 JUMPI PUSH1 0x40 MLOAD DUP1 PUSH1 0x20 ADD PUSH1 0x40 MSTORE DUP1 PUSH1 0x0 DUP2 MSTORE POP PUSH2 0x7FC JUMP JUMPDEST DUP1 PUSH2 0x7DB DUP5 PUSH2 0xD26 JUMP JUMPDEST PUSH1 0x40 MLOAD PUSH1 0x20 ADD PUSH2 0x7EC SWAP3 SWAP2 SWAP1 PUSH2 0x1437 JUMP JUMPDEST PUSH1 0x40 MLOAD PUSH1 0x20 DUP2 DUP4 SUB SUB DUP2 MSTORE SWAP1 PUSH1 0x40 MSTORE JUMPDEST SWAP4 SWAP3 POP POP POP JUMP JUMPDEST PUSH1 0x0 DUP2 DUP2 MSTORE PUSH1 0x2 PUSH1 0x20 MSTORE PUSH1 0x40 SWAP1 KECCAK256 SLOAD PUSH1 0x1 PUSH1 0x1 PUSH1 0xA0 SHL SUB AND PUSH2 0x5F5 JUMPI PUSH1 0x40 MLOAD PUSH3 0x461BCD PUSH1 0xE5 SHL DUP2 MSTORE PUSH1 0x20 PUSH1 0x4 DUP3 ADD MSTORE PUSH1 0x18 PUSH1 0x24 DUP3 ADD MSTORE PUSH32 0x4552433732313A20696E76616C696420746F6B656E2049440000000000000000 PUSH1 0x44 DUP3 ADD MSTORE PUSH1 0x64 ADD PUSH2 0x42A JUMP JUMPDEST PUSH1 0x0 DUP2 DUP2 MSTORE PUSH1 0x4 PUSH1 0x20 MSTORE PUSH1 0x40 SWAP1 KECCAK256 DUP1 SLOAD PUSH1 0x1 PUSH1 0x1 PUSH1 0xA0 SHL SUB NOT AND PUSH1 0x1 PUSH1 0x1 PUSH1 0xA0 SHL SUB DUP5 AND SWAP1 DUP2 OR SWAP1 SWAP2 SSTORE DUP2 SWAP1 PUSH2 0x89C DUP3 PUSH2 0x5F8 JUMP JUMPDEST PUSH1 0x1 PUSH1 0x1 PUSH1 0xA0 SHL SUB AND PUSH32 0x8C5BE1E5EBEC7D5BD14F71427D1E84F3DD0314C0F7B2291E5B200AC8C7C3B925 PUSH1 0x40 MLOAD PUSH1 0x40 MLOAD DUP1 SWAP2 SUB SWAP1 LOG4 POP POP JUMP JUMPDEST PUSH1 0x0 DUP1 PUSH2 0x8E1 DUP4 PUSH2 0x5F8 JUMP JUMPDEST SWAP1 POP DUP1 PUSH1 0x1 PUSH1 0x1 PUSH1 0xA0 SHL SUB AND DUP5 PUSH1 0x1 PUSH1 0x1 PUSH1 0xA0 SHL SUB AND EQ DUP1 PUSH2 0x928 JUMPI POP PUSH1 0x1 PUSH1 0x1 PUSH1 0xA0 SHL SUB DUP1 DUP3 AND PUSH1 0x0 SWAP1 DUP2 MSTORE PUSH1 0x5 PUSH1 0x20 SWAP1 DUP2 MSTORE PUSH1 0x40 DUP1 DUP4 KECCAK256 SWAP4 DUP9 AND DUP4 MSTORE SWAP3 SWAP1 MSTORE KECCAK256 SLOAD PUSH1 0xFF AND JUMPDEST DUP1 PUSH2 0x544 JUMPI POP DUP4 PUSH1 0x1 PUSH1 0x1 PUSH1 0xA0 SHL SUB AND PUSH2 0x941 DUP5 PUSH2 0x38F JUMP JUMPDEST PUSH1 0x1 PUSH1 0x1 PUSH1 0xA0 SHL SUB AND EQ SWAP5 SWAP4 POP POP POP POP JUMP JUMPDEST DUP3 PUSH1 0x1 PUSH1 0x1 PUSH1 0xA0 SHL SUB AND PUSH2 0x966 DUP3 PUSH2 0x5F8 JUMP JUMPDEST PUSH1 0x1 PUSH1 0x1 PUSH1 0xA0 SHL SUB AND EQ PUSH2 0x9E2 JUMPI PUSH1 0x40 MLOAD PUSH3 0x461BCD PUSH1 0xE5 SHL DUP2 MSTORE PUSH1 0x20 PUSH1 0x4 DUP3 ADD MSTORE PUSH1 0x25 PUSH1 0x24 DUP3 ADD MSTORE PUSH32 0x4552433732313A207472616E736665722066726F6D20696E636F727265637420 PUSH1 0x44 DUP3 ADD MSTORE PUSH32 0x6F776E6572000000000000000000000000000000000000000000000000000000 PUSH1 0x64 DUP3 ADD MSTORE PUSH1 0x84 ADD PUSH2 0x42A JUMP JUMPDEST PUSH1 0x1 PUSH1 0x1 PUSH1 0xA0 SHL SUB DUP3 AND PUSH2 0xA44 JUMPI PUSH1 0x40 MLOAD PUSH3 0x461BCD PUSH1 0xE5 SHL DUP2 MSTORE PUSH1 0x20 PUSH1 0x4 DUP3 ADD MSTORE PUSH1 0x24 DUP1 DUP3 ADD MSTORE PUSH32 0x4552433732313A207472616E7366657220746F20746865207A65726F20616464 PUSH1 0x44 DUP3 ADD MSTORE PUSH4 0x72657373 PUSH1 0xE0 SHL PUSH1 0x64 DUP3 ADD MSTORE PUSH1 0x84 ADD PUSH2 0x42A JUMP JUMPDEST PUSH1 0x0 DUP2 DUP2 MSTORE PUSH1 0x4 PUSH1 0x20 SWAP1 DUP2 MSTORE PUSH1 0x40 DUP1 DUP4 KECCAK256 DUP1 SLOAD PUSH1 0x1 PUSH1 0x1 PUSH1 0xA0 SHL SUB NOT AND SWAP1 SSTORE PUSH1 0x1 PUSH1 0x1 PUSH1 0xA0 SHL SUB DUP7 AND DUP4 MSTORE PUSH1 0x3 SWAP1 SWAP2 MSTORE DUP2 KECCAK256 DUP1 SLOAD PUSH1 0x1 SWAP3 SWAP1 PUSH2 0xA87 SWAP1 DUP5 SWAP1 PUSH2 0x147C JUMP JUMPDEST SWAP1 SWAP2 SSTORE POP POP PUSH1 0x1 PUSH1 0x1 PUSH1 0xA0 SHL SUB DUP3 AND PUSH1 0x0 SWAP1 DUP2 MSTORE PUSH1 0x3 PUSH1 0x20 MSTORE PUSH1 0x40 DUP2 KECCAK256 DUP1 SLOAD PUSH1 0x1 SWAP3 SWAP1 PUSH2 0xAB5 SWAP1 DUP5 SWAP1 PUSH2 0x1493 JUMP JUMPDEST SWAP1 SWAP2 SSTORE POP POP PUSH1 0x0 DUP2 DUP2 MSTORE PUSH1 0x2 PUSH1 0x20 MSTORE PUSH1 0x40 DUP1 DUP3 KECCAK256 DUP1 SLOAD PUSH1 0x1 PUSH1 0x1 PUSH1 0xA0 SHL SUB NOT AND PUSH1 0x1 PUSH1 0x1 PUSH1 0xA0 SHL SUB DUP7 DUP2 AND SWAP2 DUP3 OR SWAP1 SWAP3 SSTORE SWAP2 MLOAD DUP5 SWAP4 SWAP2 DUP8 AND SWAP2 PUSH32 0xDDF252AD1BE2C89B69C2B068FC378DAA952BA7F163C4A11628F55A4DF523B3EF SWAP2 LOG4 POP POP POP JUMP JUMPDEST PUSH2 0x5CD DUP3 DUP3 PUSH1 0x40 MLOAD DUP1 PUSH1 0x20 ADD PUSH1 0x40 MSTORE DUP1 PUSH1 0x0 DUP2 MSTORE POP PUSH2 0xE3F JUMP JUMPDEST PUSH1 0x0 PUSH2 0xB3B DUP3 PUSH2 0x5F8 JUMP JUMPDEST SWAP1 POP PUSH1 0x0 DUP3 DUP2 MSTORE PUSH1 0x4 PUSH1 0x20 SWAP1 DUP2 MSTORE PUSH1 0x40 DUP1 DUP4 KECCAK256 DUP1 SLOAD PUSH1 0x1 PUSH1 0x1 PUSH1 0xA0 SHL SUB NOT AND SWAP1 SSTORE PUSH1 0x1 PUSH1 0x1 PUSH1 0xA0 SHL SUB DUP5 AND DUP4 MSTORE PUSH1 0x3 SWAP1 SWAP2 MSTORE DUP2 KECCAK256 DUP1 SLOAD PUSH1 0x1 SWAP3 SWAP1 PUSH2 0xB80 SWAP1 DUP5 SWAP1 PUSH2 0x147C JUMP JUMPDEST SWAP1 SWAP2 SSTORE POP POP PUSH1 0x0 DUP3 DUP2 MSTORE PUSH1 0x2 PUSH1 0x20 MSTORE PUSH1 0x40 DUP1 DUP3 KECCAK256 DUP1 SLOAD PUSH1 0x1 PUSH1 0x1 PUSH1 0xA0 SHL SUB NOT AND SWAP1 SSTORE MLOAD DUP4 SWAP2 SWAP1 PUSH1 0x1 PUSH1 0x1 PUSH1 0xA0 SHL SUB DUP5 AND SWAP1 PUSH32 0xDDF252AD1BE2C89B69C2B068FC378DAA952BA7F163C4A11628F55A4DF523B3EF SWAP1 DUP4 SWAP1 LOG4 POP POP JUMP JUMPDEST DUP2 PUSH1 0x1 PUSH1 0x1 PUSH1 0xA0 SHL SUB AND DUP4 PUSH1 0x1 PUSH1 0x1 PUSH1 0xA0 SHL SUB AND SUB PUSH2 0xC3B JUMPI PUSH1 0x40 MLOAD PUSH3 0x461BCD PUSH1 0xE5 SHL DUP2 MSTORE PUSH1 0x20 PUSH1 0x4 DUP3 ADD MSTORE PUSH1 0x19 PUSH1 0x24 DUP3 ADD MSTORE PUSH32 0x4552433732313A20617070726F766520746F2063616C6C657200000000000000 PUSH1 0x44 DUP3 ADD MSTORE PUSH1 0x64 ADD PUSH2 0x42A JUMP JUMPDEST PUSH1 0x1 PUSH1 0x1 PUSH1 0xA0 SHL SUB DUP4 DUP2 AND PUSH1 0x0 DUP2 DUP2 MSTORE PUSH1 0x5 PUSH1 0x20 SWAP1 DUP2 MSTORE PUSH1 0x40 DUP1 DUP4 KECCAK256 SWAP5 DUP8 AND DUP1 DUP5 MSTORE SWAP5 DUP3 MSTORE SWAP2 DUP3 SWAP1 KECCAK256 DUP1 SLOAD PUSH1 0xFF NOT AND DUP7 ISZERO ISZERO SWAP1 DUP2 OR SWAP1 SWAP2 SSTORE SWAP2 MLOAD SWAP2 DUP3 MSTORE PUSH32 0x17307EAB39AB6107E8899845AD3D59BD9653F200F220920489CA2B5937696C31 SWAP2 ADD PUSH1 0x40 MLOAD DUP1 SWAP2 SUB SWAP1 LOG3 POP POP POP JUMP JUMPDEST PUSH2 0xCB3 DUP5 DUP5 DUP5 PUSH2 0x953 JUMP JUMPDEST PUSH2 0xCBF DUP5 DUP5 DUP5 DUP5 PUSH2 0xEBD JUMP JUMPDEST PUSH2 0x789 JUMPI PUSH1 0x40 MLOAD PUSH3 0x461BCD PUSH1 0xE5 SHL DUP2 MSTORE PUSH1 0x20 PUSH1 0x4 DUP3 ADD MSTORE PUSH1 0x32 PUSH1 0x24 DUP3 ADD MSTORE PUSH32 0x4552433732313A207472616E7366657220746F206E6F6E204552433732315265 PUSH1 0x44 DUP3 ADD MSTORE PUSH18 0x31B2B4BB32B91034B6B83632B6B2B73A32B9 PUSH1 0x71 SHL PUSH1 0x64 DUP3 ADD MSTORE PUSH1 0x84 ADD PUSH2 0x42A JUMP JUMPDEST PUSH1 0x60 DUP2 PUSH1 0x0 SUB PUSH2 0xD4D JUMPI POP POP PUSH1 0x40 DUP1 MLOAD DUP1 DUP3 ADD SWAP1 SWAP2 MSTORE PUSH1 0x1 DUP2 MSTORE PUSH1 0x3 PUSH1 0xFC SHL PUSH1 0x20 DUP3 ADD MSTORE SWAP1 JUMP JUMPDEST DUP2 PUSH1 0x0 JUMPDEST DUP2 ISZERO PUSH2 0xD77 JUMPI DUP1 PUSH2 0xD61 DUP2 PUSH2 0x14AB JUMP JUMPDEST SWAP2 POP PUSH2 0xD70 SWAP1 POP PUSH1 0xA DUP4 PUSH2 0x14DA JUMP JUMPDEST SWAP2 POP PUSH2 0xD51 JUMP JUMPDEST PUSH1 0x0 DUP2 PUSH8 0xFFFFFFFFFFFFFFFF DUP2 GT ISZERO PUSH2 0xD92 JUMPI PUSH2 0xD92 PUSH2 0x1245 JUMP JUMPDEST PUSH1 0x40 MLOAD SWAP1 DUP1 DUP3 MSTORE DUP1 PUSH1 0x1F ADD PUSH1 0x1F NOT AND PUSH1 0x20 ADD DUP3 ADD PUSH1 0x40 MSTORE DUP1 ISZERO PUSH2 0xDBC JUMPI PUSH1 0x20 DUP3 ADD DUP2 DUP1 CALLDATASIZE DUP4 CALLDATACOPY ADD SWAP1 POP JUMPDEST POP SWAP1 POP JUMPDEST DUP5 ISZERO PUSH2 0x544 JUMPI PUSH2 0xDD1 PUSH1 0x1 DUP4 PUSH2 0x147C JUMP JUMPDEST SWAP2 POP PUSH2 0xDDE PUSH1 0xA DUP7 PUSH2 0x14EE JUMP JUMPDEST PUSH2 0xDE9 SWAP1 PUSH1 0x30 PUSH2 0x1493 JUMP JUMPDEST PUSH1 0xF8 SHL DUP2 DUP4 DUP2 MLOAD DUP2 LT PUSH2 0xDFE JUMPI PUSH2 0xDFE PUSH2 0x1502 JUMP JUMPDEST PUSH1 0x20 ADD ADD SWAP1 PUSH31 0xFFFFFFFFFFFFFFFFFFFFFFFFFFFFFFFFFFFFFFFFFFFFFFFFFFFFFFFFFFFFFF NOT AND SWAP1 DUP2 PUSH1 0x0 BYTE SWAP1 MSTORE8 POP PUSH2 0xE38 PUSH1 0xA DUP7 PUSH2 0x14DA JUMP JUMPDEST SWAP5 POP PUSH2 0xDC0 JUMP JUMPDEST PUSH2 0xE49 DUP4 DUP4 PUSH2 0x1006 JUMP JUMPDEST PUSH2 0xE56 PUSH1 0x0 DUP5 DUP5 DUP5 PUSH2 0xEBD JUMP JUMPDEST PUSH2 0x4CB JUMPI PUSH1 0x40 MLOAD PUSH3 0x461BCD PUSH1 0xE5 SHL DUP2 MSTORE PUSH1 0x20 PUSH1 0x4 DUP3 ADD MSTORE PUSH1 0x32 PUSH1 0x24 DUP3 ADD MSTORE PUSH32 0x4552433732313A207472616E7366657220746F206E6F6E204552433732315265 PUSH1 0x44 DUP3 ADD MSTORE PUSH18 0x31B2B4BB32B91034B6B83632B6B2B73A32B9 PUSH1 0x71 SHL PUSH1 0x64 DUP3 ADD MSTORE PUSH1 0x84 ADD PUSH2 0x42A JUMP JUMPDEST PUSH1 0x0 PUSH1 0x1 PUSH1 0x1 PUSH1 0xA0 SHL SUB DUP5 AND EXTCODESIZE ISZERO PUSH2 0xFFE JUMPI PUSH1 0x40 MLOAD PUSH4 0xA85BD01 PUSH1 0xE1 SHL DUP2 MSTORE PUSH1 0x1 PUSH1 0x1 PUSH1 0xA0 SHL SUB DUP6 AND SWAP1 PUSH4 0x150B7A02 SWAP1 PUSH2 0xF01 SWAP1 CALLER SWAP1 DUP10 SWAP1 DUP9 SWAP1 DUP9 SWAP1 PUSH1 0x4 ADD PUSH2 0x1518 JUMP JUMPDEST PUSH1 0x20 PUSH1 0x40 MLOAD DUP1 DUP4 SUB DUP2 PUSH1 0x0 DUP8 GAS CALL SWAP3 POP POP POP DUP1 ISZERO PUSH2 0xF3C JUMPI POP PUSH1 0x40 DUP1 MLOAD PUSH1 0x1F RETURNDATASIZE SWAP1 DUP2 ADD PUSH1 0x1F NOT AND DUP3 ADD SWAP1 SWAP3 MSTORE PUSH2 0xF39 SWAP2 DUP2 ADD SWAP1 PUSH2 0x1554 JUMP JUMPDEST PUSH1 0x1 JUMPDEST PUSH2 0xFE4 JUMPI RETURNDATASIZE DUP1 DUP1 ISZERO PUSH2 0xF6A JUMPI PUSH1 0x40 MLOAD SWAP2 POP PUSH1 0x1F NOT PUSH1 0x3F RETURNDATASIZE ADD AND DUP3 ADD PUSH1 0x40 MSTORE RETURNDATASIZE DUP3 MSTORE RETURNDATASIZE PUSH1 0x0 PUSH1 0x20 DUP5 ADD RETURNDATACOPY PUSH2 0xF6F JUMP JUMPDEST PUSH1 0x60 SWAP2 POP JUMPDEST POP DUP1 MLOAD PUSH1 0x0 SUB PUSH2 0xFDC JUMPI PUSH1 0x40 MLOAD PUSH3 0x461BCD PUSH1 0xE5 SHL DUP2 MSTORE PUSH1 0x20 PUSH1 0x4 DUP3 ADD MSTORE PUSH1 0x32 PUSH1 0x24 DUP3 ADD MSTORE PUSH32 0x4552433732313A207472616E7366657220746F206E6F6E204552433732315265 PUSH1 0x44 DUP3 ADD MSTORE PUSH18 0x31B2B4BB32B91034B6B83632B6B2B73A32B9 PUSH1 0x71 SHL PUSH1 0x64 DUP3 ADD MSTORE PUSH1 0x84 ADD PUSH2 0x42A JUMP JUMPDEST DUP1 MLOAD DUP2 PUSH1 0x20 ADD REVERT JUMPDEST PUSH1 0x1 PUSH1 0x1 PUSH1 0xE0 SHL SUB NOT AND PUSH4 0xA85BD01 PUSH1 0xE1 SHL EQ SWAP1 POP PUSH2 0x544 JUMP JUMPDEST POP PUSH1 0x1 PUSH2 0x544 JUMP JUMPDEST PUSH1 0x1 PUSH1 0x1 PUSH1 0xA0 SHL SUB DUP3 AND PUSH2 0x105C JUMPI PUSH1 0x40 MLOAD PUSH3 0x461BCD PUSH1 0xE5 SHL DUP2 MSTORE PUSH1 0x20 PUSH1 0x4 DUP3 ADD DUP2 SWAP1 MSTORE PUSH1 0x24 DUP3 ADD MSTORE PUSH32 0x4552433732313A206D696E7420746F20746865207A65726F2061646472657373 PUSH1 0x44 DUP3 ADD MSTORE PUSH1 0x64 ADD PUSH2 0x42A JUMP JUMPDEST PUSH1 0x0 DUP2 DUP2 MSTORE PUSH1 0x2 PUSH1 0x20 MSTORE PUSH1 0x40 SWAP1 KECCAK256 SLOAD PUSH1 0x1 PUSH1 0x1 PUSH1 0xA0 SHL SUB AND ISZERO PUSH2 0x10C1 JUMPI PUSH1 0x40 MLOAD PUSH3 0x461BCD PUSH1 0xE5 SHL DUP2 MSTORE PUSH1 0x20 PUSH1 0x4 DUP3 ADD MSTORE PUSH1 0x1C PUSH1 0x24 DUP3 ADD MSTORE PUSH32 0x4552433732313A20746F6B656E20616C7265616479206D696E74656400000000 PUSH1 0x44 DUP3 ADD MSTORE PUSH1 0x64 ADD PUSH2 0x42A JUMP JUMPDEST PUSH1 0x1 PUSH1 0x1 PUSH1 0xA0 SHL SUB DUP3 AND PUSH1 0x0 SWAP1 DUP2 MSTORE PUSH1 0x3 PUSH1 0x20 MSTORE PUSH1 0x40 DUP2 KECCAK256 DUP1 SLOAD PUSH1 0x1 SWAP3 SWAP1 PUSH2 0x10EA SWAP1 DUP5 SWAP1 PUSH2 0x1493 JUMP JUMPDEST SWAP1 SWAP2 SSTORE POP POP PUSH1 0x0 DUP2 DUP2 MSTORE PUSH1 0x2 PUSH1 0x20 MSTORE PUSH1 0x40 DUP1 DUP3 KECCAK256 DUP1 SLOAD PUSH1 0x1 PUSH1 0x1 PUSH1 0xA0 SHL SUB NOT AND PUSH1 0x1 PUSH1 0x1 PUSH1 0xA0 SHL SUB DUP7 AND SWAP1 DUP2 OR SWAP1 SWAP2 SSTORE SWAP1 MLOAD DUP4 SWAP3 SWAP1 PUSH32 0xDDF252AD1BE2C89B69C2B068FC378DAA952BA7F163C4A11628F55A4DF523B3EF SWAP1 DUP3 SWAP1 LOG4 POP POP JUMP JUMPDEST PUSH1 0x1 PUSH1 0x1 PUSH1 0xE0 SHL SUB NOT DUP2 AND DUP2 EQ PUSH2 0x5F5 JUMPI PUSH1 0x0 DUP1 REVERT JUMPDEST PUSH1 0x0 PUSH1 0x20 DUP3 DUP5 SUB SLT ISZERO PUSH2 0x1170 JUMPI PUSH1 0x0 DUP1 REVERT JUMPDEST DUP2 CALLDATALOAD PUSH2 0x7FC DUP2 PUSH2 0x1148 JUMP JUMPDEST PUSH1 0x0 JUMPDEST DUP4 DUP2 LT ISZERO PUSH2 0x1196 JUMPI DUP2 DUP2 ADD MLOAD DUP4 DUP3 ADD MSTORE PUSH1 0x20 ADD PUSH2 0x117E JUMP JUMPDEST DUP4 DUP2 GT ISZERO PUSH2 0x789 JUMPI POP POP PUSH1 0x0 SWAP2 ADD MSTORE JUMP JUMPDEST PUSH1 0x0 DUP2 MLOAD DUP1 DUP5 MSTORE PUSH2 0x11BF DUP2 PUSH1 0x20 DUP7 ADD PUSH1 0x20 DUP7 ADD PUSH2 0x117B JUMP JUMPDEST PUSH1 0x1F ADD PUSH1 0x1F NOT AND SWAP3 SWAP1 SWAP3 ADD PUSH1 0x20 ADD SWAP3 SWAP2 POP POP JUMP JUMPDEST PUSH1 0x20 DUP2 MSTORE PUSH1 0x0 PUSH2 0x7FC PUSH1 0x20 DUP4 ADD DUP5 PUSH2 0x11A7 JUMP JUMPDEST PUSH1 0x0 PUSH1 0x20 DUP3 DUP5 SUB SLT ISZERO PUSH2 0x11F8 JUMPI PUSH1 0x0 DUP1 REVERT JUMPDEST POP CALLDATALOAD SWAP2 SWAP1 POP JUMP JUMPDEST DUP1 CALLDATALOAD PUSH1 0x1 PUSH1 0x1 PUSH1 0xA0 SHL SUB DUP2 AND DUP2 EQ PUSH2 0x1216 JUMPI PUSH1 0x0 DUP1 REVERT JUMPDEST SWAP2 SWAP1 POP JUMP JUMPDEST PUSH1 0x0 DUP1 PUSH1 0x40 DUP4 DUP6 SUB SLT ISZERO PUSH2 0x122E JUMPI PUSH1 0x0 DUP1 REVERT JUMPDEST PUSH2 0x1237 DUP4 PUSH2 0x11FF JUMP JUMPDEST SWAP5 PUSH1 0x20 SWAP4 SWAP1 SWAP4 ADD CALLDATALOAD SWAP4 POP POP POP JUMP JUMPDEST PUSH4 0x4E487B71 PUSH1 0xE0 SHL PUSH1 0x0 MSTORE PUSH1 0x41 PUSH1 0x4 MSTORE PUSH1 0x24 PUSH1 0x0 REVERT JUMPDEST PUSH1 0x0 DUP1 PUSH1 0x0 DUP1 PUSH1 0x80 DUP6 DUP8 SUB SLT ISZERO PUSH2 0x1271 JUMPI PUSH1 0x0 DUP1 REVERT JUMPDEST PUSH2 0x127A DUP6 PUSH2 0x11FF JUMP JUMPDEST SWAP4 POP PUSH2 0x1288 PUSH1 0x20 DUP7 ADD PUSH2 0x11FF JUMP JUMPDEST SWAP3 POP PUSH1 0x40 DUP6 ADD CALLDATALOAD SWAP2 POP PUSH1 0x60 DUP6 ADD CALLDATALOAD PUSH8 0xFFFFFFFFFFFFFFFF DUP1 DUP3 GT ISZERO PUSH2 0x12AC JUMPI PUSH1 0x0 DUP1 REVERT JUMPDEST DUP2 DUP8 ADD SWAP2 POP DUP8 PUSH1 0x1F DUP4 ADD SLT PUSH2 0x12C0 JUMPI PUSH1 0x0 DUP1 REVERT JUMPDEST DUP2 CALLDATALOAD DUP2 DUP2 GT ISZERO PUSH2 0x12D2 JUMPI PUSH2 0x12D2 PUSH2 0x1245 JUMP JUMPDEST PUSH1 0x40 MLOAD PUSH1 0x1F DUP3 ADD PUSH1 0x1F NOT SWAP1 DUP2 AND PUSH1 0x3F ADD AND DUP2 ADD SWAP1 DUP4 DUP3 GT DUP2 DUP4 LT OR ISZERO PUSH2 0x12FA JUMPI PUSH2 0x12FA PUSH2 0x1245 JUMP JUMPDEST DUP2 PUSH1 0x40 MSTORE DUP3 DUP2 MSTORE DUP11 PUSH1 0x20 DUP5 DUP8 ADD ADD GT ISZERO PUSH2 0x1313 JUMPI PUSH1 0x0 DUP1 REVERT JUMPDEST DUP3 PUSH1 0x20 DUP7 ADD PUSH1 0x20 DUP4 ADD CALLDATACOPY PUSH1 0x0 PUSH1 0x20 DUP5 DUP4 ADD ADD MSTORE DUP1 SWAP6 POP POP POP POP POP POP SWAP3 SWAP6 SWAP2 SWAP5 POP SWAP3 POP JUMP JUMPDEST PUSH1 0x0 DUP1 PUSH1 0x0 PUSH1 0x60 DUP5 DUP7 SUB SLT ISZERO PUSH2 0x134C JUMPI PUSH1 0x0 DUP1 REVERT JUMPDEST PUSH2 0x1355 DUP5 PUSH2 0x11FF JUMP JUMPDEST SWAP3 POP PUSH2 0x1363 PUSH1 0x20 DUP6 ADD PUSH2 0x11FF JUMP JUMPDEST SWAP2 POP PUSH1 0x40 DUP5 ADD CALLDATALOAD SWAP1 POP SWAP3 POP SWAP3 POP SWAP3 JUMP JUMPDEST PUSH1 0x0 PUSH1 0x20 DUP3 DUP5 SUB SLT ISZERO PUSH2 0x1385 JUMPI PUSH1 0x0 DUP1 REVERT JUMPDEST PUSH2 0x7FC DUP3 PUSH2 0x11FF JUMP JUMPDEST PUSH1 0x0 DUP1 PUSH1 0x40 DUP4 DUP6 SUB SLT ISZERO PUSH2 0x13A1 JUMPI PUSH1 0x0 DUP1 REVERT JUMPDEST PUSH2 0x13AA DUP4 PUSH2 0x11FF JUMP JUMPDEST SWAP2 POP PUSH1 0x20 DUP4 ADD CALLDATALOAD DUP1 ISZERO ISZERO DUP2 EQ PUSH2 0x13BF JUMPI PUSH1 0x0 DUP1 REVERT JUMPDEST DUP1 SWAP2 POP POP SWAP3 POP SWAP3 SWAP1 POP JUMP JUMPDEST PUSH1 0x0 DUP1 PUSH1 0x40 DUP4 DUP6 SUB SLT ISZERO PUSH2 0x13DD JUMPI PUSH1 0x0 DUP1 REVERT JUMPDEST PUSH2 0x13E6 DUP4 PUSH2 0x11FF JUMP JUMPDEST SWAP2 POP PUSH2 0x13F4 PUSH1 0x20 DUP5 ADD PUSH2 0x11FF JUMP JUMPDEST SWAP1 POP SWAP3 POP SWAP3 SWAP1 POP JUMP JUMPDEST PUSH1 0x1 DUP2 DUP2 SHR SWAP1 DUP3 AND DUP1 PUSH2 0x1411 JUMPI PUSH1 0x7F DUP3 AND SWAP2 POP JUMPDEST PUSH1 0x20 DUP3 LT DUP2 SUB PUSH2 0x1431 JUMPI PUSH4 0x4E487B71 PUSH1 0xE0 SHL PUSH1 0x0 MSTORE PUSH1 0x22 PUSH1 0x4 MSTORE PUSH1 0x24 PUSH1 0x0 REVERT JUMPDEST POP SWAP2 SWAP1 POP JUMP JUMPDEST PUSH1 0x0 DUP4 MLOAD PUSH2 0x1449 DUP2 DUP5 PUSH1 0x20 DUP9 ADD PUSH2 0x117B JUMP JUMPDEST DUP4 MLOAD SWAP1 DUP4 ADD SWAP1 PUSH2 0x145D DUP2 DUP4 PUSH1 0x20 DUP9 ADD PUSH2 0x117B JUMP JUMPDEST ADD SWAP5 SWAP4 POP POP POP POP JUMP JUMPDEST PUSH4 0x4E487B71 PUSH1 0xE0 SHL PUSH1 0x0 MSTORE PUSH1 0x11 PUSH1 0x4 MSTORE PUSH1 0x24 PUSH1 0x0 REVERT JUMPDEST PUSH1 0x0 DUP3 DUP3 LT ISZERO PUSH2 0x148E JUMPI PUSH2 0x148E PUSH2 0x1466 JUMP JUMPDEST POP SUB SWAP1 JUMP JUMPDEST PUSH1 0x0 DUP3 NOT DUP3 GT ISZERO PUSH2 0x14A6 JUMPI PUSH2 0x14A6 PUSH2 0x1466 JUMP JUMPDEST POP ADD SWAP1 JUMP JUMPDEST PUSH1 0x0 PUSH1 0x1 DUP3 ADD PUSH2 0x14BD JUMPI PUSH2 0x14BD PUSH2 0x1466 JUMP JUMPDEST POP PUSH1 0x1 ADD SWAP1 JUMP JUMPDEST PUSH4 0x4E487B71 PUSH1 0xE0 SHL PUSH1 0x0 MSTORE PUSH1 0x12 PUSH1 0x4 MSTORE PUSH1 0x24 PUSH1 0x0 REVERT JUMPDEST PUSH1 0x0 DUP3 PUSH2 0x14E9 JUMPI PUSH2 0x14E9 PUSH2 0x14C4 JUMP JUMPDEST POP DIV SWAP1 JUMP JUMPDEST PUSH1 0x0 DUP3 PUSH2 0x14FD JUMPI PUSH2 0x14FD PUSH2 0x14C4 JUMP JUMPDEST POP MOD SWAP1 JUMP JUMPDEST PUSH4 0x4E487B71 PUSH1 0xE0 SHL PUSH1 0x0 MSTORE PUSH1 0x32 PUSH1 0x4 MSTORE PUSH1 0x24 PUSH1 0x0 REVERT JUMPDEST PUSH1 0x0 PUSH1 0x1 PUSH1 0x1 PUSH1 0xA0 SHL SUB DUP1 DUP8 AND DUP4 MSTORE DUP1 DUP7 AND PUSH1 0x20 DUP5 ADD MSTORE POP DUP4 PUSH1 0x40 DUP4 ADD MSTORE PUSH1 0x80 PUSH1 0x60 DUP4 ADD MSTORE PUSH2 0x154A PUSH1 0x80 DUP4 ADD DUP5 PUSH2 0x11A7 JUMP JUMPDEST SWAP7 SWAP6 POP POP POP POP POP POP JUMP JUMPDEST PUSH1 0x0 PUSH1 0x20 DUP3 DUP5 SUB SLT ISZERO PUSH2 0x1566 JUMPI PUSH1 0x0 DUP1 REVERT JUMPDEST DUP2 MLOAD PUSH2 0x7FC DUP2 PUSH2 0x1148 JUMP INVALID LOG2 PUSH5 0x6970667358 0x22 SLT KECCAK256 AND DIFFICULTY 0xEA 0xE5 0xD LOG4 0xD3 0xA8 0x2F JUMPI 0x2E PUSH28 0xBC70169677F234D22A1480EA0051B081A20973E964736F6C63430008 0xD STOP CALLER "
    },
    "gasEstimates": {
      "creation": {
        "codeDepositCost": "1108600",
        "executionCost": "infinite",
        "totalCost": "infinite"
      },
      "external": {
        "approve(address,uint256)": "infinite",
        "balanceOf(address)": "2656",
        "burn(uint256)": "77429",
        "getApproved(uint256)": "4792",
        "isApprovedForAll(address,address)": "infinite",
        "mint(address,uint256)": "infinite",
        "name()": "infinite",
        "onERC721Received(address,address,uint256,bytes)": "infinite",
        "ownerOf(uint256)": "2577",
        "safeTransferFrom(address,address,uint256)": "infinite",
        "safeTransferFrom(address,address,uint256,bytes)": "infinite",
        "setApprovalForAll(address,bool)": "26705",
        "supportsInterface(bytes4)": "534",
        "symbol()": "infinite",
        "tokenURI(uint256)": "infinite",
        "transferFrom(address,address,uint256)": "infinite"
      },
      "internal": {
        "_afterTokenTransfer(address,address,uint256)": "infinite",
        "_approve(address,uint256)": "infinite",
        "_baseURI()": "infinite",
        "_beforeTokenTransfer(address,address,uint256)": "infinite",
        "_burn(uint256)": "infinite",
        "_checkOnERC721Received(address,address,uint256,bytes memory)": "infinite",
        "_exists(uint256)": "infinite",
        "_isApprovedOrOwner(address,uint256)": "infinite",
        "_mint(address,uint256)": "infinite",
        "_requireMinted(uint256)": "infinite",
        "_safeMint(address,uint256)": "infinite",
        "_safeMint(address,uint256,bytes memory)": "infinite",
        "_safeTransfer(address,address,uint256,bytes memory)": "infinite",
        "_setApprovalForAll(address,address,bool)": "infinite",
        "_transfer(address,address,uint256)": "infinite"
      }
    },
    "methodIdentifiers": {
      "approve(address,uint256)": "095ea7b3",
      "balanceOf(address)": "70a08231",
      "burn(uint256)": "42966c68",
      "getApproved(uint256)": "081812fc",
      "isApprovedForAll(address,address)": "e985e9c5",
      "mint(address,uint256)": "40c10f19",
      "name()": "06fdde03",
      "onERC721Received(address,address,uint256,bytes)": "150b7a02",
      "ownerOf(uint256)": "6352211e",
      "safeTransferFrom(address,address,uint256)": "42842e0e",
      "safeTransferFrom(address,address,uint256,bytes)": "b88d4fde",
      "setApprovalForAll(address,bool)": "a22cb465",
      "supportsInterface(bytes4)": "01ffc9a7",
      "symbol()": "95d89b41",
      "tokenURI(uint256)": "c87b56dd",
      "transferFrom(address,address,uint256)": "23b872dd"
    }
  },
  "storageLayout": {
    "storage": [
      {
        "astId": 3091,
        "contract": "erc721.sol:ERC721",
        "label": "_name",
        "offset": 0,
        "slot": "0",
        "type": "t_string_storage"
      },
      {
        "astId": 3093,
        "contract": "erc721.sol:ERC721",
        "label": "_symbol",
        "offset": 0,
        "slot": "1",
        "type": "t_string_storage"
      },
      {
        "astId": 3097,
        "contract": "erc721.sol:ERC721",
        "label": "_owners",
        "offset": 0,
        "slot": "2",
        "type": "t_mapping(t_uint256,t_address)"
      },
      {
        "astId": 3101,
        "contract": "erc721.sol:ERC721",
        "label": "_balances",
        "offset": 0,
        "slot": "3",
        "type": "t_mapping(t_address,t_uint256)"
      },
      {
        "astId": 3105,
        "contract": "erc721.sol:ERC721",
        "label": "_tokenApprovals",
        "offset": 0,
        "slot": "4",
        "type": "t_mapping(t_uint256,t_address)"
      },
      {
        "astId": 3111,
        "contract": "erc721.sol:ERC721",
        "label": "_operatorApprovals",
        "offset": 0,
        "slot": "5",
        "type": "t_mapping(t_address,t_mapping(t_address,t_bool))"
      }
    ],
    "types": {
      "t_address": {
        "encoding": "inplace",
        "label": "address",
        "numberOfBytes": "20"
      },
      "t_bool": {
        "encoding": "inplace",
        "label": "bool",
        "numberOfBytes": "1"
      },
      "t_mapping(t_address,t_bool)": {
        "encoding": "mapping",
        "key": "t_address",
        "label": "mapping(address => bool)",
        "numberOfBytes": "32",
        "value": "t_bool"
      },
      "t_mapping(t_address,t_mapping(t_address,t_bool))": {
        "encoding": "mapping",
        "key": "t_address",
        "label": "mapping(address => mapping(address => bool))",
        "numberOfBytes": "32",
        "value": "t_mapping(t_address,t_bool)"
      },
      "t_mapping(t_address,t_uint256)": {
        "encoding": "mapping",
        "key": "t_address",
        "label": "mapping(address => uint256)",
        "numberOfBytes": "32",
        "value": "t_uint256"
      },
      "t_mapping(t_uint256,t_address)": {
        "encoding": "mapping",
        "key": "t_uint256",
        "label": "mapping(uint256 => address)",
        "numberOfBytes": "32",
        "value": "t_address"
      },
      "t_string_storage": {
        "encoding": "bytes",
        "label": "string",
        "numberOfBytes": "32"
      },
      "t_uint256": {
        "encoding": "inplace",
        "label": "uint256",
        "numberOfBytes": "32"
      }
    }
  },
  "userdoc": {
    "kind": "user",
    "methods": {},
    "version": 1
  }
}