{
  "abi": [
    {
      "inputs": [
        {
          "internalType": "string",
          "name": "name_",
          "type": "string"
        },
        {
          "internalType": "string",
          "name": "symbol_",
          "type": "string"
        }
      ],
      "stateMutability": "nonpayable",
      "type": "constructor"
    },
    {
      "anonymous": false,
      "inputs": [
        {
          "indexed": true,
          "internalType": "address",
          "name": "owner",
          "type": "address"
        },
        {
          "indexed": true,
          "internalType": "address",
          "name": "approved",
          "type": "address"
        },
        {
          "indexed": true,
          "internalType": "uint256",
          "name": "tokenId",
          "type": "uint256"
        }
      ],
      "name": "Approval",
      "type": "event"
    },
    {
      "anonymous": false,
      "inputs": [
        {
          "indexed": true,
          "internalType": "address",
          "name": "owner",
          "type": "address"
        },
        {
          "indexed": true,
          "internalType": "address",
          "name": "operator",
          "type": "address"
        },
        {
          "indexed": false,
          "internalType": "bool",
          "name": "approved",
          "type": "bool"
        }
      ],
      "name": "ApprovalForAll",
      "type": "event"
    },
    {
      "anonymous": false,
      "inputs": [
        {
          "indexed": true,
          "internalType": "address",
          "name": "from",
          "type": "address"
        },
        {
          "indexed": true,
          "internalType": "address",
          "name": "to",
          "type": "address"
        },
        {
          "indexed": true,
          "internalType": "uint256",
          "name": "tokenId",
          "type": "uint256"
        }
      ],
      "name": "Transfer",
      "type": "event"
    },
    {
      "inputs": [
        {
          "internalType": "address",
          "name": "to",
          "type": "address"
        },
        {
          "internalType": "uint256",
          "name": "tokenId",
          "type": "uint256"
        }
      ],
      "name": "approve",
      "outputs": [],
      "stateMutability": "nonpayable",
      "type": "function"
    },
    {
      "inputs": [
        {
          "internalType": "address",
          "name": "owner",
          "type": "address"
        }
      ],
      "name": "balanceOf",
      "outputs": [
        {
          "internalType": "uint256",
          "name": "",
          "type": "uint256"
        }
      ],
      "stateMutability": "view",
      "type": "function"
    },
    {
      "inputs": [
        {
          "internalType": "uint256",
          "name": "tokenId",
          "type": "uint256"
        }
      ],
      "name": "burn",
      "outputs": [],
      "stateMutability": "nonpayable",
      "type": "function"
    },
    {
      "inputs": [
        {
          "internalType": "uint256",
          "name": "tokenId",
          "type": "uint256"
        }
      ],
      "name": "getApproved",
      "outputs": [
        {
          "internalType": "address",
          "name": "",
          "type": "address"
        }
      ],
      "stateMutability": "view",
      "type": "function"
    },
    {
      "inputs": [
        {
          "internalType": "address",
          "name": "owner",
          "type": "address"
        },
        {
          "internalType": "address",
          "name": "operator",
          "type": "address"
        }
      ],
      "name": "isApprovedForAll",
      "outputs": [
        {
          "internalType": "bool",
          "name": "",
          "type": "bool"
        }
      ],
      "stateMutability": "view",
      "type": "function"
    },
    {
      "inputs": [
        {
          "internalType": "address",
          "name": "to",
          "type": "address"
        },
        {
          "internalType": "string",
          "name": "_uri",
          "type": "string"
        }
      ],
      "name": "mint",
      "outputs": [],
      "stateMutability": "nonpayable",
      "type": "function"
    },
    {
      "inputs": [],
      "name": "name",
      "outputs": [
        {
          "internalType": "string",
          "name": "",
          "type": "string"
        }
      ],
      "stateMutability": "view",
      "type": "function"
    },
    {
      "inputs": [],
      "name": "nextTokenIdToMint",
      "outputs": [
        {
          "internalType": "uint256",
          "name": "",
          "type": "uint256"
        }
      ],
      "stateMutability": "view",
      "type": "function"
    },
    {
      "inputs": [
        {
          "internalType": "address",
          "name": "from",
          "type": "address"
        },
        {
          "internalType": "address",
          "name": "to",
          "type": "address"
        },
        {
          "internalType": "uint256",
          "name": "",
          "type": "uint256"
        },
        {
          "internalType": "bytes",
          "name": "",
          "type": "bytes"
        }
      ],
      "name": "onERC721Received",
      "outputs": [
        {
          "internalType": "bytes4",
          "name": "",
          "type": "bytes4"
        }
      ],
      "stateMutability": "nonpayable",
      "type": "function"
    },
    {
      "inputs": [
        {
          "internalType": "uint256",
          "name": "tokenId",
          "type": "uint256"
        }
      ],
      "name": "ownerOf",
      "outputs": [
        {
          "internalType": "address",
          "name": "",
          "type": "address"
        }
      ],
      "stateMutability": "view",
      "type": "function"
    },
    {
      "inputs": [
        {
          "internalType": "address",
          "name": "from",
          "type": "address"
        },
        {
          "internalType": "address",
          "name": "to",
          "type": "address"
        },
        {
          "internalType": "uint256",
          "name": "tokenId",
          "type": "uint256"
        }
      ],
      "name": "safeTransferFrom",
      "outputs": [],
      "stateMutability": "nonpayable",
      "type": "function"
    },
    {
      "inputs": [
        {
          "internalType": "address",
          "name": "from",
          "type": "address"
        },
        {
          "internalType": "address",
          "name": "to",
          "type": "address"
        },
        {
          "internalType": "uint256",
          "name": "tokenId",
          "type": "uint256"
        },
        {
          "internalType": "bytes",
          "name": "data",
          "type": "bytes"
        }
      ],
      "name": "safeTransferFrom",
      "outputs": [],
      "stateMutability": "nonpayable",
      "type": "function"
    },
    {
      "inputs": [
        {
          "internalType": "address",
          "name": "operator",
          "type": "address"
        },
        {
          "internalType": "bool",
          "name": "approved",
          "type": "bool"
        }
      ],
      "name": "setApprovalForAll",
      "outputs": [],
      "stateMutability": "nonpayable",
      "type": "function"
    },
    {
      "inputs": [
        {
          "internalType": "bytes4",
          "name": "interfaceId",
          "type": "bytes4"
        }
      ],
      "name": "supportsInterface",
      "outputs": [
        {
          "internalType": "bool",
          "name": "",
          "type": "bool"
        }
      ],
      "stateMutability": "view",
      "type": "function"
    },
    {
      "inputs": [],
      "name": "symbol",
      "outputs": [
        {
          "internalType": "string",
          "name": "",
          "type": "string"
        }
      ],
      "stateMutability": "view",
      "type": "function"
    },
    {
      "inputs": [
        {
          "internalType": "uint256",
          "name": "tokenId",
          "type": "uint256"
        }
      ],
      "name": "tokenURI",
      "outputs": [
        {
          "internalType": "string",
          "name": "",
          "type": "string"
        }
      ],
      "stateMutability": "view",
      "type": "function"
    },
    {
      "inputs": [
        {
          "internalType": "address",
          "name": "from",
          "type": "address"
        },
        {
          "internalType": "address",
          "name": "to",
          "type": "address"
        },
        {
          "internalType": "uint256",
          "name": "tokenId",
          "type": "uint256"
        }
      ],
      "name": "transferFrom",
      "outputs": [],
      "stateMutability": "nonpayable",
      "type": "function"
    }
  ],
  "devdoc": {
    "details": "Implementation of https://eips.ethereum.org/EIPS/eip-721[ERC721] Non-Fungible Token Standard, including the Metadata extension, but not including the Enumerable extension, which is available separately as {ERC721Enumerable}.",
    "kind": "dev",
    "methods": {
      "approve(address,uint256)": {
        "details": "See {IERC721-approve}."
      },
      "balanceOf(address)": {
        "details": "See {IERC721-balanceOf}."
      },
      "constructor": {
        "details": "Initializes the contract by setting a `name` and a `symbol` to the token collection."
      },
      "getApproved(uint256)": {
        "details": "See {IERC721-getApproved}."
      },
      "isApprovedForAll(address,address)": {
        "details": "See {IERC721-isApprovedForAll}."
      },
      "name()": {
        "details": "See {IERC721Metadata-name}."
      },
      "ownerOf(uint256)": {
        "details": "See {IERC721-ownerOf}."
      },
      "safeTransferFrom(address,address,uint256)": {
        "details": "See {IERC721-safeTransferFrom}."
      },
      "safeTransferFrom(address,address,uint256,bytes)": {
        "details": "See {IERC721-safeTransferFrom}."
      },
      "setApprovalForAll(address,bool)": {
        "details": "See {IERC721-setApprovalForAll}."
      },
      "supportsInterface(bytes4)": {
        "details": "See {IERC165-supportsInterface}."
      },
      "symbol()": {
        "details": "See {IERC721Metadata-symbol}."
      },
      "tokenURI(uint256)": {
        "details": "See {IERC721Metadata-tokenURI}."
      },
      "transferFrom(address,address,uint256)": {
        "details": "See {IERC721-transferFrom}."
      }
    },
    "stateVariables": {
      "uri": {
        "details": "Mapping from tokenId => URI"
      }
    },
    "version": 1
  },
  "evm": {
    "assembly": "    /* \"erc721.sol\":20564:35503  contract ERC721 is Context, ERC165, IERC721, IERC721Metadata {... */\n  mstore(0x40, 0x80)\n    /* \"erc721.sol\":21507:21623  constructor(string memory name_, string memory symbol_) {... */\n  callvalue\n  dup1\n  iszero\n  tag_1\n  jumpi\n  0x00\n  dup1\n  revert\ntag_1:\n  pop\n  mload(0x40)\n  sub(codesize, bytecodeSize)\n  dup1\n  bytecodeSize\n  dup4\n  codecopy\n  dup2\n  add\n  0x40\n  dup2\n  swap1\n  mstore\n  tag_2\n  swap2\n  tag_3\n  jump\t// in\ntag_2:\n    /* \"erc721.sol\":21574:21587  _name = name_ */\n  dup2\n  mload\n  tag_6\n  swap1\n    /* \"erc721.sol\":21574:21579  _name */\n  0x00\n  swap1\n    /* \"erc721.sol\":21574:21587  _name = name_ */\n  0x20\n  dup6\n  add\n  swap1\n  tag_7\n  jump\t// in\ntag_6:\n  pop\n    /* \"erc721.sol\":21598:21615  _symbol = symbol_ */\n  dup1\n  mload\n  tag_8\n  swap1\n    /* \"erc721.sol\":21598:21605  _symbol */\n  0x01\n  swap1\n    /* \"erc721.sol\":21598:21615  _symbol = symbol_ */\n  0x20\n  dup5\n  add\n  swap1\n  tag_7\n  jump\t// in\ntag_8:\n  pop\n    /* \"erc721.sol\":21507:21623  constructor(string memory name_, string memory symbol_) {... */\n  pop\n  pop\n    /* \"erc721.sol\":20564:35503  contract ERC721 is Context, ERC165, IERC721, IERC721Metadata {... */\n  jump(tag_23)\ntag_7:\n  dup3\n  dup1\n  sload\n  tag_10\n  swap1\n  tag_11\n  jump\t// in\ntag_10:\n  swap1\n  0x00\n  mstore\n  keccak256(0x00, 0x20)\n  swap1\n  0x1f\n  add\n  0x20\n  swap1\n  div\n  dup2\n  add\n  swap3\n  dup3\n  tag_13\n  jumpi\n  0x00\n  dup6\n  sstore\n  jump(tag_16)\ntag_13:\n  dup3\n  0x1f\n  lt\n  tag_14\n  jumpi\n  dup1\n  mload\n  not(0xff)\n  and\n  dup4\n  dup1\n  add\n  or\n  dup6\n  sstore\n  jump(tag_16)\ntag_14:\n  dup3\n  dup1\n  add\n  0x01\n  add\n  dup6\n  sstore\n  dup3\n  iszero\n  tag_16\n  jumpi\n  swap2\n  dup3\n  add\ntag_15:\n  dup3\n  dup2\n  gt\n  iszero\n  tag_16\n  jumpi\n  dup3\n  mload\n  dup3\n  sstore\n  swap2\n  0x20\n  add\n  swap2\n  swap1\n  0x01\n  add\n  swap1\n  jump(tag_15)\ntag_16:\n  pop\n  tag_17\n  swap3\n  swap2\n  pop\n  tag_18\n  jump\t// in\ntag_17:\n  pop\n  swap1\n  jump\t// out\ntag_18:\ntag_19:\n  dup1\n  dup3\n  gt\n  iszero\n  tag_17\n  jumpi\n  0x00\n  dup2\n  sstore\n  0x01\n  add\n  jump(tag_19)\n    /* \"#utility.yul\":14:141   */\ntag_21:\n    /* \"#utility.yul\":75:85   */\n  0x4e487b71\n    /* \"#utility.yul\":70:73   */\n  0xe0\n    /* \"#utility.yul\":66:86   */\n  shl\n    /* \"#utility.yul\":63:64   */\n  0x00\n    /* \"#utility.yul\":56:87   */\n  mstore\n    /* \"#utility.yul\":106:110   */\n  0x41\n    /* \"#utility.yul\":103:104   */\n  0x04\n    /* \"#utility.yul\":96:111   */\n  mstore\n    /* \"#utility.yul\":130:134   */\n  0x24\n    /* \"#utility.yul\":127:128   */\n  0x00\n    /* \"#utility.yul\":120:135   */\n  revert\n    /* \"#utility.yul\":146:1031   */\ntag_22:\n    /* \"#utility.yul\":200:205   */\n  0x00\n    /* \"#utility.yul\":253:256   */\n  dup3\n    /* \"#utility.yul\":246:250   */\n  0x1f\n    /* \"#utility.yul\":238:244   */\n  dup4\n    /* \"#utility.yul\":234:251   */\n  add\n    /* \"#utility.yul\":230:257   */\n  slt\n    /* \"#utility.yul\":220:275   */\n  tag_26\n  jumpi\n    /* \"#utility.yul\":271:272   */\n  0x00\n    /* \"#utility.yul\":268:269   */\n  dup1\n    /* \"#utility.yul\":261:273   */\n  revert\n    /* \"#utility.yul\":220:275   */\ntag_26:\n    /* \"#utility.yul\":294:307   */\n  dup2\n  mload\n  sub(shl(0x40, 0x01), 0x01)\n    /* \"#utility.yul\":356:366   */\n  dup1\n  dup3\n  gt\n    /* \"#utility.yul\":353:389   */\n  iszero\n  tag_28\n  jumpi\n    /* \"#utility.yul\":369:387   */\n  tag_28\n  tag_21\n  jump\t// in\ntag_28:\n    /* \"#utility.yul\":444:446   */\n  0x40\n    /* \"#utility.yul\":438:447   */\n  mload\n    /* \"#utility.yul\":412:414   */\n  0x1f\n    /* \"#utility.yul\":498:511   */\n  dup4\n  add\n  not(0x1f)\n    /* \"#utility.yul\":494:516   */\n  swap1\n  dup2\n  and\n    /* \"#utility.yul\":518:520   */\n  0x3f\n    /* \"#utility.yul\":490:521   */\n  add\n    /* \"#utility.yul\":486:526   */\n  and\n    /* \"#utility.yul\":474:527   */\n  dup2\n  add\n  swap1\n    /* \"#utility.yul\":542:560   */\n  dup3\n  dup3\n  gt\n    /* \"#utility.yul\":562:584   */\n  dup2\n  dup4\n  lt\n    /* \"#utility.yul\":539:585   */\n  or\n    /* \"#utility.yul\":536:608   */\n  iszero\n  tag_30\n  jumpi\n    /* \"#utility.yul\":588:606   */\n  tag_30\n  tag_21\n  jump\t// in\ntag_30:\n    /* \"#utility.yul\":628:638   */\n  dup2\n    /* \"#utility.yul\":624:626   */\n  0x40\n    /* \"#utility.yul\":617:639   */\n  mstore\n    /* \"#utility.yul\":663:665   */\n  dup4\n    /* \"#utility.yul\":655:661   */\n  dup2\n    /* \"#utility.yul\":648:666   */\n  mstore\n    /* \"#utility.yul\":685:689   */\n  0x20\n    /* \"#utility.yul\":675:689   */\n  swap3\n  pop\n    /* \"#utility.yul\":730:733   */\n  dup7\n    /* \"#utility.yul\":725:727   */\n  dup4\n    /* \"#utility.yul\":720:722   */\n  dup6\n    /* \"#utility.yul\":712:718   */\n  dup9\n    /* \"#utility.yul\":708:723   */\n  add\n    /* \"#utility.yul\":704:728   */\n  add\n    /* \"#utility.yul\":701:734   */\n  gt\n    /* \"#utility.yul\":698:751   */\n  iszero\n  tag_31\n  jumpi\n    /* \"#utility.yul\":747:748   */\n  0x00\n    /* \"#utility.yul\":744:745   */\n  dup1\n    /* \"#utility.yul\":737:749   */\n  revert\n    /* \"#utility.yul\":698:751   */\ntag_31:\n    /* \"#utility.yul\":769:770   */\n  0x00\n    /* \"#utility.yul\":760:770   */\n  swap2\n  pop\n    /* \"#utility.yul\":779:912   */\ntag_32:\n    /* \"#utility.yul\":793:795   */\n  dup4\n    /* \"#utility.yul\":790:791   */\n  dup3\n    /* \"#utility.yul\":787:796   */\n  lt\n    /* \"#utility.yul\":779:912   */\n  iszero\n  tag_34\n  jumpi\n    /* \"#utility.yul\":881:895   */\n  dup6\n  dup3\n  add\n    /* \"#utility.yul\":877:900   */\n  dup4\n  add\n    /* \"#utility.yul\":871:901   */\n  mload\n    /* \"#utility.yul\":850:864   */\n  dup2\n  dup4\n  add\n    /* \"#utility.yul\":846:869   */\n  dup5\n  add\n    /* \"#utility.yul\":839:902   */\n  mstore\n    /* \"#utility.yul\":804:814   */\n  swap1\n  dup3\n  add\n  swap1\n    /* \"#utility.yul\":779:912   */\n  jump(tag_32)\ntag_34:\n    /* \"#utility.yul\":930:932   */\n  dup4\n    /* \"#utility.yul\":927:928   */\n  dup3\n    /* \"#utility.yul\":924:933   */\n  gt\n    /* \"#utility.yul\":921:1001   */\n  iszero\n  tag_35\n  jumpi\n    /* \"#utility.yul\":989:990   */\n  0x00\n    /* \"#utility.yul\":984:986   */\n  dup4\n    /* \"#utility.yul\":979:981   */\n  dup6\n    /* \"#utility.yul\":971:977   */\n  dup4\n    /* \"#utility.yul\":967:982   */\n  add\n    /* \"#utility.yul\":963:987   */\n  add\n    /* \"#utility.yul\":956:991   */\n  mstore\n    /* \"#utility.yul\":921:1001   */\ntag_35:\n    /* \"#utility.yul\":1019:1025   */\n  swap7\n    /* \"#utility.yul\":146:1031   */\n  swap6\n  pop\n  pop\n  pop\n  pop\n  pop\n  pop\n  jump\t// out\n    /* \"#utility.yul\":1036:1598   */\ntag_3:\n    /* \"#utility.yul\":1135:1141   */\n  0x00\n    /* \"#utility.yul\":1143:1149   */\n  dup1\n    /* \"#utility.yul\":1196:1198   */\n  0x40\n    /* \"#utility.yul\":1184:1193   */\n  dup4\n    /* \"#utility.yul\":1175:1182   */\n  dup6\n    /* \"#utility.yul\":1171:1194   */\n  sub\n    /* \"#utility.yul\":1167:1199   */\n  slt\n    /* \"#utility.yul\":1164:1216   */\n  iszero\n  tag_37\n  jumpi\n    /* \"#utility.yul\":1212:1213   */\n  0x00\n    /* \"#utility.yul\":1209:1210   */\n  dup1\n    /* \"#utility.yul\":1202:1214   */\n  revert\n    /* \"#utility.yul\":1164:1216   */\ntag_37:\n    /* \"#utility.yul\":1239:1255   */\n  dup3\n  mload\n  sub(shl(0x40, 0x01), 0x01)\n    /* \"#utility.yul\":1304:1318   */\n  dup1\n  dup3\n  gt\n    /* \"#utility.yul\":1301:1335   */\n  iszero\n  tag_38\n  jumpi\n    /* \"#utility.yul\":1331:1332   */\n  0x00\n    /* \"#utility.yul\":1328:1329   */\n  dup1\n    /* \"#utility.yul\":1321:1333   */\n  revert\n    /* \"#utility.yul\":1301:1335   */\ntag_38:\n    /* \"#utility.yul\":1354:1415   */\n  tag_39\n    /* \"#utility.yul\":1407:1414   */\n  dup7\n    /* \"#utility.yul\":1398:1404   */\n  dup4\n    /* \"#utility.yul\":1387:1396   */\n  dup8\n    /* \"#utility.yul\":1383:1405   */\n  add\n    /* \"#utility.yul\":1354:1415   */\n  tag_22\n  jump\t// in\ntag_39:\n    /* \"#utility.yul\":1344:1415   */\n  swap4\n  pop\n    /* \"#utility.yul\":1461:1463   */\n  0x20\n    /* \"#utility.yul\":1450:1459   */\n  dup6\n    /* \"#utility.yul\":1446:1464   */\n  add\n    /* \"#utility.yul\":1440:1465   */\n  mload\n    /* \"#utility.yul\":1424:1465   */\n  swap2\n  pop\n    /* \"#utility.yul\":1490:1492   */\n  dup1\n    /* \"#utility.yul\":1480:1488   */\n  dup3\n    /* \"#utility.yul\":1477:1493   */\n  gt\n    /* \"#utility.yul\":1474:1510   */\n  iszero\n  tag_40\n  jumpi\n    /* \"#utility.yul\":1506:1507   */\n  0x00\n    /* \"#utility.yul\":1503:1504   */\n  dup1\n    /* \"#utility.yul\":1496:1508   */\n  revert\n    /* \"#utility.yul\":1474:1510   */\ntag_40:\n  pop\n    /* \"#utility.yul\":1529:1592   */\n  tag_41\n    /* \"#utility.yul\":1584:1591   */\n  dup6\n    /* \"#utility.yul\":1573:1581   */\n  dup3\n    /* \"#utility.yul\":1562:1571   */\n  dup7\n    /* \"#utility.yul\":1558:1582   */\n  add\n    /* \"#utility.yul\":1529:1592   */\n  tag_22\n  jump\t// in\ntag_41:\n    /* \"#utility.yul\":1519:1592   */\n  swap2\n  pop\n  pop\n    /* \"#utility.yul\":1036:1598   */\n  swap3\n  pop\n  swap3\n  swap1\n  pop\n  jump\t// out\n    /* \"#utility.yul\":1603:1983   */\ntag_11:\n    /* \"#utility.yul\":1682:1683   */\n  0x01\n    /* \"#utility.yul\":1678:1690   */\n  dup2\n  dup2\n  shr\n  swap1\n    /* \"#utility.yul\":1725:1737   */\n  dup3\n  and\n  dup1\n    /* \"#utility.yul\":1746:1807   */\n  tag_43\n  jumpi\n    /* \"#utility.yul\":1800:1804   */\n  0x7f\n    /* \"#utility.yul\":1792:1798   */\n  dup3\n    /* \"#utility.yul\":1788:1805   */\n  and\n    /* \"#utility.yul\":1778:1805   */\n  swap2\n  pop\n    /* \"#utility.yul\":1746:1807   */\ntag_43:\n    /* \"#utility.yul\":1853:1855   */\n  0x20\n    /* \"#utility.yul\":1845:1851   */\n  dup3\n    /* \"#utility.yul\":1842:1856   */\n  lt\n    /* \"#utility.yul\":1822:1840   */\n  dup2\n    /* \"#utility.yul\":1819:1857   */\n  sub\n    /* \"#utility.yul\":1816:1977   */\n  tag_44\n  jumpi\n    /* \"#utility.yul\":1899:1909   */\n  0x4e487b71\n    /* \"#utility.yul\":1894:1897   */\n  0xe0\n    /* \"#utility.yul\":1890:1910   */\n  shl\n    /* \"#utility.yul\":1887:1888   */\n  0x00\n    /* \"#utility.yul\":1880:1911   */\n  mstore\n    /* \"#utility.yul\":1934:1938   */\n  0x22\n    /* \"#utility.yul\":1931:1932   */\n  0x04\n    /* \"#utility.yul\":1924:1939   */\n  mstore\n    /* \"#utility.yul\":1962:1966   */\n  0x24\n    /* \"#utility.yul\":1959:1960   */\n  0x00\n    /* \"#utility.yul\":1952:1967   */\n  revert\n    /* \"#utility.yul\":1816:1977   */\ntag_44:\n  pop\n    /* \"#utility.yul\":1603:1983   */\n  swap2\n  swap1\n  pop\n  jump\t// out\ntag_23:\n    /* \"erc721.sol\":20564:35503  contract ERC721 is Context, ERC165, IERC721, IERC721Metadata {... */\n  dataSize(sub_0)\n  dup1\n  dataOffset(sub_0)\n  0x00\n  codecopy\n  0x00\n  return\nstop\n\nsub_0: assembly {\n        /* \"erc721.sol\":20564:35503  contract ERC721 is Context, ERC165, IERC721, IERC721Metadata {... */\n      mstore(0x40, 0x80)\n      callvalue\n      dup1\n      iszero\n      tag_1\n      jumpi\n      0x00\n      dup1\n      revert\n    tag_1:\n      pop\n      jumpi(tag_2, lt(calldatasize, 0x04))\n      shr(0xe0, calldataload(0x00))\n      dup1\n      0x42966c68\n      gt\n      tag_20\n      jumpi\n      dup1\n      0xa22cb465\n      gt\n      tag_21\n      jumpi\n      dup1\n      0xc87b56dd\n      gt\n      tag_22\n      jumpi\n      dup1\n      0xc87b56dd\n      eq\n      tag_17\n      jumpi\n      dup1\n      0xd0def521\n      eq\n      tag_18\n      jumpi\n      dup1\n      0xe985e9c5\n      eq\n      tag_19\n      jumpi\n      0x00\n      dup1\n      revert\n    tag_22:\n      dup1\n      0xa22cb465\n      eq\n      tag_15\n      jumpi\n      dup1\n      0xb88d4fde\n      eq\n      tag_16\n      jumpi\n      0x00\n      dup1\n      revert\n    tag_21:\n      dup1\n      0x42966c68\n      eq\n      tag_11\n      jumpi\n      dup1\n      0x6352211e\n      eq\n      tag_12\n      jumpi\n      dup1\n      0x70a08231\n      eq\n      tag_13\n      jumpi\n      dup1\n      0x95d89b41\n      eq\n      tag_14\n      jumpi\n      0x00\n      dup1\n      revert\n    tag_20:\n      dup1\n      0x150b7a02\n      gt\n      tag_23\n      jumpi\n      dup1\n      0x150b7a02\n      eq\n      tag_7\n      jumpi\n      dup1\n      0x23b872dd\n      eq\n      tag_8\n      jumpi\n      dup1\n      0x3b1475a7\n      eq\n      tag_9\n      jumpi\n      dup1\n      0x42842e0e\n      eq\n      tag_10\n      jumpi\n      0x00\n      dup1\n      revert\n    tag_23:\n      dup1\n      0x01ffc9a7\n      eq\n      tag_3\n      jumpi\n      dup1\n      0x06fdde03\n      eq\n      tag_4\n      jumpi\n      dup1\n      0x081812fc\n      eq\n      tag_5\n      jumpi\n      dup1\n      0x095ea7b3\n      eq\n      tag_6\n      jumpi\n    tag_2:\n      0x00\n      dup1\n      revert\n        /* \"erc721.sol\":21695:22000  function supportsInterface(bytes4 interfaceId) public view virtual override(ERC165, IERC165) returns (bool) {... */\n    tag_3:\n      tag_24\n      tag_25\n      calldatasize\n      0x04\n      tag_26\n      jump\t// in\n    tag_25:\n      tag_27\n      jump\t// in\n    tag_24:\n      mload(0x40)\n        /* \"#utility.yul\":565:579   */\n      swap1\n      iszero\n        /* \"#utility.yul\":558:580   */\n      iszero\n        /* \"#utility.yul\":540:581   */\n      dup2\n      mstore\n        /* \"#utility.yul\":528:530   */\n      0x20\n        /* \"#utility.yul\":513:531   */\n      add\n        /* \"erc721.sol\":21695:22000  function supportsInterface(bytes4 interfaceId) public view virtual override(ERC165, IERC165) returns (bool) {... */\n    tag_28:\n      mload(0x40)\n      dup1\n      swap2\n      sub\n      swap1\n      return\n        /* \"erc721.sol\":22622:22722  function name() public view virtual override returns (string memory) {... */\n    tag_4:\n      tag_30\n      tag_31\n      jump\t// in\n    tag_30:\n      mload(0x40)\n      tag_28\n      swap2\n      swap1\n      tag_33\n      jump\t// in\n        /* \"erc721.sol\":24018:24189  function getApproved(uint256 tokenId) public view virtual override returns (address) {... */\n    tag_5:\n      tag_34\n      tag_35\n      calldatasize\n      0x04\n      tag_36\n      jump\t// in\n    tag_35:\n      tag_37\n      jump\t// in\n    tag_34:\n      mload(0x40)\n      sub(shl(0xa0, 0x01), 0x01)\n        /* \"#utility.yul\":1643:1698   */\n      swap1\n      swap2\n      and\n        /* \"#utility.yul\":1625:1699   */\n      dup2\n      mstore\n        /* \"#utility.yul\":1613:1615   */\n      0x20\n        /* \"#utility.yul\":1598:1616   */\n      add\n        /* \"erc721.sol\":24018:24189  function getApproved(uint256 tokenId) public view virtual override returns (address) {... */\n      tag_28\n        /* \"#utility.yul\":1479:1705   */\n      jump\n        /* \"erc721.sol\":23536:23952  function approve(address to, uint256 tokenId) public virtual override {... */\n    tag_6:\n      tag_40\n      tag_41\n      calldatasize\n      0x04\n      tag_42\n      jump\t// in\n    tag_41:\n      tag_43\n      jump\t// in\n    tag_40:\n      stop\n        /* \"erc721.sol\":33969:34228  function onERC721Received(address from, address to, uint256, bytes memory) public virtual returns (bytes4) {... */\n    tag_7:\n      tag_44\n      tag_45\n      calldatasize\n      0x04\n      tag_46\n      jump\t// in\n    tag_45:\n      tag_47\n      jump\t// in\n    tag_44:\n      mload(0x40)\n      not(sub(shl(0xe0, 0x01), 0x01))\n        /* \"#utility.yul\":3607:3640   */\n      swap1\n      swap2\n      and\n        /* \"#utility.yul\":3589:3641   */\n      dup2\n      mstore\n        /* \"#utility.yul\":3577:3579   */\n      0x20\n        /* \"#utility.yul\":3562:3580   */\n      add\n        /* \"erc721.sol\":33969:34228  function onERC721Received(address from, address to, uint256, bytes memory) public virtual returns (bytes4) {... */\n      tag_28\n        /* \"#utility.yul\":3445:3647   */\n      jump\n        /* \"erc721.sol\":24718:25053  function transferFrom(... */\n    tag_8:\n      tag_40\n      tag_51\n      calldatasize\n      0x04\n      tag_52\n      jump\t// in\n    tag_51:\n      tag_53\n      jump\t// in\n        /* \"erc721.sol\":20824:20856  uint256 public nextTokenIdToMint */\n    tag_9:\n      tag_54\n      sload(0x02)\n      dup2\n      jump\n    tag_54:\n      mload(0x40)\n        /* \"#utility.yul\":4131:4156   */\n      swap1\n      dup2\n      mstore\n        /* \"#utility.yul\":4119:4121   */\n      0x20\n        /* \"#utility.yul\":4104:4122   */\n      add\n        /* \"erc721.sol\":20824:20856  uint256 public nextTokenIdToMint */\n      tag_28\n        /* \"#utility.yul\":3985:4162   */\n      jump\n        /* \"erc721.sol\":25124:25309  function safeTransferFrom(... */\n    tag_10:\n      tag_40\n      tag_59\n      calldatasize\n      0x04\n      tag_52\n      jump\t// in\n    tag_59:\n      tag_60\n      jump\t// in\n        /* \"erc721.sol\":25911:25990  function burn(uint256 tokenId) public virtual {... */\n    tag_11:\n      tag_40\n      tag_62\n      calldatasize\n      0x04\n      tag_36\n      jump\t// in\n    tag_62:\n      tag_63\n      jump\t// in\n        /* \"erc721.sol\":22333:22555  function ownerOf(uint256 tokenId) public view virtual override returns (address) {... */\n    tag_12:\n      tag_34\n      tag_65\n      calldatasize\n      0x04\n      tag_36\n      jump\t// in\n    tag_65:\n      tag_66\n      jump\t// in\n        /* \"erc721.sol\":22064:22271  function balanceOf(address owner) public view virtual override returns (uint256) {... */\n    tag_13:\n      tag_54\n      tag_69\n      calldatasize\n      0x04\n      tag_70\n      jump\t// in\n    tag_69:\n      tag_71\n      jump\t// in\n        /* \"erc721.sol\":22791:22895  function symbol() public view virtual override returns (string memory) {... */\n    tag_14:\n      tag_30\n      tag_74\n      jump\t// in\n        /* \"erc721.sol\":24261:24416  function setApprovalForAll(address operator, bool approved) public virtual override {... */\n    tag_15:\n      tag_40\n      tag_77\n      calldatasize\n      0x04\n      tag_78\n      jump\t// in\n    tag_77:\n      tag_79\n      jump\t// in\n        /* \"erc721.sol\":25380:25702  function safeTransferFrom(... */\n    tag_16:\n      tag_40\n      tag_81\n      calldatasize\n      0x04\n      tag_46\n      jump\t// in\n    tag_81:\n      tag_82\n      jump\t// in\n        /* \"erc721.sol\":22966:23126  function tokenURI(uint256 tokenId) public view virtual override returns (string memory) {... */\n    tag_17:\n      tag_30\n      tag_84\n      calldatasize\n      0x04\n      tag_36\n      jump\t// in\n    tag_84:\n      tag_85\n      jump\t// in\n        /* \"erc721.sol\":25710:25903  function mint(address to, string calldata _uri) public virtual {... */\n    tag_18:\n      tag_40\n      tag_88\n      calldatasize\n      0x04\n      tag_89\n      jump\t// in\n    tag_88:\n      tag_90\n      jump\t// in\n        /* \"erc721.sol\":24487:24651  function isApprovedForAll(address owner, address operator) public view virtual override returns (bool) {... */\n    tag_19:\n      tag_24\n      tag_92\n      calldatasize\n      0x04\n      tag_93\n      jump\t// in\n    tag_92:\n      sub(shl(0xa0, 0x01), 0x01)\n        /* \"erc721.sol\":24608:24633  _operatorApprovals[owner] */\n      swap2\n      dup3\n      and\n        /* \"erc721.sol\":24584:24588  bool */\n      0x00\n        /* \"erc721.sol\":24608:24633  _operatorApprovals[owner] */\n      swap1\n      dup2\n      mstore\n        /* \"erc721.sol\":24608:24626  _operatorApprovals */\n      0x07\n        /* \"erc721.sol\":24608:24633  _operatorApprovals[owner] */\n      0x20\n      swap1\n      dup2\n      mstore\n      0x40\n      dup1\n      dup4\n      keccak256\n        /* \"erc721.sol\":24608:24643  _operatorApprovals[owner][operator] */\n      swap4\n      swap1\n      swap5\n      and\n      dup3\n      mstore\n      swap2\n      swap1\n      swap2\n      mstore\n      keccak256\n      sload\n      0xff\n      and\n      swap1\n        /* \"erc721.sol\":24487:24651  function isApprovedForAll(address owner, address operator) public view virtual override returns (bool) {... */\n      jump\n        /* \"erc721.sol\":21695:22000  function supportsInterface(bytes4 interfaceId) public view virtual override(ERC165, IERC165) returns (bool) {... */\n    tag_27:\n        /* \"erc721.sol\":21797:21801  bool */\n      0x00\n      not(sub(shl(0xe0, 0x01), 0x01))\n        /* \"erc721.sol\":21834:21874  interfaceId == type(IERC721).interfaceId */\n      dup3\n      and\n      shl(0xe0, 0x80ac58cd)\n      eq\n      dup1\n        /* \"erc721.sol\":21834:21939  interfaceId == type(IERC721).interfaceId ||... */\n      tag_97\n      jumpi\n      pop\n      not(sub(shl(0xe0, 0x01), 0x01))\n        /* \"erc721.sol\":21891:21939  interfaceId == type(IERC721Metadata).interfaceId */\n      dup3\n      and\n      shl(0xe0, 0x5b5e139f)\n      eq\n        /* \"erc721.sol\":21834:21939  interfaceId == type(IERC721).interfaceId ||... */\n    tag_97:\n        /* \"erc721.sol\":21834:21992  interfaceId == type(IERC721).interfaceId ||... */\n      dup1\n      tag_99\n      jumpi\n      pop\n      shl(0xe0, 0x01ffc9a7)\n      not(sub(shl(0xe0, 0x01), 0x01))\n        /* \"erc721.sol\":14931:14971  interfaceId == type(IERC165).interfaceId */\n      dup4\n      and\n      eq\n        /* \"erc721.sol\":21956:21992  super.supportsInterface(interfaceId) */\n    tag_99:\n        /* \"erc721.sol\":21814:21992  return... */\n      swap3\n        /* \"erc721.sol\":21695:22000  function supportsInterface(bytes4 interfaceId) public view virtual override(ERC165, IERC165) returns (bool) {... */\n      swap2\n      pop\n      pop\n      jump\t// out\n        /* \"erc721.sol\":22622:22722  function name() public view virtual override returns (string memory) {... */\n    tag_31:\n        /* \"erc721.sol\":22676:22689  string memory */\n      0x60\n        /* \"erc721.sol\":22709:22714  _name */\n      0x00\n        /* \"erc721.sol\":22702:22714  return _name */\n      dup1\n      sload\n      tag_102\n      swap1\n      tag_103\n      jump\t// in\n    tag_102:\n      dup1\n      0x1f\n      add\n      0x20\n      dup1\n      swap2\n      div\n      mul\n      0x20\n      add\n      mload(0x40)\n      swap1\n      dup2\n      add\n      0x40\n      mstore\n      dup1\n      swap3\n      swap2\n      swap1\n      dup2\n      dup2\n      mstore\n      0x20\n      add\n      dup3\n      dup1\n      sload\n      tag_104\n      swap1\n      tag_103\n      jump\t// in\n    tag_104:\n      dup1\n      iszero\n      tag_105\n      jumpi\n      dup1\n      0x1f\n      lt\n      tag_106\n      jumpi\n      0x0100\n      dup1\n      dup4\n      sload\n      div\n      mul\n      dup4\n      mstore\n      swap2\n      0x20\n      add\n      swap2\n      jump(tag_105)\n    tag_106:\n      dup3\n      add\n      swap2\n      swap1\n      0x00\n      mstore\n      keccak256(0x00, 0x20)\n      swap1\n    tag_107:\n      dup2\n      sload\n      dup2\n      mstore\n      swap1\n      0x01\n      add\n      swap1\n      0x20\n      add\n      dup1\n      dup4\n      gt\n      tag_107\n      jumpi\n      dup3\n      swap1\n      sub\n      0x1f\n      and\n      dup3\n      add\n      swap2\n    tag_105:\n      pop\n      pop\n      pop\n      pop\n      pop\n      swap1\n      pop\n        /* \"erc721.sol\":22622:22722  function name() public view virtual override returns (string memory) {... */\n      swap1\n      jump\t// out\n        /* \"erc721.sol\":24018:24189  function getApproved(uint256 tokenId) public view virtual override returns (address) {... */\n    tag_37:\n        /* \"erc721.sol\":24094:24101  address */\n      0x00\n        /* \"erc721.sol\":24114:24137  _requireMinted(tokenId) */\n      tag_109\n        /* \"erc721.sol\":24129:24136  tokenId */\n      dup3\n        /* \"erc721.sol\":24114:24128  _requireMinted */\n      tag_110\n        /* \"erc721.sol\":24114:24137  _requireMinted(tokenId) */\n      jump\t// in\n    tag_109:\n      pop\n        /* \"erc721.sol\":24157:24181  _tokenApprovals[tokenId] */\n      0x00\n      swap1\n      dup2\n      mstore\n        /* \"erc721.sol\":24157:24172  _tokenApprovals */\n      0x06\n        /* \"erc721.sol\":24157:24181  _tokenApprovals[tokenId] */\n      0x20\n      mstore\n      0x40\n      swap1\n      keccak256\n      sload\n      sub(shl(0xa0, 0x01), 0x01)\n      and\n      swap1\n        /* \"erc721.sol\":24018:24189  function getApproved(uint256 tokenId) public view virtual override returns (address) {... */\n      jump\t// out\n        /* \"erc721.sol\":23536:23952  function approve(address to, uint256 tokenId) public virtual override {... */\n    tag_43:\n        /* \"erc721.sol\":23617:23630  address owner */\n      0x00\n        /* \"erc721.sol\":23633:23656  ERC721.ownerOf(tokenId) */\n      tag_112\n        /* \"erc721.sol\":23648:23655  tokenId */\n      dup3\n        /* \"erc721.sol\":23633:23647  ERC721.ownerOf */\n      tag_66\n        /* \"erc721.sol\":23633:23656  ERC721.ownerOf(tokenId) */\n      jump\t// in\n    tag_112:\n        /* \"erc721.sol\":23617:23656  address owner = ERC721.ownerOf(tokenId) */\n      swap1\n      pop\n        /* \"erc721.sol\":23681:23686  owner */\n      dup1\n      sub(shl(0xa0, 0x01), 0x01)\n        /* \"erc721.sol\":23675:23686  to != owner */\n      and\n        /* \"erc721.sol\":23675:23677  to */\n      dup4\n      sub(shl(0xa0, 0x01), 0x01)\n        /* \"erc721.sol\":23675:23686  to != owner */\n      and\n      sub\n        /* \"erc721.sol\":23667:23724  require(to != owner, \"ERC721: approval to current owner\") */\n      tag_113\n      jumpi\n      mload(0x40)\n      shl(0xe5, 0x461bcd)\n      dup2\n      mstore\n        /* \"#utility.yul\":6233:6235   */\n      0x20\n        /* \"erc721.sol\":23667:23724  require(to != owner, \"ERC721: approval to current owner\") */\n      0x04\n      dup3\n      add\n        /* \"#utility.yul\":6215:6236   */\n      mstore\n        /* \"#utility.yul\":6272:6274   */\n      0x21\n        /* \"#utility.yul\":6252:6270   */\n      0x24\n      dup3\n      add\n        /* \"#utility.yul\":6245:6275   */\n      mstore\n        /* \"#utility.yul\":6311:6345   */\n      0x4552433732313a20617070726f76616c20746f2063757272656e74206f776e65\n        /* \"#utility.yul\":6291:6309   */\n      0x44\n      dup3\n      add\n        /* \"#utility.yul\":6284:6346   */\n      mstore\n      shl(0xf9, 0x39)\n        /* \"#utility.yul\":6362:6380   */\n      0x64\n      dup3\n      add\n        /* \"#utility.yul\":6355:6386   */\n      mstore\n        /* \"#utility.yul\":6403:6422   */\n      0x84\n      add\n        /* \"erc721.sol\":23667:23724  require(to != owner, \"ERC721: approval to current owner\") */\n    tag_114:\n      mload(0x40)\n      dup1\n      swap2\n      sub\n      swap1\n      revert\n    tag_113:\n        /* \"erc721.sol\":3099:3109  msg.sender */\n      caller\n      sub(shl(0xa0, 0x01), 0x01)\n        /* \"erc721.sol\":23759:23780  _msgSender() == owner */\n      dup3\n      and\n      eq\n      dup1\n        /* \"erc721.sol\":23759:23821  _msgSender() == owner || isApprovedForAll(owner, _msgSender()) */\n      tag_119\n      jumpi\n      pop\n        /* \"erc721.sol\":23784:23821  isApprovedForAll(owner, _msgSender()) */\n      tag_119\n        /* \"erc721.sol\":23801:23806  owner */\n      dup2\n        /* \"erc721.sol\":3099:3109  msg.sender */\n      caller\n        /* \"erc721.sol\":24487:24651  function isApprovedForAll(address owner, address operator) public view virtual override returns (bool) {... */\n      tag_92\n      jump\t// in\n        /* \"erc721.sol\":23784:23821  isApprovedForAll(owner, _msgSender()) */\n    tag_119:\n        /* \"erc721.sol\":23737:23910  require(... */\n      tag_121\n      jumpi\n      mload(0x40)\n      shl(0xe5, 0x461bcd)\n      dup2\n      mstore\n        /* \"#utility.yul\":6635:6637   */\n      0x20\n        /* \"erc721.sol\":23737:23910  require(... */\n      0x04\n      dup3\n      add\n        /* \"#utility.yul\":6617:6638   */\n      mstore\n        /* \"#utility.yul\":6674:6676   */\n      0x3d\n        /* \"#utility.yul\":6654:6672   */\n      0x24\n      dup3\n      add\n        /* \"#utility.yul\":6647:6677   */\n      mstore\n        /* \"#utility.yul\":6713:6747   */\n      0x4552433732313a20617070726f76652063616c6c6572206973206e6f7420746f\n        /* \"#utility.yul\":6693:6711   */\n      0x44\n      dup3\n      add\n        /* \"#utility.yul\":6686:6748   */\n      mstore\n        /* \"#utility.yul\":6784:6815   */\n      0x6b656e206f776e6572206f7220617070726f76656420666f7220616c6c000000\n        /* \"#utility.yul\":6764:6782   */\n      0x64\n      dup3\n      add\n        /* \"#utility.yul\":6757:6816   */\n      mstore\n        /* \"#utility.yul\":6833:6852   */\n      0x84\n      add\n        /* \"erc721.sol\":23737:23910  require(... */\n      tag_114\n        /* \"#utility.yul\":6433:6858   */\n      jump\n        /* \"erc721.sol\":23737:23910  require(... */\n    tag_121:\n        /* \"erc721.sol\":23923:23944  _approve(to, tokenId) */\n      tag_124\n        /* \"erc721.sol\":23932:23934  to */\n      dup4\n        /* \"erc721.sol\":23936:23943  tokenId */\n      dup4\n        /* \"erc721.sol\":23923:23931  _approve */\n      tag_125\n        /* \"erc721.sol\":23923:23944  _approve(to, tokenId) */\n      jump\t// in\n    tag_124:\n        /* \"erc721.sol\":23606:23952  {... */\n      pop\n        /* \"erc721.sol\":23536:23952  function approve(address to, uint256 tokenId) public virtual override {... */\n      pop\n      pop\n      jump\t// out\n        /* \"erc721.sol\":33969:34228  function onERC721Received(address from, address to, uint256, bytes memory) public virtual returns (bytes4) {... */\n    tag_47:\n      sub(shl(0xa0, 0x01), 0x01)\n        /* \"erc721.sol\":34087:34109  _operatorApprovals[to] */\n      dup4\n      dup2\n      and\n        /* \"erc721.sol\":34068:34074  bytes4 */\n      0x00\n        /* \"erc721.sol\":34087:34109  _operatorApprovals[to] */\n      dup2\n      dup2\n      mstore\n        /* \"erc721.sol\":34087:34105  _operatorApprovals */\n      0x07\n        /* \"erc721.sol\":34087:34109  _operatorApprovals[to] */\n      0x20\n      swap1\n      dup2\n      mstore\n      0x40\n      dup1\n      dup4\n      keccak256\n        /* \"erc721.sol\":34087:34115  _operatorApprovals[to][from] */\n      swap5\n      dup10\n      and\n      dup1\n      dup5\n      mstore\n      swap5\n      dup3\n      mstore\n      dup1\n      dup4\n      keccak256\n        /* \"erc721.sol\":34087:34122  _operatorApprovals[to][from] = true */\n      dup1\n      sload\n      not(0xff)\n      and\n        /* \"erc721.sol\":34118:34122  true */\n      0x01\n        /* \"erc721.sol\":34087:34122  _operatorApprovals[to][from] = true */\n      swap1\n      dup2\n      or\n      swap1\n      swap2\n      sstore\n        /* \"erc721.sol\":34138:34168  ApprovalForAll(to, from, true) */\n      swap1\n      mload\n        /* \"#utility.yul\":540:581   */\n      swap1\n      dup2\n      mstore\n        /* \"erc721.sol\":34068:34074  bytes4 */\n      swap2\n      swap4\n        /* \"erc721.sol\":34087:34115  _operatorApprovals[to][from] */\n      swap3\n        /* \"erc721.sol\":34087:34109  _operatorApprovals[to] */\n      swap2\n        /* \"erc721.sol\":34138:34168  ApprovalForAll(to, from, true) */\n      0x17307eab39ab6107e8899845ad3d59bd9653f200f220920489ca2b5937696c31\n      swap2\n        /* \"#utility.yul\":513:531   */\n      add\n        /* \"erc721.sol\":34138:34168  ApprovalForAll(to, from, true) */\n      mload(0x40)\n      dup1\n      swap2\n      sub\n      swap1\n      log3\n      pop\n      shl(0xe1, 0x0a85bd01)\n        /* \"erc721.sol\":33969:34228  function onERC721Received(address from, address to, uint256, bytes memory) public virtual returns (bytes4) {... */\n    tag_126:\n      swap5\n      swap4\n      pop\n      pop\n      pop\n      pop\n      jump\t// out\n        /* \"erc721.sol\":24718:25053  function transferFrom(... */\n    tag_53:\n        /* \"erc721.sol\":24913:24954  _isApprovedOrOwner(_msgSender(), tokenId) */\n      tag_129\n        /* \"erc721.sol\":3099:3109  msg.sender */\n      caller\n        /* \"erc721.sol\":24946:24953  tokenId */\n      dup3\n        /* \"erc721.sol\":24913:24931  _isApprovedOrOwner */\n      tag_131\n        /* \"erc721.sol\":24913:24954  _isApprovedOrOwner(_msgSender(), tokenId) */\n      jump\t// in\n    tag_129:\n        /* \"erc721.sol\":24905:25004  require(_isApprovedOrOwner(_msgSender(), tokenId), \"ERC721: caller is not token owner or approved\") */\n      tag_132\n      jumpi\n      mload(0x40)\n      shl(0xe5, 0x461bcd)\n      dup2\n      mstore\n        /* \"#utility.yul\":7065:7067   */\n      0x20\n        /* \"erc721.sol\":24905:25004  require(_isApprovedOrOwner(_msgSender(), tokenId), \"ERC721: caller is not token owner or approved\") */\n      0x04\n      dup3\n      add\n        /* \"#utility.yul\":7047:7068   */\n      mstore\n        /* \"#utility.yul\":7104:7106   */\n      0x2d\n        /* \"#utility.yul\":7084:7102   */\n      0x24\n      dup3\n      add\n        /* \"#utility.yul\":7077:7107   */\n      mstore\n        /* \"#utility.yul\":7143:7177   */\n      0x4552433732313a2063616c6c6572206973206e6f7420746f6b656e206f776e65\n        /* \"#utility.yul\":7123:7141   */\n      0x44\n      dup3\n      add\n        /* \"#utility.yul\":7116:7178   */\n      mstore\n      shl(0x9a, 0x1c881bdc88185c1c1c9bdd9959)\n        /* \"#utility.yul\":7194:7212   */\n      0x64\n      dup3\n      add\n        /* \"#utility.yul\":7187:7230   */\n      mstore\n        /* \"#utility.yul\":7247:7266   */\n      0x84\n      add\n        /* \"erc721.sol\":24905:25004  require(_isApprovedOrOwner(_msgSender(), tokenId), \"ERC721: caller is not token owner or approved\") */\n      tag_114\n        /* \"#utility.yul\":6863:7272   */\n      jump\n        /* \"erc721.sol\":24905:25004  require(_isApprovedOrOwner(_msgSender(), tokenId), \"ERC721: caller is not token owner or approved\") */\n    tag_132:\n        /* \"erc721.sol\":25017:25045  _transfer(from, to, tokenId) */\n      tag_124\n        /* \"erc721.sol\":25027:25031  from */\n      dup4\n        /* \"erc721.sol\":25033:25035  to */\n      dup4\n        /* \"erc721.sol\":25037:25044  tokenId */\n      dup4\n        /* \"erc721.sol\":25017:25026  _transfer */\n      tag_136\n        /* \"erc721.sol\":25017:25045  _transfer(from, to, tokenId) */\n      jump\t// in\n        /* \"erc721.sol\":25124:25309  function safeTransferFrom(... */\n    tag_60:\n        /* \"erc721.sol\":25262:25301  safeTransferFrom(from, to, tokenId, \"\") */\n      tag_124\n        /* \"erc721.sol\":25279:25283  from */\n      dup4\n        /* \"erc721.sol\":25285:25287  to */\n      dup4\n        /* \"erc721.sol\":25289:25296  tokenId */\n      dup4\n        /* \"erc721.sol\":25262:25301  safeTransferFrom(from, to, tokenId, \"\") */\n      mload(0x40)\n      dup1\n      0x20\n      add\n      0x40\n      mstore\n      dup1\n      0x00\n      dup2\n      mstore\n      pop\n        /* \"erc721.sol\":25262:25278  safeTransferFrom */\n      tag_82\n        /* \"erc721.sol\":25262:25301  safeTransferFrom(from, to, tokenId, \"\") */\n      jump\t// in\n        /* \"erc721.sol\":25911:25990  function burn(uint256 tokenId) public virtual {... */\n    tag_63:\n        /* \"erc721.sol\":25968:25982  _burn(tokenId) */\n      tag_140\n        /* \"erc721.sol\":25974:25981  tokenId */\n      dup2\n        /* \"erc721.sol\":25968:25973  _burn */\n      tag_141\n        /* \"erc721.sol\":25968:25982  _burn(tokenId) */\n      jump\t// in\n    tag_140:\n        /* \"erc721.sol\":25911:25990  function burn(uint256 tokenId) public virtual {... */\n      pop\n      jump\t// out\n        /* \"erc721.sol\":22333:22555  function ownerOf(uint256 tokenId) public view virtual override returns (address) {... */\n    tag_66:\n        /* \"erc721.sol\":22405:22412  address */\n      0x00\n        /* \"erc721.sol\":22441:22457  _owners[tokenId] */\n      dup2\n      dup2\n      mstore\n        /* \"erc721.sol\":22441:22448  _owners */\n      0x03\n        /* \"erc721.sol\":22441:22457  _owners[tokenId] */\n      0x20\n      mstore\n      0x40\n      dup2\n      keccak256\n      sload\n      sub(shl(0xa0, 0x01), 0x01)\n      and\n      dup1\n        /* \"erc721.sol\":22468:22524  require(owner != address(0), \"ERC721: invalid token ID\") */\n      tag_99\n      jumpi\n      mload(0x40)\n      shl(0xe5, 0x461bcd)\n      dup2\n      mstore\n        /* \"#utility.yul\":7479:7481   */\n      0x20\n        /* \"erc721.sol\":22468:22524  require(owner != address(0), \"ERC721: invalid token ID\") */\n      0x04\n      dup3\n      add\n        /* \"#utility.yul\":7461:7482   */\n      mstore\n        /* \"#utility.yul\":7518:7520   */\n      0x18\n        /* \"#utility.yul\":7498:7516   */\n      0x24\n      dup3\n      add\n        /* \"#utility.yul\":7491:7521   */\n      mstore\n        /* \"#utility.yul\":7557:7583   */\n      0x4552433732313a20696e76616c696420746f6b656e2049440000000000000000\n        /* \"#utility.yul\":7537:7555   */\n      0x44\n      dup3\n      add\n        /* \"#utility.yul\":7530:7584   */\n      mstore\n        /* \"#utility.yul\":7601:7619   */\n      0x64\n      add\n        /* \"erc721.sol\":22468:22524  require(owner != address(0), \"ERC721: invalid token ID\") */\n      tag_114\n        /* \"#utility.yul\":7277:7625   */\n      jump\n        /* \"erc721.sol\":22064:22271  function balanceOf(address owner) public view virtual override returns (uint256) {... */\n    tag_71:\n        /* \"erc721.sol\":22136:22143  uint256 */\n      0x00\n      sub(shl(0xa0, 0x01), 0x01)\n        /* \"erc721.sol\":22164:22183  owner != address(0) */\n      dup3\n      and\n        /* \"erc721.sol\":22156:22229  require(owner != address(0), \"ERC721: address zero is not a valid owner\") */\n      tag_147\n      jumpi\n      mload(0x40)\n      shl(0xe5, 0x461bcd)\n      dup2\n      mstore\n        /* \"#utility.yul\":7832:7834   */\n      0x20\n        /* \"erc721.sol\":22156:22229  require(owner != address(0), \"ERC721: address zero is not a valid owner\") */\n      0x04\n      dup3\n      add\n        /* \"#utility.yul\":7814:7835   */\n      mstore\n        /* \"#utility.yul\":7871:7873   */\n      0x29\n        /* \"#utility.yul\":7851:7869   */\n      0x24\n      dup3\n      add\n        /* \"#utility.yul\":7844:7874   */\n      mstore\n        /* \"#utility.yul\":7910:7944   */\n      0x4552433732313a2061646472657373207a65726f206973206e6f742061207661\n        /* \"#utility.yul\":7890:7908   */\n      0x44\n      dup3\n      add\n        /* \"#utility.yul\":7883:7945   */\n      mstore\n        /* \"#utility.yul\":7981:7992   */\n      0x6c6964206f776e65720000000000000000000000000000000000000000000000\n        /* \"#utility.yul\":7961:7979   */\n      0x64\n      dup3\n      add\n        /* \"#utility.yul\":7954:7993   */\n      mstore\n        /* \"#utility.yul\":8010:8029   */\n      0x84\n      add\n        /* \"erc721.sol\":22156:22229  require(owner != address(0), \"ERC721: address zero is not a valid owner\") */\n      tag_114\n        /* \"#utility.yul\":7630:8035   */\n      jump\n        /* \"erc721.sol\":22156:22229  require(owner != address(0), \"ERC721: address zero is not a valid owner\") */\n    tag_147:\n      pop\n      sub(shl(0xa0, 0x01), 0x01)\n        /* \"erc721.sol\":22247:22263  _balances[owner] */\n      and\n      0x00\n      swap1\n      dup2\n      mstore\n        /* \"erc721.sol\":22247:22256  _balances */\n      0x05\n        /* \"erc721.sol\":22247:22263  _balances[owner] */\n      0x20\n      mstore\n      0x40\n      swap1\n      keccak256\n      sload\n      swap1\n        /* \"erc721.sol\":22064:22271  function balanceOf(address owner) public view virtual override returns (uint256) {... */\n      jump\t// out\n        /* \"erc721.sol\":22791:22895  function symbol() public view virtual override returns (string memory) {... */\n    tag_74:\n        /* \"erc721.sol\":22847:22860  string memory */\n      0x60\n        /* \"erc721.sol\":22880:22887  _symbol */\n      0x01\n        /* \"erc721.sol\":22873:22887  return _symbol */\n      dup1\n      sload\n      tag_102\n      swap1\n      tag_103\n      jump\t// in\n        /* \"erc721.sol\":24261:24416  function setApprovalForAll(address operator, bool approved) public virtual override {... */\n    tag_79:\n        /* \"erc721.sol\":24356:24408  _setApprovalForAll(_msgSender(), operator, approved) */\n      tag_157\n        /* \"erc721.sol\":3099:3109  msg.sender */\n      caller\n        /* \"erc721.sol\":24389:24397  operator */\n      dup4\n        /* \"erc721.sol\":24399:24407  approved */\n      dup4\n        /* \"erc721.sol\":24356:24374  _setApprovalForAll */\n      tag_159\n        /* \"erc721.sol\":24356:24408  _setApprovalForAll(_msgSender(), operator, approved) */\n      jump\t// in\n    tag_157:\n        /* \"erc721.sol\":24261:24416  function setApprovalForAll(address operator, bool approved) public virtual override {... */\n      pop\n      pop\n      jump\t// out\n        /* \"erc721.sol\":25380:25702  function safeTransferFrom(... */\n    tag_82:\n        /* \"erc721.sol\":25554:25595  _isApprovedOrOwner(_msgSender(), tokenId) */\n      tag_161\n        /* \"erc721.sol\":3099:3109  msg.sender */\n      caller\n        /* \"erc721.sol\":25587:25594  tokenId */\n      dup4\n        /* \"erc721.sol\":25554:25572  _isApprovedOrOwner */\n      tag_131\n        /* \"erc721.sol\":25554:25595  _isApprovedOrOwner(_msgSender(), tokenId) */\n      jump\t// in\n    tag_161:\n        /* \"erc721.sol\":25546:25645  require(_isApprovedOrOwner(_msgSender(), tokenId), \"ERC721: caller is not token owner or approved\") */\n      tag_163\n      jumpi\n      mload(0x40)\n      shl(0xe5, 0x461bcd)\n      dup2\n      mstore\n        /* \"#utility.yul\":7065:7067   */\n      0x20\n        /* \"erc721.sol\":25546:25645  require(_isApprovedOrOwner(_msgSender(), tokenId), \"ERC721: caller is not token owner or approved\") */\n      0x04\n      dup3\n      add\n        /* \"#utility.yul\":7047:7068   */\n      mstore\n        /* \"#utility.yul\":7104:7106   */\n      0x2d\n        /* \"#utility.yul\":7084:7102   */\n      0x24\n      dup3\n      add\n        /* \"#utility.yul\":7077:7107   */\n      mstore\n        /* \"#utility.yul\":7143:7177   */\n      0x4552433732313a2063616c6c6572206973206e6f7420746f6b656e206f776e65\n        /* \"#utility.yul\":7123:7141   */\n      0x44\n      dup3\n      add\n        /* \"#utility.yul\":7116:7178   */\n      mstore\n      shl(0x9a, 0x1c881bdc88185c1c1c9bdd9959)\n        /* \"#utility.yul\":7194:7212   */\n      0x64\n      dup3\n      add\n        /* \"#utility.yul\":7187:7230   */\n      mstore\n        /* \"#utility.yul\":7247:7266   */\n      0x84\n      add\n        /* \"erc721.sol\":25546:25645  require(_isApprovedOrOwner(_msgSender(), tokenId), \"ERC721: caller is not token owner or approved\") */\n      tag_114\n        /* \"#utility.yul\":6863:7272   */\n      jump\n        /* \"erc721.sol\":25546:25645  require(_isApprovedOrOwner(_msgSender(), tokenId), \"ERC721: caller is not token owner or approved\") */\n    tag_163:\n        /* \"erc721.sol\":25656:25694  _safeTransfer(from, to, tokenId, data) */\n      tag_165\n        /* \"erc721.sol\":25670:25674  from */\n      dup5\n        /* \"erc721.sol\":25676:25678  to */\n      dup5\n        /* \"erc721.sol\":25680:25687  tokenId */\n      dup5\n        /* \"erc721.sol\":25689:25693  data */\n      dup5\n        /* \"erc721.sol\":25656:25669  _safeTransfer */\n      tag_166\n        /* \"erc721.sol\":25656:25694  _safeTransfer(from, to, tokenId, data) */\n      jump\t// in\n    tag_165:\n        /* \"erc721.sol\":25380:25702  function safeTransferFrom(... */\n      pop\n      pop\n      pop\n      pop\n      jump\t// out\n        /* \"erc721.sol\":22966:23126  function tokenURI(uint256 tokenId) public view virtual override returns (string memory) {... */\n    tag_85:\n        /* \"erc721.sol\":23039:23052  string memory */\n      0x60\n        /* \"erc721.sol\":23065:23088  _requireMinted(tokenId) */\n      tag_168\n        /* \"erc721.sol\":23080:23087  tokenId */\n      dup3\n        /* \"erc721.sol\":23065:23079  _requireMinted */\n      tag_110\n        /* \"erc721.sol\":23065:23088  _requireMinted(tokenId) */\n      jump\t// in\n    tag_168:\n        /* \"erc721.sol\":23106:23118  uri[tokenId] */\n      0x00\n      dup3\n      dup2\n      mstore\n        /* \"erc721.sol\":23106:23109  uri */\n      0x04\n        /* \"erc721.sol\":23106:23118  uri[tokenId] */\n      0x20\n      mstore\n      0x40\n      swap1\n      keccak256\n        /* \"erc721.sol\":23099:23118  return uri[tokenId] */\n      dup1\n      sload\n      tag_169\n      swap1\n      tag_103\n      jump\t// in\n    tag_169:\n      dup1\n      0x1f\n      add\n      0x20\n      dup1\n      swap2\n      div\n      mul\n      0x20\n      add\n      mload(0x40)\n      swap1\n      dup2\n      add\n      0x40\n      mstore\n      dup1\n      swap3\n      swap2\n      swap1\n      dup2\n      dup2\n      mstore\n      0x20\n      add\n      dup3\n      dup1\n      sload\n      tag_170\n      swap1\n      tag_103\n      jump\t// in\n    tag_170:\n      dup1\n      iszero\n      tag_171\n      jumpi\n      dup1\n      0x1f\n      lt\n      tag_172\n      jumpi\n      0x0100\n      dup1\n      dup4\n      sload\n      div\n      mul\n      dup4\n      mstore\n      swap2\n      0x20\n      add\n      swap2\n      jump(tag_171)\n    tag_172:\n      dup3\n      add\n      swap2\n      swap1\n      0x00\n      mstore\n      keccak256(0x00, 0x20)\n      swap1\n    tag_173:\n      dup2\n      sload\n      dup2\n      mstore\n      swap1\n      0x01\n      add\n      swap1\n      0x20\n      add\n      dup1\n      dup4\n      gt\n      tag_173\n      jumpi\n      dup3\n      swap1\n      sub\n      0x1f\n      and\n      dup3\n      add\n      swap2\n    tag_171:\n      pop\n      pop\n      pop\n      pop\n      pop\n      swap1\n      pop\n        /* \"erc721.sol\":22966:23126  function tokenURI(uint256 tokenId) public view virtual override returns (string memory) {... */\n      swap2\n      swap1\n      pop\n      jump\t// out\n        /* \"erc721.sol\":25710:25903  function mint(address to, string calldata _uri) public virtual {... */\n    tag_90:\n        /* \"erc721.sol\":25805:25806  1 */\n      0x01\n        /* \"erc721.sol\":25784:25801  nextTokenIdToMint */\n      0x02\n      0x00\n        /* \"erc721.sol\":25784:25806  nextTokenIdToMint += 1 */\n      dup3\n      dup3\n      sload\n      tag_175\n      swap2\n      swap1\n      tag_176\n      jump\t// in\n    tag_175:\n      swap1\n      swap2\n      sstore\n      pop\n      pop\n        /* \"erc721.sol\":25823:25840  nextTokenIdToMint */\n      sload(0x02)\n        /* \"erc721.sol\":25819:25841  uri[nextTokenIdToMint] */\n      0x00\n      swap1\n      dup2\n      mstore\n        /* \"erc721.sol\":25819:25822  uri */\n      0x04\n        /* \"erc721.sol\":25819:25841  uri[nextTokenIdToMint] */\n      0x20\n      mstore\n      0x40\n      swap1\n      keccak256\n        /* \"erc721.sol\":25819:25848  uri[nextTokenIdToMint] = _uri */\n      tag_177\n      swap1\n        /* \"erc721.sol\":25844:25848  _uri */\n      dup4\n      dup4\n        /* \"erc721.sol\":25819:25848  uri[nextTokenIdToMint] = _uri */\n      tag_178\n      jump\t// in\n    tag_177:\n      pop\n        /* \"erc721.sol\":25863:25895  _safeMint(to, nextTokenIdToMint) */\n      tag_124\n        /* \"erc721.sol\":25873:25875  to */\n      dup4\n        /* \"erc721.sol\":25877:25894  nextTokenIdToMint */\n      sload(0x02)\n        /* \"erc721.sol\":25863:25872  _safeMint */\n      tag_180\n        /* \"erc721.sol\":25863:25895  _safeMint(to, nextTokenIdToMint) */\n      jump\t// in\n        /* \"erc721.sol\":32399:32534  function _requireMinted(uint256 tokenId) internal view virtual {... */\n    tag_110:\n        /* \"erc721.sol\":27562:27566  bool */\n      0x00\n        /* \"erc721.sol\":27586:27602  _owners[tokenId] */\n      dup2\n      dup2\n      mstore\n        /* \"erc721.sol\":27586:27593  _owners */\n      0x03\n        /* \"erc721.sol\":27586:27602  _owners[tokenId] */\n      0x20\n      mstore\n      0x40\n      swap1\n      keccak256\n      sload\n      sub(shl(0xa0, 0x01), 0x01)\n      and\n        /* \"erc721.sol\":32473:32526  require(_exists(tokenId), \"ERC721: invalid token ID\") */\n      tag_140\n      jumpi\n      mload(0x40)\n      shl(0xe5, 0x461bcd)\n      dup2\n      mstore\n        /* \"#utility.yul\":7479:7481   */\n      0x20\n        /* \"erc721.sol\":32473:32526  require(_exists(tokenId), \"ERC721: invalid token ID\") */\n      0x04\n      dup3\n      add\n        /* \"#utility.yul\":7461:7482   */\n      mstore\n        /* \"#utility.yul\":7518:7520   */\n      0x18\n        /* \"#utility.yul\":7498:7516   */\n      0x24\n      dup3\n      add\n        /* \"#utility.yul\":7491:7521   */\n      mstore\n        /* \"#utility.yul\":7557:7583   */\n      0x4552433732313a20696e76616c696420746f6b656e2049440000000000000000\n        /* \"#utility.yul\":7537:7555   */\n      0x44\n      dup3\n      add\n        /* \"#utility.yul\":7530:7584   */\n      mstore\n        /* \"#utility.yul\":7601:7619   */\n      0x64\n      add\n        /* \"erc721.sol\":32473:32526  require(_exists(tokenId), \"ERC721: invalid token ID\") */\n      tag_114\n        /* \"#utility.yul\":7277:7625   */\n      jump\n        /* \"erc721.sol\":31678:31852  function _approve(address to, uint256 tokenId) internal virtual {... */\n    tag_125:\n        /* \"erc721.sol\":31753:31777  _tokenApprovals[tokenId] */\n      0x00\n      dup2\n      dup2\n      mstore\n        /* \"erc721.sol\":31753:31768  _tokenApprovals */\n      0x06\n        /* \"erc721.sol\":31753:31777  _tokenApprovals[tokenId] */\n      0x20\n      mstore\n      0x40\n      swap1\n      keccak256\n        /* \"erc721.sol\":31753:31782  _tokenApprovals[tokenId] = to */\n      dup1\n      sload\n      not(sub(shl(0xa0, 0x01), 0x01))\n      and\n      sub(shl(0xa0, 0x01), 0x01)\n      dup5\n      and\n      swap1\n      dup2\n      or\n      swap1\n      swap2\n      sstore\n        /* \"erc721.sol\":31753:31777  _tokenApprovals[tokenId] */\n      dup2\n      swap1\n        /* \"erc721.sol\":31807:31830  ERC721.ownerOf(tokenId) */\n      tag_190\n        /* \"erc721.sol\":31753:31777  _tokenApprovals[tokenId] */\n      dup3\n        /* \"erc721.sol\":31807:31821  ERC721.ownerOf */\n      tag_66\n        /* \"erc721.sol\":31807:31830  ERC721.ownerOf(tokenId) */\n      jump\t// in\n    tag_190:\n      sub(shl(0xa0, 0x01), 0x01)\n        /* \"erc721.sol\":31798:31844  Approval(ERC721.ownerOf(tokenId), to, tokenId) */\n      and\n      0x8c5be1e5ebec7d5bd14f71427d1e84f3dd0314c0f7b2291e5b200ac8c7c3b925\n      mload(0x40)\n      mload(0x40)\n      dup1\n      swap2\n      sub\n      swap1\n      log4\n        /* \"erc721.sol\":31678:31852  function _approve(address to, uint256 tokenId) internal virtual {... */\n      pop\n      pop\n      jump\t// out\n        /* \"erc721.sol\":27791:28055  function _isApprovedOrOwner(address spender, uint256 tokenId) internal view virtual returns (bool) {... */\n    tag_131:\n        /* \"erc721.sol\":27884:27888  bool */\n      0x00\n        /* \"erc721.sol\":27901:27914  address owner */\n      dup1\n        /* \"erc721.sol\":27917:27940  ERC721.ownerOf(tokenId) */\n      tag_192\n        /* \"erc721.sol\":27932:27939  tokenId */\n      dup4\n        /* \"erc721.sol\":27917:27931  ERC721.ownerOf */\n      tag_66\n        /* \"erc721.sol\":27917:27940  ERC721.ownerOf(tokenId) */\n      jump\t// in\n    tag_192:\n        /* \"erc721.sol\":27901:27940  address owner = ERC721.ownerOf(tokenId) */\n      swap1\n      pop\n        /* \"erc721.sol\":27970:27975  owner */\n      dup1\n      sub(shl(0xa0, 0x01), 0x01)\n        /* \"erc721.sol\":27959:27975  spender == owner */\n      and\n        /* \"erc721.sol\":27959:27966  spender */\n      dup5\n      sub(shl(0xa0, 0x01), 0x01)\n        /* \"erc721.sol\":27959:27975  spender == owner */\n      and\n      eq\n        /* \"erc721.sol\":27959:28011  spender == owner || isApprovedForAll(owner, spender) */\n      dup1\n      tag_194\n      jumpi\n      pop\n      sub(shl(0xa0, 0x01), 0x01)\n        /* \"erc721.sol\":24608:24633  _operatorApprovals[owner] */\n      dup1\n      dup3\n      and\n        /* \"erc721.sol\":24584:24588  bool */\n      0x00\n        /* \"erc721.sol\":24608:24633  _operatorApprovals[owner] */\n      swap1\n      dup2\n      mstore\n        /* \"erc721.sol\":24608:24626  _operatorApprovals */\n      0x07\n        /* \"erc721.sol\":24608:24633  _operatorApprovals[owner] */\n      0x20\n      swap1\n      dup2\n      mstore\n      0x40\n      dup1\n      dup4\n      keccak256\n        /* \"erc721.sol\":24608:24643  _operatorApprovals[owner][operator] */\n      swap4\n      dup9\n      and\n      dup4\n      mstore\n      swap3\n      swap1\n      mstore\n      keccak256\n      sload\n      0xff\n      and\n        /* \"erc721.sol\":27979:28011  isApprovedForAll(owner, spender) */\n    tag_194:\n        /* \"erc721.sol\":27959:28046  spender == owner || isApprovedForAll(owner, spender) || getApproved(tokenId) == spender */\n      dup1\n      tag_126\n      jumpi\n      pop\n        /* \"erc721.sol\":28039:28046  spender */\n      dup4\n      sub(shl(0xa0, 0x01), 0x01)\n        /* \"erc721.sol\":28015:28046  getApproved(tokenId) == spender */\n      and\n        /* \"erc721.sol\":28015:28035  getApproved(tokenId) */\n      tag_196\n        /* \"erc721.sol\":28027:28034  tokenId */\n      dup5\n        /* \"erc721.sol\":28015:28026  getApproved */\n      tag_37\n        /* \"erc721.sol\":28015:28035  getApproved(tokenId) */\n      jump\t// in\n    tag_196:\n      sub(shl(0xa0, 0x01), 0x01)\n        /* \"erc721.sol\":28015:28046  getApproved(tokenId) == spender */\n      and\n      eq\n        /* \"erc721.sol\":27951:28047  return (spender == owner || isApprovedForAll(owner, spender) || getApproved(tokenId) == spender) */\n      swap5\n        /* \"erc721.sol\":27791:28055  function _isApprovedOrOwner(address spender, uint256 tokenId) internal view virtual returns (bool) {... */\n      swap4\n      pop\n      pop\n      pop\n      pop\n      jump\t// out\n        /* \"erc721.sol\":30932:31559  function _transfer(... */\n    tag_136:\n        /* \"erc721.sol\":31091:31095  from */\n      dup3\n      sub(shl(0xa0, 0x01), 0x01)\n        /* \"erc721.sol\":31064:31095  ERC721.ownerOf(tokenId) == from */\n      and\n        /* \"erc721.sol\":31064:31087  ERC721.ownerOf(tokenId) */\n      tag_198\n        /* \"erc721.sol\":31079:31086  tokenId */\n      dup3\n        /* \"erc721.sol\":31064:31078  ERC721.ownerOf */\n      tag_66\n        /* \"erc721.sol\":31064:31087  ERC721.ownerOf(tokenId) */\n      jump\t// in\n    tag_198:\n      sub(shl(0xa0, 0x01), 0x01)\n        /* \"erc721.sol\":31064:31095  ERC721.ownerOf(tokenId) == from */\n      and\n      eq\n        /* \"erc721.sol\":31056:31137  require(ERC721.ownerOf(tokenId) == from, \"ERC721: transfer from incorrect owner\") */\n      tag_199\n      jumpi\n      mload(0x40)\n      shl(0xe5, 0x461bcd)\n      dup2\n      mstore\n        /* \"#utility.yul\":8507:8509   */\n      0x20\n        /* \"erc721.sol\":31056:31137  require(ERC721.ownerOf(tokenId) == from, \"ERC721: transfer from incorrect owner\") */\n      0x04\n      dup3\n      add\n        /* \"#utility.yul\":8489:8510   */\n      mstore\n        /* \"#utility.yul\":8546:8548   */\n      0x25\n        /* \"#utility.yul\":8526:8544   */\n      0x24\n      dup3\n      add\n        /* \"#utility.yul\":8519:8549   */\n      mstore\n        /* \"#utility.yul\":8585:8619   */\n      0x4552433732313a207472616e736665722066726f6d20696e636f727265637420\n        /* \"#utility.yul\":8565:8583   */\n      0x44\n      dup3\n      add\n        /* \"#utility.yul\":8558:8620   */\n      mstore\n        /* \"#utility.yul\":8656:8663   */\n      0x6f776e6572000000000000000000000000000000000000000000000000000000\n        /* \"#utility.yul\":8636:8654   */\n      0x64\n      dup3\n      add\n        /* \"#utility.yul\":8629:8664   */\n      mstore\n        /* \"#utility.yul\":8681:8700   */\n      0x84\n      add\n        /* \"erc721.sol\":31056:31137  require(ERC721.ownerOf(tokenId) == from, \"ERC721: transfer from incorrect owner\") */\n      tag_114\n        /* \"#utility.yul\":8305:8706   */\n      jump\n        /* \"erc721.sol\":31056:31137  require(ERC721.ownerOf(tokenId) == from, \"ERC721: transfer from incorrect owner\") */\n    tag_199:\n      sub(shl(0xa0, 0x01), 0x01)\n        /* \"erc721.sol\":31156:31172  to != address(0) */\n      dup3\n      and\n        /* \"erc721.sol\":31148:31213  require(to != address(0), \"ERC721: transfer to the zero address\") */\n      tag_202\n      jumpi\n      mload(0x40)\n      shl(0xe5, 0x461bcd)\n      dup2\n      mstore\n        /* \"#utility.yul\":8913:8915   */\n      0x20\n        /* \"erc721.sol\":31148:31213  require(to != address(0), \"ERC721: transfer to the zero address\") */\n      0x04\n      dup3\n      add\n        /* \"#utility.yul\":8895:8916   */\n      mstore\n        /* \"#utility.yul\":8952:8954   */\n      0x24\n        /* \"#utility.yul\":8932:8950   */\n      dup1\n      dup3\n      add\n        /* \"#utility.yul\":8925:8955   */\n      mstore\n        /* \"#utility.yul\":8991:9025   */\n      0x4552433732313a207472616e7366657220746f20746865207a65726f20616464\n        /* \"#utility.yul\":8971:8989   */\n      0x44\n      dup3\n      add\n        /* \"#utility.yul\":8964:9026   */\n      mstore\n      shl(0xe0, 0x72657373)\n        /* \"#utility.yul\":9042:9060   */\n      0x64\n      dup3\n      add\n        /* \"#utility.yul\":9035:9069   */\n      mstore\n        /* \"#utility.yul\":9086:9105   */\n      0x84\n      add\n        /* \"erc721.sol\":31148:31213  require(to != address(0), \"ERC721: transfer to the zero address\") */\n      tag_114\n        /* \"#utility.yul\":8711:9111   */\n      jump\n        /* \"erc721.sol\":31148:31213  require(to != address(0), \"ERC721: transfer to the zero address\") */\n    tag_202:\n        /* \"erc721.sol\":31337:31361  _tokenApprovals[tokenId] */\n      0x00\n      dup2\n      dup2\n      mstore\n        /* \"erc721.sol\":31337:31352  _tokenApprovals */\n      0x06\n        /* \"erc721.sol\":31337:31361  _tokenApprovals[tokenId] */\n      0x20\n      swap1\n      dup2\n      mstore\n      0x40\n      dup1\n      dup4\n      keccak256\n        /* \"erc721.sol\":31330:31361  delete _tokenApprovals[tokenId] */\n      dup1\n      sload\n      not(sub(shl(0xa0, 0x01), 0x01))\n      and\n      swap1\n      sstore\n      sub(shl(0xa0, 0x01), 0x01)\n        /* \"erc721.sol\":31374:31389  _balances[from] */\n      dup7\n      and\n      dup4\n      mstore\n        /* \"erc721.sol\":31374:31383  _balances */\n      0x05\n        /* \"erc721.sol\":31374:31389  _balances[from] */\n      swap1\n      swap2\n      mstore\n      dup2\n      keccak256\n        /* \"erc721.sol\":31374:31394  _balances[from] -= 1 */\n      dup1\n      sload\n        /* \"erc721.sol\":31330:31361  delete _tokenApprovals[tokenId] */\n      0x01\n      swap3\n        /* \"erc721.sol\":31337:31361  _tokenApprovals[tokenId] */\n      swap1\n        /* \"erc721.sol\":31374:31394  _balances[from] -= 1 */\n      tag_207\n      swap1\n        /* \"erc721.sol\":31330:31361  delete _tokenApprovals[tokenId] */\n      dup5\n      swap1\n        /* \"erc721.sol\":31374:31394  _balances[from] -= 1 */\n      tag_208\n      jump\t// in\n    tag_207:\n      swap1\n      swap2\n      sstore\n      pop\n      pop\n      sub(shl(0xa0, 0x01), 0x01)\n        /* \"erc721.sol\":31405:31418  _balances[to] */\n      dup3\n      and\n      0x00\n      swap1\n      dup2\n      mstore\n        /* \"erc721.sol\":31405:31414  _balances */\n      0x05\n        /* \"erc721.sol\":31405:31418  _balances[to] */\n      0x20\n      mstore\n      0x40\n      dup2\n      keccak256\n        /* \"erc721.sol\":31405:31423  _balances[to] += 1 */\n      dup1\n      sload\n        /* \"erc721.sol\":31422:31423  1 */\n      0x01\n      swap3\n        /* \"erc721.sol\":31405:31418  _balances[to] */\n      swap1\n        /* \"erc721.sol\":31405:31423  _balances[to] += 1 */\n      tag_209\n      swap1\n        /* \"erc721.sol\":31422:31423  1 */\n      dup5\n      swap1\n        /* \"erc721.sol\":31405:31423  _balances[to] += 1 */\n      tag_176\n      jump\t// in\n    tag_209:\n      swap1\n      swap2\n      sstore\n      pop\n      pop\n        /* \"erc721.sol\":31434:31450  _owners[tokenId] */\n      0x00\n      dup2\n      dup2\n      mstore\n        /* \"erc721.sol\":31434:31441  _owners */\n      0x03\n        /* \"erc721.sol\":31434:31450  _owners[tokenId] */\n      0x20\n      mstore\n      0x40\n      dup1\n      dup3\n      keccak256\n        /* \"erc721.sol\":31434:31455  _owners[tokenId] = to */\n      dup1\n      sload\n      not(sub(shl(0xa0, 0x01), 0x01))\n      and\n      sub(shl(0xa0, 0x01), 0x01)\n      dup7\n      dup2\n      and\n      swap2\n      dup3\n      or\n      swap1\n      swap3\n      sstore\n        /* \"erc721.sol\":31473:31500  Transfer(from, to, tokenId) */\n      swap2\n      mload\n        /* \"erc721.sol\":31434:31450  _owners[tokenId] */\n      dup5\n      swap4\n        /* \"erc721.sol\":31473:31500  Transfer(from, to, tokenId) */\n      swap2\n      dup8\n      and\n      swap2\n      0xddf252ad1be2c89b69c2b068fc378daa952ba7f163c4a11628f55a4df523b3ef\n      swap2\n      log4\n        /* \"erc721.sol\":23606:23952  {... */\n      pop\n        /* \"erc721.sol\":23536:23952  function approve(address to, uint256 tokenId) public virtual override {... */\n      pop\n      pop\n      jump\t// out\n        /* \"erc721.sol\":30173:30595  function _burn(uint256 tokenId) internal virtual {... */\n    tag_141:\n        /* \"erc721.sol\":30233:30246  address owner */\n      0x00\n        /* \"erc721.sol\":30249:30272  ERC721.ownerOf(tokenId) */\n      tag_213\n        /* \"erc721.sol\":30264:30271  tokenId */\n      dup3\n        /* \"erc721.sol\":30249:30263  ERC721.ownerOf */\n      tag_66\n        /* \"erc721.sol\":30249:30272  ERC721.ownerOf(tokenId) */\n      jump\t// in\n    tag_213:\n        /* \"erc721.sol\":30233:30272  address owner = ERC721.ownerOf(tokenId) */\n      swap1\n      pop\n        /* \"erc721.sol\":30381:30405  _tokenApprovals[tokenId] */\n      0x00\n      dup3\n      dup2\n      mstore\n        /* \"erc721.sol\":30381:30396  _tokenApprovals */\n      0x06\n        /* \"erc721.sol\":30381:30405  _tokenApprovals[tokenId] */\n      0x20\n      swap1\n      dup2\n      mstore\n      0x40\n      dup1\n      dup4\n      keccak256\n        /* \"erc721.sol\":30374:30405  delete _tokenApprovals[tokenId] */\n      dup1\n      sload\n      not(sub(shl(0xa0, 0x01), 0x01))\n      and\n      swap1\n      sstore\n      sub(shl(0xa0, 0x01), 0x01)\n        /* \"erc721.sol\":30418:30434  _balances[owner] */\n      dup5\n      and\n      dup4\n      mstore\n        /* \"erc721.sol\":30418:30427  _balances */\n      0x05\n        /* \"erc721.sol\":30418:30434  _balances[owner] */\n      swap1\n      swap2\n      mstore\n      dup2\n      keccak256\n        /* \"erc721.sol\":30418:30439  _balances[owner] -= 1 */\n      dup1\n      sload\n        /* \"erc721.sol\":30374:30405  delete _tokenApprovals[tokenId] */\n      0x01\n      swap3\n        /* \"erc721.sol\":30381:30405  _tokenApprovals[tokenId] */\n      swap1\n        /* \"erc721.sol\":30418:30439  _balances[owner] -= 1 */\n      tag_215\n      swap1\n        /* \"erc721.sol\":30374:30405  delete _tokenApprovals[tokenId] */\n      dup5\n      swap1\n        /* \"erc721.sol\":30418:30439  _balances[owner] -= 1 */\n      tag_208\n      jump\t// in\n    tag_215:\n      swap1\n      swap2\n      sstore\n      pop\n      pop\n        /* \"erc721.sol\":30457:30473  _owners[tokenId] */\n      0x00\n      dup3\n      dup2\n      mstore\n        /* \"erc721.sol\":30457:30464  _owners */\n      0x03\n        /* \"erc721.sol\":30457:30473  _owners[tokenId] */\n      0x20\n      mstore\n      0x40\n      dup1\n      dup3\n      keccak256\n        /* \"erc721.sol\":30450:30473  delete _owners[tokenId] */\n      dup1\n      sload\n      not(sub(shl(0xa0, 0x01), 0x01))\n      and\n      swap1\n      sstore\n        /* \"erc721.sol\":30491:30527  Transfer(owner, address(0), tokenId) */\n      mload\n        /* \"erc721.sol\":30465:30472  tokenId */\n      dup4\n      swap2\n        /* \"erc721.sol\":30457:30473  _owners[tokenId] */\n      swap1\n      sub(shl(0xa0, 0x01), 0x01)\n        /* \"erc721.sol\":30491:30527  Transfer(owner, address(0), tokenId) */\n      dup5\n      and\n      swap1\n      0xddf252ad1be2c89b69c2b068fc378daa952ba7f163c4a11628f55a4df523b3ef\n      swap1\n        /* \"erc721.sol\":30457:30473  _owners[tokenId] */\n      dup4\n      swap1\n        /* \"erc721.sol\":30491:30527  Transfer(owner, address(0), tokenId) */\n      log4\n        /* \"erc721.sol\":24261:24416  function setApprovalForAll(address operator, bool approved) public virtual override {... */\n      pop\n      pop\n      jump\t// out\n        /* \"erc721.sol\":31995:32310  function _setApprovalForAll(... */\n    tag_159:\n        /* \"erc721.sol\":32150:32158  operator */\n      dup2\n      sub(shl(0xa0, 0x01), 0x01)\n        /* \"erc721.sol\":32141:32158  owner != operator */\n      and\n        /* \"erc721.sol\":32141:32146  owner */\n      dup4\n      sub(shl(0xa0, 0x01), 0x01)\n        /* \"erc721.sol\":32141:32158  owner != operator */\n      and\n      sub\n        /* \"erc721.sol\":32133:32188  require(owner != operator, \"ERC721: approve to caller\") */\n      tag_218\n      jumpi\n      mload(0x40)\n      shl(0xe5, 0x461bcd)\n      dup2\n      mstore\n        /* \"#utility.yul\":9448:9450   */\n      0x20\n        /* \"erc721.sol\":32133:32188  require(owner != operator, \"ERC721: approve to caller\") */\n      0x04\n      dup3\n      add\n        /* \"#utility.yul\":9430:9451   */\n      mstore\n        /* \"#utility.yul\":9487:9489   */\n      0x19\n        /* \"#utility.yul\":9467:9485   */\n      0x24\n      dup3\n      add\n        /* \"#utility.yul\":9460:9490   */\n      mstore\n        /* \"#utility.yul\":9526:9553   */\n      0x4552433732313a20617070726f766520746f2063616c6c657200000000000000\n        /* \"#utility.yul\":9506:9524   */\n      0x44\n      dup3\n      add\n        /* \"#utility.yul\":9499:9554   */\n      mstore\n        /* \"#utility.yul\":9571:9589   */\n      0x64\n      add\n        /* \"erc721.sol\":32133:32188  require(owner != operator, \"ERC721: approve to caller\") */\n      tag_114\n        /* \"#utility.yul\":9246:9595   */\n      jump\n        /* \"erc721.sol\":32133:32188  require(owner != operator, \"ERC721: approve to caller\") */\n    tag_218:\n      sub(shl(0xa0, 0x01), 0x01)\n        /* \"erc721.sol\":32199:32224  _operatorApprovals[owner] */\n      dup4\n      dup2\n      and\n      0x00\n      dup2\n      dup2\n      mstore\n        /* \"erc721.sol\":32199:32217  _operatorApprovals */\n      0x07\n        /* \"erc721.sol\":32199:32224  _operatorApprovals[owner] */\n      0x20\n      swap1\n      dup2\n      mstore\n      0x40\n      dup1\n      dup4\n      keccak256\n        /* \"erc721.sol\":32199:32234  _operatorApprovals[owner][operator] */\n      swap5\n      dup8\n      and\n      dup1\n      dup5\n      mstore\n      swap5\n      dup3\n      mstore\n      swap2\n      dup3\n      swap1\n      keccak256\n        /* \"erc721.sol\":32199:32245  _operatorApprovals[owner][operator] = approved */\n      dup1\n      sload\n      not(0xff)\n      and\n      dup7\n      iszero\n      iszero\n      swap1\n      dup2\n      or\n      swap1\n      swap2\n      sstore\n        /* \"erc721.sol\":32261:32302  ApprovalForAll(owner, operator, approved) */\n      swap2\n      mload\n        /* \"#utility.yul\":540:581   */\n      swap2\n      dup3\n      mstore\n        /* \"erc721.sol\":32261:32302  ApprovalForAll(owner, operator, approved) */\n      0x17307eab39ab6107e8899845ad3d59bd9653f200f220920489ca2b5937696c31\n      swap2\n        /* \"#utility.yul\":513:531   */\n      add\n        /* \"erc721.sol\":32261:32302  ApprovalForAll(owner, operator, approved) */\n      mload(0x40)\n      dup1\n      swap2\n      sub\n      swap1\n      log3\n        /* \"erc721.sol\":31995:32310  function _setApprovalForAll(... */\n      pop\n      pop\n      pop\n      jump\t// out\n        /* \"erc721.sol\":26871:27184  function _safeTransfer(... */\n    tag_166:\n        /* \"erc721.sol\":27027:27055  _transfer(from, to, tokenId) */\n      tag_223\n        /* \"erc721.sol\":27037:27041  from */\n      dup5\n        /* \"erc721.sol\":27043:27045  to */\n      dup5\n        /* \"erc721.sol\":27047:27054  tokenId */\n      dup5\n        /* \"erc721.sol\":27027:27036  _transfer */\n      tag_136\n        /* \"erc721.sol\":27027:27055  _transfer(from, to, tokenId) */\n      jump\t// in\n    tag_223:\n        /* \"erc721.sol\":27074:27121  _checkOnERC721Received(from, to, tokenId, data) */\n      tag_224\n        /* \"erc721.sol\":27097:27101  from */\n      dup5\n        /* \"erc721.sol\":27103:27105  to */\n      dup5\n        /* \"erc721.sol\":27107:27114  tokenId */\n      dup5\n        /* \"erc721.sol\":27116:27120  data */\n      dup5\n        /* \"erc721.sol\":27074:27096  _checkOnERC721Received */\n      tag_225\n        /* \"erc721.sol\":27074:27121  _checkOnERC721Received(from, to, tokenId, data) */\n      jump\t// in\n    tag_224:\n        /* \"erc721.sol\":27066:27176  require(_checkOnERC721Received(from, to, tokenId, data), \"ERC721: transfer to non ERC721Receiver implementer\") */\n      tag_165\n      jumpi\n      mload(0x40)\n      shl(0xe5, 0x461bcd)\n      dup2\n      mstore\n        /* \"#utility.yul\":9802:9804   */\n      0x20\n        /* \"erc721.sol\":27066:27176  require(_checkOnERC721Received(from, to, tokenId, data), \"ERC721: transfer to non ERC721Receiver implementer\") */\n      0x04\n      dup3\n      add\n        /* \"#utility.yul\":9784:9805   */\n      mstore\n        /* \"#utility.yul\":9841:9843   */\n      0x32\n        /* \"#utility.yul\":9821:9839   */\n      0x24\n      dup3\n      add\n        /* \"#utility.yul\":9814:9844   */\n      mstore\n        /* \"#utility.yul\":9880:9914   */\n      0x4552433732313a207472616e7366657220746f206e6f6e204552433732315265\n        /* \"#utility.yul\":9860:9878   */\n      0x44\n      dup3\n      add\n        /* \"#utility.yul\":9853:9915   */\n      mstore\n      shl(0x71, 0x31b2b4bb32b91034b6b83632b6b2b73a32b9)\n        /* \"#utility.yul\":9931:9949   */\n      0x64\n      dup3\n      add\n        /* \"#utility.yul\":9924:9972   */\n      mstore\n        /* \"#utility.yul\":9989:10008   */\n      0x84\n      add\n        /* \"erc721.sol\":27066:27176  require(_checkOnERC721Received(from, to, tokenId, data), \"ERC721: transfer to non ERC721Receiver implementer\") */\n      tag_114\n        /* \"#utility.yul\":9600:10014   */\n      jump\n        /* \"erc721.sol\":28397:28507  function _safeMint(address to, uint256 tokenId) internal virtual {... */\n    tag_180:\n        /* \"erc721.sol\":28473:28499  _safeMint(to, tokenId, \"\") */\n      tag_157\n        /* \"erc721.sol\":28483:28485  to */\n      dup3\n        /* \"erc721.sol\":28487:28494  tokenId */\n      dup3\n        /* \"erc721.sol\":28473:28499  _safeMint(to, tokenId, \"\") */\n      mload(0x40)\n      dup1\n      0x20\n      add\n      0x40\n      mstore\n      dup1\n      0x00\n      dup2\n      mstore\n      pop\n        /* \"erc721.sol\":28473:28482  _safeMint */\n      tag_231\n        /* \"erc721.sol\":28473:28499  _safeMint(to, tokenId, \"\") */\n      jump\t// in\n        /* \"erc721.sol\":33110:33963  function _checkOnERC721Received(... */\n    tag_225:\n        /* \"erc721.sol\":33264:33268  bool */\n      0x00\n      sub(shl(0xa0, 0x01), 0x01)\n        /* \"erc721.sol\":33285:33298  to.isContract */\n      dup5\n      and\n        /* \"erc721.sol\":4607:4626  account.code.length */\n      extcodesize\n        /* \"erc721.sol\":4607:4630  account.code.length > 0 */\n      iszero\n        /* \"erc721.sol\":33281:33956  if (to.isContract()) {... */\n      tag_238\n      jumpi\n        /* \"erc721.sol\":33321:33392  IERC721Receiver(to).onERC721Received(_msgSender(), from, tokenId, data) */\n      mload(0x40)\n      shl(0xe1, 0x0a85bd01)\n      dup2\n      mstore\n      sub(shl(0xa0, 0x01), 0x01)\n        /* \"erc721.sol\":33321:33357  IERC721Receiver(to).onERC721Received */\n      dup6\n      and\n      swap1\n      0x150b7a02\n      swap1\n        /* \"erc721.sol\":33321:33392  IERC721Receiver(to).onERC721Received(_msgSender(), from, tokenId, data) */\n      tag_240\n      swap1\n        /* \"erc721.sol\":3099:3109  msg.sender */\n      caller\n      swap1\n        /* \"erc721.sol\":33372:33376  from */\n      dup10\n      swap1\n        /* \"erc721.sol\":33378:33385  tokenId */\n      dup9\n      swap1\n        /* \"erc721.sol\":33387:33391  data */\n      dup9\n      swap1\n        /* \"erc721.sol\":33321:33392  IERC721Receiver(to).onERC721Received(_msgSender(), from, tokenId, data) */\n      0x04\n      add\n      tag_241\n      jump\t// in\n    tag_240:\n      0x20\n      mload(0x40)\n      dup1\n      dup4\n      sub\n      dup2\n      0x00\n      dup8\n      gas\n      call\n      swap3\n      pop\n      pop\n      pop\n      dup1\n      iszero\n      tag_242\n      jumpi\n      pop\n      0x40\n      dup1\n      mload\n      0x1f\n      returndatasize\n      swap1\n      dup2\n      add\n      not(0x1f)\n      and\n      dup3\n      add\n      swap1\n      swap3\n      mstore\n      tag_243\n      swap2\n      dup2\n      add\n      swap1\n      tag_244\n      jump\t// in\n    tag_243:\n      0x01\n    tag_242:\n        /* \"erc721.sol\":33317:33901  try IERC721Receiver(to).onERC721Received(_msgSender(), from, tokenId, data) returns (bytes4 retval) {... */\n      tag_245\n      jumpi\n      returndatasize\n      dup1\n      dup1\n      iszero\n      tag_250\n      jumpi\n      mload(0x40)\n      swap2\n      pop\n      and(add(returndatasize, 0x3f), not(0x1f))\n      dup3\n      add\n      0x40\n      mstore\n      returndatasize\n      dup3\n      mstore\n      returndatasize\n      0x00\n      0x20\n      dup5\n      add\n      returndatacopy\n      jump(tag_249)\n    tag_250:\n      0x60\n      swap2\n      pop\n    tag_249:\n      pop\n        /* \"erc721.sol\":33562:33568  reason */\n      dup1\n        /* \"erc721.sol\":33562:33575  reason.length */\n      mload\n        /* \"erc721.sol\":33579:33580  0 */\n      0x00\n        /* \"erc721.sol\":33562:33580  reason.length == 0 */\n      sub\n        /* \"erc721.sol\":33558:33886  if (reason.length == 0) {... */\n      tag_251\n      jumpi\n        /* \"erc721.sol\":33605:33665  revert(\"ERC721: transfer to non ERC721Receiver implementer\") */\n      mload(0x40)\n      shl(0xe5, 0x461bcd)\n      dup2\n      mstore\n        /* \"#utility.yul\":9802:9804   */\n      0x20\n        /* \"erc721.sol\":33605:33665  revert(\"ERC721: transfer to non ERC721Receiver implementer\") */\n      0x04\n      dup3\n      add\n        /* \"#utility.yul\":9784:9805   */\n      mstore\n        /* \"#utility.yul\":9841:9843   */\n      0x32\n        /* \"#utility.yul\":9821:9839   */\n      0x24\n      dup3\n      add\n        /* \"#utility.yul\":9814:9844   */\n      mstore\n        /* \"#utility.yul\":9880:9914   */\n      0x4552433732313a207472616e7366657220746f206e6f6e204552433732315265\n        /* \"#utility.yul\":9860:9878   */\n      0x44\n      dup3\n      add\n        /* \"#utility.yul\":9853:9915   */\n      mstore\n      shl(0x71, 0x31b2b4bb32b91034b6b83632b6b2b73a32b9)\n        /* \"#utility.yul\":9931:9949   */\n      0x64\n      dup3\n      add\n        /* \"#utility.yul\":9924:9972   */\n      mstore\n        /* \"#utility.yul\":9989:10008   */\n      0x84\n      add\n        /* \"erc721.sol\":33605:33665  revert(\"ERC721: transfer to non ERC721Receiver implementer\") */\n      tag_114\n        /* \"#utility.yul\":9600:10014   */\n      jump\n        /* \"erc721.sol\":33558:33886  if (reason.length == 0) {... */\n    tag_251:\n        /* \"erc721.sol\":33836:33842  reason */\n      dup1\n        /* \"erc721.sol\":33830:33843  mload(reason) */\n      mload\n        /* \"erc721.sol\":33821:33827  reason */\n      dup2\n        /* \"erc721.sol\":33817:33819  32 */\n      0x20\n        /* \"erc721.sol\":33813:33828  add(32, reason) */\n      add\n        /* \"erc721.sol\":33806:33844  revert(add(32, reason), mload(reason)) */\n      revert\n        /* \"erc721.sol\":33317:33901  try IERC721Receiver(to).onERC721Received(_msgSender(), from, tokenId, data) returns (bytes4 retval) {... */\n    tag_245:\n      not(sub(shl(0xe0, 0x01), 0x01))\n        /* \"erc721.sol\":33443:33494  retval == IERC721Receiver.onERC721Received.selector */\n      and\n      shl(0xe1, 0x0a85bd01)\n      eq\n      swap1\n      pop\n        /* \"erc721.sol\":33436:33494  return retval == IERC721Receiver.onERC721Received.selector */\n      jump(tag_126)\n        /* \"erc721.sol\":33281:33956  if (to.isContract()) {... */\n    tag_238:\n      pop\n        /* \"erc721.sol\":33940:33944  true */\n      0x01\n        /* \"erc721.sol\":33933:33944  return true */\n      jump(tag_126)\n        /* \"erc721.sol\":28740:29059  function _safeMint(... */\n    tag_231:\n        /* \"erc721.sol\":28869:28887  _mint(to, tokenId) */\n      tag_257\n        /* \"erc721.sol\":28875:28877  to */\n      dup4\n        /* \"erc721.sol\":28879:28886  tokenId */\n      dup4\n        /* \"erc721.sol\":28869:28874  _mint */\n      tag_258\n        /* \"erc721.sol\":28869:28887  _mint(to, tokenId) */\n      jump\t// in\n    tag_257:\n        /* \"erc721.sol\":28920:28973  _checkOnERC721Received(address(0), to, tokenId, data) */\n      tag_259\n        /* \"erc721.sol\":28951:28952  0 */\n      0x00\n        /* \"erc721.sol\":28955:28957  to */\n      dup5\n        /* \"erc721.sol\":28959:28966  tokenId */\n      dup5\n        /* \"erc721.sol\":28968:28972  data */\n      dup5\n        /* \"erc721.sol\":28920:28942  _checkOnERC721Received */\n      tag_225\n        /* \"erc721.sol\":28920:28973  _checkOnERC721Received(address(0), to, tokenId, data) */\n      jump\t// in\n    tag_259:\n        /* \"erc721.sol\":28898:29051  require(... */\n      tag_124\n      jumpi\n      mload(0x40)\n      shl(0xe5, 0x461bcd)\n      dup2\n      mstore\n        /* \"#utility.yul\":9802:9804   */\n      0x20\n        /* \"erc721.sol\":28898:29051  require(... */\n      0x04\n      dup3\n      add\n        /* \"#utility.yul\":9784:9805   */\n      mstore\n        /* \"#utility.yul\":9841:9843   */\n      0x32\n        /* \"#utility.yul\":9821:9839   */\n      0x24\n      dup3\n      add\n        /* \"#utility.yul\":9814:9844   */\n      mstore\n        /* \"#utility.yul\":9880:9914   */\n      0x4552433732313a207472616e7366657220746f206e6f6e204552433732315265\n        /* \"#utility.yul\":9860:9878   */\n      0x44\n      dup3\n      add\n        /* \"#utility.yul\":9853:9915   */\n      mstore\n      shl(0x71, 0x31b2b4bb32b91034b6b83632b6b2b73a32b9)\n        /* \"#utility.yul\":9931:9949   */\n      0x64\n      dup3\n      add\n        /* \"#utility.yul\":9924:9972   */\n      mstore\n        /* \"#utility.yul\":9989:10008   */\n      0x84\n      add\n        /* \"erc721.sol\":28898:29051  require(... */\n      tag_114\n        /* \"#utility.yul\":9600:10014   */\n      jump\n        /* \"erc721.sol\":29395:29834  function _mint(address to, uint256 tokenId) internal virtual {... */\n    tag_258:\n      sub(shl(0xa0, 0x01), 0x01)\n        /* \"erc721.sol\":29475:29491  to != address(0) */\n      dup3\n      and\n        /* \"erc721.sol\":29467:29528  require(to != address(0), \"ERC721: mint to the zero address\") */\n      tag_264\n      jumpi\n      mload(0x40)\n      shl(0xe5, 0x461bcd)\n      dup2\n      mstore\n        /* \"#utility.yul\":10992:10994   */\n      0x20\n        /* \"erc721.sol\":29467:29528  require(to != address(0), \"ERC721: mint to the zero address\") */\n      0x04\n      dup3\n      add\n        /* \"#utility.yul\":10974:10995   */\n      dup2\n      swap1\n      mstore\n        /* \"#utility.yul\":11011:11029   */\n      0x24\n      dup3\n      add\n        /* \"#utility.yul\":11004:11034   */\n      mstore\n        /* \"#utility.yul\":11070:11104   */\n      0x4552433732313a206d696e7420746f20746865207a65726f2061646472657373\n        /* \"#utility.yul\":11050:11068   */\n      0x44\n      dup3\n      add\n        /* \"#utility.yul\":11043:11105   */\n      mstore\n        /* \"#utility.yul\":11122:11140   */\n      0x64\n      add\n        /* \"erc721.sol\":29467:29528  require(to != address(0), \"ERC721: mint to the zero address\") */\n      tag_114\n        /* \"#utility.yul\":10790:11146   */\n      jump\n        /* \"erc721.sol\":29467:29528  require(to != address(0), \"ERC721: mint to the zero address\") */\n    tag_264:\n        /* \"erc721.sol\":27562:27566  bool */\n      0x00\n        /* \"erc721.sol\":27586:27602  _owners[tokenId] */\n      dup2\n      dup2\n      mstore\n        /* \"erc721.sol\":27586:27593  _owners */\n      0x03\n        /* \"erc721.sol\":27586:27602  _owners[tokenId] */\n      0x20\n      mstore\n      0x40\n      swap1\n      keccak256\n      sload\n      sub(shl(0xa0, 0x01), 0x01)\n      and\n        /* \"erc721.sol\":27586:27616  _owners[tokenId] != address(0) */\n      iszero\n        /* \"erc721.sol\":29539:29597  require(!_exists(tokenId), \"ERC721: token already minted\") */\n      tag_268\n      jumpi\n      mload(0x40)\n      shl(0xe5, 0x461bcd)\n      dup2\n      mstore\n        /* \"#utility.yul\":11353:11355   */\n      0x20\n        /* \"erc721.sol\":29539:29597  require(!_exists(tokenId), \"ERC721: token already minted\") */\n      0x04\n      dup3\n      add\n        /* \"#utility.yul\":11335:11356   */\n      mstore\n        /* \"#utility.yul\":11392:11394   */\n      0x1c\n        /* \"#utility.yul\":11372:11390   */\n      0x24\n      dup3\n      add\n        /* \"#utility.yul\":11365:11395   */\n      mstore\n        /* \"#utility.yul\":11431:11461   */\n      0x4552433732313a20746f6b656e20616c7265616479206d696e74656400000000\n        /* \"#utility.yul\":11411:11429   */\n      0x44\n      dup3\n      add\n        /* \"#utility.yul\":11404:11462   */\n      mstore\n        /* \"#utility.yul\":11479:11497   */\n      0x64\n      add\n        /* \"erc721.sol\":29539:29597  require(!_exists(tokenId), \"ERC721: token already minted\") */\n      tag_114\n        /* \"#utility.yul\":11151:11503   */\n      jump\n        /* \"erc721.sol\":29539:29597  require(!_exists(tokenId), \"ERC721: token already minted\") */\n    tag_268:\n      sub(shl(0xa0, 0x01), 0x01)\n        /* \"erc721.sol\":29668:29681  _balances[to] */\n      dup3\n      and\n      0x00\n      swap1\n      dup2\n      mstore\n        /* \"erc721.sol\":29668:29677  _balances */\n      0x05\n        /* \"erc721.sol\":29668:29681  _balances[to] */\n      0x20\n      mstore\n      0x40\n      dup2\n      keccak256\n        /* \"erc721.sol\":29668:29686  _balances[to] += 1 */\n      dup1\n      sload\n        /* \"erc721.sol\":29685:29686  1 */\n      0x01\n      swap3\n        /* \"erc721.sol\":29668:29681  _balances[to] */\n      swap1\n        /* \"erc721.sol\":29668:29686  _balances[to] += 1 */\n      tag_272\n      swap1\n        /* \"erc721.sol\":29685:29686  1 */\n      dup5\n      swap1\n        /* \"erc721.sol\":29668:29686  _balances[to] += 1 */\n      tag_176\n      jump\t// in\n    tag_272:\n      swap1\n      swap2\n      sstore\n      pop\n      pop\n        /* \"erc721.sol\":29697:29713  _owners[tokenId] */\n      0x00\n      dup2\n      dup2\n      mstore\n        /* \"erc721.sol\":29697:29704  _owners */\n      0x03\n        /* \"erc721.sol\":29697:29713  _owners[tokenId] */\n      0x20\n      mstore\n      0x40\n      dup1\n      dup3\n      keccak256\n        /* \"erc721.sol\":29697:29718  _owners[tokenId] = to */\n      dup1\n      sload\n      not(sub(shl(0xa0, 0x01), 0x01))\n      and\n      sub(shl(0xa0, 0x01), 0x01)\n      dup7\n      and\n      swap1\n      dup2\n      or\n      swap1\n      swap2\n      sstore\n        /* \"erc721.sol\":29736:29769  Transfer(address(0), to, tokenId) */\n      swap1\n      mload\n        /* \"erc721.sol\":29697:29713  _owners[tokenId] */\n      dup4\n      swap3\n      swap1\n        /* \"erc721.sol\":29736:29769  Transfer(address(0), to, tokenId) */\n      0xddf252ad1be2c89b69c2b068fc378daa952ba7f163c4a11628f55a4df523b3ef\n      swap1\n        /* \"erc721.sol\":29697:29713  _owners[tokenId] */\n      dup3\n      swap1\n        /* \"erc721.sol\":29736:29769  Transfer(address(0), to, tokenId) */\n      log4\n        /* \"erc721.sol\":24261:24416  function setApprovalForAll(address operator, bool approved) public virtual override {... */\n      pop\n      pop\n      jump\t// out\n    tag_178:\n      dup3\n      dup1\n      sload\n      tag_274\n      swap1\n      tag_103\n      jump\t// in\n    tag_274:\n      swap1\n      0x00\n      mstore\n      keccak256(0x00, 0x20)\n      swap1\n      0x1f\n      add\n      0x20\n      swap1\n      div\n      dup2\n      add\n      swap3\n      dup3\n      tag_276\n      jumpi\n      0x00\n      dup6\n      sstore\n      jump(tag_279)\n    tag_276:\n      dup3\n      0x1f\n      lt\n      tag_277\n      jumpi\n      dup3\n      dup1\n      add\n      not(0xff)\n      dup3\n      calldataload\n      and\n      or\n      dup6\n      sstore\n      jump(tag_279)\n    tag_277:\n      dup3\n      dup1\n      add\n      0x01\n      add\n      dup6\n      sstore\n      dup3\n      iszero\n      tag_279\n      jumpi\n      swap2\n      dup3\n      add\n    tag_278:\n      dup3\n      dup2\n      gt\n      iszero\n      tag_279\n      jumpi\n      dup3\n      calldataload\n      dup3\n      sstore\n      swap2\n      0x20\n      add\n      swap2\n      swap1\n      0x01\n      add\n      swap1\n      jump(tag_278)\n    tag_279:\n      pop\n      tag_280\n      swap3\n      swap2\n      pop\n      tag_281\n      jump\t// in\n    tag_280:\n      pop\n      swap1\n      jump\t// out\n    tag_281:\n    tag_282:\n      dup1\n      dup3\n      gt\n      iszero\n      tag_280\n      jumpi\n      0x00\n      dup2\n      sstore\n      0x01\n      add\n      jump(tag_282)\n        /* \"#utility.yul\":14:145   */\n    tag_284:\n      not(sub(shl(0xe0, 0x01), 0x01))\n        /* \"#utility.yul\":88:120   */\n      dup2\n      and\n        /* \"#utility.yul\":78:121   */\n      dup2\n      eq\n        /* \"#utility.yul\":68:139   */\n      tag_140\n      jumpi\n        /* \"#utility.yul\":135:136   */\n      0x00\n        /* \"#utility.yul\":132:133   */\n      dup1\n        /* \"#utility.yul\":125:137   */\n      revert\n        /* \"#utility.yul\":150:395   */\n    tag_26:\n        /* \"#utility.yul\":208:214   */\n      0x00\n        /* \"#utility.yul\":261:263   */\n      0x20\n        /* \"#utility.yul\":249:258   */\n      dup3\n        /* \"#utility.yul\":240:247   */\n      dup5\n        /* \"#utility.yul\":236:259   */\n      sub\n        /* \"#utility.yul\":232:264   */\n      slt\n        /* \"#utility.yul\":229:281   */\n      iszero\n      tag_293\n      jumpi\n        /* \"#utility.yul\":277:278   */\n      0x00\n        /* \"#utility.yul\":274:275   */\n      dup1\n        /* \"#utility.yul\":267:279   */\n      revert\n        /* \"#utility.yul\":229:281   */\n    tag_293:\n        /* \"#utility.yul\":316:325   */\n      dup2\n        /* \"#utility.yul\":303:326   */\n      calldataload\n        /* \"#utility.yul\":335:365   */\n      tag_294\n        /* \"#utility.yul\":359:364   */\n      dup2\n        /* \"#utility.yul\":335:365   */\n      tag_284\n      jump\t// in\n    tag_294:\n        /* \"#utility.yul\":384:389   */\n      swap4\n        /* \"#utility.yul\":150:395   */\n      swap3\n      pop\n      pop\n      pop\n      jump\t// out\n        /* \"#utility.yul\":592:1064   */\n    tag_285:\n        /* \"#utility.yul\":634:637   */\n      0x00\n        /* \"#utility.yul\":672:677   */\n      dup2\n        /* \"#utility.yul\":666:678   */\n      mload\n        /* \"#utility.yul\":699:705   */\n      dup1\n        /* \"#utility.yul\":694:697   */\n      dup5\n        /* \"#utility.yul\":687:706   */\n      mstore\n        /* \"#utility.yul\":724:725   */\n      0x00\n        /* \"#utility.yul\":734:896   */\n    tag_297:\n        /* \"#utility.yul\":748:754   */\n      dup2\n        /* \"#utility.yul\":745:746   */\n      dup2\n        /* \"#utility.yul\":742:755   */\n      lt\n        /* \"#utility.yul\":734:896   */\n      iszero\n      tag_299\n      jumpi\n        /* \"#utility.yul\":810:814   */\n      0x20\n        /* \"#utility.yul\":866:879   */\n      dup2\n      dup6\n      add\n        /* \"#utility.yul\":862:884   */\n      dup2\n      add\n        /* \"#utility.yul\":856:885   */\n      mload\n        /* \"#utility.yul\":838:849   */\n      dup7\n      dup4\n      add\n        /* \"#utility.yul\":834:854   */\n      dup3\n      add\n        /* \"#utility.yul\":827:886   */\n      mstore\n        /* \"#utility.yul\":763:775   */\n      add\n        /* \"#utility.yul\":734:896   */\n      jump(tag_297)\n    tag_299:\n        /* \"#utility.yul\":914:920   */\n      dup2\n        /* \"#utility.yul\":911:912   */\n      dup2\n        /* \"#utility.yul\":908:921   */\n      gt\n        /* \"#utility.yul\":905:992   */\n      iszero\n      tag_300\n      jumpi\n        /* \"#utility.yul\":980:981   */\n      0x00\n        /* \"#utility.yul\":973:977   */\n      0x20\n        /* \"#utility.yul\":964:970   */\n      dup4\n        /* \"#utility.yul\":959:962   */\n      dup8\n        /* \"#utility.yul\":955:971   */\n      add\n        /* \"#utility.yul\":951:978   */\n      add\n        /* \"#utility.yul\":944:982   */\n      mstore\n        /* \"#utility.yul\":905:992   */\n    tag_300:\n      pop\n        /* \"#utility.yul\":1046:1048   */\n      0x1f\n        /* \"#utility.yul\":1025:1040   */\n      add\n      not(0x1f)\n        /* \"#utility.yul\":1021:1050   */\n      and\n        /* \"#utility.yul\":1012:1051   */\n      swap3\n      swap1\n      swap3\n      add\n        /* \"#utility.yul\":1053:1057   */\n      0x20\n        /* \"#utility.yul\":1008:1058   */\n      add\n      swap3\n        /* \"#utility.yul\":592:1064   */\n      swap2\n      pop\n      pop\n      jump\t// out\n        /* \"#utility.yul\":1069:1289   */\n    tag_33:\n        /* \"#utility.yul\":1218:1220   */\n      0x20\n        /* \"#utility.yul\":1207:1216   */\n      dup2\n        /* \"#utility.yul\":1200:1221   */\n      mstore\n        /* \"#utility.yul\":1181:1185   */\n      0x00\n        /* \"#utility.yul\":1238:1283   */\n      tag_294\n        /* \"#utility.yul\":1279:1281   */\n      0x20\n        /* \"#utility.yul\":1268:1277   */\n      dup4\n        /* \"#utility.yul\":1264:1282   */\n      add\n        /* \"#utility.yul\":1256:1262   */\n      dup5\n        /* \"#utility.yul\":1238:1283   */\n      tag_285\n      jump\t// in\n        /* \"#utility.yul\":1294:1474   */\n    tag_36:\n        /* \"#utility.yul\":1353:1359   */\n      0x00\n        /* \"#utility.yul\":1406:1408   */\n      0x20\n        /* \"#utility.yul\":1394:1403   */\n      dup3\n        /* \"#utility.yul\":1385:1392   */\n      dup5\n        /* \"#utility.yul\":1381:1404   */\n      sub\n        /* \"#utility.yul\":1377:1409   */\n      slt\n        /* \"#utility.yul\":1374:1426   */\n      iszero\n      tag_304\n      jumpi\n        /* \"#utility.yul\":1422:1423   */\n      0x00\n        /* \"#utility.yul\":1419:1420   */\n      dup1\n        /* \"#utility.yul\":1412:1424   */\n      revert\n        /* \"#utility.yul\":1374:1426   */\n    tag_304:\n      pop\n        /* \"#utility.yul\":1445:1468   */\n      calldataload\n      swap2\n        /* \"#utility.yul\":1294:1474   */\n      swap1\n      pop\n      jump\t// out\n        /* \"#utility.yul\":1710:1906   */\n    tag_286:\n        /* \"#utility.yul\":1778:1798   */\n      dup1\n      calldataload\n      sub(shl(0xa0, 0x01), 0x01)\n        /* \"#utility.yul\":1827:1881   */\n      dup2\n      and\n        /* \"#utility.yul\":1817:1882   */\n      dup2\n      eq\n        /* \"#utility.yul\":1807:1900   */\n      tag_307\n      jumpi\n        /* \"#utility.yul\":1896:1897   */\n      0x00\n        /* \"#utility.yul\":1893:1894   */\n      dup1\n        /* \"#utility.yul\":1886:1898   */\n      revert\n        /* \"#utility.yul\":1807:1900   */\n    tag_307:\n        /* \"#utility.yul\":1710:1906   */\n      swap2\n      swap1\n      pop\n      jump\t// out\n        /* \"#utility.yul\":1911:2165   */\n    tag_42:\n        /* \"#utility.yul\":1979:1985   */\n      0x00\n        /* \"#utility.yul\":1987:1993   */\n      dup1\n        /* \"#utility.yul\":2040:2042   */\n      0x40\n        /* \"#utility.yul\":2028:2037   */\n      dup4\n        /* \"#utility.yul\":2019:2026   */\n      dup6\n        /* \"#utility.yul\":2015:2038   */\n      sub\n        /* \"#utility.yul\":2011:2043   */\n      slt\n        /* \"#utility.yul\":2008:2060   */\n      iszero\n      tag_309\n      jumpi\n        /* \"#utility.yul\":2056:2057   */\n      0x00\n        /* \"#utility.yul\":2053:2054   */\n      dup1\n        /* \"#utility.yul\":2046:2058   */\n      revert\n        /* \"#utility.yul\":2008:2060   */\n    tag_309:\n        /* \"#utility.yul\":2079:2108   */\n      tag_310\n        /* \"#utility.yul\":2098:2107   */\n      dup4\n        /* \"#utility.yul\":2079:2108   */\n      tag_286\n      jump\t// in\n    tag_310:\n        /* \"#utility.yul\":2069:2108   */\n      swap5\n        /* \"#utility.yul\":2155:2157   */\n      0x20\n        /* \"#utility.yul\":2140:2158   */\n      swap4\n      swap1\n      swap4\n      add\n        /* \"#utility.yul\":2127:2159   */\n      calldataload\n      swap4\n      pop\n      pop\n      pop\n        /* \"#utility.yul\":1911:2165   */\n      jump\t// out\n        /* \"#utility.yul\":2170:2297   */\n    tag_287:\n        /* \"#utility.yul\":2231:2241   */\n      0x4e487b71\n        /* \"#utility.yul\":2226:2229   */\n      0xe0\n        /* \"#utility.yul\":2222:2242   */\n      shl\n        /* \"#utility.yul\":2219:2220   */\n      0x00\n        /* \"#utility.yul\":2212:2243   */\n      mstore\n        /* \"#utility.yul\":2262:2266   */\n      0x41\n        /* \"#utility.yul\":2259:2260   */\n      0x04\n        /* \"#utility.yul\":2252:2267   */\n      mstore\n        /* \"#utility.yul\":2286:2290   */\n      0x24\n        /* \"#utility.yul\":2283:2284   */\n      0x00\n        /* \"#utility.yul\":2276:2291   */\n      revert\n        /* \"#utility.yul\":2302:3440   */\n    tag_46:\n        /* \"#utility.yul\":2397:2403   */\n      0x00\n        /* \"#utility.yul\":2405:2411   */\n      dup1\n        /* \"#utility.yul\":2413:2419   */\n      0x00\n        /* \"#utility.yul\":2421:2427   */\n      dup1\n        /* \"#utility.yul\":2474:2477   */\n      0x80\n        /* \"#utility.yul\":2462:2471   */\n      dup6\n        /* \"#utility.yul\":2453:2460   */\n      dup8\n        /* \"#utility.yul\":2449:2472   */\n      sub\n        /* \"#utility.yul\":2445:2478   */\n      slt\n        /* \"#utility.yul\":2442:2495   */\n      iszero\n      tag_313\n      jumpi\n        /* \"#utility.yul\":2491:2492   */\n      0x00\n        /* \"#utility.yul\":2488:2489   */\n      dup1\n        /* \"#utility.yul\":2481:2493   */\n      revert\n        /* \"#utility.yul\":2442:2495   */\n    tag_313:\n        /* \"#utility.yul\":2514:2543   */\n      tag_314\n        /* \"#utility.yul\":2533:2542   */\n      dup6\n        /* \"#utility.yul\":2514:2543   */\n      tag_286\n      jump\t// in\n    tag_314:\n        /* \"#utility.yul\":2504:2543   */\n      swap4\n      pop\n        /* \"#utility.yul\":2562:2600   */\n      tag_315\n        /* \"#utility.yul\":2596:2598   */\n      0x20\n        /* \"#utility.yul\":2585:2594   */\n      dup7\n        /* \"#utility.yul\":2581:2599   */\n      add\n        /* \"#utility.yul\":2562:2600   */\n      tag_286\n      jump\t// in\n    tag_315:\n        /* \"#utility.yul\":2552:2600   */\n      swap3\n      pop\n        /* \"#utility.yul\":2647:2649   */\n      0x40\n        /* \"#utility.yul\":2636:2645   */\n      dup6\n        /* \"#utility.yul\":2632:2650   */\n      add\n        /* \"#utility.yul\":2619:2651   */\n      calldataload\n        /* \"#utility.yul\":2609:2651   */\n      swap2\n      pop\n        /* \"#utility.yul\":2702:2704   */\n      0x60\n        /* \"#utility.yul\":2691:2700   */\n      dup6\n        /* \"#utility.yul\":2687:2705   */\n      add\n        /* \"#utility.yul\":2674:2706   */\n      calldataload\n        /* \"#utility.yul\":2725:2743   */\n      0xffffffffffffffff\n        /* \"#utility.yul\":2766:2768   */\n      dup1\n        /* \"#utility.yul\":2758:2764   */\n      dup3\n        /* \"#utility.yul\":2755:2769   */\n      gt\n        /* \"#utility.yul\":2752:2786   */\n      iszero\n      tag_316\n      jumpi\n        /* \"#utility.yul\":2782:2783   */\n      0x00\n        /* \"#utility.yul\":2779:2780   */\n      dup1\n        /* \"#utility.yul\":2772:2784   */\n      revert\n        /* \"#utility.yul\":2752:2786   */\n    tag_316:\n        /* \"#utility.yul\":2820:2826   */\n      dup2\n        /* \"#utility.yul\":2809:2818   */\n      dup8\n        /* \"#utility.yul\":2805:2827   */\n      add\n        /* \"#utility.yul\":2795:2827   */\n      swap2\n      pop\n        /* \"#utility.yul\":2865:2872   */\n      dup8\n        /* \"#utility.yul\":2858:2862   */\n      0x1f\n        /* \"#utility.yul\":2854:2856   */\n      dup4\n        /* \"#utility.yul\":2850:2863   */\n      add\n        /* \"#utility.yul\":2846:2873   */\n      slt\n        /* \"#utility.yul\":2836:2891   */\n      tag_317\n      jumpi\n        /* \"#utility.yul\":2887:2888   */\n      0x00\n        /* \"#utility.yul\":2884:2885   */\n      dup1\n        /* \"#utility.yul\":2877:2889   */\n      revert\n        /* \"#utility.yul\":2836:2891   */\n    tag_317:\n        /* \"#utility.yul\":2923:2925   */\n      dup2\n        /* \"#utility.yul\":2910:2926   */\n      calldataload\n        /* \"#utility.yul\":2945:2947   */\n      dup2\n        /* \"#utility.yul\":2941:2943   */\n      dup2\n        /* \"#utility.yul\":2938:2948   */\n      gt\n        /* \"#utility.yul\":2935:2971   */\n      iszero\n      tag_319\n      jumpi\n        /* \"#utility.yul\":2951:2969   */\n      tag_319\n      tag_287\n      jump\t// in\n    tag_319:\n        /* \"#utility.yul\":3026:3028   */\n      0x40\n        /* \"#utility.yul\":3020:3029   */\n      mload\n        /* \"#utility.yul\":2994:2996   */\n      0x1f\n        /* \"#utility.yul\":3080:3093   */\n      dup3\n      add\n      not(0x1f)\n        /* \"#utility.yul\":3076:3098   */\n      swap1\n      dup2\n      and\n        /* \"#utility.yul\":3100:3102   */\n      0x3f\n        /* \"#utility.yul\":3072:3103   */\n      add\n        /* \"#utility.yul\":3068:3108   */\n      and\n        /* \"#utility.yul\":3056:3109   */\n      dup2\n      add\n      swap1\n        /* \"#utility.yul\":3124:3142   */\n      dup4\n      dup3\n      gt\n        /* \"#utility.yul\":3144:3166   */\n      dup2\n      dup4\n      lt\n        /* \"#utility.yul\":3121:3167   */\n      or\n        /* \"#utility.yul\":3118:3190   */\n      iszero\n      tag_321\n      jumpi\n        /* \"#utility.yul\":3170:3188   */\n      tag_321\n      tag_287\n      jump\t// in\n    tag_321:\n        /* \"#utility.yul\":3210:3220   */\n      dup2\n        /* \"#utility.yul\":3206:3208   */\n      0x40\n        /* \"#utility.yul\":3199:3221   */\n      mstore\n        /* \"#utility.yul\":3245:3247   */\n      dup3\n        /* \"#utility.yul\":3237:3243   */\n      dup2\n        /* \"#utility.yul\":3230:3248   */\n      mstore\n        /* \"#utility.yul\":3285:3292   */\n      dup11\n        /* \"#utility.yul\":3280:3282   */\n      0x20\n        /* \"#utility.yul\":3275:3277   */\n      dup5\n        /* \"#utility.yul\":3271:3273   */\n      dup8\n        /* \"#utility.yul\":3267:3278   */\n      add\n        /* \"#utility.yul\":3263:3283   */\n      add\n        /* \"#utility.yul\":3260:3293   */\n      gt\n        /* \"#utility.yul\":3257:3310   */\n      iszero\n      tag_322\n      jumpi\n        /* \"#utility.yul\":3306:3307   */\n      0x00\n        /* \"#utility.yul\":3303:3304   */\n      dup1\n        /* \"#utility.yul\":3296:3308   */\n      revert\n        /* \"#utility.yul\":3257:3310   */\n    tag_322:\n        /* \"#utility.yul\":3362:3364   */\n      dup3\n        /* \"#utility.yul\":3357:3359   */\n      0x20\n        /* \"#utility.yul\":3353:3355   */\n      dup7\n        /* \"#utility.yul\":3349:3360   */\n      add\n        /* \"#utility.yul\":3344:3346   */\n      0x20\n        /* \"#utility.yul\":3336:3342   */\n      dup4\n        /* \"#utility.yul\":3332:3347   */\n      add\n        /* \"#utility.yul\":3319:3365   */\n      calldatacopy\n        /* \"#utility.yul\":3407:3408   */\n      0x00\n        /* \"#utility.yul\":3402:3404   */\n      0x20\n        /* \"#utility.yul\":3397:3399   */\n      dup5\n        /* \"#utility.yul\":3389:3395   */\n      dup4\n        /* \"#utility.yul\":3385:3400   */\n      add\n        /* \"#utility.yul\":3381:3405   */\n      add\n        /* \"#utility.yul\":3374:3409   */\n      mstore\n        /* \"#utility.yul\":3428:3434   */\n      dup1\n        /* \"#utility.yul\":3418:3434   */\n      swap6\n      pop\n      pop\n      pop\n      pop\n      pop\n      pop\n        /* \"#utility.yul\":2302:3440   */\n      swap3\n      swap6\n      swap2\n      swap5\n      pop\n      swap3\n      pop\n      jump\t// out\n        /* \"#utility.yul\":3652:3980   */\n    tag_52:\n        /* \"#utility.yul\":3729:3735   */\n      0x00\n        /* \"#utility.yul\":3737:3743   */\n      dup1\n        /* \"#utility.yul\":3745:3751   */\n      0x00\n        /* \"#utility.yul\":3798:3800   */\n      0x60\n        /* \"#utility.yul\":3786:3795   */\n      dup5\n        /* \"#utility.yul\":3777:3784   */\n      dup7\n        /* \"#utility.yul\":3773:3796   */\n      sub\n        /* \"#utility.yul\":3769:3801   */\n      slt\n        /* \"#utility.yul\":3766:3818   */\n      iszero\n      tag_325\n      jumpi\n        /* \"#utility.yul\":3814:3815   */\n      0x00\n        /* \"#utility.yul\":3811:3812   */\n      dup1\n        /* \"#utility.yul\":3804:3816   */\n      revert\n        /* \"#utility.yul\":3766:3818   */\n    tag_325:\n        /* \"#utility.yul\":3837:3866   */\n      tag_326\n        /* \"#utility.yul\":3856:3865   */\n      dup5\n        /* \"#utility.yul\":3837:3866   */\n      tag_286\n      jump\t// in\n    tag_326:\n        /* \"#utility.yul\":3827:3866   */\n      swap3\n      pop\n        /* \"#utility.yul\":3885:3923   */\n      tag_327\n        /* \"#utility.yul\":3919:3921   */\n      0x20\n        /* \"#utility.yul\":3908:3917   */\n      dup6\n        /* \"#utility.yul\":3904:3922   */\n      add\n        /* \"#utility.yul\":3885:3923   */\n      tag_286\n      jump\t// in\n    tag_327:\n        /* \"#utility.yul\":3875:3923   */\n      swap2\n      pop\n        /* \"#utility.yul\":3970:3972   */\n      0x40\n        /* \"#utility.yul\":3959:3968   */\n      dup5\n        /* \"#utility.yul\":3955:3973   */\n      add\n        /* \"#utility.yul\":3942:3974   */\n      calldataload\n        /* \"#utility.yul\":3932:3974   */\n      swap1\n      pop\n        /* \"#utility.yul\":3652:3980   */\n      swap3\n      pop\n      swap3\n      pop\n      swap3\n      jump\t// out\n        /* \"#utility.yul\":4167:4353   */\n    tag_70:\n        /* \"#utility.yul\":4226:4232   */\n      0x00\n        /* \"#utility.yul\":4279:4281   */\n      0x20\n        /* \"#utility.yul\":4267:4276   */\n      dup3\n        /* \"#utility.yul\":4258:4265   */\n      dup5\n        /* \"#utility.yul\":4254:4277   */\n      sub\n        /* \"#utility.yul\":4250:4282   */\n      slt\n        /* \"#utility.yul\":4247:4299   */\n      iszero\n      tag_330\n      jumpi\n        /* \"#utility.yul\":4295:4296   */\n      0x00\n        /* \"#utility.yul\":4292:4293   */\n      dup1\n        /* \"#utility.yul\":4285:4297   */\n      revert\n        /* \"#utility.yul\":4247:4299   */\n    tag_330:\n        /* \"#utility.yul\":4318:4347   */\n      tag_294\n        /* \"#utility.yul\":4337:4346   */\n      dup3\n        /* \"#utility.yul\":4318:4347   */\n      tag_286\n      jump\t// in\n        /* \"#utility.yul\":4358:4705   */\n    tag_78:\n        /* \"#utility.yul\":4423:4429   */\n      0x00\n        /* \"#utility.yul\":4431:4437   */\n      dup1\n        /* \"#utility.yul\":4484:4486   */\n      0x40\n        /* \"#utility.yul\":4472:4481   */\n      dup4\n        /* \"#utility.yul\":4463:4470   */\n      dup6\n        /* \"#utility.yul\":4459:4482   */\n      sub\n        /* \"#utility.yul\":4455:4487   */\n      slt\n        /* \"#utility.yul\":4452:4504   */\n      iszero\n      tag_333\n      jumpi\n        /* \"#utility.yul\":4500:4501   */\n      0x00\n        /* \"#utility.yul\":4497:4498   */\n      dup1\n        /* \"#utility.yul\":4490:4502   */\n      revert\n        /* \"#utility.yul\":4452:4504   */\n    tag_333:\n        /* \"#utility.yul\":4523:4552   */\n      tag_334\n        /* \"#utility.yul\":4542:4551   */\n      dup4\n        /* \"#utility.yul\":4523:4552   */\n      tag_286\n      jump\t// in\n    tag_334:\n        /* \"#utility.yul\":4513:4552   */\n      swap2\n      pop\n        /* \"#utility.yul\":4602:4604   */\n      0x20\n        /* \"#utility.yul\":4591:4600   */\n      dup4\n        /* \"#utility.yul\":4587:4605   */\n      add\n        /* \"#utility.yul\":4574:4606   */\n      calldataload\n        /* \"#utility.yul\":4649:4654   */\n      dup1\n        /* \"#utility.yul\":4642:4655   */\n      iszero\n        /* \"#utility.yul\":4635:4656   */\n      iszero\n        /* \"#utility.yul\":4628:4633   */\n      dup2\n        /* \"#utility.yul\":4625:4657   */\n      eq\n        /* \"#utility.yul\":4615:4675   */\n      tag_335\n      jumpi\n        /* \"#utility.yul\":4671:4672   */\n      0x00\n        /* \"#utility.yul\":4668:4669   */\n      dup1\n        /* \"#utility.yul\":4661:4673   */\n      revert\n        /* \"#utility.yul\":4615:4675   */\n    tag_335:\n        /* \"#utility.yul\":4694:4699   */\n      dup1\n        /* \"#utility.yul\":4684:4699   */\n      swap2\n      pop\n      pop\n        /* \"#utility.yul\":4358:4705   */\n      swap3\n      pop\n      swap3\n      swap1\n      pop\n      jump\t// out\n        /* \"#utility.yul\":4710:5376   */\n    tag_89:\n        /* \"#utility.yul\":4790:4796   */\n      0x00\n        /* \"#utility.yul\":4798:4804   */\n      dup1\n        /* \"#utility.yul\":4806:4812   */\n      0x00\n        /* \"#utility.yul\":4859:4861   */\n      0x40\n        /* \"#utility.yul\":4847:4856   */\n      dup5\n        /* \"#utility.yul\":4838:4845   */\n      dup7\n        /* \"#utility.yul\":4834:4857   */\n      sub\n        /* \"#utility.yul\":4830:4862   */\n      slt\n        /* \"#utility.yul\":4827:4879   */\n      iszero\n      tag_337\n      jumpi\n        /* \"#utility.yul\":4875:4876   */\n      0x00\n        /* \"#utility.yul\":4872:4873   */\n      dup1\n        /* \"#utility.yul\":4865:4877   */\n      revert\n        /* \"#utility.yul\":4827:4879   */\n    tag_337:\n        /* \"#utility.yul\":4898:4927   */\n      tag_338\n        /* \"#utility.yul\":4917:4926   */\n      dup5\n        /* \"#utility.yul\":4898:4927   */\n      tag_286\n      jump\t// in\n    tag_338:\n        /* \"#utility.yul\":4888:4927   */\n      swap3\n      pop\n        /* \"#utility.yul\":4978:4980   */\n      0x20\n        /* \"#utility.yul\":4967:4976   */\n      dup5\n        /* \"#utility.yul\":4963:4981   */\n      add\n        /* \"#utility.yul\":4950:4982   */\n      calldataload\n        /* \"#utility.yul\":5001:5019   */\n      0xffffffffffffffff\n        /* \"#utility.yul\":5042:5044   */\n      dup1\n        /* \"#utility.yul\":5034:5040   */\n      dup3\n        /* \"#utility.yul\":5031:5045   */\n      gt\n        /* \"#utility.yul\":5028:5062   */\n      iszero\n      tag_339\n      jumpi\n        /* \"#utility.yul\":5058:5059   */\n      0x00\n        /* \"#utility.yul\":5055:5056   */\n      dup1\n        /* \"#utility.yul\":5048:5060   */\n      revert\n        /* \"#utility.yul\":5028:5062   */\n    tag_339:\n        /* \"#utility.yul\":5096:5102   */\n      dup2\n        /* \"#utility.yul\":5085:5094   */\n      dup7\n        /* \"#utility.yul\":5081:5103   */\n      add\n        /* \"#utility.yul\":5071:5103   */\n      swap2\n      pop\n        /* \"#utility.yul\":5141:5148   */\n      dup7\n        /* \"#utility.yul\":5134:5138   */\n      0x1f\n        /* \"#utility.yul\":5130:5132   */\n      dup4\n        /* \"#utility.yul\":5126:5139   */\n      add\n        /* \"#utility.yul\":5122:5149   */\n      slt\n        /* \"#utility.yul\":5112:5167   */\n      tag_340\n      jumpi\n        /* \"#utility.yul\":5163:5164   */\n      0x00\n        /* \"#utility.yul\":5160:5161   */\n      dup1\n        /* \"#utility.yul\":5153:5165   */\n      revert\n        /* \"#utility.yul\":5112:5167   */\n    tag_340:\n        /* \"#utility.yul\":5203:5205   */\n      dup2\n        /* \"#utility.yul\":5190:5206   */\n      calldataload\n        /* \"#utility.yul\":5229:5231   */\n      dup2\n        /* \"#utility.yul\":5221:5227   */\n      dup2\n        /* \"#utility.yul\":5218:5232   */\n      gt\n        /* \"#utility.yul\":5215:5249   */\n      iszero\n      tag_341\n      jumpi\n        /* \"#utility.yul\":5245:5246   */\n      0x00\n        /* \"#utility.yul\":5242:5243   */\n      dup1\n        /* \"#utility.yul\":5235:5247   */\n      revert\n        /* \"#utility.yul\":5215:5249   */\n    tag_341:\n        /* \"#utility.yul\":5290:5297   */\n      dup8\n        /* \"#utility.yul\":5285:5287   */\n      0x20\n        /* \"#utility.yul\":5276:5282   */\n      dup3\n        /* \"#utility.yul\":5272:5274   */\n      dup6\n        /* \"#utility.yul\":5268:5283   */\n      add\n        /* \"#utility.yul\":5264:5288   */\n      add\n        /* \"#utility.yul\":5261:5298   */\n      gt\n        /* \"#utility.yul\":5258:5315   */\n      iszero\n      tag_342\n      jumpi\n        /* \"#utility.yul\":5311:5312   */\n      0x00\n        /* \"#utility.yul\":5308:5309   */\n      dup1\n        /* \"#utility.yul\":5301:5313   */\n      revert\n        /* \"#utility.yul\":5258:5315   */\n    tag_342:\n        /* \"#utility.yul\":5342:5344   */\n      0x20\n        /* \"#utility.yul\":5338:5340   */\n      dup4\n        /* \"#utility.yul\":5334:5345   */\n      add\n        /* \"#utility.yul\":5324:5345   */\n      swap5\n      pop\n        /* \"#utility.yul\":5364:5370   */\n      dup1\n        /* \"#utility.yul\":5354:5370   */\n      swap4\n      pop\n      pop\n      pop\n      pop\n        /* \"#utility.yul\":4710:5376   */\n      swap3\n      pop\n      swap3\n      pop\n      swap3\n      jump\t// out\n        /* \"#utility.yul\":5381:5641   */\n    tag_93:\n        /* \"#utility.yul\":5449:5455   */\n      0x00\n        /* \"#utility.yul\":5457:5463   */\n      dup1\n        /* \"#utility.yul\":5510:5512   */\n      0x40\n        /* \"#utility.yul\":5498:5507   */\n      dup4\n        /* \"#utility.yul\":5489:5496   */\n      dup6\n        /* \"#utility.yul\":5485:5508   */\n      sub\n        /* \"#utility.yul\":5481:5513   */\n      slt\n        /* \"#utility.yul\":5478:5530   */\n      iszero\n      tag_344\n      jumpi\n        /* \"#utility.yul\":5526:5527   */\n      0x00\n        /* \"#utility.yul\":5523:5524   */\n      dup1\n        /* \"#utility.yul\":5516:5528   */\n      revert\n        /* \"#utility.yul\":5478:5530   */\n    tag_344:\n        /* \"#utility.yul\":5549:5578   */\n      tag_345\n        /* \"#utility.yul\":5568:5577   */\n      dup4\n        /* \"#utility.yul\":5549:5578   */\n      tag_286\n      jump\t// in\n    tag_345:\n        /* \"#utility.yul\":5539:5578   */\n      swap2\n      pop\n        /* \"#utility.yul\":5597:5635   */\n      tag_346\n        /* \"#utility.yul\":5631:5633   */\n      0x20\n        /* \"#utility.yul\":5620:5629   */\n      dup5\n        /* \"#utility.yul\":5616:5634   */\n      add\n        /* \"#utility.yul\":5597:5635   */\n      tag_286\n      jump\t// in\n    tag_346:\n        /* \"#utility.yul\":5587:5635   */\n      swap1\n      pop\n        /* \"#utility.yul\":5381:5641   */\n      swap3\n      pop\n      swap3\n      swap1\n      pop\n      jump\t// out\n        /* \"#utility.yul\":5646:6026   */\n    tag_103:\n        /* \"#utility.yul\":5725:5726   */\n      0x01\n        /* \"#utility.yul\":5721:5733   */\n      dup2\n      dup2\n      shr\n      swap1\n        /* \"#utility.yul\":5768:5780   */\n      dup3\n      and\n      dup1\n        /* \"#utility.yul\":5789:5850   */\n      tag_348\n      jumpi\n        /* \"#utility.yul\":5843:5847   */\n      0x7f\n        /* \"#utility.yul\":5835:5841   */\n      dup3\n        /* \"#utility.yul\":5831:5848   */\n      and\n        /* \"#utility.yul\":5821:5848   */\n      swap2\n      pop\n        /* \"#utility.yul\":5789:5850   */\n    tag_348:\n        /* \"#utility.yul\":5896:5898   */\n      0x20\n        /* \"#utility.yul\":5888:5894   */\n      dup3\n        /* \"#utility.yul\":5885:5899   */\n      lt\n        /* \"#utility.yul\":5865:5883   */\n      dup2\n        /* \"#utility.yul\":5862:5900   */\n      sub\n        /* \"#utility.yul\":5859:6020   */\n      tag_349\n      jumpi\n        /* \"#utility.yul\":5942:5952   */\n      0x4e487b71\n        /* \"#utility.yul\":5937:5940   */\n      0xe0\n        /* \"#utility.yul\":5933:5953   */\n      shl\n        /* \"#utility.yul\":5930:5931   */\n      0x00\n        /* \"#utility.yul\":5923:5954   */\n      mstore\n        /* \"#utility.yul\":5977:5981   */\n      0x22\n        /* \"#utility.yul\":5974:5975   */\n      0x04\n        /* \"#utility.yul\":5967:5982   */\n      mstore\n        /* \"#utility.yul\":6005:6009   */\n      0x24\n        /* \"#utility.yul\":6002:6003   */\n      0x00\n        /* \"#utility.yul\":5995:6010   */\n      revert\n        /* \"#utility.yul\":5859:6020   */\n    tag_349:\n      pop\n        /* \"#utility.yul\":5646:6026   */\n      swap2\n      swap1\n      pop\n      jump\t// out\n        /* \"#utility.yul\":8040:8167   */\n    tag_288:\n        /* \"#utility.yul\":8101:8111   */\n      0x4e487b71\n        /* \"#utility.yul\":8096:8099   */\n      0xe0\n        /* \"#utility.yul\":8092:8112   */\n      shl\n        /* \"#utility.yul\":8089:8090   */\n      0x00\n        /* \"#utility.yul\":8082:8113   */\n      mstore\n        /* \"#utility.yul\":8132:8136   */\n      0x11\n        /* \"#utility.yul\":8129:8130   */\n      0x04\n        /* \"#utility.yul\":8122:8137   */\n      mstore\n        /* \"#utility.yul\":8156:8160   */\n      0x24\n        /* \"#utility.yul\":8153:8154   */\n      0x00\n        /* \"#utility.yul\":8146:8161   */\n      revert\n        /* \"#utility.yul\":8172:8300   */\n    tag_176:\n        /* \"#utility.yul\":8212:8215   */\n      0x00\n        /* \"#utility.yul\":8243:8244   */\n      dup3\n        /* \"#utility.yul\":8239:8245   */\n      not\n        /* \"#utility.yul\":8236:8237   */\n      dup3\n        /* \"#utility.yul\":8233:8246   */\n      gt\n        /* \"#utility.yul\":8230:8269   */\n      iszero\n      tag_358\n      jumpi\n        /* \"#utility.yul\":8249:8267   */\n      tag_358\n      tag_288\n      jump\t// in\n    tag_358:\n      pop\n        /* \"#utility.yul\":8285:8294   */\n      add\n      swap1\n        /* \"#utility.yul\":8172:8300   */\n      jump\t// out\n        /* \"#utility.yul\":9116:9241   */\n    tag_208:\n        /* \"#utility.yul\":9156:9160   */\n      0x00\n        /* \"#utility.yul\":9184:9185   */\n      dup3\n        /* \"#utility.yul\":9181:9182   */\n      dup3\n        /* \"#utility.yul\":9178:9186   */\n      lt\n        /* \"#utility.yul\":9175:9209   */\n      iszero\n      tag_363\n      jumpi\n        /* \"#utility.yul\":9189:9207   */\n      tag_363\n      tag_288\n      jump\t// in\n    tag_363:\n      pop\n        /* \"#utility.yul\":9226:9235   */\n      sub\n      swap1\n        /* \"#utility.yul\":9116:9241   */\n      jump\t// out\n        /* \"#utility.yul\":10019:10531   */\n    tag_241:\n        /* \"#utility.yul\":10213:10217   */\n      0x00\n      sub(shl(0xa0, 0x01), 0x01)\n        /* \"#utility.yul\":10323:10325   */\n      dup1\n        /* \"#utility.yul\":10315:10321   */\n      dup8\n        /* \"#utility.yul\":10311:10326   */\n      and\n        /* \"#utility.yul\":10300:10309   */\n      dup4\n        /* \"#utility.yul\":10293:10327   */\n      mstore\n        /* \"#utility.yul\":10375:10377   */\n      dup1\n        /* \"#utility.yul\":10367:10373   */\n      dup7\n        /* \"#utility.yul\":10363:10378   */\n      and\n        /* \"#utility.yul\":10358:10360   */\n      0x20\n        /* \"#utility.yul\":10347:10356   */\n      dup5\n        /* \"#utility.yul\":10343:10361   */\n      add\n        /* \"#utility.yul\":10336:10379   */\n      mstore\n      pop\n        /* \"#utility.yul\":10415:10421   */\n      dup4\n        /* \"#utility.yul\":10410:10412   */\n      0x40\n        /* \"#utility.yul\":10399:10408   */\n      dup4\n        /* \"#utility.yul\":10395:10413   */\n      add\n        /* \"#utility.yul\":10388:10422   */\n      mstore\n        /* \"#utility.yul\":10458:10461   */\n      0x80\n        /* \"#utility.yul\":10453:10455   */\n      0x60\n        /* \"#utility.yul\":10442:10451   */\n      dup4\n        /* \"#utility.yul\":10438:10456   */\n      add\n        /* \"#utility.yul\":10431:10462   */\n      mstore\n        /* \"#utility.yul\":10479:10525   */\n      tag_367\n        /* \"#utility.yul\":10520:10523   */\n      0x80\n        /* \"#utility.yul\":10509:10518   */\n      dup4\n        /* \"#utility.yul\":10505:10524   */\n      add\n        /* \"#utility.yul\":10497:10503   */\n      dup5\n        /* \"#utility.yul\":10479:10525   */\n      tag_285\n      jump\t// in\n    tag_367:\n        /* \"#utility.yul\":10471:10525   */\n      swap7\n        /* \"#utility.yul\":10019:10531   */\n      swap6\n      pop\n      pop\n      pop\n      pop\n      pop\n      pop\n      jump\t// out\n        /* \"#utility.yul\":10536:10785   */\n    tag_244:\n        /* \"#utility.yul\":10605:10611   */\n      0x00\n        /* \"#utility.yul\":10658:10660   */\n      0x20\n        /* \"#utility.yul\":10646:10655   */\n      dup3\n        /* \"#utility.yul\":10637:10644   */\n      dup5\n        /* \"#utility.yul\":10633:10656   */\n      sub\n        /* \"#utility.yul\":10629:10661   */\n      slt\n        /* \"#utility.yul\":10626:10678   */\n      iszero\n      tag_369\n      jumpi\n        /* \"#utility.yul\":10674:10675   */\n      0x00\n        /* \"#utility.yul\":10671:10672   */\n      dup1\n        /* \"#utility.yul\":10664:10676   */\n      revert\n        /* \"#utility.yul\":10626:10678   */\n    tag_369:\n        /* \"#utility.yul\":10706:10715   */\n      dup2\n        /* \"#utility.yul\":10700:10716   */\n      mload\n        /* \"#utility.yul\":10725:10755   */\n      tag_294\n        /* \"#utility.yul\":10749:10754   */\n      dup2\n        /* \"#utility.yul\":10725:10755   */\n      tag_284\n      jump\t// in\n\n    auxdata: 0xa26469706673582212203d4ffccedb908a9c0d1971ac9c2b82d9d0784c4a04acf21dd95ee1e38f5a81fb64736f6c634300080d0033\n}\n",
    "bytecode": {
      "linkReferences": {},
      "object": "60806040523480156200001157600080fd5b506040516200182b3803806200182b8339810160408190526200003491620001db565b81516200004990600090602085019062000068565b5080516200005f90600190602084019062000068565b50505062000281565b828054620000769062000245565b90600052602060002090601f0160209004810192826200009a5760008555620000e5565b82601f10620000b557805160ff1916838001178555620000e5565b82800160010185558215620000e5579182015b82811115620000e5578251825591602001919060010190620000c8565b50620000f3929150620000f7565b5090565b5b80821115620000f35760008155600101620000f8565b634e487b7160e01b600052604160045260246000fd5b600082601f8301126200013657600080fd5b81516001600160401b03808211156200015357620001536200010e565b604051601f8301601f19908116603f011681019082821181831017156200017e576200017e6200010e565b816040528381526020925086838588010111156200019b57600080fd5b600091505b83821015620001bf5785820183015181830184015290820190620001a0565b83821115620001d15760008385830101525b9695505050505050565b60008060408385031215620001ef57600080fd5b82516001600160401b03808211156200020757600080fd5b620002158683870162000124565b935060208501519150808211156200022c57600080fd5b506200023b8582860162000124565b9150509250929050565b600181811c908216806200025a57607f821691505b6020821081036200027b57634e487b7160e01b600052602260045260246000fd5b50919050565b61159a80620002916000396000f3fe608060405234801561001057600080fd5b506004361061011b5760003560e01c806342966c68116100b2578063a22cb46511610081578063c87b56dd11610066578063c87b56dd1461026d578063d0def52114610280578063e985e9c51461029357600080fd5b8063a22cb46514610247578063b88d4fde1461025a57600080fd5b806342966c68146102065780636352211e1461021957806370a082311461022c57806395d89b411461023f57600080fd5b8063150b7a02116100ee578063150b7a021461019d57806323b872dd146101c95780633b1475a7146101dc57806342842e0e146101f357600080fd5b806301ffc9a71461012057806306fdde0314610148578063081812fc1461015d578063095ea7b314610188575b600080fd5b61013361012e36600461116e565b6102cf565b60405190151581526020015b60405180910390f35b610150610321565b60405161013f91906111df565b61017061016b3660046111f2565b6103b3565b6040516001600160a01b03909116815260200161013f565b61019b610196366004611227565b6103da565b005b6101b06101ab366004611267565b6104f4565b6040516001600160e01b0319909116815260200161013f565b61019b6101d7366004611343565b610570565b6101e560025481565b60405190815260200161013f565b61019b610201366004611343565b6105e7565b61019b6102143660046111f2565b610602565b6101706102273660046111f2565b61060e565b6101e561023a36600461137f565b610673565b61015061070d565b61019b61025536600461139a565b61071c565b61019b610268366004611267565b61072b565b61015061027b3660046111f2565b6107a9565b61019b61028e3660046113d6565b610852565b6101336102a1366004611459565b6001600160a01b03918216600090815260076020908152604080832093909416825291909152205460ff1690565b60006001600160e01b031982166380ac58cd60e01b148061030057506001600160e01b03198216635b5e139f60e01b145b8061031b57506301ffc9a760e01b6001600160e01b03198316145b92915050565b6060600080546103309061148c565b80601f016020809104026020016040519081016040528092919081815260200182805461035c9061148c565b80156103a95780601f1061037e576101008083540402835291602001916103a9565b820191906000526020600020905b81548152906001019060200180831161038c57829003601f168201915b5050505050905090565b60006103be82610893565b506000908152600660205260409020546001600160a01b031690565b60006103e58261060e565b9050806001600160a01b0316836001600160a01b0316036104575760405162461bcd60e51b815260206004820152602160248201527f4552433732313a20617070726f76616c20746f2063757272656e74206f776e656044820152603960f91b60648201526084015b60405180910390fd5b336001600160a01b0382161480610473575061047381336102a1565b6104e55760405162461bcd60e51b815260206004820152603d60248201527f4552433732313a20617070726f76652063616c6c6572206973206e6f7420746f60448201527f6b656e206f776e6572206f7220617070726f76656420666f7220616c6c000000606482015260840161044e565b6104ef83836108f7565b505050565b6001600160a01b038381166000818152600760209081526040808320948916808452948252808320805460ff191660019081179091559051908152919392917f17307eab39ab6107e8899845ad3d59bd9653f200f220920489ca2b5937696c31910160405180910390a350630a85bd0160e11b5b949350505050565b61057a3382610965565b6105dc5760405162461bcd60e51b815260206004820152602d60248201527f4552433732313a2063616c6c6572206973206e6f7420746f6b656e206f776e6560448201526c1c881bdc88185c1c1c9bdd9959609a1b606482015260840161044e565b6104ef8383836109e3565b6104ef8383836040518060200160405280600081525061072b565b61060b81610ba6565b50565b6000818152600360205260408120546001600160a01b03168061031b5760405162461bcd60e51b815260206004820152601860248201527f4552433732313a20696e76616c696420746f6b656e2049440000000000000000604482015260640161044e565b60006001600160a01b0382166106f15760405162461bcd60e51b815260206004820152602960248201527f4552433732313a2061646472657373207a65726f206973206e6f74206120766160448201527f6c6964206f776e65720000000000000000000000000000000000000000000000606482015260840161044e565b506001600160a01b031660009081526005602052604090205490565b6060600180546103309061148c565b610727338383610c50565b5050565b6107353383610965565b6107975760405162461bcd60e51b815260206004820152602d60248201527f4552433732313a2063616c6c6572206973206e6f7420746f6b656e206f776e6560448201526c1c881bdc88185c1c1c9bdd9959609a1b606482015260840161044e565b6107a384848484610d1e565b50505050565b60606107b482610893565b600082815260046020526040902080546107cd9061148c565b80601f01602080910402602001604051908101604052809291908181526020018280546107f99061148c565b80156108465780601f1061081b57610100808354040283529160200191610846565b820191906000526020600020905b81548152906001019060200180831161082957829003601f168201915b50505050509050919050565b60016002600082825461086591906114dc565b909155505060025460009081526004602052604090206108869083836110bf565b506104ef83600254610d9c565b6000818152600360205260409020546001600160a01b031661060b5760405162461bcd60e51b815260206004820152601860248201527f4552433732313a20696e76616c696420746f6b656e2049440000000000000000604482015260640161044e565b600081815260066020526040902080546001600160a01b0319166001600160a01b038416908117909155819061092c8261060e565b6001600160a01b03167f8c5be1e5ebec7d5bd14f71427d1e84f3dd0314c0f7b2291e5b200ac8c7c3b92560405160405180910390a45050565b6000806109718361060e565b9050806001600160a01b0316846001600160a01b031614806109b857506001600160a01b0380821660009081526007602090815260408083209388168352929052205460ff165b806105685750836001600160a01b03166109d1846103b3565b6001600160a01b031614949350505050565b826001600160a01b03166109f68261060e565b6001600160a01b031614610a725760405162461bcd60e51b815260206004820152602560248201527f4552433732313a207472616e736665722066726f6d20696e636f72726563742060448201527f6f776e6572000000000000000000000000000000000000000000000000000000606482015260840161044e565b6001600160a01b038216610ad45760405162461bcd60e51b8152602060048201526024808201527f4552433732313a207472616e7366657220746f20746865207a65726f206164646044820152637265737360e01b606482015260840161044e565b600081815260066020908152604080832080546001600160a01b03191690556001600160a01b038616835260059091528120805460019290610b179084906114f4565b90915550506001600160a01b0382166000908152600560205260408120805460019290610b459084906114dc565b909155505060008181526003602052604080822080546001600160a01b0319166001600160a01b0386811691821790925591518493918716917fddf252ad1be2c89b69c2b068fc378daa952ba7f163c4a11628f55a4df523b3ef91a4505050565b6000610bb18261060e565b9050600082815260066020908152604080832080546001600160a01b03191690556001600160a01b038416835260059091528120805460019290610bf69084906114f4565b909155505060008281526003602052604080822080546001600160a01b0319169055518391906001600160a01b038416907fddf252ad1be2c89b69c2b068fc378daa952ba7f163c4a11628f55a4df523b3ef908390a45050565b816001600160a01b0316836001600160a01b031603610cb15760405162461bcd60e51b815260206004820152601960248201527f4552433732313a20617070726f766520746f2063616c6c657200000000000000604482015260640161044e565b6001600160a01b03838116600081815260076020908152604080832094871680845294825291829020805460ff191686151590811790915591519182527f17307eab39ab6107e8899845ad3d59bd9653f200f220920489ca2b5937696c31910160405180910390a3505050565b610d298484846109e3565b610d3584848484610db6565b6107a35760405162461bcd60e51b815260206004820152603260248201527f4552433732313a207472616e7366657220746f206e6f6e20455243373231526560448201527131b2b4bb32b91034b6b83632b6b2b73a32b960711b606482015260840161044e565b610727828260405180602001604052806000815250610eff565b60006001600160a01b0384163b15610ef757604051630a85bd0160e11b81526001600160a01b0385169063150b7a0290610dfa90339089908890889060040161150b565b6020604051808303816000875af1925050508015610e35575060408051601f3d908101601f19168201909252610e3291810190611547565b60015b610edd573d808015610e63576040519150601f19603f3d011682016040523d82523d6000602084013e610e68565b606091505b508051600003610ed55760405162461bcd60e51b815260206004820152603260248201527f4552433732313a207472616e7366657220746f206e6f6e20455243373231526560448201527131b2b4bb32b91034b6b83632b6b2b73a32b960711b606482015260840161044e565b805181602001fd5b6001600160e01b031916630a85bd0160e11b149050610568565b506001610568565b610f098383610f7d565b610f166000848484610db6565b6104ef5760405162461bcd60e51b815260206004820152603260248201527f4552433732313a207472616e7366657220746f206e6f6e20455243373231526560448201527131b2b4bb32b91034b6b83632b6b2b73a32b960711b606482015260840161044e565b6001600160a01b038216610fd35760405162461bcd60e51b815260206004820181905260248201527f4552433732313a206d696e7420746f20746865207a65726f2061646472657373604482015260640161044e565b6000818152600360205260409020546001600160a01b0316156110385760405162461bcd60e51b815260206004820152601c60248201527f4552433732313a20746f6b656e20616c7265616479206d696e74656400000000604482015260640161044e565b6001600160a01b03821660009081526005602052604081208054600192906110619084906114dc565b909155505060008181526003602052604080822080546001600160a01b0319166001600160a01b03861690811790915590518392907fddf252ad1be2c89b69c2b068fc378daa952ba7f163c4a11628f55a4df523b3ef908290a45050565b8280546110cb9061148c565b90600052602060002090601f0160209004810192826110ed5760008555611133565b82601f106111065782800160ff19823516178555611133565b82800160010185558215611133579182015b82811115611133578235825591602001919060010190611118565b5061113f929150611143565b5090565b5b8082111561113f5760008155600101611144565b6001600160e01b03198116811461060b57600080fd5b60006020828403121561118057600080fd5b813561118b81611158565b9392505050565b6000815180845260005b818110156111b85760208185018101518683018201520161119c565b818111156111ca576000602083870101525b50601f01601f19169290920160200192915050565b60208152600061118b6020830184611192565b60006020828403121561120457600080fd5b5035919050565b80356001600160a01b038116811461122257600080fd5b919050565b6000806040838503121561123a57600080fd5b6112438361120b565b946020939093013593505050565b634e487b7160e01b600052604160045260246000fd5b6000806000806080858703121561127d57600080fd5b6112868561120b565b93506112946020860161120b565b925060408501359150606085013567ffffffffffffffff808211156112b857600080fd5b818701915087601f8301126112cc57600080fd5b8135818111156112de576112de611251565b604051601f8201601f19908116603f0116810190838211818310171561130657611306611251565b816040528281528a602084870101111561131f57600080fd5b82602086016020830137600060208483010152809550505050505092959194509250565b60008060006060848603121561135857600080fd5b6113618461120b565b925061136f6020850161120b565b9150604084013590509250925092565b60006020828403121561139157600080fd5b61118b8261120b565b600080604083850312156113ad57600080fd5b6113b68361120b565b9150602083013580151581146113cb57600080fd5b809150509250929050565b6000806000604084860312156113eb57600080fd5b6113f48461120b565b9250602084013567ffffffffffffffff8082111561141157600080fd5b818601915086601f83011261142557600080fd5b81358181111561143457600080fd5b87602082850101111561144657600080fd5b6020830194508093505050509250925092565b6000806040838503121561146c57600080fd5b6114758361120b565b91506114836020840161120b565b90509250929050565b600181811c908216806114a057607f821691505b6020821081036114c057634e487b7160e01b600052602260045260246000fd5b50919050565b634e487b7160e01b600052601160045260246000fd5b600082198211156114ef576114ef6114c6565b500190565b600082821015611506576115066114c6565b500390565b60006001600160a01b0380871683528086166020840152508360408301526080606083015261153d6080830184611192565b9695505050505050565b60006020828403121561155957600080fd5b815161118b8161115856fea26469706673582212203d4ffccedb908a9c0d1971ac9c2b82d9d0784c4a04acf21dd95ee1e38f5a81fb64736f6c634300080d0033",
      "opcodes": "PUSH1 0x80 PUSH1 0x40 MSTORE CALLVALUE DUP1 ISZERO PUSH3 0x11 JUMPI PUSH1 0x0 DUP1 REVERT JUMPDEST POP PUSH1 0x40 MLOAD PUSH3 0x182B CODESIZE SUB DUP1 PUSH3 0x182B DUP4 CODECOPY DUP2 ADD PUSH1 0x40 DUP2 SWAP1 MSTORE PUSH3 0x34 SWAP2 PUSH3 0x1DB JUMP JUMPDEST DUP2 MLOAD PUSH3 0x49 SWAP1 PUSH1 0x0 SWAP1 PUSH1 0x20 DUP6 ADD SWAP1 PUSH3 0x68 JUMP JUMPDEST POP DUP1 MLOAD PUSH3 0x5F SWAP1 PUSH1 0x1 SWAP1 PUSH1 0x20 DUP5 ADD SWAP1 PUSH3 0x68 JUMP JUMPDEST POP POP POP PUSH3 0x281 JUMP JUMPDEST DUP3 DUP1 SLOAD PUSH3 0x76 SWAP1 PUSH3 0x245 JUMP JUMPDEST SWAP1 PUSH1 0x0 MSTORE PUSH1 0x20 PUSH1 0x0 KECCAK256 SWAP1 PUSH1 0x1F ADD PUSH1 0x20 SWAP1 DIV DUP2 ADD SWAP3 DUP3 PUSH3 0x9A JUMPI PUSH1 0x0 DUP6 SSTORE PUSH3 0xE5 JUMP JUMPDEST DUP3 PUSH1 0x1F LT PUSH3 0xB5 JUMPI DUP1 MLOAD PUSH1 0xFF NOT AND DUP4 DUP1 ADD OR DUP6 SSTORE PUSH3 0xE5 JUMP JUMPDEST DUP3 DUP1 ADD PUSH1 0x1 ADD DUP6 SSTORE DUP3 ISZERO PUSH3 0xE5 JUMPI SWAP2 DUP3 ADD JUMPDEST DUP3 DUP2 GT ISZERO PUSH3 0xE5 JUMPI DUP3 MLOAD DUP3 SSTORE SWAP2 PUSH1 0x20 ADD SWAP2 SWAP1 PUSH1 0x1 ADD SWAP1 PUSH3 0xC8 JUMP JUMPDEST POP PUSH3 0xF3 SWAP3 SWAP2 POP PUSH3 0xF7 JUMP JUMPDEST POP SWAP1 JUMP JUMPDEST JUMPDEST DUP1 DUP3 GT ISZERO PUSH3 0xF3 JUMPI PUSH1 0x0 DUP2 SSTORE PUSH1 0x1 ADD PUSH3 0xF8 JUMP JUMPDEST PUSH4 0x4E487B71 PUSH1 0xE0 SHL PUSH1 0x0 MSTORE PUSH1 0x41 PUSH1 0x4 MSTORE PUSH1 0x24 PUSH1 0x0 REVERT JUMPDEST PUSH1 0x0 DUP3 PUSH1 0x1F DUP4 ADD SLT PUSH3 0x136 JUMPI PUSH1 0x0 DUP1 REVERT JUMPDEST DUP2 MLOAD PUSH1 0x1 PUSH1 0x1 PUSH1 0x40 SHL SUB DUP1 DUP3 GT ISZERO PUSH3 0x153 JUMPI PUSH3 0x153 PUSH3 0x10E JUMP JUMPDEST PUSH1 0x40 MLOAD PUSH1 0x1F DUP4 ADD PUSH1 0x1F NOT SWAP1 DUP2 AND PUSH1 0x3F ADD AND DUP2 ADD SWAP1 DUP3 DUP3 GT DUP2 DUP4 LT OR ISZERO PUSH3 0x17E JUMPI PUSH3 0x17E PUSH3 0x10E JUMP JUMPDEST DUP2 PUSH1 0x40 MSTORE DUP4 DUP2 MSTORE PUSH1 0x20 SWAP3 POP DUP7 DUP4 DUP6 DUP9 ADD ADD GT ISZERO PUSH3 0x19B JUMPI PUSH1 0x0 DUP1 REVERT JUMPDEST PUSH1 0x0 SWAP2 POP JUMPDEST DUP4 DUP3 LT ISZERO PUSH3 0x1BF JUMPI DUP6 DUP3 ADD DUP4 ADD MLOAD DUP2 DUP4 ADD DUP5 ADD MSTORE SWAP1 DUP3 ADD SWAP1 PUSH3 0x1A0 JUMP JUMPDEST DUP4 DUP3 GT ISZERO PUSH3 0x1D1 JUMPI PUSH1 0x0 DUP4 DUP6 DUP4 ADD ADD MSTORE JUMPDEST SWAP7 SWAP6 POP POP POP POP POP POP JUMP JUMPDEST PUSH1 0x0 DUP1 PUSH1 0x40 DUP4 DUP6 SUB SLT ISZERO PUSH3 0x1EF JUMPI PUSH1 0x0 DUP1 REVERT JUMPDEST DUP3 MLOAD PUSH1 0x1 PUSH1 0x1 PUSH1 0x40 SHL SUB DUP1 DUP3 GT ISZERO PUSH3 0x207 JUMPI PUSH1 0x0 DUP1 REVERT JUMPDEST PUSH3 0x215 DUP7 DUP4 DUP8 ADD PUSH3 0x124 JUMP JUMPDEST SWAP4 POP PUSH1 0x20 DUP6 ADD MLOAD SWAP2 POP DUP1 DUP3 GT ISZERO PUSH3 0x22C JUMPI PUSH1 0x0 DUP1 REVERT JUMPDEST POP PUSH3 0x23B DUP6 DUP3 DUP7 ADD PUSH3 0x124 JUMP JUMPDEST SWAP2 POP POP SWAP3 POP SWAP3 SWAP1 POP JUMP JUMPDEST PUSH1 0x1 DUP2 DUP2 SHR SWAP1 DUP3 AND DUP1 PUSH3 0x25A JUMPI PUSH1 0x7F DUP3 AND SWAP2 POP JUMPDEST PUSH1 0x20 DUP3 LT DUP2 SUB PUSH3 0x27B JUMPI PUSH4 0x4E487B71 PUSH1 0xE0 SHL PUSH1 0x0 MSTORE PUSH1 0x22 PUSH1 0x4 MSTORE PUSH1 0x24 PUSH1 0x0 REVERT JUMPDEST POP SWAP2 SWAP1 POP JUMP JUMPDEST PUSH2 0x159A DUP1 PUSH3 0x291 PUSH1 0x0 CODECOPY PUSH1 0x0 RETURN INVALID PUSH1 0x80 PUSH1 0x40 MSTORE CALLVALUE DUP1 ISZERO PUSH2 0x10 JUMPI PUSH1 0x0 DUP1 REVERT JUMPDEST POP PUSH1 0x4 CALLDATASIZE LT PUSH2 0x11B JUMPI PUSH1 0x0 CALLDATALOAD PUSH1 0xE0 SHR DUP1 PUSH4 0x42966C68 GT PUSH2 0xB2 JUMPI DUP1 PUSH4 0xA22CB465 GT PUSH2 0x81 JUMPI DUP1 PUSH4 0xC87B56DD GT PUSH2 0x66 JUMPI DUP1 PUSH4 0xC87B56DD EQ PUSH2 0x26D JUMPI DUP1 PUSH4 0xD0DEF521 EQ PUSH2 0x280 JUMPI DUP1 PUSH4 0xE985E9C5 EQ PUSH2 0x293 JUMPI PUSH1 0x0 DUP1 REVERT JUMPDEST DUP1 PUSH4 0xA22CB465 EQ PUSH2 0x247 JUMPI DUP1 PUSH4 0xB88D4FDE EQ PUSH2 0x25A JUMPI PUSH1 0x0 DUP1 REVERT JUMPDEST DUP1 PUSH4 0x42966C68 EQ PUSH2 0x206 JUMPI DUP1 PUSH4 0x6352211E EQ PUSH2 0x219 JUMPI DUP1 PUSH4 0x70A08231 EQ PUSH2 0x22C JUMPI DUP1 PUSH4 0x95D89B41 EQ PUSH2 0x23F JUMPI PUSH1 0x0 DUP1 REVERT JUMPDEST DUP1 PUSH4 0x150B7A02 GT PUSH2 0xEE JUMPI DUP1 PUSH4 0x150B7A02 EQ PUSH2 0x19D JUMPI DUP1 PUSH4 0x23B872DD EQ PUSH2 0x1C9 JUMPI DUP1 PUSH4 0x3B1475A7 EQ PUSH2 0x1DC JUMPI DUP1 PUSH4 0x42842E0E EQ PUSH2 0x1F3 JUMPI PUSH1 0x0 DUP1 REVERT JUMPDEST DUP1 PUSH4 0x1FFC9A7 EQ PUSH2 0x120 JUMPI DUP1 PUSH4 0x6FDDE03 EQ PUSH2 0x148 JUMPI DUP1 PUSH4 0x81812FC EQ PUSH2 0x15D JUMPI DUP1 PUSH4 0x95EA7B3 EQ PUSH2 0x188 JUMPI JUMPDEST PUSH1 0x0 DUP1 REVERT JUMPDEST PUSH2 0x133 PUSH2 0x12E CALLDATASIZE PUSH1 0x4 PUSH2 0x116E JUMP JUMPDEST PUSH2 0x2CF JUMP JUMPDEST PUSH1 0x40 MLOAD SWAP1 ISZERO ISZERO DUP2 MSTORE PUSH1 0x20 ADD JUMPDEST PUSH1 0x40 MLOAD DUP1 SWAP2 SUB SWAP1 RETURN JUMPDEST PUSH2 0x150 PUSH2 0x321 JUMP JUMPDEST PUSH1 0x40 MLOAD PUSH2 0x13F SWAP2 SWAP1 PUSH2 0x11DF JUMP JUMPDEST PUSH2 0x170 PUSH2 0x16B CALLDATASIZE PUSH1 0x4 PUSH2 0x11F2 JUMP JUMPDEST PUSH2 0x3B3 JUMP JUMPDEST PUSH1 0x40 MLOAD PUSH1 0x1 PUSH1 0x1 PUSH1 0xA0 SHL SUB SWAP1 SWAP2 AND DUP2 MSTORE PUSH1 0x20 ADD PUSH2 0x13F JUMP JUMPDEST PUSH2 0x19B PUSH2 0x196 CALLDATASIZE PUSH1 0x4 PUSH2 0x1227 JUMP JUMPDEST PUSH2 0x3DA JUMP JUMPDEST STOP JUMPDEST PUSH2 0x1B0 PUSH2 0x1AB CALLDATASIZE PUSH1 0x4 PUSH2 0x1267 JUMP JUMPDEST PUSH2 0x4F4 JUMP JUMPDEST PUSH1 0x40 MLOAD PUSH1 0x1 PUSH1 0x1 PUSH1 0xE0 SHL SUB NOT SWAP1 SWAP2 AND DUP2 MSTORE PUSH1 0x20 ADD PUSH2 0x13F JUMP JUMPDEST PUSH2 0x19B PUSH2 0x1D7 CALLDATASIZE PUSH1 0x4 PUSH2 0x1343 JUMP JUMPDEST PUSH2 0x570 JUMP JUMPDEST PUSH2 0x1E5 PUSH1 0x2 SLOAD DUP2 JUMP JUMPDEST PUSH1 0x40 MLOAD SWAP1 DUP2 MSTORE PUSH1 0x20 ADD PUSH2 0x13F JUMP JUMPDEST PUSH2 0x19B PUSH2 0x201 CALLDATASIZE PUSH1 0x4 PUSH2 0x1343 JUMP JUMPDEST PUSH2 0x5E7 JUMP JUMPDEST PUSH2 0x19B PUSH2 0x214 CALLDATASIZE PUSH1 0x4 PUSH2 0x11F2 JUMP JUMPDEST PUSH2 0x602 JUMP JUMPDEST PUSH2 0x170 PUSH2 0x227 CALLDATASIZE PUSH1 0x4 PUSH2 0x11F2 JUMP JUMPDEST PUSH2 0x60E JUMP JUMPDEST PUSH2 0x1E5 PUSH2 0x23A CALLDATASIZE PUSH1 0x4 PUSH2 0x137F JUMP JUMPDEST PUSH2 0x673 JUMP JUMPDEST PUSH2 0x150 PUSH2 0x70D JUMP JUMPDEST PUSH2 0x19B PUSH2 0x255 CALLDATASIZE PUSH1 0x4 PUSH2 0x139A JUMP JUMPDEST PUSH2 0x71C JUMP JUMPDEST PUSH2 0x19B PUSH2 0x268 CALLDATASIZE PUSH1 0x4 PUSH2 0x1267 JUMP JUMPDEST PUSH2 0x72B JUMP JUMPDEST PUSH2 0x150 PUSH2 0x27B CALLDATASIZE PUSH1 0x4 PUSH2 0x11F2 JUMP JUMPDEST PUSH2 0x7A9 JUMP JUMPDEST PUSH2 0x19B PUSH2 0x28E CALLDATASIZE PUSH1 0x4 PUSH2 0x13D6 JUMP JUMPDEST PUSH2 0x852 JUMP JUMPDEST PUSH2 0x133 PUSH2 0x2A1 CALLDATASIZE PUSH1 0x4 PUSH2 0x1459 JUMP JUMPDEST PUSH1 0x1 PUSH1 0x1 PUSH1 0xA0 SHL SUB SWAP2 DUP3 AND PUSH1 0x0 SWAP1 DUP2 MSTORE PUSH1 0x7 PUSH1 0x20 SWAP1 DUP2 MSTORE PUSH1 0x40 DUP1 DUP4 KECCAK256 SWAP4 SWAP1 SWAP5 AND DUP3 MSTORE SWAP2 SWAP1 SWAP2 MSTORE KECCAK256 SLOAD PUSH1 0xFF AND SWAP1 JUMP JUMPDEST PUSH1 0x0 PUSH1 0x1 PUSH1 0x1 PUSH1 0xE0 SHL SUB NOT DUP3 AND PUSH4 0x80AC58CD PUSH1 0xE0 SHL EQ DUP1 PUSH2 0x300 JUMPI POP PUSH1 0x1 PUSH1 0x1 PUSH1 0xE0 SHL SUB NOT DUP3 AND PUSH4 0x5B5E139F PUSH1 0xE0 SHL EQ JUMPDEST DUP1 PUSH2 0x31B JUMPI POP PUSH4 0x1FFC9A7 PUSH1 0xE0 SHL PUSH1 0x1 PUSH1 0x1 PUSH1 0xE0 SHL SUB NOT DUP4 AND EQ JUMPDEST SWAP3 SWAP2 POP POP JUMP JUMPDEST PUSH1 0x60 PUSH1 0x0 DUP1 SLOAD PUSH2 0x330 SWAP1 PUSH2 0x148C JUMP JUMPDEST DUP1 PUSH1 0x1F ADD PUSH1 0x20 DUP1 SWAP2 DIV MUL PUSH1 0x20 ADD PUSH1 0x40 MLOAD SWAP1 DUP2 ADD PUSH1 0x40 MSTORE DUP1 SWAP3 SWAP2 SWAP1 DUP2 DUP2 MSTORE PUSH1 0x20 ADD DUP3 DUP1 SLOAD PUSH2 0x35C SWAP1 PUSH2 0x148C JUMP JUMPDEST DUP1 ISZERO PUSH2 0x3A9 JUMPI DUP1 PUSH1 0x1F LT PUSH2 0x37E JUMPI PUSH2 0x100 DUP1 DUP4 SLOAD DIV MUL DUP4 MSTORE SWAP2 PUSH1 0x20 ADD SWAP2 PUSH2 0x3A9 JUMP JUMPDEST DUP3 ADD SWAP2 SWAP1 PUSH1 0x0 MSTORE PUSH1 0x20 PUSH1 0x0 KECCAK256 SWAP1 JUMPDEST DUP2 SLOAD DUP2 MSTORE SWAP1 PUSH1 0x1 ADD SWAP1 PUSH1 0x20 ADD DUP1 DUP4 GT PUSH2 0x38C JUMPI DUP3 SWAP1 SUB PUSH1 0x1F AND DUP3 ADD SWAP2 JUMPDEST POP POP POP POP POP SWAP1 POP SWAP1 JUMP JUMPDEST PUSH1 0x0 PUSH2 0x3BE DUP3 PUSH2 0x893 JUMP JUMPDEST POP PUSH1 0x0 SWAP1 DUP2 MSTORE PUSH1 0x6 PUSH1 0x20 MSTORE PUSH1 0x40 SWAP1 KECCAK256 SLOAD PUSH1 0x1 PUSH1 0x1 PUSH1 0xA0 SHL SUB AND SWAP1 JUMP JUMPDEST PUSH1 0x0 PUSH2 0x3E5 DUP3 PUSH2 0x60E JUMP JUMPDEST SWAP1 POP DUP1 PUSH1 0x1 PUSH1 0x1 PUSH1 0xA0 SHL SUB AND DUP4 PUSH1 0x1 PUSH1 0x1 PUSH1 0xA0 SHL SUB AND SUB PUSH2 0x457 JUMPI PUSH1 0x40 MLOAD PUSH3 0x461BCD PUSH1 0xE5 SHL DUP2 MSTORE PUSH1 0x20 PUSH1 0x4 DUP3 ADD MSTORE PUSH1 0x21 PUSH1 0x24 DUP3 ADD MSTORE PUSH32 0x4552433732313A20617070726F76616C20746F2063757272656E74206F776E65 PUSH1 0x44 DUP3 ADD MSTORE PUSH1 0x39 PUSH1 0xF9 SHL PUSH1 0x64 DUP3 ADD MSTORE PUSH1 0x84 ADD JUMPDEST PUSH1 0x40 MLOAD DUP1 SWAP2 SUB SWAP1 REVERT JUMPDEST CALLER PUSH1 0x1 PUSH1 0x1 PUSH1 0xA0 SHL SUB DUP3 AND EQ DUP1 PUSH2 0x473 JUMPI POP PUSH2 0x473 DUP2 CALLER PUSH2 0x2A1 JUMP JUMPDEST PUSH2 0x4E5 JUMPI PUSH1 0x40 MLOAD PUSH3 0x461BCD PUSH1 0xE5 SHL DUP2 MSTORE PUSH1 0x20 PUSH1 0x4 DUP3 ADD MSTORE PUSH1 0x3D PUSH1 0x24 DUP3 ADD MSTORE PUSH32 0x4552433732313A20617070726F76652063616C6C6572206973206E6F7420746F PUSH1 0x44 DUP3 ADD MSTORE PUSH32 0x6B656E206F776E6572206F7220617070726F76656420666F7220616C6C000000 PUSH1 0x64 DUP3 ADD MSTORE PUSH1 0x84 ADD PUSH2 0x44E JUMP JUMPDEST PUSH2 0x4EF DUP4 DUP4 PUSH2 0x8F7 JUMP JUMPDEST POP POP POP JUMP JUMPDEST PUSH1 0x1 PUSH1 0x1 PUSH1 0xA0 SHL SUB DUP4 DUP2 AND PUSH1 0x0 DUP2 DUP2 MSTORE PUSH1 0x7 PUSH1 0x20 SWAP1 DUP2 MSTORE PUSH1 0x40 DUP1 DUP4 KECCAK256 SWAP5 DUP10 AND DUP1 DUP5 MSTORE SWAP5 DUP3 MSTORE DUP1 DUP4 KECCAK256 DUP1 SLOAD PUSH1 0xFF NOT AND PUSH1 0x1 SWAP1 DUP2 OR SWAP1 SWAP2 SSTORE SWAP1 MLOAD SWAP1 DUP2 MSTORE SWAP2 SWAP4 SWAP3 SWAP2 PUSH32 0x17307EAB39AB6107E8899845AD3D59BD9653F200F220920489CA2B5937696C31 SWAP2 ADD PUSH1 0x40 MLOAD DUP1 SWAP2 SUB SWAP1 LOG3 POP PUSH4 0xA85BD01 PUSH1 0xE1 SHL JUMPDEST SWAP5 SWAP4 POP POP POP POP JUMP JUMPDEST PUSH2 0x57A CALLER DUP3 PUSH2 0x965 JUMP JUMPDEST PUSH2 0x5DC JUMPI PUSH1 0x40 MLOAD PUSH3 0x461BCD PUSH1 0xE5 SHL DUP2 MSTORE PUSH1 0x20 PUSH1 0x4 DUP3 ADD MSTORE PUSH1 0x2D PUSH1 0x24 DUP3 ADD MSTORE PUSH32 0x4552433732313A2063616C6C6572206973206E6F7420746F6B656E206F776E65 PUSH1 0x44 DUP3 ADD MSTORE PUSH13 0x1C881BDC88185C1C1C9BDD9959 PUSH1 0x9A SHL PUSH1 0x64 DUP3 ADD MSTORE PUSH1 0x84 ADD PUSH2 0x44E JUMP JUMPDEST PUSH2 0x4EF DUP4 DUP4 DUP4 PUSH2 0x9E3 JUMP JUMPDEST PUSH2 0x4EF DUP4 DUP4 DUP4 PUSH1 0x40 MLOAD DUP1 PUSH1 0x20 ADD PUSH1 0x40 MSTORE DUP1 PUSH1 0x0 DUP2 MSTORE POP PUSH2 0x72B JUMP JUMPDEST PUSH2 0x60B DUP2 PUSH2 0xBA6 JUMP JUMPDEST POP JUMP JUMPDEST PUSH1 0x0 DUP2 DUP2 MSTORE PUSH1 0x3 PUSH1 0x20 MSTORE PUSH1 0x40 DUP2 KECCAK256 SLOAD PUSH1 0x1 PUSH1 0x1 PUSH1 0xA0 SHL SUB AND DUP1 PUSH2 0x31B JUMPI PUSH1 0x40 MLOAD PUSH3 0x461BCD PUSH1 0xE5 SHL DUP2 MSTORE PUSH1 0x20 PUSH1 0x4 DUP3 ADD MSTORE PUSH1 0x18 PUSH1 0x24 DUP3 ADD MSTORE PUSH32 0x4552433732313A20696E76616C696420746F6B656E2049440000000000000000 PUSH1 0x44 DUP3 ADD MSTORE PUSH1 0x64 ADD PUSH2 0x44E JUMP JUMPDEST PUSH1 0x0 PUSH1 0x1 PUSH1 0x1 PUSH1 0xA0 SHL SUB DUP3 AND PUSH2 0x6F1 JUMPI PUSH1 0x40 MLOAD PUSH3 0x461BCD PUSH1 0xE5 SHL DUP2 MSTORE PUSH1 0x20 PUSH1 0x4 DUP3 ADD MSTORE PUSH1 0x29 PUSH1 0x24 DUP3 ADD MSTORE PUSH32 0x4552433732313A2061646472657373207A65726F206973206E6F742061207661 PUSH1 0x44 DUP3 ADD MSTORE PUSH32 0x6C6964206F776E65720000000000000000000000000000000000000000000000 PUSH1 0x64 DUP3 ADD MSTORE PUSH1 0x84 ADD PUSH2 0x44E JUMP JUMPDEST POP PUSH1 0x1 PUSH1 0x1 PUSH1 0xA0 SHL SUB AND PUSH1 0x0 SWAP1 DUP2 MSTORE PUSH1 0x5 PUSH1 0x20 MSTORE PUSH1 0x40 SWAP1 KECCAK256 SLOAD SWAP1 JUMP JUMPDEST PUSH1 0x60 PUSH1 0x1 DUP1 SLOAD PUSH2 0x330 SWAP1 PUSH2 0x148C JUMP JUMPDEST PUSH2 0x727 CALLER DUP4 DUP4 PUSH2 0xC50 JUMP JUMPDEST POP POP JUMP JUMPDEST PUSH2 0x735 CALLER DUP4 PUSH2 0x965 JUMP JUMPDEST PUSH2 0x797 JUMPI PUSH1 0x40 MLOAD PUSH3 0x461BCD PUSH1 0xE5 SHL DUP2 MSTORE PUSH1 0x20 PUSH1 0x4 DUP3 ADD MSTORE PUSH1 0x2D PUSH1 0x24 DUP3 ADD MSTORE PUSH32 0x4552433732313A2063616C6C6572206973206E6F7420746F6B656E206F776E65 PUSH1 0x44 DUP3 ADD MSTORE PUSH13 0x1C881BDC88185C1C1C9BDD9959 PUSH1 0x9A SHL PUSH1 0x64 DUP3 ADD MSTORE PUSH1 0x84 ADD PUSH2 0x44E JUMP JUMPDEST PUSH2 0x7A3 DUP5 DUP5 DUP5 DUP5 PUSH2 0xD1E JUMP JUMPDEST POP POP POP POP JUMP JUMPDEST PUSH1 0x60 PUSH2 0x7B4 DUP3 PUSH2 0x893 JUMP JUMPDEST PUSH1 0x0 DUP3 DUP2 MSTORE PUSH1 0x4 PUSH1 0x20 MSTORE PUSH1 0x40 SWAP1 KECCAK256 DUP1 SLOAD PUSH2 0x7CD SWAP1 PUSH2 0x148C JUMP JUMPDEST DUP1 PUSH1 0x1F ADD PUSH1 0x20 DUP1 SWAP2 DIV MUL PUSH1 0x20 ADD PUSH1 0x40 MLOAD SWAP1 DUP2 ADD PUSH1 0x40 MSTORE DUP1 SWAP3 SWAP2 SWAP1 DUP2 DUP2 MSTORE PUSH1 0x20 ADD DUP3 DUP1 SLOAD PUSH2 0x7F9 SWAP1 PUSH2 0x148C JUMP JUMPDEST DUP1 ISZERO PUSH2 0x846 JUMPI DUP1 PUSH1 0x1F LT PUSH2 0x81B JUMPI PUSH2 0x100 DUP1 DUP4 SLOAD DIV MUL DUP4 MSTORE SWAP2 PUSH1 0x20 ADD SWAP2 PUSH2 0x846 JUMP JUMPDEST DUP3 ADD SWAP2 SWAP1 PUSH1 0x0 MSTORE PUSH1 0x20 PUSH1 0x0 KECCAK256 SWAP1 JUMPDEST DUP2 SLOAD DUP2 MSTORE SWAP1 PUSH1 0x1 ADD SWAP1 PUSH1 0x20 ADD DUP1 DUP4 GT PUSH2 0x829 JUMPI DUP3 SWAP1 SUB PUSH1 0x1F AND DUP3 ADD SWAP2 JUMPDEST POP POP POP POP POP SWAP1 POP SWAP2 SWAP1 POP JUMP JUMPDEST PUSH1 0x1 PUSH1 0x2 PUSH1 0x0 DUP3 DUP3 SLOAD PUSH2 0x865 SWAP2 SWAP1 PUSH2 0x14DC JUMP JUMPDEST SWAP1 SWAP2 SSTORE POP POP PUSH1 0x2 SLOAD PUSH1 0x0 SWAP1 DUP2 MSTORE PUSH1 0x4 PUSH1 0x20 MSTORE PUSH1 0x40 SWAP1 KECCAK256 PUSH2 0x886 SWAP1 DUP4 DUP4 PUSH2 0x10BF JUMP JUMPDEST POP PUSH2 0x4EF DUP4 PUSH1 0x2 SLOAD PUSH2 0xD9C JUMP JUMPDEST PUSH1 0x0 DUP2 DUP2 MSTORE PUSH1 0x3 PUSH1 0x20 MSTORE PUSH1 0x40 SWAP1 KECCAK256 SLOAD PUSH1 0x1 PUSH1 0x1 PUSH1 0xA0 SHL SUB AND PUSH2 0x60B JUMPI PUSH1 0x40 MLOAD PUSH3 0x461BCD PUSH1 0xE5 SHL DUP2 MSTORE PUSH1 0x20 PUSH1 0x4 DUP3 ADD MSTORE PUSH1 0x18 PUSH1 0x24 DUP3 ADD MSTORE PUSH32 0x4552433732313A20696E76616C696420746F6B656E2049440000000000000000 PUSH1 0x44 DUP3 ADD MSTORE PUSH1 0x64 ADD PUSH2 0x44E JUMP JUMPDEST PUSH1 0x0 DUP2 DUP2 MSTORE PUSH1 0x6 PUSH1 0x20 MSTORE PUSH1 0x40 SWAP1 KECCAK256 DUP1 SLOAD PUSH1 0x1 PUSH1 0x1 PUSH1 0xA0 SHL SUB NOT AND PUSH1 0x1 PUSH1 0x1 PUSH1 0xA0 SHL SUB DUP5 AND SWAP1 DUP2 OR SWAP1 SWAP2 SSTORE DUP2 SWAP1 PUSH2 0x92C DUP3 PUSH2 0x60E JUMP JUMPDEST PUSH1 0x1 PUSH1 0x1 PUSH1 0xA0 SHL SUB AND PUSH32 0x8C5BE1E5EBEC7D5BD14F71427D1E84F3DD0314C0F7B2291E5B200AC8C7C3B925 PUSH1 0x40 MLOAD PUSH1 0x40 MLOAD DUP1 SWAP2 SUB SWAP1 LOG4 POP POP JUMP JUMPDEST PUSH1 0x0 DUP1 PUSH2 0x971 DUP4 PUSH2 0x60E JUMP JUMPDEST SWAP1 POP DUP1 PUSH1 0x1 PUSH1 0x1 PUSH1 0xA0 SHL SUB AND DUP5 PUSH1 0x1 PUSH1 0x1 PUSH1 0xA0 SHL SUB AND EQ DUP1 PUSH2 0x9B8 JUMPI POP PUSH1 0x1 PUSH1 0x1 PUSH1 0xA0 SHL SUB DUP1 DUP3 AND PUSH1 0x0 SWAP1 DUP2 MSTORE PUSH1 0x7 PUSH1 0x20 SWAP1 DUP2 MSTORE PUSH1 0x40 DUP1 DUP4 KECCAK256 SWAP4 DUP9 AND DUP4 MSTORE SWAP3 SWAP1 MSTORE KECCAK256 SLOAD PUSH1 0xFF AND JUMPDEST DUP1 PUSH2 0x568 JUMPI POP DUP4 PUSH1 0x1 PUSH1 0x1 PUSH1 0xA0 SHL SUB AND PUSH2 0x9D1 DUP5 PUSH2 0x3B3 JUMP JUMPDEST PUSH1 0x1 PUSH1 0x1 PUSH1 0xA0 SHL SUB AND EQ SWAP5 SWAP4 POP POP POP POP JUMP JUMPDEST DUP3 PUSH1 0x1 PUSH1 0x1 PUSH1 0xA0 SHL SUB AND PUSH2 0x9F6 DUP3 PUSH2 0x60E JUMP JUMPDEST PUSH1 0x1 PUSH1 0x1 PUSH1 0xA0 SHL SUB AND EQ PUSH2 0xA72 JUMPI PUSH1 0x40 MLOAD PUSH3 0x461BCD PUSH1 0xE5 SHL DUP2 MSTORE PUSH1 0x20 PUSH1 0x4 DUP3 ADD MSTORE PUSH1 0x25 PUSH1 0x24 DUP3 ADD MSTORE PUSH32 0x4552433732313A207472616E736665722066726F6D20696E636F727265637420 PUSH1 0x44 DUP3 ADD MSTORE PUSH32 0x6F776E6572000000000000000000000000000000000000000000000000000000 PUSH1 0x64 DUP3 ADD MSTORE PUSH1 0x84 ADD PUSH2 0x44E JUMP JUMPDEST PUSH1 0x1 PUSH1 0x1 PUSH1 0xA0 SHL SUB DUP3 AND PUSH2 0xAD4 JUMPI PUSH1 0x40 MLOAD PUSH3 0x461BCD PUSH1 0xE5 SHL DUP2 MSTORE PUSH1 0x20 PUSH1 0x4 DUP3 ADD MSTORE PUSH1 0x24 DUP1 DUP3 ADD MSTORE PUSH32 0x4552433732313A207472616E7366657220746F20746865207A65726F20616464 PUSH1 0x44 DUP3 ADD MSTORE PUSH4 0x72657373 PUSH1 0xE0 SHL PUSH1 0x64 DUP3 ADD MSTORE PUSH1 0x84 ADD PUSH2 0x44E JUMP JUMPDEST PUSH1 0x0 DUP2 DUP2 MSTORE PUSH1 0x6 PUSH1 0x20 SWAP1 DUP2 MSTORE PUSH1 0x40 DUP1 DUP4 KECCAK256 DUP1 SLOAD PUSH1 0x1 PUSH1 0x1 PUSH1 0xA0 SHL SUB NOT AND SWAP1 SSTORE PUSH1 0x1 PUSH1 0x1 PUSH1 0xA0 SHL SUB DUP7 AND DUP4 MSTORE PUSH1 0x5 SWAP1 SWAP2 MSTORE DUP2 KECCAK256 DUP1 SLOAD PUSH1 0x1 SWAP3 SWAP1 PUSH2 0xB17 SWAP1 DUP5 SWAP1 PUSH2 0x14F4 JUMP JUMPDEST SWAP1 SWAP2 SSTORE POP POP PUSH1 0x1 PUSH1 0x1 PUSH1 0xA0 SHL SUB DUP3 AND PUSH1 0x0 SWAP1 DUP2 MSTORE PUSH1 0x5 PUSH1 0x20 MSTORE PUSH1 0x40 DUP2 KECCAK256 DUP1 SLOAD PUSH1 0x1 SWAP3 SWAP1 PUSH2 0xB45 SWAP1 DUP5 SWAP1 PUSH2 0x14DC JUMP JUMPDEST SWAP1 SWAP2 SSTORE POP POP PUSH1 0x0 DUP2 DUP2 MSTORE PUSH1 0x3 PUSH1 0x20 MSTORE PUSH1 0x40 DUP1 DUP3 KECCAK256 DUP1 SLOAD PUSH1 0x1 PUSH1 0x1 PUSH1 0xA0 SHL SUB NOT AND PUSH1 0x1 PUSH1 0x1 PUSH1 0xA0 SHL SUB DUP7 DUP2 AND SWAP2 DUP3 OR SWAP1 SWAP3 SSTORE SWAP2 MLOAD DUP5 SWAP4 SWAP2 DUP8 AND SWAP2 PUSH32 0xDDF252AD1BE2C89B69C2B068FC378DAA952BA7F163C4A11628F55A4DF523B3EF SWAP2 LOG4 POP POP POP JUMP JUMPDEST PUSH1 0x0 PUSH2 0xBB1 DUP3 PUSH2 0x60E JUMP JUMPDEST SWAP1 POP PUSH1 0x0 DUP3 DUP2 MSTORE PUSH1 0x6 PUSH1 0x20 SWAP1 DUP2 MSTORE PUSH1 0x40 DUP1 DUP4 KECCAK256 DUP1 SLOAD PUSH1 0x1 PUSH1 0x1 PUSH1 0xA0 SHL SUB NOT AND SWAP1 SSTORE PUSH1 0x1 PUSH1 0x1 PUSH1 0xA0 SHL SUB DUP5 AND DUP4 MSTORE PUSH1 0x5 SWAP1 SWAP2 MSTORE DUP2 KECCAK256 DUP1 SLOAD PUSH1 0x1 SWAP3 SWAP1 PUSH2 0xBF6 SWAP1 DUP5 SWAP1 PUSH2 0x14F4 JUMP JUMPDEST SWAP1 SWAP2 SSTORE POP POP PUSH1 0x0 DUP3 DUP2 MSTORE PUSH1 0x3 PUSH1 0x20 MSTORE PUSH1 0x40 DUP1 DUP3 KECCAK256 DUP1 SLOAD PUSH1 0x1 PUSH1 0x1 PUSH1 0xA0 SHL SUB NOT AND SWAP1 SSTORE MLOAD DUP4 SWAP2 SWAP1 PUSH1 0x1 PUSH1 0x1 PUSH1 0xA0 SHL SUB DUP5 AND SWAP1 PUSH32 0xDDF252AD1BE2C89B69C2B068FC378DAA952BA7F163C4A11628F55A4DF523B3EF SWAP1 DUP4 SWAP1 LOG4 POP POP JUMP JUMPDEST DUP2 PUSH1 0x1 PUSH1 0x1 PUSH1 0xA0 SHL SUB AND DUP4 PUSH1 0x1 PUSH1 0x1 PUSH1 0xA0 SHL SUB AND SUB PUSH2 0xCB1 JUMPI PUSH1 0x40 MLOAD PUSH3 0x461BCD PUSH1 0xE5 SHL DUP2 MSTORE PUSH1 0x20 PUSH1 0x4 DUP3 ADD MSTORE PUSH1 0x19 PUSH1 0x24 DUP3 ADD MSTORE PUSH32 0x4552433732313A20617070726F766520746F2063616C6C657200000000000000 PUSH1 0x44 DUP3 ADD MSTORE PUSH1 0x64 ADD PUSH2 0x44E JUMP JUMPDEST PUSH1 0x1 PUSH1 0x1 PUSH1 0xA0 SHL SUB DUP4 DUP2 AND PUSH1 0x0 DUP2 DUP2 MSTORE PUSH1 0x7 PUSH1 0x20 SWAP1 DUP2 MSTORE PUSH1 0x40 DUP1 DUP4 KECCAK256 SWAP5 DUP8 AND DUP1 DUP5 MSTORE SWAP5 DUP3 MSTORE SWAP2 DUP3 SWAP1 KECCAK256 DUP1 SLOAD PUSH1 0xFF NOT AND DUP7 ISZERO ISZERO SWAP1 DUP2 OR SWAP1 SWAP2 SSTORE SWAP2 MLOAD SWAP2 DUP3 MSTORE PUSH32 0x17307EAB39AB6107E8899845AD3D59BD9653F200F220920489CA2B5937696C31 SWAP2 ADD PUSH1 0x40 MLOAD DUP1 SWAP2 SUB SWAP1 LOG3 POP POP POP JUMP JUMPDEST PUSH2 0xD29 DUP5 DUP5 DUP5 PUSH2 0x9E3 JUMP JUMPDEST PUSH2 0xD35 DUP5 DUP5 DUP5 DUP5 PUSH2 0xDB6 JUMP JUMPDEST PUSH2 0x7A3 JUMPI PUSH1 0x40 MLOAD PUSH3 0x461BCD PUSH1 0xE5 SHL DUP2 MSTORE PUSH1 0x20 PUSH1 0x4 DUP3 ADD MSTORE PUSH1 0x32 PUSH1 0x24 DUP3 ADD MSTORE PUSH32 0x4552433732313A207472616E7366657220746F206E6F6E204552433732315265 PUSH1 0x44 DUP3 ADD MSTORE PUSH18 0x31B2B4BB32B91034B6B83632B6B2B73A32B9 PUSH1 0x71 SHL PUSH1 0x64 DUP3 ADD MSTORE PUSH1 0x84 ADD PUSH2 0x44E JUMP JUMPDEST PUSH2 0x727 DUP3 DUP3 PUSH1 0x40 MLOAD DUP1 PUSH1 0x20 ADD PUSH1 0x40 MSTORE DUP1 PUSH1 0x0 DUP2 MSTORE POP PUSH2 0xEFF JUMP JUMPDEST PUSH1 0x0 PUSH1 0x1 PUSH1 0x1 PUSH1 0xA0 SHL SUB DUP5 AND EXTCODESIZE ISZERO PUSH2 0xEF7 JUMPI PUSH1 0x40 MLOAD PUSH4 0xA85BD01 PUSH1 0xE1 SHL DUP2 MSTORE PUSH1 0x1 PUSH1 0x1 PUSH1 0xA0 SHL SUB DUP6 AND SWAP1 PUSH4 0x150B7A02 SWAP1 PUSH2 0xDFA SWAP1 CALLER SWAP1 DUP10 SWAP1 DUP9 SWAP1 DUP9 SWAP1 PUSH1 0x4 ADD PUSH2 0x150B JUMP JUMPDEST PUSH1 0x20 PUSH1 0x40 MLOAD DUP1 DUP4 SUB DUP2 PUSH1 0x0 DUP8 GAS CALL SWAP3 POP POP POP DUP1 ISZERO PUSH2 0xE35 JUMPI POP PUSH1 0x40 DUP1 MLOAD PUSH1 0x1F RETURNDATASIZE SWAP1 DUP2 ADD PUSH1 0x1F NOT AND DUP3 ADD SWAP1 SWAP3 MSTORE PUSH2 0xE32 SWAP2 DUP2 ADD SWAP1 PUSH2 0x1547 JUMP JUMPDEST PUSH1 0x1 JUMPDEST PUSH2 0xEDD JUMPI RETURNDATASIZE DUP1 DUP1 ISZERO PUSH2 0xE63 JUMPI PUSH1 0x40 MLOAD SWAP2 POP PUSH1 0x1F NOT PUSH1 0x3F RETURNDATASIZE ADD AND DUP3 ADD PUSH1 0x40 MSTORE RETURNDATASIZE DUP3 MSTORE RETURNDATASIZE PUSH1 0x0 PUSH1 0x20 DUP5 ADD RETURNDATACOPY PUSH2 0xE68 JUMP JUMPDEST PUSH1 0x60 SWAP2 POP JUMPDEST POP DUP1 MLOAD PUSH1 0x0 SUB PUSH2 0xED5 JUMPI PUSH1 0x40 MLOAD PUSH3 0x461BCD PUSH1 0xE5 SHL DUP2 MSTORE PUSH1 0x20 PUSH1 0x4 DUP3 ADD MSTORE PUSH1 0x32 PUSH1 0x24 DUP3 ADD MSTORE PUSH32 0x4552433732313A207472616E7366657220746F206E6F6E204552433732315265 PUSH1 0x44 DUP3 ADD MSTORE PUSH18 0x31B2B4BB32B91034B6B83632B6B2B73A32B9 PUSH1 0x71 SHL PUSH1 0x64 DUP3 ADD MSTORE PUSH1 0x84 ADD PUSH2 0x44E JUMP JUMPDEST DUP1 MLOAD DUP2 PUSH1 0x20 ADD REVERT JUMPDEST PUSH1 0x1 PUSH1 0x1 PUSH1 0xE0 SHL SUB NOT AND PUSH4 0xA85BD01 PUSH1 0xE1 SHL EQ SWAP1 POP PUSH2 0x568 JUMP JUMPDEST POP PUSH1 0x1 PUSH2 0x568 JUMP JUMPDEST PUSH2 0xF09 DUP4 DUP4 PUSH2 0xF7D JUMP JUMPDEST PUSH2 0xF16 PUSH1 0x0 DUP5 DUP5 DUP5 PUSH2 0xDB6 JUMP JUMPDEST PUSH2 0x4EF JUMPI PUSH1 0x40 MLOAD PUSH3 0x461BCD PUSH1 0xE5 SHL DUP2 MSTORE PUSH1 0x20 PUSH1 0x4 DUP3 ADD MSTORE PUSH1 0x32 PUSH1 0x24 DUP3 ADD MSTORE PUSH32 0x4552433732313A207472616E7366657220746F206E6F6E204552433732315265 PUSH1 0x44 DUP3 ADD MSTORE PUSH18 0x31B2B4BB32B91034B6B83632B6B2B73A32B9 PUSH1 0x71 SHL PUSH1 0x64 DUP3 ADD MSTORE PUSH1 0x84 ADD PUSH2 0x44E JUMP JUMPDEST PUSH1 0x1 PUSH1 0x1 PUSH1 0xA0 SHL SUB DUP3 AND PUSH2 0xFD3 JUMPI PUSH1 0x40 MLOAD PUSH3 0x461BCD PUSH1 0xE5 SHL DUP2 MSTORE PUSH1 0x20 PUSH1 0x4 DUP3 ADD DUP2 SWAP1 MSTORE PUSH1 0x24 DUP3 ADD MSTORE PUSH32 0x4552433732313A206D696E7420746F20746865207A65726F2061646472657373 PUSH1 0x44 DUP3 ADD MSTORE PUSH1 0x64 ADD PUSH2 0x44E JUMP JUMPDEST PUSH1 0x0 DUP2 DUP2 MSTORE PUSH1 0x3 PUSH1 0x20 MSTORE PUSH1 0x40 SWAP1 KECCAK256 SLOAD PUSH1 0x1 PUSH1 0x1 PUSH1 0xA0 SHL SUB AND ISZERO PUSH2 0x1038 JUMPI PUSH1 0x40 MLOAD PUSH3 0x461BCD PUSH1 0xE5 SHL DUP2 MSTORE PUSH1 0x20 PUSH1 0x4 DUP3 ADD MSTORE PUSH1 0x1C PUSH1 0x24 DUP3 ADD MSTORE PUSH32 0x4552433732313A20746F6B656E20616C7265616479206D696E74656400000000 PUSH1 0x44 DUP3 ADD MSTORE PUSH1 0x64 ADD PUSH2 0x44E JUMP JUMPDEST PUSH1 0x1 PUSH1 0x1 PUSH1 0xA0 SHL SUB DUP3 AND PUSH1 0x0 SWAP1 DUP2 MSTORE PUSH1 0x5 PUSH1 0x20 MSTORE PUSH1 0x40 DUP2 KECCAK256 DUP1 SLOAD PUSH1 0x1 SWAP3 SWAP1 PUSH2 0x1061 SWAP1 DUP5 SWAP1 PUSH2 0x14DC JUMP JUMPDEST SWAP1 SWAP2 SSTORE POP POP PUSH1 0x0 DUP2 DUP2 MSTORE PUSH1 0x3 PUSH1 0x20 MSTORE PUSH1 0x40 DUP1 DUP3 KECCAK256 DUP1 SLOAD PUSH1 0x1 PUSH1 0x1 PUSH1 0xA0 SHL SUB NOT AND PUSH1 0x1 PUSH1 0x1 PUSH1 0xA0 SHL SUB DUP7 AND SWAP1 DUP2 OR SWAP1 SWAP2 SSTORE SWAP1 MLOAD DUP4 SWAP3 SWAP1 PUSH32 0xDDF252AD1BE2C89B69C2B068FC378DAA952BA7F163C4A11628F55A4DF523B3EF SWAP1 DUP3 SWAP1 LOG4 POP POP JUMP JUMPDEST DUP3 DUP1 SLOAD PUSH2 0x10CB SWAP1 PUSH2 0x148C JUMP JUMPDEST SWAP1 PUSH1 0x0 MSTORE PUSH1 0x20 PUSH1 0x0 KECCAK256 SWAP1 PUSH1 0x1F ADD PUSH1 0x20 SWAP1 DIV DUP2 ADD SWAP3 DUP3 PUSH2 0x10ED JUMPI PUSH1 0x0 DUP6 SSTORE PUSH2 0x1133 JUMP JUMPDEST DUP3 PUSH1 0x1F LT PUSH2 0x1106 JUMPI DUP3 DUP1 ADD PUSH1 0xFF NOT DUP3 CALLDATALOAD AND OR DUP6 SSTORE PUSH2 0x1133 JUMP JUMPDEST DUP3 DUP1 ADD PUSH1 0x1 ADD DUP6 SSTORE DUP3 ISZERO PUSH2 0x1133 JUMPI SWAP2 DUP3 ADD JUMPDEST DUP3 DUP2 GT ISZERO PUSH2 0x1133 JUMPI DUP3 CALLDATALOAD DUP3 SSTORE SWAP2 PUSH1 0x20 ADD SWAP2 SWAP1 PUSH1 0x1 ADD SWAP1 PUSH2 0x1118 JUMP JUMPDEST POP PUSH2 0x113F SWAP3 SWAP2 POP PUSH2 0x1143 JUMP JUMPDEST POP SWAP1 JUMP JUMPDEST JUMPDEST DUP1 DUP3 GT ISZERO PUSH2 0x113F JUMPI PUSH1 0x0 DUP2 SSTORE PUSH1 0x1 ADD PUSH2 0x1144 JUMP JUMPDEST PUSH1 0x1 PUSH1 0x1 PUSH1 0xE0 SHL SUB NOT DUP2 AND DUP2 EQ PUSH2 0x60B JUMPI PUSH1 0x0 DUP1 REVERT JUMPDEST PUSH1 0x0 PUSH1 0x20 DUP3 DUP5 SUB SLT ISZERO PUSH2 0x1180 JUMPI PUSH1 0x0 DUP1 REVERT JUMPDEST DUP2 CALLDATALOAD PUSH2 0x118B DUP2 PUSH2 0x1158 JUMP JUMPDEST SWAP4 SWAP3 POP POP POP JUMP JUMPDEST PUSH1 0x0 DUP2 MLOAD DUP1 DUP5 MSTORE PUSH1 0x0 JUMPDEST DUP2 DUP2 LT ISZERO PUSH2 0x11B8 JUMPI PUSH1 0x20 DUP2 DUP6 ADD DUP2 ADD MLOAD DUP7 DUP4 ADD DUP3 ADD MSTORE ADD PUSH2 0x119C JUMP JUMPDEST DUP2 DUP2 GT ISZERO PUSH2 0x11CA JUMPI PUSH1 0x0 PUSH1 0x20 DUP4 DUP8 ADD ADD MSTORE JUMPDEST POP PUSH1 0x1F ADD PUSH1 0x1F NOT AND SWAP3 SWAP1 SWAP3 ADD PUSH1 0x20 ADD SWAP3 SWAP2 POP POP JUMP JUMPDEST PUSH1 0x20 DUP2 MSTORE PUSH1 0x0 PUSH2 0x118B PUSH1 0x20 DUP4 ADD DUP5 PUSH2 0x1192 JUMP JUMPDEST PUSH1 0x0 PUSH1 0x20 DUP3 DUP5 SUB SLT ISZERO PUSH2 0x1204 JUMPI PUSH1 0x0 DUP1 REVERT JUMPDEST POP CALLDATALOAD SWAP2 SWAP1 POP JUMP JUMPDEST DUP1 CALLDATALOAD PUSH1 0x1 PUSH1 0x1 PUSH1 0xA0 SHL SUB DUP2 AND DUP2 EQ PUSH2 0x1222 JUMPI PUSH1 0x0 DUP1 REVERT JUMPDEST SWAP2 SWAP1 POP JUMP JUMPDEST PUSH1 0x0 DUP1 PUSH1 0x40 DUP4 DUP6 SUB SLT ISZERO PUSH2 0x123A JUMPI PUSH1 0x0 DUP1 REVERT JUMPDEST PUSH2 0x1243 DUP4 PUSH2 0x120B JUMP JUMPDEST SWAP5 PUSH1 0x20 SWAP4 SWAP1 SWAP4 ADD CALLDATALOAD SWAP4 POP POP POP JUMP JUMPDEST PUSH4 0x4E487B71 PUSH1 0xE0 SHL PUSH1 0x0 MSTORE PUSH1 0x41 PUSH1 0x4 MSTORE PUSH1 0x24 PUSH1 0x0 REVERT JUMPDEST PUSH1 0x0 DUP1 PUSH1 0x0 DUP1 PUSH1 0x80 DUP6 DUP8 SUB SLT ISZERO PUSH2 0x127D JUMPI PUSH1 0x0 DUP1 REVERT JUMPDEST PUSH2 0x1286 DUP6 PUSH2 0x120B JUMP JUMPDEST SWAP4 POP PUSH2 0x1294 PUSH1 0x20 DUP7 ADD PUSH2 0x120B JUMP JUMPDEST SWAP3 POP PUSH1 0x40 DUP6 ADD CALLDATALOAD SWAP2 POP PUSH1 0x60 DUP6 ADD CALLDATALOAD PUSH8 0xFFFFFFFFFFFFFFFF DUP1 DUP3 GT ISZERO PUSH2 0x12B8 JUMPI PUSH1 0x0 DUP1 REVERT JUMPDEST DUP2 DUP8 ADD SWAP2 POP DUP8 PUSH1 0x1F DUP4 ADD SLT PUSH2 0x12CC JUMPI PUSH1 0x0 DUP1 REVERT JUMPDEST DUP2 CALLDATALOAD DUP2 DUP2 GT ISZERO PUSH2 0x12DE JUMPI PUSH2 0x12DE PUSH2 0x1251 JUMP JUMPDEST PUSH1 0x40 MLOAD PUSH1 0x1F DUP3 ADD PUSH1 0x1F NOT SWAP1 DUP2 AND PUSH1 0x3F ADD AND DUP2 ADD SWAP1 DUP4 DUP3 GT DUP2 DUP4 LT OR ISZERO PUSH2 0x1306 JUMPI PUSH2 0x1306 PUSH2 0x1251 JUMP JUMPDEST DUP2 PUSH1 0x40 MSTORE DUP3 DUP2 MSTORE DUP11 PUSH1 0x20 DUP5 DUP8 ADD ADD GT ISZERO PUSH2 0x131F JUMPI PUSH1 0x0 DUP1 REVERT JUMPDEST DUP3 PUSH1 0x20 DUP7 ADD PUSH1 0x20 DUP4 ADD CALLDATACOPY PUSH1 0x0 PUSH1 0x20 DUP5 DUP4 ADD ADD MSTORE DUP1 SWAP6 POP POP POP POP POP POP SWAP3 SWAP6 SWAP2 SWAP5 POP SWAP3 POP JUMP JUMPDEST PUSH1 0x0 DUP1 PUSH1 0x0 PUSH1 0x60 DUP5 DUP7 SUB SLT ISZERO PUSH2 0x1358 JUMPI PUSH1 0x0 DUP1 REVERT JUMPDEST PUSH2 0x1361 DUP5 PUSH2 0x120B JUMP JUMPDEST SWAP3 POP PUSH2 0x136F PUSH1 0x20 DUP6 ADD PUSH2 0x120B JUMP JUMPDEST SWAP2 POP PUSH1 0x40 DUP5 ADD CALLDATALOAD SWAP1 POP SWAP3 POP SWAP3 POP SWAP3 JUMP JUMPDEST PUSH1 0x0 PUSH1 0x20 DUP3 DUP5 SUB SLT ISZERO PUSH2 0x1391 JUMPI PUSH1 0x0 DUP1 REVERT JUMPDEST PUSH2 0x118B DUP3 PUSH2 0x120B JUMP JUMPDEST PUSH1 0x0 DUP1 PUSH1 0x40 DUP4 DUP6 SUB SLT ISZERO PUSH2 0x13AD JUMPI PUSH1 0x0 DUP1 REVERT JUMPDEST PUSH2 0x13B6 DUP4 PUSH2 0x120B JUMP JUMPDEST SWAP2 POP PUSH1 0x20 DUP4 ADD CALLDATALOAD DUP1 ISZERO ISZERO DUP2 EQ PUSH2 0x13CB JUMPI PUSH1 0x0 DUP1 REVERT JUMPDEST DUP1 SWAP2 POP POP SWAP3 POP SWAP3 SWAP1 POP JUMP JUMPDEST PUSH1 0x0 DUP1 PUSH1 0x0 PUSH1 0x40 DUP5 DUP7 SUB SLT ISZERO PUSH2 0x13EB JUMPI PUSH1 0x0 DUP1 REVERT JUMPDEST PUSH2 0x13F4 DUP5 PUSH2 0x120B JUMP JUMPDEST SWAP3 POP PUSH1 0x20 DUP5 ADD CALLDATALOAD PUSH8 0xFFFFFFFFFFFFFFFF DUP1 DUP3 GT ISZERO PUSH2 0x1411 JUMPI PUSH1 0x0 DUP1 REVERT JUMPDEST DUP2 DUP7 ADD SWAP2 POP DUP7 PUSH1 0x1F DUP4 ADD SLT PUSH2 0x1425 JUMPI PUSH1 0x0 DUP1 REVERT JUMPDEST DUP2 CALLDATALOAD DUP2 DUP2 GT ISZERO PUSH2 0x1434 JUMPI PUSH1 0x0 DUP1 REVERT JUMPDEST DUP8 PUSH1 0x20 DUP3 DUP6 ADD ADD GT ISZERO PUSH2 0x1446 JUMPI PUSH1 0x0 DUP1 REVERT JUMPDEST PUSH1 0x20 DUP4 ADD SWAP5 POP DUP1 SWAP4 POP POP POP POP SWAP3 POP SWAP3 POP SWAP3 JUMP JUMPDEST PUSH1 0x0 DUP1 PUSH1 0x40 DUP4 DUP6 SUB SLT ISZERO PUSH2 0x146C JUMPI PUSH1 0x0 DUP1 REVERT JUMPDEST PUSH2 0x1475 DUP4 PUSH2 0x120B JUMP JUMPDEST SWAP2 POP PUSH2 0x1483 PUSH1 0x20 DUP5 ADD PUSH2 0x120B JUMP JUMPDEST SWAP1 POP SWAP3 POP SWAP3 SWAP1 POP JUMP JUMPDEST PUSH1 0x1 DUP2 DUP2 SHR SWAP1 DUP3 AND DUP1 PUSH2 0x14A0 JUMPI PUSH1 0x7F DUP3 AND SWAP2 POP JUMPDEST PUSH1 0x20 DUP3 LT DUP2 SUB PUSH2 0x14C0 JUMPI PUSH4 0x4E487B71 PUSH1 0xE0 SHL PUSH1 0x0 MSTORE PUSH1 0x22 PUSH1 0x4 MSTORE PUSH1 0x24 PUSH1 0x0 REVERT JUMPDEST POP SWAP2 SWAP1 POP JUMP JUMPDEST PUSH4 0x4E487B71 PUSH1 0xE0 SHL PUSH1 0x0 MSTORE PUSH1 0x11 PUSH1 0x4 MSTORE PUSH1 0x24 PUSH1 0x0 REVERT JUMPDEST PUSH1 0x0 DUP3 NOT DUP3 GT ISZERO PUSH2 0x14EF JUMPI PUSH2 0x14EF PUSH2 0x14C6 JUMP JUMPDEST POP ADD SWAP1 JUMP JUMPDEST PUSH1 0x0 DUP3 DUP3 LT ISZERO PUSH2 0x1506 JUMPI PUSH2 0x1506 PUSH2 0x14C6 JUMP JUMPDEST POP SUB SWAP1 JUMP JUMPDEST PUSH1 0x0 PUSH1 0x1 PUSH1 0x1 PUSH1 0xA0 SHL SUB DUP1 DUP8 AND DUP4 MSTORE DUP1 DUP7 AND PUSH1 0x20 DUP5 ADD MSTORE POP DUP4 PUSH1 0x40 DUP4 ADD MSTORE PUSH1 0x80 PUSH1 0x60 DUP4 ADD MSTORE PUSH2 0x153D PUSH1 0x80 DUP4 ADD DUP5 PUSH2 0x1192 JUMP JUMPDEST SWAP7 SWAP6 POP POP POP POP POP POP JUMP JUMPDEST PUSH1 0x0 PUSH1 0x20 DUP3 DUP5 SUB SLT ISZERO PUSH2 0x1559 JUMPI PUSH1 0x0 DUP1 REVERT JUMPDEST DUP2 MLOAD PUSH2 0x118B DUP2 PUSH2 0x1158 JUMP INVALID LOG2 PUSH5 0x6970667358 0x22 SLT KECCAK256 RETURNDATASIZE 0x4F 0xFC 0xCE 0xDB SWAP1 DUP11 SWAP13 0xD NOT PUSH18 0xAC9C2B82D9D0784C4A04ACF21DD95EE1E38F GAS DUP2 0xFB PUSH5 0x736F6C6343 STOP ADDMOD 0xD STOP CALLER "
    },
    "gasEstimates": {
      "creation": {
        "codeDepositCost": "1106000",
        "executionCost": "infinite",
        "totalCost": "infinite"
      },
      "external": {
        "approve(address,uint256)": "infinite",
        "balanceOf(address)": "2656",
        "burn(uint256)": "77429",
        "getApproved(uint256)": "4792",
        "isApprovedForAll(address,address)": "infinite",
        "mint(address,string)": "infinite",
        "name()": "infinite",
        "nextTokenIdToMint()": "2362",
        "onERC721Received(address,address,uint256,bytes)": "infinite",
        "ownerOf(uint256)": "2577",
        "safeTransferFrom(address,address,uint256)": "infinite",
        "safeTransferFrom(address,address,uint256,bytes)": "infinite",
        "setApprovalForAll(address,bool)": "26728",
        "supportsInterface(bytes4)": "534",
        "symbol()": "infinite",
        "tokenURI(uint256)": "infinite",
        "transferFrom(address,address,uint256)": "infinite"
      },
      "internal": {
        "_afterTokenTransfer(address,address,uint256)": "infinite",
        "_approve(address,uint256)": "infinite",
        "_baseURI()": "infinite",
        "_beforeTokenTransfer(address,address,uint256)": "infinite",
        "_burn(uint256)": "infinite",
        "_checkOnERC721Received(address,address,uint256,bytes memory)": "infinite",
        "_exists(uint256)": "infinite",
        "_isApprovedOrOwner(address,uint256)": "infinite",
        "_mint(address,uint256)": "infinite",
        "_requireMinted(uint256)": "infinite",
        "_safeMint(address,uint256)": "infinite",
        "_safeMint(address,uint256,bytes memory)": "infinite",
        "_safeTransfer(address,address,uint256,bytes memory)": "infinite",
        "_setApprovalForAll(address,address,bool)": "infinite",
        "_transfer(address,address,uint256)": "infinite"
      }
    },
    "methodIdentifiers": {
      "approve(address,uint256)": "095ea7b3",
      "balanceOf(address)": "70a08231",
      "burn(uint256)": "42966c68",
      "getApproved(uint256)": "081812fc",
      "isApprovedForAll(address,address)": "e985e9c5",
      "mint(address,string)": "d0def521",
      "name()": "06fdde03",
      "nextTokenIdToMint()": "3b1475a7",
      "onERC721Received(address,address,uint256,bytes)": "150b7a02",
      "ownerOf(uint256)": "6352211e",
      "safeTransferFrom(address,address,uint256)": "42842e0e",
      "safeTransferFrom(address,address,uint256,bytes)": "b88d4fde",
      "setApprovalForAll(address,bool)": "a22cb465",
      "supportsInterface(bytes4)": "01ffc9a7",
      "symbol()": "95d89b41",
      "tokenURI(uint256)": "c87b56dd",
      "transferFrom(address,address,uint256)": "23b872dd"
    }
  },
  "storageLayout": {
    "storage": [
      {
        "astId": 3091,
        "contract": "erc721.sol:ERC721",
        "label": "_name",
        "offset": 0,
        "slot": "0",
        "type": "t_string_storage"
      },
      {
        "astId": 3093,
        "contract": "erc721.sol:ERC721",
        "label": "_symbol",
        "offset": 0,
        "slot": "1",
        "type": "t_string_storage"
      },
      {
        "astId": 3095,
        "contract": "erc721.sol:ERC721",
        "label": "nextTokenIdToMint",
        "offset": 0,
        "slot": "2",
        "type": "t_uint256"
      },
      {
        "astId": 3099,
        "contract": "erc721.sol:ERC721",
        "label": "_owners",
        "offset": 0,
        "slot": "3",
        "type": "t_mapping(t_uint256,t_address)"
      },
      {
        "astId": 3104,
        "contract": "erc721.sol:ERC721",
        "label": "uri",
        "offset": 0,
        "slot": "4",
        "type": "t_mapping(t_uint256,t_string_storage)"
      },
      {
        "astId": 3108,
        "contract": "erc721.sol:ERC721",
        "label": "_balances",
        "offset": 0,
        "slot": "5",
        "type": "t_mapping(t_address,t_uint256)"
      },
      {
        "astId": 3112,
        "contract": "erc721.sol:ERC721",
        "label": "_tokenApprovals",
        "offset": 0,
        "slot": "6",
        "type": "t_mapping(t_uint256,t_address)"
      },
      {
        "astId": 3118,
        "contract": "erc721.sol:ERC721",
        "label": "_operatorApprovals",
        "offset": 0,
        "slot": "7",
        "type": "t_mapping(t_address,t_mapping(t_address,t_bool))"
      }
    ],
    "types": {
      "t_address": {
        "encoding": "inplace",
        "label": "address",
        "numberOfBytes": "20"
      },
      "t_bool": {
        "encoding": "inplace",
        "label": "bool",
        "numberOfBytes": "1"
      },
      "t_mapping(t_address,t_bool)": {
        "encoding": "mapping",
        "key": "t_address",
        "label": "mapping(address => bool)",
        "numberOfBytes": "32",
        "value": "t_bool"
      },
      "t_mapping(t_address,t_mapping(t_address,t_bool))": {
        "encoding": "mapping",
        "key": "t_address",
        "label": "mapping(address => mapping(address => bool))",
        "numberOfBytes": "32",
        "value": "t_mapping(t_address,t_bool)"
      },
      "t_mapping(t_address,t_uint256)": {
        "encoding": "mapping",
        "key": "t_address",
        "label": "mapping(address => uint256)",
        "numberOfBytes": "32",
        "value": "t_uint256"
      },
      "t_mapping(t_uint256,t_address)": {
        "encoding": "mapping",
        "key": "t_uint256",
        "label": "mapping(uint256 => address)",
        "numberOfBytes": "32",
        "value": "t_address"
      },
      "t_mapping(t_uint256,t_string_storage)": {
        "encoding": "mapping",
        "key": "t_uint256",
        "label": "mapping(uint256 => string)",
        "numberOfBytes": "32",
        "value": "t_string_storage"
      },
      "t_string_storage": {
        "encoding": "bytes",
        "label": "string",
        "numberOfBytes": "32"
      },
      "t_uint256": {
        "encoding": "inplace",
        "label": "uint256",
        "numberOfBytes": "32"
      }
    }
  },
  "userdoc": {
    "kind": "user",
    "methods": {},
    "version": 1
  }
}